:100000000C9409120C9431120C9431120C9431128C
:100010000C9431120C9431120C9431120C94311254
:100020000C9431120C9431120C940C200C947E2000
:100030000C9431120C9431120C9431120C94311234
:100040000C9431120C9431120C9431120C94311224
:100050000C9431120C9431120C9431120C94B31391
:100060000C9431120C9431120C9431120C94311204
:100070000C9431120C9431120C9431120C943112F4
:100080000C94FD130C9431120C9431120C94311217
:100090000C9431120C9431120C9431120C943112D4
:1000A0000C9431120C9431120C943112091942192A
:1000B0008B19B719F7190A1A361AD5F08D14A1C879
:1000C00081CFD9F1AF200049204C4F564520594FE0
:1000D00055204A4553534943412100204A26532085
:1000E000464F52455645522030392E30332E313648
:1000F0002000484947482053434F52453A00204189
:100100003A43414E43454C202020002020444F5785
:100110004E3A44454C2E00504155534500F8FCFCE6
:10012000FC7878FC781C3878FCFCF850F8FCFC78FB
:10013000F8FCFC6800FCFEFFFFFFFFFFFEFC010374
:1001400001000000000000000000000000000000AE
:10015000000000000000000103030303030100216D
:100160000A00F8084830007810080030486850004D
:1001700050686800506868000000FC027A52620211
:10018000FC00000100000000000000000000000072
:10019000000000000000000000000000010101015B
:1001A000010000484947482053434F52453A005305
:1001B000434F52453A0047414D45204F5645520066
:1001C0007EFFFFFEE0FCFEFFFFC7FFFFFE7E3FFF5E
:1001D000FEFEFF3FFEFFFFFFFFB6FCFEFFFFFFFE40
:1001E000FCFDFFFFFDFFFFFCF8FCFFFFFEFCFEFF38
:1001F000FDFFFFFC030707030307070303070707C8
:1002000003030707070301030707030707031A137D
:10021000007EFEC0C0007CFE828282FE7C00063E24
:10022000F8F83E0600FEFEB6B60000FCFC0CCCFC66
:100230003000FCFC00FCFC000078FCCC0C00FCFC5A
:1002400060FCFC000003030001030300010303033F
:100250000100030303010000030300030300FCFE8D
:10026000FFFFFFFEFCFFFFFFFFFFFFFFFFFFFFFFA2
:10027000FFFFFFFFFFFFFFFFFFFFFFFFFFFFFFFF8E
:10028000FF070F1F1F1F0F07072D00F402AA02F41C
:100290000000FF00AA00FF0000FF00AA00FF00000E
:1002A000FF00AA00FF0000FF00AA00FF00000708EF
:1002B0000A080700307CFEFCF8FCFCFEFFFEFCFC9C
:1002C000F8FCFE7C3002070F0F1F3B1F0B030B1FB8
:1002D0003B1F0F0F0702307CFEFCF8FCFCFEFFFE0C
:1002E000FCFCF8FCFE7C30020F1F0B377B3703034E
:1002F00003377B370B1F0F02110F00304CE830081B
:10030000F01C861CF00830E84C3000000205000AA2
:10031000110A0101010A110A0005020000304CE82F
:100320003008F01C861CF00830E84C300000020950
:1003300000023102010101023102000902002E7F98
:100340002E7F2E003E7F3F0F3E7F7E7F3E7F7F2AA7
:100350007F7E7020002E7F2E7F2E2E7F2E7F2E0000
:100360003E7F3F0F3E7F7E7F3E7F7F2A7F7E7020D5
:10037000002E7F2E7F2E1C07002E002E0000003E38
:100380000A02003E203E003E2A003E2020000000DF
:100390002E002E00002E002E0000003E0A02003E1D
:1003A000203E003E2A003E20200000002E002E00AD
:1003B000534849454C443A0053434F52453A000094
:1003C0000000000000000000000000000000002409
:1003D0002A1200023E023C0A3C003E0A34023E025F
:1003E000000000000000000000000000000000000D
:1003F000000002070E0E070200001F041F001F006E
:100400001E1119001F041F00121509000E11110002
:100410000E110E001F051A001F15000002070E0E18
:100420000702000000000000000000040E1C1C0E6B
:10043000040000242A1200023E023C0A3C003E0A4C
:1004400034023E020000040E1C1C0E0400000000DA
:1004500000000000000000000000000000001F0479
:100460001F001F001E1119001F041F001215090094
:100470000E1111000E110E001F051A001F150000AD
:10048000000000000000000000000000000000006C
:1004900000000000000000000000008080808080DC
:1004A000808080808080808080808080800000C00C
:1004B000C0C0C040800000000000008080C0C0C0FC
:1004C000C0C0C08080000040C0C0C0C0C00000C02C
:1004D000C0C0C0C040000080C0C0C0C0C0C0C0001C
:1004E000008080808080808080808080808080808C
:1004F000808080000000000000000000000000007C
:1005000000000000000000000000000000000000EB
:1005100000000000000000000000000000000202D7
:100520000A2A2AAAAAAAAAAAAAAAAAAAAA0000FFCA
:10053000FFFFFF00FE000000F8FEFFFF0F170B0B90
:100540000B0B170FFFFFFEF801073FFFFFFEFEFF3B
:10055000FF3F0701E002FFFFFFFFF3F3F3F7F300B4
:1005600000AAAAAAAAAAAAAAAAAAAA2A2A0A020285
:10057000000000000000000000000000000000007B
:10058000000000000000000000000000000000006B
:10059000000000000000000000000000000000005B
:1005A000000000000002020A0A0A2A2A2A000007A4
:1005B0001F1F3FBEBEBF824401070F1F5FBEBCBCF2
:1005C000BCBCBE5F1F0F070100000419277F1F0777
:1005D000000000000F204F9FBFBFBCBCBC7D3C0093
:1005E000002A2A2A0A0A0A0202000000000000006B
:1005F00000000000000000000000000000000000FB
:1006000000000000000000000000000000000000EA
:100610000000008000C0008000000000000000001A
:10062000000000000000000000000000000000FECC
:10063000FEFEFE1E1E1EFEFCFCF00000FEFEFEFE88
:10064000000000FEFEFEFE000000F0F8FCFEFE1EB4
:100650001E000000FEFEFEFE808000FEFEFEFE008C
:10066000000000000000000000000000000000008A
:100670000000000000008000C000800000000000BA
:1006800000000000000000FC7880C0C0C08000486E
:1006900000FC004800FF004800FC0048000000008B
:1006A000000000000000000000000000000000FF4B
:1006B000FFFFFF001F7FFFFFFBE100003FFFFFFF89
:1006C000E0E0E0FFFF7F3F0000F0E1E7FFFFFF7F9A
:1006D0003E000000FFFFFFFF070700FFFFFFFF00D6
:1006E000000000000000000000000000000000000A
:1006F00000004800FC004800FF004800FC004800E3
:1007000080C0C0C08078FCFFFEFFFFFFDFEFC03F6E
:1007100000DF808AC0EFC08A80DF003F0000000059
:1007200000000000000000000000000000000001C8
:100730000505050403000105050505040200000187
:100740000505050504020000000105050505040274
:10075000000000000105050504020001050505046F
:100760000200000000000000000000000000000087
:1007700000003F00DF808AC0EFC08A80DF003FC0FA
:10078000EFDFFFFFFFFEFFFFFFFFFFFFAB548278AD
:100790006FDDF0BA2D272DBAF0DD6F780000000074
:1007A0000000000000000000000000000000000049
:1007B0000000000000000000000000000000000039
:1007C0000000000000000000000000000000000029
:1007D0000000000000000000000000000000000019
:1007E0000000000000000000000000000000000009
:1007F0000000786FDDF0BA2D272DBAF0DD6F780795
:10080000AFFFFFFFFFFFFFFFFFFFFFFFFFFFFEFD4B
:10081000FAF4E9F5EBF3FBFDFDCEE0F0F8F8F8F8BB
:10082000F0E0C00000000000000000000000000038
:1008300000000000000000000000000000000000B8
:1008400000000000000000000000000000000000A8
:100850000000000000000000000000000000000098
:100860000000000000000000000000C0E0F0F8F808
:10087000F8F8F0E0CEFDFDF3EBF3E9F5EAF5FAFD6B
:10088000FEFFFFFFFFFFFF70F8FCFEFFFFFFFEFE15
:10089000FFFFFFFEFCF87000000103070F1F3F3F42
:1008A0001F0F0703010000000000F8FCFEFFFEFE22
:1008B000FFFEFCF800000000000001070F1F3F3F93
:1008C0001F0F07030000000000000000FCFEFFFFF8
:1008D000FEFC000000000000000000000F1F3F3F72
:1008E0001F0F0000000000000000F8FCFEFFFEFEED
:1008F000FFFEFCF800000000000003070F1F3F3F51
:100900001F0F070100000070F8FCFEFFFFFFFEFE56
:10091000FFFFFFFEFCF87000000103070F1F3F3FC1
:100920001F0F0703010000100E00708874DAAA4A36
:1009300094140A0A8A748870000000000102050BF2
:1009400016150A05020100000000000000F804026C
:100950000404FA04F8000000000000000001060C86
:1009600018140B040300000000000000000000FC4D
:10097000C2C2FC0000000000000000000000000FE8
:100980001A1A0F00000000000000000000F804FA2E
:1009900004040204F8000000000000000003040B3F
:1009A00014180C06010000000000708874DAAA4ACE
:1009B00094140A0A8A748870000000000102050B72
:1009C00016150A0502010000004F5054494D4953C5
:1009D0004544000080C0E0F0F8FCFEFEFFFFFFFF92
:1009E000FFFFFFFEFEFCF8F0E0C08000FEFFFFFF0F
:1009F000FFFFFFFFFFFFFFFFFFFFFFFFFFFFFFFF07
:100A0000FFFFFFFFFE0003070F1FFFFFFFFFFFFFBA
:100A1000FFFFFFFFFFFFFFFFFF1F0F0703000000A7
:100A20000000000F1F3F3F3F3F3F3F3F3F3F3F3FE3
:100A30001F0F00000000003E7F3F1F3E7F3E7830CA
:100A4000387C78387C3C18387C7878FC7C3810000E
:100A500019280080402090C8E4F2F2F9F9F9F9F978
:100A6000F9F9F2F2E4C89020408000FE0100FEFF98
:100A7000010000000001FFFFFF010000000001FF76
:100A8000FE0001FE0003040813E70E0EFEFE1FFF2A
:100A9000FFFF1FFEFE0E0EE7130804030000000018
:100AA00000000F1020272720272727202727201086
:100AB0000F0000000000003E0A0E003E083000104B
:100AC0002830003808001028300078281000000076
:100AD00080402090C8E4F2F2F9F9F9F9F9F9F9F255
:100AE000F2E4C89020408000FE0100FEFFCFCFCF8F
:100AF000CFCFCFFFFFFFCFCFCFCFCFCFFFFE0001B4
:100B0000FE0003040813E70F0FFFFF1FFFFFFF1F87
:100B1000FFFF0F0FE7130804030000000000000FA1
:100B2000102027272027272720272720100F000005
:100B3000000000003E0A0E003E0830001028300081
:100B4000380800102830007828100000000000004D
:100B50000000000000000000000000000000000095
:100B60000000000000000000000000000000000085
:100B70000000000000000000000000000000000075
:100B80000000000000000000000000000000000065
:100B90000000000000000000000000000000000055
:100BA0000000000000000000000000000000000045
:100BB0000000000000000000000000000000000035
:100BC0000000000000000000000000000000000025
:100BD0000000000000000000000000000000000015
:100BE0000000000000000000000000000000000005
:100BF0000000000000000000000000808080808075
:100C00008000000000808080808080808000000064
:100C100000000000000000000000000000000000D4
:100C200000000000000000000000000000000000C4
:100C300000000000000000000000000000000000B4
:100C400000000000000000000000000000000000A4
:100C50000000000000000000000000000000000094
:100C60000000000000000000000000000000000084
:100C70000000000000000000020A2AA8A38F3FFF26
:100C8000FFFEF08000FFFFFFFFFFFFFF07000000F7
:100C900000000080808080C0C00080000000000054
:100CA0000000000000000000000000000000000044
:100CB0000000000000000000000000000000000034
:100CC0000000000000000000000000000000000024
:100CD0000000000000000000000000000000000014
:100CE0000000000000000000000000000000000004
:100CF000000000000000000000000000020A0A28B6
:100D0000A3871F7FFCFFFFFFFFFF7F01F0F8FCFEC2
:100D100006A30B07073F0F23080200000000000096
:100D200000000000000000000000000000000000C3
:100D300000000000000000000000000000000000B3
:100D400000000000000000000000000000000000A3
:100D50000000000000000000000000000000000093
:100D60000000000000000000000000000000000083
:100D70000000000000000000000000000000000073
:100D800000020A28A1871F7FFF1F0080F1F3F36391
:100D90006322B21E202800000000000000000000B6
:100DA0000000000000000000000000000000000043
:100DB0000000000000000000000000000000000033
:100DC0000000000000000000000000000000000023
:100DD0000000000000000000000000000000000013
:100DE0000000000000000000000000000000000003
:100DF00000000000000000000000000000000008EB
:100E00000808C808884A8A48480888498908CA489A
:100E10000948C84808080800000000000000000059
:100E200000000000000000000000000000000000C2
:100E300000000000000000000000000000000000B2
:100E400000000000000000000000000000000000A2
:100E50000000000000000000000000000000000092
:100E60000000000000000000000000000000000082
:100E70000000000000000000000000000000000072
:100E8000000000030000020303000102010003014F
:100E9000000003000000000000000000000000004F
:100EA0000000000000000000000000000000000042
:100EB0000000000000000000000000000000000032
:100EC0000000000000000000000000000000000022
:100ED0000000000000000000000000000000000012
:100EE0000000000000000000000000000000000002
:100EF00000000000000000000000000000000000F2
:100F000000000000000000000000000000000000E1
:100F100000000000000000000000000000000000D1
:100F200000000000000000000000000000000000C1
:100F300000000000000000000000000000000000B1
:100F4000000000000000000000000000163F162016
:100F500070F87CFEFFFEFFFFFFFFFFFFFEFFFE7C41
:100F6000F8702000000000070F1F1F1F1F1F1F1F0A
:100F70001F0F07000000000C1E3E3FFFFFFEFFFF9B
:100F8000FFFFFFFFFEFFFF3F3E1E0C0000000007BB
:100F90000F1F1F1F1F1F1F1F1F0F07000000002014
:100FA00070F87CFEFFFEFFFFFFFFFFFFFEFFFE7CF1
:100FB000F8702000000000070F1F1F1F1F1F1F1FBA
:100FC0001F0F07000000000C1E3E3FFFFFFEFFFF4B
:100FD000FFFFFFFFFEFFFF3F3E1E0C00000000076B
:100FE0000F1F1F1F1F1F1F1F1F0F070000000000E4
:100FF00000002070F87020000000000000000000D9
:1010000000000000000000A8FCF8FCF8FCA80000AC
:1010100000000001000100010000000024FE74AC8B
:10102000DEAC74FE24000001030101030101030191
:101030000022777220020702207277220207020044
:1010400002070200020702227772200207022072C2
:101050007722020702000207020002070240E0E0D6
:10106000F0E4EEFEFFFEEEE4F0E0E040FAFFFFFF0A
:10107000FFFF7FFF7FFFFFFFFFFFFAC1FFFFFFFEC4
:10108000FEFFFFFFFEFEFFFFFFC10307070F1F1F4D
:101090003F3F3F1F1F0F07070320F0E8FC28F0FE2B
:1010A000FFFEF028FC28F020F9FFF96E297FFFFFF2
:1010B000FF7F296EF9FFF9C0F9FEFFFEFEFFFFFF7B
:1010C000FEFEFFFEF9C00307070F1F1F3F3F3F1F34
:1010D0001F0F07070370F8FCFEFFFFFFFEFEFFFF78
:1010E000FFFEFCF87000000103070F1F3F3F1F0FBA
:1010F000070301000070F8FCFEFFFFFFFEFEFFFF8C
:10110000FFFEFCF87000000103070F1F3F3F1F0F99
:10111000070301000070F8FCFEFFFFFFFEFEFFFF6B
:10112000FFFEFCF87000000103070F1F3F3F1F0F79
:10113000070301000070F8FCFEFFFFFFFEFEFFFF4B
:10114000FFFEFCF87000000103070F1F3F3F1F0F59
:1011500007030100000306001600140D2050A854D8
:10116000BA1DFA05F505050505FA1DBA54A8502063
:1011700000000000070817141515151514170807A7
:10118000000000000C122A2DDD1DFA05F5050505ED
:1011900005FA1DDD2D2A120C0000000007081714A7
:1011A000151515151417080700000000140D205020
:1011B000A854BA1DFA05F555551505FA1DBA54A8D7
:1011C00050200000000007081714151414141417F9
:1011D0000807000000000C122A2DDD1DFA05F55548
:1011E000551505FA1DDD2D2A120C00000000070818
:1011F00017141514141414170807000000000B0B23
:10120000000000002070200000000000000000002E
:10121000000000000000000000A820D820A8000066
:10122000000000000000000000000000000024207A
:10123000008C0020240000000001000001000001DB
:101240000000002220000002000020220000020016
:101250000000020000000200002220000002000046
:1012600020220000020000000200000002000F1E09
:10127000004000E0004400FE004400E000400000A8
:10128000FA00FF0052007F005200FF00FA0000C188
:1012900078EE84D46E3F6ED484EE78C100000303F0
:1012A000060B0D1D1D1D0D0B06030300002000E89D
:1012B000002000FE002000E800200000F9006E0081
:1012C00029007F0029006E00F90000C078EE84D468
:1012D0006E3F6ED484EE78C000000303060B091540
:1012E0001515090B06030300100E0070E8B4BAEEE2
:1012F00006FC0CF60EFA748870000000000102076C
:101300000C17160D0603010000000070E8B4BAEED9
:1013100006FC0CF60EFA748870000000000102074B
:101320000C17160D0603010000000070E8B4BAEEB9
:1013300006FC0CF60EFA748870000000000102072B
:101340000C17160D0603010000000070E8B4BAEE99
:1013500006FC0CF60EFA748870000000000102070B
:101360000C17160D060301000000804055AA55AA6F
:1013700055AA55AA55AA55AA55AA55AA55AA55AA75
:1013800055AA55AA55AA55A852A508F00000000074
:10139000000000000000000000000000000000004D
:1013A000000000000000000000000000000000003D
:1013B000000000000000000000000000000000002D
:1013C00000000000000000000000000000F00BA47E
:1013D00051AA55AA55AA55AA55AA55AA55AA55AA19
:1013E00055AA55AA55AA55AA55AA55AA55AA55AA05
:1013F00055AA55AA55AA55AA55AA55AA55AA55AAF5
:1014000055AA55AA55AA55AA017C820100000000E0
:1014100000000000000002000000000000000000CA
:1014200000080000000000000000000000000000B4
:1014300000000000000000000000000000000000AC
:1014400000100000000000020020000000C12E90EB
:1014500045AA55AA55AA55AA55AA55AA55AA55AAA4
:1014600055AA55AA55AA55AA55AA55AA55AA55AA84
:1014700055AA55AA55AA55AA55AA55AA55AA55AA74
:1014800055AA55AA55AA5582394483000000000088
:101490002000000000010000000000000000000823
:1014A000000000000000000000000000000000003C
:1014B00000000040000001000000000000000001EA
:1014C000000000000400000000000000000708F217
:1014D00005AA55AA55AA55AA55AA55AA55AA55AA64
:1014E00055AA55AA55AA55AA55AA55AA55AA55AA04
:1014F00055AA55AA55AA55AA55AA55AA55AA55AAF4
:1015000055AA55AA55AA55A24914E30000000000A7
:10151000000000000000000000000080000000004B
:1015200000000000000000000000000000000000BB
:1015300000000000000000000000010000000000AA
:1015400000000004000000000000000000C0388718
:1015500050AA55AA55AA55AA55AA55AA55AA55AA98
:1015600055AA55AA55AA55AA55AA55AA55AA55AA83
:1015700055AA55AA55AA55AA55AA55AA55AA55AA73
:1015800055AA55AA55AA550AE11C030000000000FF
:10159000000000000000000000000000000000004B
:1015A000000000000000000000002000000000001B
:1015B00080000000000000000000000000000000AB
:1015C00080000000000000000000000000C728921A
:1015D00045AA55AA55AA55AA55AA55AA55AA55AA23
:1015E00055AA55AA55AA55AA55AA55AA55AA55AA03
:1015F00055AA55AA55AA55AA55AA55AA55AA55AAF3
:1016000055AA55AA55AA55A04F10E00000000000A9
:1016100000000400000000000000000000000000C6
:1016200000000000000000000000000000000000BA
:1016300000000000080000000000000000000000A2
:1016400000000000000000000000000000C1229C1B
:1016500041AA55AA55AA55AA55AA55AA55AA55AAA6
:1016600055AA55AA55AA55AA55AA55AA55AA55AA82
:1016700055AA55AA55AA55AA55AA55AA55AA55AA72
:1016800055AA55AA55AA55A2097483000000000066
:1016900000000000080000000040000004000000FE
:1016A000000000000000000000000000000000003A
:1016B0000000000000000002000000000000000028
:1016C00000000000000020000000000080413E807B
:1016D00055AA55AA55AA55AA55AA55AA55AA55AA12
:1016E00055AA55AA55AA55AA55AA55AA55AA55AA02
:1016F00055AA55AA55AA55AA55AA55AA55AA55AAF2
:1017000055AA55AA55AA558A25D00F0000000000F9
:1017100000000000000000100000000000000000B9
:1017200000000000000000000000000000000000B9
:1017300000000000000002000000000000000000A7
:101740000000001000000000000000000F10A54A7B
:1017500015AA55AA55AA55AA55AA55AA55AA55AAD1
:1017600055AA55AA55AA55AA55AA55AA000000007F
:101770000080E7FFFFFFFFFFFFFFFFFFFFFFFFFF0F
:10178000FFFFFFFFFF0080C0E0F7FFFFFFFFFFFF4D
:10179000FFFFFFFFFFFFFFFFFFFFFFFFFFFF000750
:1017A0000F1F3F7FFFFFFFFFFFFFFFFFFFFFFFFF59
:1017B000FFFFFFFFFFFFFF0000F0FCFEFFFFFFFF4A
:1017C000FFFFFFFFFFFFFFFFFFFFFFFFFFFFFFFF29
:1017D00000001F7FFFFFFFFFFFFFFFFFFFFFFFFF77
:1017E000FFFFFFFFFFFFFFFFFF000000E0F1FBFF37
:1017F000FFFFFFFFFFFFFFFFFFFFFFFFFFFFFFFFF9
:10180000FFFF0000000001E3F7FFFFFFFFFFFFFF06
:10181000FFFFFFFFFFFFFFFFFFFFFF0000000000D3
:101820000187DFFFFFFFFFFFFFFFFFFFFFFFFFFF5E
:10183000FFFFFFFF194000000000000080E7FBFDF4
:10184000FDFEFEFFFFFFFFFFFFFFFFFFFFFFFF00AB
:101850000080C0E0F7FBFBFFFFFFFFFFFFFFFFFF84
:10186000FFFFFFFFFFFFFFFF0000070F1F3F7FBFCE
:10187000BFFFFFFFFFFFFFFFFFFFFFFFFFFFFFFFB8
:10188000FF000000F0FCFEFFFFFFFFFFFFFFFFFF78
:10189000FFFFFFFFFFFFFFFFFFFF0000001F7FFFB5
:1018A000FFFFFFFFFFFFFFFFFFFFFFFFFFFFFFFF48
:1018B000FFFFFF00000000E0F1FBF7F7EFFFFFFF85
:1018C000FFFFFFFFFFFFFFFFFFFFFFFF0000000024
:1018D0000001E3F3FDFFFFFFFFFFFFFFFFFFFFFF3F
:1018E000FFFFFFFFFF0000000000000187DFBFBF18
:1018F0007F7FFFFFFFFFFFFFFFFFFFFFFFFFFFFFF8
:10190000FFFFFFFFFFFFFFFFFFFFFFFFFFFFFFFBEB
:10191000E1800000000000FFFFFFFFFFFFFFFFFF6F
:10192000FFFFFFFFFFFFFFFFFFEFC780000000008A
:10193000FFFFFFFFFFFFFFFFFFFFFFFFFFFFFFFFB7
:10194000FFFFFFDF8F07000000FFFFFFFFFFFFFF2C
:10195000FFFFFFFFFFFFFFFFFFFFFFFFFFFFFEF89F
:101960000000FFFFFFFFFFFFFFFFFFFFFFFFFFFF85
:10197000FFFFFFFFFFFF7F3F0F0000FFFFFFFFFFA5
:10198000FFFFFFFFFFFFFFFFFFFFFFFFFFFFFEFC6B
:10199000F8F0E000FFFFFFFFFFFFFFFFFFFFFFFF8B
:1019A000FFFFFFFFFFFFFFFFEF07030100FFFFFF48
:1019B000FFFFFFFFFFFFFFFFFFFFFFFFFFFFFFE74F
:1019C0000100000000001940FFFFFFFFFFFFFFFFC5
:1019D000FFFFFFFFFEFEFDFDFBE1800000000000B9
:1019E00000FFFFFFFFFFFFFFFFFFFFFFFFFFFFFF06
:1019F000FFBFCFC7800000000000FFFFFFFFFFFF19
:101A0000FFFFFFFFFFFFFFFFFFF7EFEFDF8F070095
:101A1000000000FFFFFFFFFFFFFFFFFFFFFFFFFFD3
:101A2000FFFFFFFFFFFFFFFEF8000000FFFFFFFFCB
:101A3000FFFFFFFFFFFFFFFFFFFFFFFFFFFFFF7F36
:101A40003F0F000000FFFFFFFFFFFFFFFFFFFFFF53
:101A5000FFFFFFFFFFFDFDFEFCF8F0E00000FFFFD1
:101A6000FFFFFFFFFFFFFFFFFFFFFFFFFFFFFFDFA6
:101A7000DFEF0703010000FFFFFFFFFFFFFFFFFF96
:101A8000FFFFFF7F7FBFBFDFE70100000000000016
:101A9000804055AA55AA55AA55AA55AA55AA55AA8D
:101AA00055AA55AA55AA55AA55AA55AA55A852A548
:101AB00008F000000000200000000000000000000E
:101AC00000000000000020000000000000000000F6
:101AD00000280000000000000000E00000000000FE
:101AE000000000000000E80000000000000000000E
:101AF000000000F00BA451AA55AA55AA55AA55AA50
:101B000055AA55AA55AA55AA55AA55AA55AA55AADD
:101B100055AA55AA55AA55AA55AA55AA55AA55AACD
:101B200055AA55AA55AA55AA55AA55AA55AA017C3F
:101B3000820100000000FF00000000900000000093
:101B4000000000000000FF0000000000F0000000A6
:101B500000008000000000000000FF000000000006
:101B600000F8000000000F00000000000000FD0071
:101B7000000000C12E9045AA55AA55AA55AA55AAFB
:101B800055AA55AA55AA55AA55AA55AA55AA55AA5D
:101B900055AA55AA55AA55AA55AA55AA55AA55AA4D
:101BA00055AA55AA55AA55AA55AA55AA55823944E7
:101BB0008300000000000100000000FC00000000A5
:101BC00000E000000000040000000000FF00000032
:101BD00000004B00000000000000C40000000000F6
:101BE000007F0000000000000000000000008900ED
:101BF0000000000708F205AA55AA55AA55AA55AA39
:101C000055AA55AA55AA55AA55AA55AA55AA55AADC
:101C100055AA55AA55AA55AA55AA55AA55AA55AACC
:101C200055AA55AA55AA55AA55AA55AA55A2491466
:101C3000E30000FE00000000800000010000000042
:101C4000000A000000000000000000004700000043
:101C5000000000000000000000001F000000000065
:101C6000000200002000000000FF00000000000053
:101C7000000000C0388750AA55AA55AA55AA55AAEF
:101C800055AA55AA55AA55AA55AA55AA55AA55AA5C
:101C900055AA55AA55AA55AA55AA55AA55AA55AA4C
:101CA00055AA55AA55AA55AA55AA55AA550AE11CDE
:101CB0000300004900000000FF00000000000000D9
:101CC0000000000000800000000000000000000094
:101CD000000000FF00000000000000040000000001
:101CE000000000000F000000009F00000000000046
:101CF000000000C7289245AA55AA55AA55AA55AA78
:101D000055AA55AA55AA55AA55AA55AA55AA55AADB
:101D100055AA55AA55AA55AA55AA55AA55AA55AACB
:101D200055AA55AA55AA55AA55AA55AA55A04F1065
:101D3000E000000000000000A30000000000000020
:101D40000000000000BF0000000000000000E400F0
:101D500000000027000000000000E000000000007C
:101D600000FC000000000000007C0000000000FFFC
:101D7000000000C1229C41AA55AA55AA55AA55AAFD
:101D800055AA55AA55AA55AA55AA55AA55AA55AA5B
:101D900055AA55AA55AA55AA55AA55AA55AA55AA4B
:101DA00055AA55AA55AA55AA55AA55AA55A20974C5
:101DB000830000000000000000000000000000F8A8
:101DC0000000000000F800000000000000004F00CC
:101DD00000000001000000000000FF000000000003
:101DE0000027000000000080000000000000002329
:101DF000000080413E8055AA55AA55AA55AA55AA69
:101E000055AA55AA55AA55AA55AA55AA55AA55AADA
:101E100055AA55AA55AA55AA55AA55AA55AA55AACA
:101E200055AA55AA55AA55AA55AA55AA558A25D0E4
:101E30000F000000007E0000000000000000000411
:101E40000000000000100000000000000000000082
:101E5000000000000000000000001400000000006E
:101E6000000000000000000F000000000000000E55
:101E700000000F10A54A15AA55AA55AA55AA55AA99
:101E800055AA55AA55AA55AA55AA55AA55AA55AA5A
:101E900055AA010204081020408000000000003E06
:101EA0005B4F5B3E3E6B4F6B3E1C3E7C3E1C183CCA
:101EB0007E3C181C577D571C1C5E7F5E1C00183C26
:101EC0001800FFE7C3E7FF0018241800FFE7DBE76F
:101ED000FF30483A060E2629792926407F05050756
:101EE000407F05253F5A3CE73C5A7F3E1C1C0808B2
:101EF0001C1C3E7F14227F22145F5F005F5F060977
:101F00007F017F006689956A606060606094A2FFCF
:101F1000A29408047E040810207E201008082A1CC1
:101F200008081C2A08081E101010100C1E0C1E0C8D
:101F300030383E3830060E3E0E060000000000002D
:101F4000005F00000007000700147F147F14242A9C
:101F50007F2A12231308646236495620500008076E
:101F60000300001C2241000041221C002A1C7F1C8F
:101F70002A08083E08080080703000080808080891
:101F8000000060600020100804023E5149453E00F8
:101F9000427F400072494949462141494D33181456
:101FA000127F1027454545393C4A494931412111A5
:101FB00009073649494936464949291E0000140097
:101FC00000004034000000081422411414141414BA
:101FD000004122140802015909063E415D594E7C18
:101FE0001211127C7F494949363E414141227F41CD
:101FF00041413E7F494949417F090909013E41412B
:1020000051737F0808087F00417F41002040413F15
:10201000017F081422417F404040407F021C027F24
:102020007F0408107F3E4141413E7F090909063E79
:102030004151215E7F091929462649494932030148
:102040007F01033F4040403F1F2040201F3F40385A
:10205000403F631408146303047804036159494D35
:1020600043007F4141410204081020004141417F6B
:1020700004020102044040404040000307080020E1
:10208000545478407F2844443838444444283844E1
:1020900044287F385454541800087E090218A4A418
:1020A0009C787F0804047800447D40002040403D37
:1020B000007F1028440000417F40007C04780478B1
:1020C0007C080404783844444438FC182424181844
:1020D000242418FC7C0804040848545454240404A0
:1020E0003F44243C4040207C1C2040201C3C40308D
:1020F000403C44281028444C9090907C4464544CBC
:102100004400083641000000770000004136080016
:1021100002010204023C2623263C1EA1A161123AC0
:102120004040207A3854545559215555794121540D
:10213000547841215554784020545579400C1E5212
:1021400072123955555559395454545939555454B6
:10215000580000457C410002457D420001457C401D
:10216000F0292429F0F0282528F07C54554500203A
:1021700054547C547C0A097F4932494949323248D7
:10218000484832324A4848303A4141217A3A42403E
:102190002078009DA0A07D39444444393D40404012
:1021A0003D3C24FF2424487E4943662B2FFC2F2BE3
:1021B000FF0929F620C0887E090320545479410084
:1021C00000447D413048484A32384040227A007A03
:1021D0000A0A727D0D19317D2629292F28262929E1
:1021E000292630484D402038080808080808080803
:1021F000382F10C8ACBA2F102834FA00007B00002A
:1022000008142A142222142A14089500220095AAE0
:10221000005500AAAA55AA55AA000000FF001010F8
:1022200010FF00141414FF001010FF00FF1010F036
:1022300010F0141414FC001414F700FF0000FF0049
:10224000FF1414F404FC141417101F10101F101F97
:102250001414141F00101010F0000000001F1010C4
:1022600010101F10101010F010000000FF101010C0
:10227000101010101010FF10000000FF140000FFDD
:1022800000FF00001F10170000FC04F414141710C6
:10229000171414F404F40000FF00F71414141414B9
:1022A0001414F700F7141414171410101F101F142F
:1022B0001414F4141010F010F000001F101F000090
:1022C000001F14000000FC140000F010F01010FFBC
:1022D00010FF141414FF141010101F00000000F061
:1022E00010FFFFFFFFFFF0F0F0F0F0FFFFFF000036
:1022F000000000FFFF0F0F0F0F0F38444438447CDD
:102300002A2A3E147E02020606027E027E026355DF
:102310004941633844443C04407E201E2006027E2E
:10232000020299A5E7A5991C2A492A1C4C72017240
:102330004C304A4D4D303048784830BC625A463DAA
:102340003E494949007E0101017E2A2A2A2A2A445F
:10235000445F444440514A444040444A5140000094
:10236000FF0103E080FF000008086B6B083612369F
:102370002436060F090F0600001818000000101080
:10238000003040FF0101001F01011E00191D17123E
:10239000003C3C3C3C0000000000080B0002020234
:1023A00001000904000001020200000524001001E0
:1023B0000524010101042402060524060001070585
:1023C000810310004009040100020A000000070513
:1023D00002024000000705830240000004030904D4
:1023E00012010002EF020140412336800001010288
:1023F000030141726475696E6F204C4C4300417259
:102400006475696E6F204C656F6E6172646F000059
:102410001C2F11241FBECFEFDAE0DEBFCDBF11E0CD
:10242000A0E0B1E0ECE4F1E602C005900D92AE351B
:10243000B107D9F726E0AEE5B1E001C01D92A73B98
:10244000B207E1F712E1C9E0D2E104C02197FE0131
:102450000E949930C830D107C9F70E94AE220C946F
:10246000A4300C940000CF92DF92EF92FF920F9372
:102470001F93CF93DF936C017A018B01C0E0D0E012
:10248000CE15DF0589F0D8016D918D01D601ED9152
:10249000FC910190F081E02DC6010995892B11F482
:1024A0007E0102C02196ECCFC701DF91CF911F9131
:1024B0000F91FF90EF90DF90CF90089580918E0163
:1024C000E0918C01F0918D01882349F0CF010296B3
:1024D00090938D0180938C01859194910895CF0103
:1024E000029690938D0180938C0180819181089553
:1024F000CF92DF92EF92FF920F931F93CF93DF93D0
:102500000E945E12811520E8920761F480917100AB
:102510008D7F809371001092910046984798109299
:102520008B018BC021E020938B01813020E8920742
:1025300051F48091890190918A0190938D0180934B
:102540008C010E945E1297FD05C020918801222314
:1025500009F43FC02091870121113BC021E0209365
:102560008F01EC01DF77209769F481E0809390017F
:1025700046983FE9C32E3FE0D32EE12CF12CCAEF61
:10258000D0E014C08E0120E030E060E472E48FE01F
:1025900090E0A90198010E94163069017A0181E05A
:1025A000C81AD108E108F10810929001E091AE0537
:1025B000F091AF050995811103C081E080939001EE
:1025C00080918F018823B9F180919001811133C0EE
:1025D00003C010928F01C5CF46992DC0479A0E9423
:1025E0005E12009771F09C01DE010E946A30DC01EE
:1025F000CB0129E0B595A795979587952A95D1F7B1
:1026000003C08FEF9FEFDC01109290002AE020932F
:102610009100D0929900C09298008093910190937C
:102620009201A0939301B093940180917100826014
:102630008093710002C04798D2CFDF91CF911F9154
:102640000F91FF90EF90DF90CF90089580915E0101
:1026500008950895089580E090E008950E949F30C5
:10266000CF93DF9300D000D0CDB7DEB761157105F1
:102670008105910579F09B01AC0169833A834B8315
:102680005C830E94F22F29813A814B815C810E94F8
:10269000163003C060E070E0CB010F900F900F90F8
:1026A0000F90DF91CF9108953FB7F89480919601F4
:1026B00090919701A0919801B091990126B5A89B9E
:1026C00005C02F3F19F00196A11DB11D3FBFBA2FC4
:1026D000A92F982F8827820F911DA11DB11DBC0124
:1026E000CD0142E0660F771F881F991F4A95D1F7E9
:1026F00008958F929F92AF92BF92CF92DF92EF9206
:10270000FF926B017C010E9454134B015C01C114C8
:10271000D104E104F104F1F00E945413DC01CB0177
:1027200088199909AA09BB09883E9340A105B105FA
:1027300070F321E0C21AD108E108F10888EE880E92
:1027400083E0981EA11CB11CC114D104E104F10462
:1027500019F7DDCFFF90EF90DF90CF90BF90AF9053
:102760009F908F9008951F920F920FB60F92112491
:102770002F933F938F939F93AF93BF9380915F016C
:1027800090916001A0916101B09162013091950139
:1027900023E0230F2D3720F40196A11DB11D05C0A4
:1027A00026E8230F0296A11DB11D20939501809369
:1027B0005F0190936001A0936101B09362018091E9
:1027C000960190919701A0919801B091990101967D
:1027D000A11DB11D8093960190939701A09398013C
:1027E000B0939901BF91AF919F918F913F912F919C
:1027F0000F900FBE0F901F9018951F920F920FB65B
:102800000F9211242F933F934F935F936F937F9376
:102810008F939F93AF93BF93EF93FF938091910119
:1028200090919201A0919301B0919401892B8A2BF0
:102830008B2B81F18091900181110BC098B180E4C4
:10284000892788B980918F01882319F088B1805831
:1028500088B98091910190919201A0919301B091DA
:102860009401181619061A061B06B4F480919101FA
:1028700090919201A0919301B09194010197A109C7
:10288000B1098093910190939201A0939301B09329
:10289000940102C00E947812FF91EF91BF91AF9115
:1028A0009F918F917F916F915F914F913F912F9168
:1028B0000F900FBE0F901F901895EF92FF920F93FD
:1028C0001F93DC01E1E7F0E090819D7F90831092FF
:1028D0008E01E0EAF5E0F0938D01E0938C01F09336
:1028E0008A01E0938901B183A08373836283558356
:1028F00044833783268311870087F386E2861F91FE
:102900000F91FF90EF900C9478124F925F926F921C
:102910007F928F929F92AF92BF92CF92DF92EF926F
:10292000FF920F931F93CF93DF9300D000D0CDB7CA
:10293000DEB7DC015B014115510509F4F3C0FA0172
:102940008490319694914E5F5F4FC82CD12C011129
:1029500002C0EE2039F1692F669566956695E62FDF
:10296000F0E061E070E0892F877011F460E070E0C2
:102970006E0F7F1FC69EF001C79EF00DD69EF00D14
:1029800011242115310539F0EE9EB001EF9E700D36
:102990001124260F371F0E9FB0010F9F700D1124B9
:1029A000460F571FFD01EC0DFD1D1E161F060CF0F6
:1029B000B9C0A038B1050CF0B5C0B501690F711DE3
:1029C000161617060CF0AEC060E4A616B1040CF0A3
:1029D000A9C04115510509F4A5C07A2D7770572E6D
:1029E0008501B7FE02C0095F1F4F83E0159507956B
:1029F0008A95E1F7802FB7FE04C0552011F08FEFC4
:102A0000800FB7FF05C0002711270A1B1B0B02C050
:102A100000E010E0E038F10524F060E86A1B462E83
:102A200001C0482C401AE82E082E000CFF088F3FEA
:102A30001CF4FE2DF09501C0F0E0E1E0692F677015
:102A400009F4E0E09695969596959E0FE90EF11C97
:102A500079E0E716F10414F098E0981B9F2E980E89
:102A6000692D70E86703A00DB11D1124A00FB11FDF
:102A70007801F89DE00CF11C11244E0D5F1D01E062
:102A800010E0052C02C0000F111F0A94E2F72E0D72
:102A90003F1D882E890E981409F444C0CD0180563C
:102AA0009E4F5C01E12CF12CE414A0F5F901EE0D30
:102AB000FF1DE491E09FC001E19F900D11248095DE
:102AC00090959C838B83FA01EE0DFF1DE491E09FAE
:102AD0003001E19F700C11247A82698297FC05C055
:102AE000F50190818923682A6082552061F0F6E023
:102AF000F9154CF0F501E058FF4F90818C81892346
:102B00009A81892B80836FEFE61AF60A7FEFA71A66
:102B1000B70ACACF93944C0D5D1D2C0D3D1DA058D6
:102B2000BF4FB9CF0F900F900F900F90DF91CF91C3
:102B30001F910F91FF90EF90DF90CF90BF90AF90DB
:102B40009F908F907F906F905F904F9008952D9AF7
:102B50000895BC0180E090E00C9479138FB18095CA
:102B6000807F669B88601C9B846008955C988EBD06
:102B700000000DB407FEFDCF5C9A08956038710522
:102B8000D0F440345105B8F4E2E9FEE180E1849FDD
:102B9000D001A0781124A60F4770E40FF11D849195
:102BA000A056BE4F222319F06C91862B03C080954E
:102BB0006C9186238C9308952F923F924F925F924F
:102BC0006F927F928F929F92AF92BF92CF92DF923D
:102BD000EF92FF920F931F93CF93DF93CDB7DEB7A2
:102BE00029970FB6F894DEBF0FBECDBFFC016A3047
:102BF00069F425898189928938E0239F800D911D90
:102C00001124928B818B108A1786AAC06D3009F42B
:102C1000A7C099878887F588348823886188728857
:102C20000785108900381105C4F0A885B985559627
:102C30002C915597422F50E01F968D919C91509763
:102C4000B6E02B9F800D911D1124E885F985908BAE
:102C50008787268921116EC083C0F0E46F16710446
:102C600024F7C80125E0F29E800D911D112418164D
:102C70001906DCF68F2D90E09C838B83C301A8E0BE
:102C8000FA9E800D911D11241816190674F6B5E0F0
:102C90006B9FB0011124FB01E656F14EFA83E983E4
:102CA00030E08885998504969E838D83E981FA8139
:102CB000E490353009F4E12C430188E0482EE0FC33
:102CC00002C0532C01C0522C51100BC0321009C04D
:102CD000E6944A948B819C81880E991E4110EFCF17
:102CE0001BC068018C2D801B8F1590F754018A2D15
:102CF00088198F1568F4252DA501B6018D819E8157
:102D00003F830E94BE159FEFA91AB90A3F81EFCFFA
:102D1000AFEFCA1ADA0AE6CF3F5FEB81FC810E0FF4
:102D20001F1F89819A8101969A838983363009F021
:102D3000BDCF7BCF6AEF64039001659F300D1124F6
:102D400020583F4F281739075CF4A885B985ED91C5
:102D5000FC9111970190F081E02D6AE0CD01099579
:102D600081E090E029960FB6F894DEBF0FBECDBF8C
:102D7000DF91CF911F910F91FF90EF90DF90CF9057
:102D8000BF90AF909F908F907F906F905F904F908B
:102D90003F902F900895CF93DF93FC019C012B5F10
:102DA0003F4FCAE0D0E0CB01BE010E948530819345
:102DB000E217F307C1F7DF91CF910895EF92FF92E9
:102DC0000F931F9380914506909146064E969093DF
:102DD0006401809363012D9884E6E82EF12C07E1CD
:102DE00014E024E630E043E952E064E670E088E86D
:102DF00091E00E945D1404EC10E024E630E04AE427
:102E000051E064E670E08BE092E00E945D141F9157
:102E10000F91FF90EF9008956F927F928F929F9203
:102E2000AF92BF92CF92DF92EF920F931F93CF9307
:102E3000DF9310918601C12F012E000CDD0B00E401
:102E400020E840E95AE1BE018DEF9FEF0E94F61B9A
:102E5000BE016054710920E840E95AE18DEF9FEF0F
:102E60000E94F61BD09185016D2E0D2E000C770867
:102E700080908401082C000C9908E12C00E02EEFD2
:102E800038E146EC59E1B301C4010E948514C091B8
:102E90000301AC2E0C2E000CBB08C09002010C2CC0
:102EA000000CDD082CE637E144E358E1B501C6012A
:102EB0000E948514B301605471092EEF38E146EC8D
:102EC00059E1C4010E948514B501605471092CE6D2
:102ED00037E144E358E1C6010E948514B301605C08
:102EE0007F4F2EEF38E146EC59E1C4010E94851472
:102EF000B501605C7F4F2CE637E144E358E1C60141
:102F00000E9485141F5F11341CF41093860102C0C7
:102F100010928601DE5FD1341CF4D093850102C08B
:102F200010928501CE5FC1341CF4C093030102C02E
:102F300010920301DF91CF911F910F91EF90DF90DD
:102F4000CF90BF90AF909F908F907F906F9008959B
:102F50006F927F928F929F92AF92BF92CF92DF92A9
:102F6000EF920F931F93CF93DF9310918601C12FA0
:102F7000012E000CDD0B00E420E84AE653E1BE011F
:102F80008DEF9FEF0E94F61BBE016054710920E88F
:102F90004AE653E18DEF9FEF0E94F61BD091850129
:102FA0006D2E0D2E000C770880908401082C000CEB
:102FB0009908E12C00E02EEF38E146EC59E1B3012D
:102FC000C4010E948514C0910301AC2E0C2E000C8C
:102FD000BB08C09002010C2C000CDD082CE637E188
:102FE00044E358E1B501C6010E948514B301605461
:102FF00071092EEF38E146EC59E1C4010E948514B5
:10300000B501605471092CE637E144E358E1C6018B
:103010000E948514B301605C7F4F2EEF38E146ECCF
:1030200059E1C4010E948514B501605C7F4F2CE614
:1030300037E144E358E1C6010E9485141F5F113453
:103040001CF41093860102C010928601DE5FD13419
:103050001CF4D093850102C010928501CE5FC1346B
:103060001CF4C093030102C010920301DF91CF91C1
:103070001F910F91EF90DF90CF90BF90AF909F90F6
:103080008F907F906F900895CF93DF93EC016AE06B
:1030900070E080E090E00E943013DC01CB014E969E
:1030A000A11DB11D809365016DE370E080E090E0AB
:1030B0000E943013DC01CB014A96A11DB11D9983FA
:1030C000888384EE9FEF9B838A83DF91CF9108955D
:1030D000CF93DF93EC016AE070E080E090E00E9423
:1030E0003013DC01CB010A96A11DB11D809366014E
:1030F0006DE370E080E090E00E943013DC01CB01D2
:103100004A96A11DB11D9983888384EE9FEF9B830E
:103110008A83DF91CF910895EF920F93FC01248170
:1031200035812250310927303105D8F4220F331F61
:10313000F901EE5DFE4F40815181F901EC5EFE4FD9
:10314000208131814115510561F02115310549F08A
:10315000FC01068162817381E02E808191810E9451
:1031600085140F91EF900895CF93DF93C0E0D7E0DF
:1031700080913D06C81748F4DC9FC0011124835399
:103180009A4F0E948C18CF5FF3CFDF91CF910895B3
:103190003F924F925F926F927F928F929F92AF92E7
:1031A000BF92CF92DF92EF92FF920F931F93CF9334
:1031B000DF93D0E0C7E08AE0C82ED12C95E0E92E5D
:1031C000F12C24EE422E55245A9433E0332E42E063
:1031D000A42EB12C57E0852E912C70913D06D71767
:1031E00008F0B2C16D2E712CC69DC001C79D900D17
:1031F000112483539A4FDC011496ED91FC9115979D
:103200003297E730F10508F063C1EA5AFF4F0C949A
:103210009930C69D8001C79D100D112403531A4F8C
:1032200020910101F80182819381820F911D27FD78
:103230009A9501969383828381349105ECF062E341
:1032400070E080E090E00E943013DC01CB018054FC
:103250009109A109B109F801938382836DE370E0BC
:1032600080E090E00E943013DC01CB014A96A11D62
:10327000B11DF801918380838091450690914606A7
:10328000B401E4C0C69D8001C79D100D11240353F5
:103290001A4FD80112968D919C911397019713960E
:1032A0009C938E931297843E9F4F04F562E370E0E7
:1032B00080E090E00E943013DC01CB018054910942
:1032C000A109B109F801938382836DE370E080E086
:1032D00090E00E943013DC01CB014A96A11DB11D84
:1032E000F80191838083B582A4827FC080914506D6
:1032F00090914606B7010E948530892B09F0E8C0FD
:10330000D80116968C9116978F5F632D0E947930A5
:1033100016969C93DDC0C69D8001C79D100D11249B
:1033200003531A4F20910101F80182819381820F8A
:10333000911D27FD9A95813491051CF49383828316
:1033400010C0538242826DE370E080E090E00E9402
:103350003013DC01CB014A96A11DB11DF801918308
:1033600080838091450690914606B7016FC0C69D47
:10337000F001C79DF00D1124E353FA4F8281938130
:103380000196938382838134910504F1ADECB5E01D
:1033900060E0671709F49CC014962D913C91159735
:1033A0002530310581F44D915C9111972081318157
:1033B0004217530741F412962D913C911397281709
:1033C000390709F487C06F5F1796E3CF80914506F0
:1033D00090914606B7010E948530892B09F078C08C
:1033E00086818F5F843008F43FC0168271C02091BF
:1033F0006601211126C0C69DF001C79DF00D112464
:10340000E353FA4F22813381213431059CF00E942D
:10341000681817C020916501211113C0C69DF001E5
:10342000C79DF00D1124E353FA4F228133812134DB
:1034300031052CF42F5F3F4F3383228302C00E945B
:1034400044188091450690914606B6010E94853049
:10345000892BF1F5C69DF001C79DF00D1124E353B2
:10346000FA4F86818F5F8170868332C0C69DF001DE
:10347000C79DF00D1124E353FA4F828193818D3063
:10348000910534F47091CC05A0EBB5E060E00DC07F
:103490000697938382831CC014962D913C911597B7
:1034A0002830310529F06F5F17966713F5CF10C0EC
:1034B0004D915C911197208131814217530799F703
:1034C00012962D913C9113972817390761F71FC069
:1034D000DF5F83CE715070933D066717C8F7862F64
:1034E00090E0C89FD001C99FB00D1124A353BA4FDB
:1034F0000196C89FF001C99FF00D1124E353FA4FC4
:103500008C2F01900D928A95E1F76F5FE6CF715095
:103510007093CC056717E0F6862F90E0C89FD00126
:10352000C99FB00D1124A055BA4F0196C89FF00154
:10353000C99FF00D1124E055FA4F8C2F01900D9288
:103540008A95E1F76F5FE6CFDF91CF911F910F91E1
:10355000FF90EF90DF90CF90BF90AF909F908F90B3
:103560007F906F905F904F903F9008950F931F93BF
:10357000CF93DF93C0E0D0E000E810E04091670116
:10358000BE0180E090E00E94BF1B80916701BE01F8
:103590006F5F7F4F482F9801281B3109C9010E9496
:1035A000BF1B2296C034D10549F78091670188235B
:1035B00029F084508093670180E001C081E0DF91B1
:1035C000CF911F910F910895EF92FF920F931F9348
:1035D000CF93DF931F92CDB7DEB77C01FC01008152
:1035E0001181C80169830E9400306981681719F050
:1035F000C8010E940830C7010F90DF91CF911F9141
:103600000F91FF90EF9008952FB7F89483E0809387
:10361000E9009091E800892F807295FF04C0909195
:10362000F20080E4891B2FBF0895CF93DF931F9290
:10363000CDB7DEB76983DC01ED91FC910280F381A7
:10364000E02D41E050E0BE016F5F7F4F09950F9084
:10365000DF91CF91089583E08093E9008091F2009B
:10366000882319F08AE38093E80008950E94041BE0
:1036700090E008958F929F92AF92BF92CF92DF9287
:10368000EF92FF920F931F93CF93DF935C016B0137
:103690007A0180910B01882309F45BC080919D0120
:1036A000882309F456C080919B0180FF05C080915A
:1036B000E00082608093E000E70110E00AEF83E021
:1036C000882E9AE3992E2097D9F10E94041B81112C
:1036D0000AC0015009F43DC061E070E080E090E074
:1036E0000E947913F0CF282F30E0C217D3070CF4D3
:1036F0008C2F4FB7F8948092E9009091E80095FFE5
:103700001DC0282F30E0C21BD30BF601982F91501B
:1037100020F081918093F100FACFC20ED31E1123C5
:1037200019F09092E80009C08091E80085FD06C07C
:103730009092E80011E0209709F010E04FBFC3CF4E
:103740001111C3CF5D9884E680939A011E141F0463
:1037500044F081E090E0F5019383828380E090E083
:1037600001C0C701DF91CF911F910F91FF90EF90A2
:10377000DF90CF90BF90AF909F908F9008959C0165
:10378000240F311D1216130684F5803891056CF54F
:10379000FC0197FF02C0E0E0F0E02138310514F0B1
:1037A00020E830E02E1BAB014770552781E090E008
:1037B00001C0880F4A95EAF7809577FF02C0695FDC
:1037C0007F4F93E0759567959A95E1F77695762FFB
:1037D000662777956795E60FF71FE056FE4F215055
:1037E00020F0908198239193FACF08952F923F92E1
:1037F0004F925F926F927F928F929F92AF92BF9201
:10380000CF92DF92EF92FF920F931F93CF93DF93AC
:10381000CDB7DEB728970FB6F894DEBF0FBECDBF89
:103820005A01822E912C9C01280D391D37FDC4C0F0
:10383000803891050CF0C0C09B01200F311D37FD71
:10384000BBC0603471050CF0B7C0AB0177FF04C09A
:1038500044275527461B570B477055279B0177FF79
:1038600002C0295F3F4FE3E035952795EA95E1F7E0
:1038700077FF08C02150310968E070E0DB01A41B2C
:10388000B50BAD01602F66956695669570E0077083
:1038900011F06F5F7F4FDB01A20FB31FBA83A983C3
:1038A00039017694762C662477946794680E791E95
:1038B000E12CF12C00E010E02301B0E84B0E511C8C
:1038C00068E070E0DB01A41BB50BBC83AB836981AE
:1038D0007A812617370709F46FC02830310509F4BB
:1038E0006BC02F3FBFEF3B070CF45BC0B201600F12
:1038F000711FDB01A056BE4FBE83AD83D801A60D5C
:10390000B71DA056BE4F6C0160E070E068157905E8
:103910000CF047C0E0E8CE16D10409F442C0D7FC51
:1039200034C02F3FFFEF3F0709F442C0FB01EE0D0B
:10393000FF1DEA0DFB1DE491042E01C0EE0F0A9459
:10394000EAF73C90E329EC9341155105F1F027305B
:103950003105D9F0FB01EE0DFF1DEA0DFB1DE491D1
:103960002E2E312CF1010B8002C0F595E7950A94BB
:10397000E2F7F887EF83ED81FE813080EF81F885F3
:10398000E3291F01ED81FE8120826F5F7F4FED8172
:10399000FE813196FE83ED83FFEFCF1ADF0A119689
:1039A000B5CF2F5F3F4F00581F4FE80CF91C8FCF4A
:1039B0004115510579F6E9CF28960FB6F894DEBF88
:1039C0000FBECDBFDF91CF911F910F91FF90EF9070
:1039D000DF90CF90BF90AF909F908F907F906F902F
:1039E0005F904F903F902F9008950F931F93CF9328
:1039F000DF9300D0CDB7DEB70EE911E0F8016081AA
:103A000082E990E09A838983CE0101960E94E41AAC
:103A1000F801618183E990E09A838983CE01019660
:103A20000E94E41AC8010F900F90DF91CF911F916F
:103A30000F91089580E0E0EAF1E081118FEF00241A
:103A400081938193819381930394D1F7EEE3F6E020
:103A5000128A118A108A17860895E0EAF1E080E060
:103A6000A0E0B8E000800EBC8111012C1197A0FDF0
:103A7000FDCF0192B9F70DB40895AF92BF92CF92E6
:103A8000DF92EF92FF920F931F93CF93DF937B010F
:103A9000EC015C01A40EB11C6B01C20ED11CCA1555
:103AA000DB05E4F48701F7FE0FC000E010E00CC076
:103AB000081719078CF420E0A801BE0182E496E003
:103AC0000E94BE150F5F1F4FC60121E4C216D1042C
:103AD0007CF380E490E0ECCF2196E1CFDF91CF91B1
:103AE0001F910F91FF90EF90DF90CF90BF90AF901C
:103AF0000895AC0130913D06EDECF5E090E020E05A
:103B0000931769F0A481B581A417B50729F47583CB
:103B10006483213021F021E09F5F3796F1CF089533
:103B200020914806282329F490914706982381E0A4
:103B300009F480E008950F931F93CF93DF938C01D6
:103B4000C0E0D0E0F801EC0FFD1F6491662371F036
:103B5000E0913E06F0913F060190F081E02D8EE36A
:103B600096E00995892B11F02196ECCFCE01DF91DB
:103B7000CF911F910F9108954F925F926F927F9214
:103B80008F929F92AF92BF92CF92DF92EF92FF926D
:103B90000F931F93CF93DF93EC018B01442ECB0146
:103BA0008C1B9D0B97FF03C091958195910955241E
:103BB0005394813891053CF4512CC80100E810E081
:103BC000E12CF12C0FC00C171D0734F07E0180E8AA
:103BD00090E0C0E0D0E006C078018E0180E090E087
:103BE000C0E8D0E038016E187F085C01AC1ABD0A4D
:103BF000B7FE03C0B194A194B108630177FE03C07E
:103C00002FEFC21AD20AD594C794C817D90714F057
:103C10008FEF01C081E0882E880F99080E151F05CF
:103C2000C4F0242D552019F0A701BE0102C0AE0139
:103C3000B70182E496E00E94BE15CA18DB08D7FEE1
:103C400004C0C80DD91DC60CD71C8FEFE81AF80A9E
:103C5000E5CFDF91CF911F910F91FF90EF90DF9013
:103C6000CF90BF90AF909F908F907F906F905F901C
:103C70004F9008958F929F92AF92BF920F931F9390
:103C8000CF93DF93CDB7DEB7A1970FB6F894DEBF21
:103C90000FBECDBF19A2423008F44AE08E010F5D7D
:103CA0001F4F842E912CA12CB12CA50194010E94B0
:103CB0004830E62FB901CA0101501109EA3014F465
:103CC000E05D01C0E95CD801EC93232B242B252B6C
:103CD00061F70115110571F0F80101900020E9F775
:103CE0003197AF01401B510BB8018EE396E00E9463
:103CF000331202C080E090E0A1960FB6F894DEBFC8
:103D00000FBECDBFDF91CF911F910F91BF90AF90AC
:103D10009F908F900895FC0190913D06903179F02D
:103D200027E0299FD0011124A353BA4F01900D928F
:103D30002A95E1F79F5F90933D0681E0089580E02A
:103D40000895FC0180919D01811103C08FEF9FEFC9
:103D500008959FB7F89482E08093E9002091F200E3
:103D600030E01216130614F421E030E0211531057D
:103D700059F0289884E680939C018091F10080831B
:103D80008091F200882319F09FBFC90108958BE646
:103D90008093E800F9CF8091590681110DC082E02F
:103DA0008093550684E08093560610925806109230
:103DB000570681E08093590685E596E00895FC0159
:103DC0008485958597FD0BC09FB7F89482E080931A
:103DD000E9008091F2009FBF90E0019608959FB79F
:103DE000F89482E08093E9008091F2009FBF90E018
:103DF00008954091B5065091B6062091B3063091D2
:103E0000B40642175307B4F49091E8009570E1F3BB
:103E10009091E80092FD19C08093F1008091B50661
:103E20009091B60601968F739927892B19F48EEF1E
:103E30008093E8008091B5069091B6060196909324
:103E4000B6068093B50681E0089580E00895CF928C
:103E5000DF92EF92FF920F931F93CF93DF931F9206
:103E6000CDB7DEB7182F062FE42E862F880F8E5F72
:103E700099830E94F91E83E00E94F91EF12EC12E43
:103E80009981D92E8C2D8F19801798F4F601E7FEB1
:103E900002C0849101C080810E94F91E182F80E029
:103EA0000E94F91E8123FFEFCF1ADF0A8111EACFAA
:103EB00001C081E00F90DF91CF911F910F91FF9092
:103EC000EF90DF90CF900895DF92EF92FF920F93E3
:103ED0001F93CF93DF93D82E8A017B01E40EF51E4A
:103EE000EB01CE15DF0571F0D7FE03C0FE01849112
:103EF00001C088810E94F91E21968111F2CF8FEFB7
:103F00009FEF01C0C801DF91CF911F910F91FF90EA
:103F1000EF90DF900895615030F02091F100FC01A6
:103F200020830196F8CF289884E680939C01089519
:103F3000CF93DF931F92CDB7DEB7FC0184859585C3
:103F400097FD05C02FEF3FEF358724870BC0CE01CB
:103F500001960E94A11E019719F4898190E002C088
:103F60008FEF9FEF0F90DF91CF9108950F931F93E5
:103F7000CF93DF931F92CDB7DEB78C01FC01848510
:103F8000958597FF0EC0CE0101960E94A11E019754
:103F900019F4298130E002C02FEF3FEFF801358797
:103FA0002487F801848595850F90DF91CF911F912B
:103FB0000F9108950F931F93CF93DF931F92CDB767
:103FC000DEB782E0898342E450E06AE973E280E888
:103FD0000E94641F0E94CB1EDC0112960D911C9161
:103FE00013970115110569F0D801ED91FC9102803C
:103FF000F381E02DBE016F5F7F4FC801099597FFE8
:1040000007C089810F90DF91CF911F910F91089583
:10401000F80100851185E5CF1F920F920FB60F9220
:1040200011248F939F938091E1009091E100937F01
:104030009093E10083FF0FC01092E90091E090930C
:10404000EB001092EC0092E39093ED0010929D0132
:1040500098E09093F00082FF20C093E09093E900F5
:104060009091F200992319F09AE39093E8009091CF
:104070009A01992339F090919A01915090939A0165
:10408000992389F190919C01992339F090919C0199
:10409000915090939C01992341F184FF10C080912D
:1040A000E2008E7E81608093E2008091E1008F7E4D
:1040B0008093E10080919B018E7E806111C080FF22
:1040C00016C08091E2008E7E80618093E200809134
:1040D000E1008E7E8093E10080919B018E7E816065
:1040E00080939B0104C05D9ACDCF289AD6CF9F9133
:1040F0008F910F900FBE0F901F9018951F920F92E7
:104100000FB60F921124CF92DF92EF92FF920F938E
:104110001F932F933F934F935F936F937F938F934F
:104120009F93AF93BF93EF93FF93CF93DF93CDB75D
:10413000DEB76C97DEBFCDBF1092E9008091E8003A
:1041400083FFEDC168E0CE0145960E948B1F82EF90
:104150008093E8008D8987FF05C09091E80090FF6B
:10416000FCCF03C09EEF9093E800982F907609F063
:10417000C6C09E892F89188D91110CC0803829F4F2
:104180008091B2068093F10002C01092F10010926B
:10419000F10048C1422F50E0512B913051F4811170
:1041A00041C14130510509F03DC18091B2068D7F7A
:1041B0000BC0933061F4811135C14130510509F0D4
:1041C00031C18091B20682608093B2062BC19530D6
:1041D00041F48091E80080FFFCCF20682093E30049
:1041E00021C1963009F05FC0EB8CFC8C1092E90085
:1041F0001092B6061092B506123091F51092B406E0
:104200001092B3060E94DA1F99E0BE016F5F7F4FE4
:10421000DB01E92F1D92EA95E9F799831A8391E072
:104220009E8390EA98879AEF99872091B5063091FE
:10423000B606275F3F4F3C832B838D831092E900A6
:104240001092B6061092B506F092B406E092B3064C
:1042500049E050E080E00E94641F0E94DA1FE2C043
:10426000F092B406E092B3060E94CB1EDC011296D7
:10427000ED90FC901397E114F10409F4C0C0D7014C
:10428000ED91FC910480F581E02DBE016B5E7F4FC6
:10429000C7010995009719F00CF0C4C0C7C0F70119
:1042A000E084F184E8CF973009F4C0C0983021F45D
:1042B00081E08093F100B6C0993009F0B3C08370FB
:1042C00009F0B4C0E7E5F1E081E021E036E3908158
:1042D000992361F08093E9002093EB0091919093F2
:1042E000EC003093ED008F5F873089F78EE7809385
:1042F000EA001092EA008F8980939D0193C08B8D14
:104300009C8D1092E9001092B6061092B50690931B
:10431000B4068093B306898D811156C08E899D891C
:10432000913A59F4813209F081C047E050E064E0ED
:1043300071E080E00E94641F75C0913209F076C080
:10434000833289F4888D90E0982F88272F89822BDB
:10435000A0E0B0E080930C0190930D01A0930E01BA
:10436000B0930F015FC0803269F48091E80082FF52
:10437000FCCF67E084E091E00E948B1F8BEF80937D
:10438000E80006C0823209F04DC08F8980930B018E
:104390008091B106882319F0EEEFFAE002C0E0E068
:1043A000F8E08091040190910501A0910601B0917F
:1043B0000701803B9440A105B10509F07BC08091C5
:1043C0000B0180FF93C076C00E94CB1EDC011296C9
:1043D0000D911C9113970115110541F1D801ED9133
:1043E000FC910190F081E02DBE016B5E7F4FC80112
:1043F0000995811117C0F80100851185ECCF1130A6
:1044000009F44EC0133091F48F89882309F445C014
:10441000823081F440E860E18EEF93E20E94271F32
:10442000882321F08EEF8093E80079C081E28093A9
:10443000EB0075C0813029F440E86BE082EF93E235
:10444000EDCF833099F70E94CB1EDC011296ED90E0
:10445000FC9013978E010F5F1F4F6801E114F10468
:1044600079F0D701ED91FC910680F781E02DB8013C
:10447000C7010995080F111DF701E084F184EECF03
:10448000D8011C92F60101900020E9F73197BF0195
:104490006C197D0940E0C601C1CF6CED73E202C02A
:1044A00060EE73E26115710509F2FB01449150E081
:1044B00080E840CF0FB6F894A8958091600088619D
:1044C00080936000109260000FBEA895EE3F2AE036
:1044D000F20739F08091FE0A9091FF0A9183808360
:1044E000A1CF1092FF0A1092FE0A9CCFEE3F8AE005
:1044F000F80731F0808191819093FF0A8093FE0A42
:1045000087E797E7918380839BE088E10FB6F89473
:10451000A895809360000FBE9093600083CF6C9647
:104520000FB6F894DEBF0FBECDBFDF91CF91FF91E4
:10453000EF91BF91AF919F918F917F916F915F911B
:104540004F913F912F911F910F91FF90EF90DF902E
:10455000CF900F900FBE0F901F901895CF93DF93C1
:10456000CDB7DEB72F970FB6F894DEBF0FBECDBF25
:10457000789484B5826084BD84B5816084BD85B53E
:10458000826085BD85B5816085BD80916E0081604A
:1045900080936E00109281008091810082608093F0
:1045A00081008091810081608093810080918000F2
:1045B000816080938000809191008260809391005F
:1045C0008091910081608093910080919000816042
:1045D000809390008091C10084608093C10080919D
:1045E000C10082608093C1008091C100816080938E
:1045F000C1008091C30081608093C3008091C0009E
:1046000082608093C0008091C20081608093C2006C
:1046100080917A00846080937A0080917A00826031
:1046200080937A0080917A00816080937A008091F3
:104630007A00806880937A0010929D011092B206F1
:1046400010929B018091D70081608093D70080EA0F
:104650008093D80089B5806189BD89B5826089BDA4
:1046600009B400FEFDCF61E070E080E090E00E94C0
:1046700079138091D8008F7C80618093D8008091DD
:10468000E000807F8093E0008091E1008E7E809347
:10469000E1008DE08093E200559A209AEEEFFFE76B
:1046A000859194918B3F9C4D19F481E08093B106E4
:1046B00081EC80937C0085B1806F85B984B1877E61
:1046C00084B984B1876E84B95E9A5F988AB1806D2F
:1046D0008AB9769A6E9881B3806F81BB899880B3CE
:1046E0008D7080BB80E58CBD81E08DBD85E090E064
:1046F0000E94A9155F9A85E090E00E94A9155E9836
:104700005C98EAEBF0E08DE08E0F94919EBD000086
:104710000DB407FEFDCF31968E13F7CF5C9A81E87A
:1047200080936400809165008160809365000E94A1
:104730002D1D0E94AE1587FF10C085EA0E94B61598
:104740002E982F982D988091640080628093640049
:1047500081E083BF889513BEFCCF02E010E00E9489
:10476000AE1582FF42C02D980E94AE158478843821
:10477000C9F00E94AE158471843191F50E94A7158D
:1047800088EC90E00E94A9152E981A83098360E0B6
:10479000CE0101960E94E41A84EF91E00E94A915CF
:1047A0002E9A19C00E94A71588EC90E00E94A915C6
:1047B0002F981A8309836FEFCE0101960E94E41AA5
:1047C00084EF91E00E94A9152F9A0E94AE1584787B
:1047D0008438D9F3CECF0E94AE1584718431D9F3D9
:1047E00088EC90E00E94A915BACF0E94A71582E03C
:1047F00090E00E940030882331F03E9A3F9A81E099
:1048000080935E0104C010925E013E983F980E9422
:104810001A1D80E990E00E940030182F81E990E095
:104820000E9400301C3479F48A3569F482E990E002
:104830000E94003080939E0183E990E00E94003046
:1048400080939F0120C010929F0110929E0180E9E9
:1048500090E09A8389836CE4CE0101960E94E41A69
:1048600081E990E09A8389836AE5CE0101960E94EE
:10487000E41A60919E0182E990E09A838983CE01D7
:1048800001960E94E41A80E180934906CE010196C8
:104890006C01F4EE2F2E33243A948FB7F8944091A4
:1048A0005F015091600160916101709162018FBF61
:1048B00080914A06942F981B892F90914B0699233B
:1048C00031F080934C0610924B060C946F2E909111
:1048D0004906891758F48F5F891710F00C946F2ED2
:1048E00081E083BF889513BE0C946F2E81E0809386
:1048F0004B0640934A0680914506909146060196E4
:10490000909346068093450680914706809348061B
:104910000E94AE15809347060E941A1D8091830164
:1049200081112EC000E420E84CE45BE060E070E020
:1049300080E090E00E94F61BE12CF12C10916701C1
:10494000412FB70180E090E00E94BF1BB7016F5F6D
:104950007F4F412F80E890E0811B91090E94BF1B8F
:10496000A2E0EA0EF11CB0E4EB16F10439F717FFF0
:1049700002C00C94792E1F5F109367010C946D2E6A
:10498000813009F04CC0E12C00E023ED39E040E536
:104990005AE068E070E084E390E00E94851485E2CC
:1049A00090E090934E0680934D0681E390E09093C3
:1049B000500680934F0689EC99E00E949B1D8091E0
:1049C00045069091460668E770E00E948530892B85
:1049D000D1F401E023ED39E040E55AE068E070E011
:1049E00084E390E00E948514809182018F5F809320
:1049F0008201833040F080E88093670182E08093F9
:104A000083011092820188E00E94901D882319F092
:104A100082E0809383010E94B61A0C946D2E82303E
:104A200009F06AC180914506909146066FE070E0FA
:104A30000E948530892B51F4809181018F5F8530F0
:104A400018F48093810102C01092810110918101BC
:104A5000E12E012F27E838E047E259E06BE170E0F2
:104A600087E190E00E94851427E838E047E259E0AA
:104A70006BE170E089E590E00E94851400E420E895
:104A800047E854E060E070E080E090E00E94F61BB0
:104A9000809180010EE022E3811103C043E254E0E3
:104AA00002C04FEB53E06FE270E087E290E00E94BB
:104AB000F61B0E94B61A88E00E94901D882309F414
:104AC00004C1809164008E7F8093640080917A009D
:104AD000806480937A0080917A0086FDFCCF0091FB
:104AE0007800109179000E94541320E030E0980182
:104AF00011270027600F711F821F931F6115710519
:104B00008105910511F00E94F72F8091640081606A
:104B10008093640010927F0110927E0181E0809367
:104B2000010143E0B42EB092000110927D01109279
:104B30007C0110927B016AE070E080E090E00E94CE
:104B40003013DC01CB010A96A11DB11D80936601D3
:104B50006AE070E080E090E00E943013DC01CB015D
:104B60000A96A11DB11D8093650186E390E09093A4
:104B700075018093740182E390E0909377018093B4
:104B8000760181E090E09093790180937801109212
:104B90007A0110923D0662E370E080E090E00E94AE
:104BA00030132B013C016DE370E080E090E00E9447
:104BB0003013DC01CB014A96A11DB11D9A83898374
:104BC000E0E44E1A5108610871085C824B8282E071
:104BD00090E09E838D831F82C6010E948B1E6DE331
:104BE00070E080E090E00E943013DC01CB014A9637
:104BF000A11DB11D9A8389833C822B8204E010E0C1
:104C00001E830D831F82C6010E948B1E6DE370E020
:104C100080E090E00E943013DC01CB014A96A11D98
:104C2000B11D9A8389833C822B821E830D831F8250
:104C3000C6010E948B1E6DE370E080E090E00E9450
:104C40003013DC01CB014A96A11DB11D9A838983E3
:104C50003C822B8286E090E09E838D831F82C6017A
:104C60000E948B1E6DE370E080E090E00E943013A4
:104C7000DC01CB014A96A11DB11D9A8389833C8238
:104C80002B8287E090E09E838D831F82C6010E9465
:104C90008B1E52E3E52EF12C05EA10E022E330E012
:104CA00046E251E062E370E08BE092E00E945D1426
:104CB00080918001811103C0B092830103C086E01E
:104CC0008093830180E88093670180E80E94901DB3
:104CD000882329F08091800181110C947E2E80E13F
:104CE0000E94901D882309F4F8C7809180018823D1
:104CF00011F40C94942EF1C7833009F04BC5409009
:104D00007E0150907F010E94AE1585FF09C0809101
:104D10007401909175018331910514F00C94A92EC2
:104D20000E94AE1586FF09C08091740190917501B3
:104D30008C35910514F40C94B02E0E94AE1587FFAB
:104D400009C080917601909177018B30910514F024
:104D50000C94B72E0E94AE1584FF09C08091760195
:104D6000909177018133910514F40C94BE2E88E064
:104D70000E94901D882389F120917601309177015E
:104D8000225031094091740150917501495F5F4F84
:104D90008091CC05843009F197E0899FF0011124BE
:104DA000E055FA4F518340833383228328E030E07B
:104DB0003583248316828F5F8093CC0538ECE32EF5
:104DC000F12C01E410E024E630E043E850E062E337
:104DD00070E08BE092E00E945D1484E00E94901DE0
:104DE000882391F026E4E22EF12C07E215E022E37D
:104DF00030E04BE452E066E470E086E091E00E942F
:104E00005D1485E08093830180916B0190916C012A
:104E1000009761F020914506309146062817390722
:104E200028F02E9A10926C0110926B01809169010A
:104E300090916A01009761F02091450630914606F5
:104E40002817390728F02F9A10926A0110926901E9
:104E50008091630190916401009769F0209145066B
:104E6000309146062817390730F00E94A715109296
:104E700064011092630180916D0190916E01009721
:104E800071F020914506309146062817390738F011
:104E900086EA0E94B61510926E0110926D01209163
:104EA0006601222369F080914506909146066CE3E5
:104EB00070E00E948530892B19F4215020936601FF
:104EC00020916501222369F0809145069091460664
:104ED0006CE370E00E948530892B19F421502093F7
:104EE0006501712C97E0992E80913D06781608F0A7
:104EF00077C2A72CB12CE0917401F09175016091FB
:104F00007601709177019A9CD0019B9CB00D112481
:104F1000A353BA4F14964D915C91159744305105A7
:104F2000C9F08CF44230510509F059C12D913C91E2
:104F300011972F5F3F4F12968D919C911397019679
:104F40001DE00FE020C04630510589F04730510583
:104F500071F045C12D913C9111972F5F3F4F1296F3
:104F60008D919C91139744961DE00DE00CC02D91FE
:104F70003C9111972D5F3F4F12968D919C91139705
:104F800003961CE00CE0DF011B962A173B070CF090
:104F900026C1200F311D3696E217F3070CF01FC112
:104FA0009B01275F3F4F821793070CF018C1810FB9
:104FB000911D6C5F7F4F681779070CF010C19A9CA8
:104FC000C0019B9C900D112483539A4F443051058E
:104FD00009F484C024F44230510579F000C1463010
:104FE000510509F4DBC04730510509F0F8C00E94B3
:104FF000441881E080937201E3C080917E0190911A
:105000007F01059690937F0180937E0180917C01C2
:1050100090917D018330910510F0029702C080E0ED
:1050200090E090937D0180937C0180917B018F5F64
:1050300080937B018F3004F1809100018F5F80931A
:10504000000180914506909146064E9690936A0124
:10505000809369012F9884E6E82EF12C0AE914E187
:1050600024E630E04DE45AE064E670E087E295E043
:105070000E945D1410927B0162E370E080E090E09A
:105080000E9430139A9C80019B9C100D11240353A5
:105090001A4FDC01CB0180549109A109B109F80133
:1050A000938382836DE370E080E090E00E94301390
:1050B000DC01CB014A96A11DB11DF80191838083CB
:1050C00000E5E02EF12C03E912E020E530E04AE4AF
:1050D00051E060E570E085EA90E07FC080910001DA
:1050E00081508093000180917C0190917D01049614
:1050F0008932910510F088E290E090937D018093D1
:105100007C0114E6E12EF12C01E410E024E630E00D
:1051100043E850E064E670E086E091E00E945D14B0
:1051200087EA0E94B6152E98809145069091460612
:105130009C012E5F3F4F30936E0120936D014E9680
:1051400090936C0180936B018091000187FF09C0EF
:1051500081E08093010184E08093830186EA0E94CC
:10516000B6159A9C80019B9C100D112403531A4F75
:10517000E4EEFFEFD8011396FC93EE9312976DE3E4
:1051800070E080E090E00E943013DC01CB014A9691
:10519000A11DB11DF8019183808321C020917C0164
:1051A00030917D012531310518F02451310902C0BB
:1051B00020E030E030937D0120937C010E9468184C
:1051C000B4E6EB2EF12C0AE914E124E630E04DE4DC
:1051D0005AE064E670E087E295E00E945D14F09189
:1051E000CC05F98780EB95E09F878E87812C9A9C70
:1051F000F0019B9CF00D1124E353FA4FDF0114964C
:10520000BD87AC87BF016E5F7F4F9985891609F412
:10521000E5C0AE85BF854D915C9111971296ED90DA
:10522000FC901397AC85BD850D911C910430110540
:10523000A1F006301105F1F00230110509F0C7C0E8
:10524000208131812F5F3F4FDB018D919C91019631
:10525000BDE0B887AFE06A2E19C0208131812F5F91
:105260003F4FDB018D919C914496BDE0B887BDE036
:105270006B2E0CC0208131812D5F3F4FDB018D9162
:105280009C910396BCE0B887ACE06A2EDA011396D5
:105290002A173B070CF09BC0260D311D4217530700
:1052A0000CF095C097012A5F3F4F821793070CF0CF
:1052B0008EC0B8858B0F911DE816F9060CF087C0DB
:1052C00002301105D9F10430110509F060C0809158
:1052D0007E0190917F010A9690937F0180937E01D9
:1052E0009A9CF0019B9CF00D1124E353FA4FA5E02A
:1052F000B0E0B583A4836DE370E080E090E00E94AD
:105300003013DC01CB014A96A11DB11D9A8389831C
:105310003C822B821E830D831F82C6010E948B1E3E
:1053200054E6E52EF12C01E210E024E630E041E401
:1053300050E064E670E083E890E027C080917E0151
:1053400090917F018B30910510F00A9702C080E0A8
:1053500090E090937F0180937E019A9CF0019B9C4A
:10536000F00D1124E353FA4F83E090E0958384839A
:1053700064E6E62EF12C06E011E024E630E046E09B
:1053800051E064E670E086E091E00E945D14809157
:10539000CC0581508093CC05881600F5282D30E08F
:1053A000929ED001939EB00D1124A055BA4F2F5F4D
:1053B0003F4F929EF001939EF00D1124E055FA4F5D
:1053C000992D01900D929A95E1F78394E5CF8394FE
:1053D0008E859F8507969F878E8717CF739484CD80
:1053E0000E94C8188091450680FD06C080917A0110
:1053F0008F5F817080937A0190E027E08091CC05E7
:10540000981780F5299FF0011124E055FA4F428149
:1054100053814D3051052CF046505109538342833E
:105420001FC081508093CC05392F3817C8F4432F03
:1054300050E0249FD001259FB00D1124A055BA4FF4
:105440004F5F5F4F249FF001259FF00D1124E05521
:10545000FA4F422F01900D924A95E1F73F5FE5CF59
:105460009F5FCCCF80914506909146066CE370E03B
:105470000E948530892B49F480917C0190917D01B7
:10548000029690937D0180937C0180917C019091A4
:105490007D01899718F084E08093830180917201E7
:1054A000882379F062E070E084E090E00E94791D4A
:1054B00080916F019091700101969093700180939B
:1054C0006F0180916F0190917001803E914078F062
:1054D00064E070E082E090E00E94791D1092720119
:1054E0001092700110926F012E9A0E94A7152091C0
:1054F000450630914606C9016EE170E00E94853094
:10550000892B51F4909173019F5F923018F490931E
:10551000730102C01092730180917201882359F1C6
:10552000C90163E070E00E948530892B61F4E12CB1
:1055300000E020EC31E04EE052E069E170E081E310
:1055400090E00E948514809145069091460666E0A1
:1055500070E00E948530892B71F49091710181E097
:10556000892780937101882319F02E982D9803C004
:105570002E9A0E94A7150E94A817E12C00E02EE5A4
:1055800032E048E852E06FE070E087E790E00E9488
:10559000851460907C0170907D01262D43E061E1CF
:1055A00070E089E790E00E943D1D0E94B4180091D0
:1055B0007A01A0907601B09077018090740190906C
:1055C0007501E02E24EB32E048EF52E0B501C40152
:1055D0000E94851410E007E08091CC05181748F46C
:1055E000019FC001112480559A4F0E948C181F5FA3
:1055F000F3CFBFE16B16710488F0809173018111C4
:105600000DC0B5016A5F7F4FE12C00E02EE333E06F
:1056100046E753E0C40104970E9485142AE040E85D
:1056200060E070E080E090E00E943D1D81E090E04D
:1056300090934E0680934D061092500610924F069E
:1056400088EB93E00E949B1D85E290E090934E06CC
:1056500080934D061092500610924F0660917E0185
:1056600070917F01C6010E94CB168E010A5F1F4F09
:10567000F80162918F0170E080E090E04AE00E94C2
:105680003A1E0C151D05A1F78EE490E090934E068E
:1056900080934D061092500610924F0680EB93E0D7
:1056A0000E949B1D88E790E090934E0680934D06E4
:1056B0001092500610924F0680900001082C000CAA
:1056C0009908AA08BB08B7FE14C0E0913E06F09105
:1056D0003F060190F081E02D6DE28EE396E00995A2
:1056E00066277727CB01681979098A099B094AE05F
:1056F00003C04AE0C501B4010E943A1E41E069E0DE
:1057000070E089E090E00E94BC1D40E06AE070E03B
:105710008AE090E00E94BC1D80917E0190917F0103
:105720008C3DF5E09F0740F02CED421625E0520637
:1057300008F0D3C282E00BC08E37A4E09A0760F075
:10574000BEE74B16B4E05B0608F0C7C281E0809369
:1057500001010E94DE16C1C28438E3E09E0730F0EA
:10576000F4E84F16F3E05F0628F3B7C28A3822E068
:10577000920730F08AE8481682E0580638F3ADC246
:10578000843F914008F4A9C2B4EF4B16B1E05B0628
:1057900088F2A3C2843009F0B7C02E9A2F9A0E94D3
:1057A000A71580917E0190917F0120919E013091FB
:1057B0009F012817390730F490939F0180939E0131
:1057C0000E94F51C0E94A8172FE140E860E170E0FC
:1057D00080E090E00E943D1D41E061E170E081E1E8
:1057E00090E00E94BC1D41E06DE270E08DE290E02F
:1057F0000E94BC1D40E060E370E080E390E00E9406
:10580000BC1D40E062E370E082E390E00E94BC1DBA
:1058100085E290E090934E0680934D0685E090E0FF
:105820009093500680934F0686EB91E00E949B1D5B
:105830008EE190E090934E0680934D0607E110E0D4
:105840001093500600934F068FEA91E00E949B1D33
:1058500081E490E090934E0680934D06109350069D
:1058600000934F0660917E0170917F01C6010E94F6
:10587000CB168E010A5F1F4F7801D7016E917D0113
:1058800070E080E090E04AE00E943A1EEC14FD04D3
:10589000A1F78FE090E090934E0680934D0641E291
:1058A000E42EF12CF0925006E0924F0683EA91E04C
:1058B0000E949B1D81E590E090934E0680934D06DB
:1058C000F0925006E0924F0660919E0170919F0108
:1058D000C6010E94CB16F80162918F0170E080E052
:1058E00090E04AE00E943A1E0C151D05A1F7E12C3C
:1058F00000E02DE131E04FE551E064E370E08EE23D
:1059000090E00E94851429C1853009F076C00E947C
:105910000C1724E140E868E170E080E090E00E942C
:105920003D1D41E069E170E089E190E00E94BC1D0D
:1059300041E06AE270E08AE290E00E94BC1D40E033
:105940006DE270E08DE290E00E94BC1D40E06FE2ED
:1059500070E08FE290E00E94BC1D81E390E09093A4
:105960004E0680934D068FE190E090935006809311
:105970004F0687E191E00E949B1D80914506909122
:1059800046066FE070E00E948530892B51F48091CB
:1059900081018F5F853018F48093810102C01092DD
:1059A000810110918101E12E012F27E838E047E2C3
:1059B00059E06BE170E08CE190E00E94851427E8EB
:1059C00038E047E259E06BE170E082E590E00E9448
:1059D00085148FE090E090934E0680934D0685E20B
:1059E00090E09093500680934F0684E00E94901DB3
:1059F000882309F472C183E06EC1863009F0B5C016
:105A00000E940C172FE140E860E170E080E090E038
:105A10000E943D1D41E061E170E081E190E00E9463
:105A2000BC1D41E06DE270E08DE290E00E94BC1D83
:105A300040E060E370E080E390E00E94BC1D40E045
:105A400062E370E082E390E00E94BC1D80916801F7
:105A500081110AC088E00E94901D882309F443C088
:105A600081E0809368013FC080E10E94901D8823FF
:105A7000C1F010929F0110929E010E94F51C10929D
:105A8000680132E3E32EF12C0DE41AE022E330E06A
:105A900047E255E062E370E083E992E00E945D1422
:105AA00006C088E00E94901D81111092680110923A
:105AB0004E0610924D0605E310E010935006009339
:105AC0004F068BE091E00E949B1D82E490E0909352
:105AD0004E0680934D061093500600934F068EEFAE
