:100000000C94F0110C9418120C9418120C941812F1
:100010000C9418120C9418120C9418120C941812B8
:100020000C9418120C9418120C949E1D0C94101E13
:100030000C9418120C9418120C9418120C94181298
:100040000C9418120C9418120C9418120C94181288
:100050000C9418120C9418120C9418120C949A13F5
:100060000C9418120C9418120C9418120C94181268
:100070000C9418120C9418120C9418120C94181258
:100080000C94E4130C9418120C9418120C9418127B
:100090000C9418120C9418120C9418120C94181238
:1000A0000C9418120C9418120C9418129427C3274D
:1000B0000428312871288428B028D5F08D14A1C8CF
:1000C00081CFD9F1AF2000484947482053434F52D0
:1000D000453A00423A43414E43454C00444F574E47
:1000E0003A44454C2E00504155534500F8FCFCFC69
:1000F0007878FC781C3878FCFCF850F8FCFC78F830
:10010000FCFC6800FCFEFFFFFFFFFFFEFC0103019B
:1001100000000000000000000000000000000000DF
:100120000000000000000103030303030100210A93
:1001300000F8084830007810080030486850005037
:10014000686800506868000000FC027A526202FC95
:10015000000001000000000000000000000000009E
:10016000000000000000000000000001010101018A
:100170000000484947482053434F52453A005343F3
:100180004F52453A0047414D45204F564552007E5B
:10019000FFFFFEE0FCFEFFFFC7FFFFFE7E3FFFFE0E
:1001A000FEFF3FFEFFFFFFFFB6FCFEFFFFFFFEFC72
:1001B000FDFFFFFDFFFFFCF8FCFFFFFEFCFEFFFD67
:1001C000FFFFFC03070703030707030307070703F2
:1001D000030707070301030707030707031A1300B1
:1001E0007EFEC0C0007CFE828282FE7C00063EF85D
:1001F000F83E0600FEFEB6B60000FCFC0CCCFC305F
:1002000000FCFC00FCFC000078FCCC0C00FCFC605A
:10021000FCFC0000030300010303000103030301CE
:1002200000030303010000030300030300FCFEFFBF
:10023000FFFFFEFCFFFFFFFFFFFFFFFFFFFFFFFFD2
:10024000FFFFFFFFFFFFFFFFFFFFFFFFFFFFFFFFBE
:10025000070F1F1F1F0F07072D00F402AA02F4004B
:1002600000FF00AA00FF0000FF00AA00FF0000FF3F
:1002700000AA00FF0000FF00AA00FF000007080A14
:10028000080700307CFEFCF8FCFCFEFFFEFCFCF8DE
:10029000FCFE7C3002070F0F1F3B1F0B030B1F3BA5
:1002A0001F0F0F0702307CFEFCF8FCFCFEFFFEFC7B
:1002B000FCF8FCFE7C30020F1F0B377B3703030377
:1002C000377B370B1F0F02110F00304CE83008F05E
:1002D0001C861CF00830E84C3000000205000A11B2
:1002E0000A0101010A110A0005020000304CE83041
:1002F00008F01C861CF00830E84C300000020900B1
:10030000023102010101023102000902002E7F2E9A
:100310007F2E003E7F3F0F3E7F7E7F3E7F7F2A7F86
:100320007E7020002E7F2E7F2E2E7F2E7F2E003E71
:100330007F3F0F3E7F7E7F3E7F7F2A7F7E70200043
:100340002E7F2E7F2E1C07002E002E0000003E0A5E
:1003500002003E203E003E2A003E20200000002EEB
:10036000002E00002E002E0000003E0A02003E205B
:100370003E003E2A003E20200000002E002E0053AA
:100380004849454C443A0053434F52453A00000017
:100390000000000000000000000000000000242A0F
:1003A0001200023E023C0A3C003E0A34023E0200B9
:1003B000000000000000000000000000000000003D
:1003C0000002070E0E070200001F041F001F001E80
:1003D0001119001F041F00121509000E1111000E43
:1003E000110E001F051A001F15000002070E0E0750
:1003F00002000000000000000000040E1C1C0E049F
:100400000000242A1200023E023C0A3C003E0A344C
:10041000023E020000040E1C1C0E0400000000003E
:10042000000000000000000000000000001F041F8A
:10043000001F001E1119001F041F00121509000ED5
:100440001111000E110E001F051A001F15000000EB
:10045000000000000000000000000000000000009C
:10046000000000000000000000008080808080808C
:100470008080808080808080808080800000C0C0FC
:10048000C0C040800000000000008080C0C0C0C02C
:10049000C0C08080000040C0C0C0C0C00000C0C05C
:1004A000C0C0C040000080C0C0C0C0C0C0C000000C
:1004B000808080808080808080808080808080803C
:1004C000808000000000000000000000000000002C
:1004D000000000000000000000000000000000001C
:1004E0000000000000000000000000000002020AFE
:1004F0002A2AAAAAAAAAAAAAAAAAAAAA0000FFFF06
:10050000FFFF00FE000000F8FEFFFF0F170B0B0BB4
:100510000B170FFFFFFEF801073FFFFFFEFEFFFF77
:100520003F0701E002FFFFFFFFF3F3F3F7F30000E3
:10053000AAAAAAAAAAAAAAAAAAAA2A2A0A020200B5
:1005400000000000000000000000000000000000AB
:10055000000000000000000000000000000000009B
:10056000000000000000000000000000000000008B
:100570000000000002020A0A0A2A2A2A0000071FB5
:100580001F3FBEBEBF824401070F1F5FBEBCBCBC85
:10059000BCBE5F1F0F070100000419277F1F070063
:1005A0000000000F204F9FBFBFBCBCBC7D3C0000C3
:1005B0002A2A2A0A0A0A020200000000000000009B
:1005C000000000000000000000000000000000002B
:1005D000000000000000000000000000000000001B
:1005E00000008000C000800000000000000000004B
:1005F0000000000000000000000000000000FEFEFF
:10060000FEFE1E1E1EFEFCFCF00000FEFEFEFE00B6
:100610000000FEFEFEFE000000F0F8FCFEFE1E1EC6
:10062000000000FEFEFEFE808000FEFEFEFE0000DA
:1006300000000000000000000000000000000000BA
:1006400000000000008000C00080000000000000EA
:10065000000000000000FC7880C0C0C0800048009E
:10066000FC004800FF004800FC00480000000000BB
:100670000000000000000000000000000000FFFF7C
:10068000FFFF001F7FFFFFFBE100003FFFFFFFE0D8
:10069000E0E0FFFF7F3F0000F0E1E7FFFFFF7F3E6C
:1006A000000000FFFFFFFF070700FFFFFFFF000044
:1006B000000000000000000000000000000000003A
:1006C000004800FC004800FF004800FC0048008093
:1006D000C0C0C08078FCFFFEFFFFFFDFEFC03F001F
:1006E000DF808AC0EFC08A80DF003F00000000008A
:1006F00000000000000000000000000000000105F4
:1007000005050403000105050505040200000105B7
:1007100005050504020000000105050505040200A9
:10072000000000010505050402000105050504029D
:1007300000000000000000000000000000000000B9
:10074000003F00DF808AC0EFC08A80DF003FC0EF3B
:10075000DFFFFFFFFEFFFFFFFFFFFFAB5482786F5D
:10076000DDF0BA2D272DBAF0DD6F78000000000013
:100770000000000000000000000000000000000079
:100780000000000000000000000000000000000069
:100790000000000000000000000000000000000059
:1007A0000000000000000000000000000000000049
:1007B0000000000000000000000000000000000039
:1007C00000786FDDF0BA2D272DBAF0DD6F7807AF16
:1007D000FFFFFFFFFFFFFFFFFFFFFFFFFFFEFDFA31
:1007E000F4E9F5EBF3FBFDFDCEE0F0F8F8F8F8F0F6
:1007F000E0C0000000000000000000000000000059
:1008000000000000000000000000000000000000E8
:1008100000000000000000000000000000000000D8
:1008200000000000000000000000000000000000C8
:1008300000000000000000000000C0E0F0F8F8F840
:10084000F8F0E0CEFDFDF3EBF3E9F5EAF5FAFDFE95
:10085000FFFFFFFFFFFF70F8FCFEFFFFFFFEFEFF44
:10086000FFFFFEFCF87000000103070F1F3F3F1F52
:100870000F0703010000000000F8FCFEFFFEFEFF72
:10088000FEFCF800000000000001070F1F3F3F1FA3
:100890000F07030000000000000000FCFEFFFFFE49
:1008A000FC000000000000000000000F1F3F3F1F81
:1008B0000F0000000000000000F8FCFEFFFEFEFF3D
:1008C000FEFCF800000000000003070F1F3F3F1F61
:1008D0000F070100000070F8FCFEFFFFFFFEFEFFA7
:1008E000FFFFFEFCF87000000103070F1F3F3F1FD2
:1008F0000F0703010000100E00708874DAAA4A94F2
:10090000140A0A8A748870000000000102050B16A0
:10091000150A05020100000000000000F8040204AE
:1009200004FA04F8000000000000000001060C18A2
:10093000140B040300000000000000000000FCC2D3
:10094000C2FC0000000000000000000000000F1AC0
:100950001A0F00000000000000000000F804FA0474
:10096000040204F8000000000000000003040B145F
:10097000180C06010000000000708874DAAA4A947E
:10098000140A0A8A748870000000000102050B1620
:10099000150A0502010000004F5054494D495345C6
:1009A00044000080C0E0F0F8FCFEFEFFFFFFFFFF08
:1009B000FFFFFEFEFCF8F0E0C08000FEFFFFFFFF3F
:1009C000FFFFFFFFFFFFFFFFFFFFFFFFFFFFFFFF37
:1009D000FFFFFFFE0003070F1FFFFFFFFFFFFFFFEB
:1009E000FFFFFFFFFFFFFFFF1F0F070300000000D7
:1009F00000000F1F3F3F3F3F3F3F3F3F3F3F3F1FF5
:100A00000F00000000003E7F3F1F3E7F3E783038E1
:100A10007C78387C3C18387C7878FC7C381000195D
:100A2000280080402090C8E4F2F2F9F9F9F9F9F9C8
:100A3000F9F2F2E4C89020408000FE0100FEFF01C0
:100A40000000000001FFFFFF010000000001FFFEA9
:100A50000001FE0003040813E70E0EFEFE1FFFFF59
:100A6000FF1FFEFE0E0EE713080403000000000047
:100A7000000F102027272027272720272720100FA7
:100A80000000000000003E0A0E003E083000102862
:100A9000300038080010283000782810000000804E
:100AA000402090C8E4F2F2F9F9F9F9F9F9F9F2F213
:100AB000E4C89020408000FE0100FEFFCFCFCFCFE2
:100AC000CFCFFFFFFFCFCFCFCFCFCFFFFE0001FEB5
:100AD0000003040813E70F0FFFFF1FFFFFFF1FFFB7
:100AE000FF0F0FE7130804030000000000000F10C1
:100AF0002027272027272720272720100F00000046
:100B00000000003E0A0E003E083000102830003879
:100B100008001028300078281000000000000000B5
:100B200000000000000000000000000000000000C5
:100B300000000000000000000000000000000000B5
:100B400000000000000000000000000000000000A5
:100B50000000000000000000000000000000000095
:100B60000000000000000000000000000000000085
:100B70000000000000000000000000000000000075
:100B80000000000000000000000000000000000065
:100B90000000000000000000000000000000000055
:100BA0000000000000000000000000000000000045
:100BB0000000000000000000000000000000000035
:100BC0000000000000000000000080808080808025
:100BD0000000000080808080808080800000000015
:100BE0000000000000000000000000000000000005
:100BF00000000000000000000000000000000000F5
:100C000000000000000000000000000000000000E4
:100C100000000000000000000000000000000000D4
:100C200000000000000000000000000000000000C4
:100C300000000000000000000000000000000000B4
:100C400000000000000000020A2AA8A38F3FFFFF57
:100C5000FEF08000FFFFFFFFFFFFFF070000000026
:100C6000000080808080C0C0008000000000000084
:100C70000000000000000000000000000000000074
:100C80000000000000000000000000000000000064
:100C90000000000000000000000000000000000054
:100CA0000000000000000000000000000000000044
:100CB0000000000000000000000000000000000034
:100CC0000000000000000000000000020A0A28A343
:100CD000871F7FFCFFFFFFFFFF7F01F0F8FCFE0690
:100CE000A30B07073F0F23080200000000000000CD
:100CF00000000000000000000000000000000000F4
:100D000000000000000000000000000000000000E3
:100D100000000000000000000000000000000000D3
:100D200000000000000000000000000000000000C3
:100D300000000000000000000000000000000000B3
:100D400000000000000000000000000000000000A3
:100D5000020A28A1871F7FFF1F0080F1F3F363635E
:100D600022B21E2028000000000000000000000049
:100D70000000000000000000000000000000000073
:100D80000000000000000000000000000000000063
:100D90000000000000000000000000000000000053
:100DA0000000000000000000000000000000000043
:100DB0000000000000000000000000000000000033
:100DC0000000000000000000000000000000080813
:100DD00008C808884A8A48480888498908CA4809CA
:100DE00048C8480808080000000000000000000093
:100DF00000000000000000000000000000000000F3
:100E000000000000000000000000000000000000E2
:100E100000000000000000000000000000000000D2
:100E200000000000000000000000000000000000C2
:100E300000000000000000000000000000000000B2
:100E400000000000000000000000000000000000A2
:100E5000000003000002030300010201000301007F
:100E6000000300000000000000000000000000007F
:100E70000000000000000000000000000000000072
:100E80000000000000000000000000000000000062
:100E90000000000000000000000000000000000052
:100EA0000000000000000000000000000000000042
:100EB0000000000000000000000000000000000032
:100EC0000000000000000000000000000000000022
:100ED0000000000000000000000000000000000012
:100EE0000000000000000000000000000000000002
:100EF00000000000000000000000000000000000F2
:100F000000000000000000000000000000000000E1
:100F10000000000000000000000000163F162070D6
:100F2000F87CFEFFFEFFFFFFFFFFFFFEFFFE7CF8E9
:100F3000702000000000070F1F1F1F1F1F1F1F1F13
:100F40000F07000000000C1E3E3FFFFFFEFFFFFFEB
:100F5000FFFFFFFEFFFF3F3E1E0C00000000070FDB
:100F60001F1F1F1F1F1F1F1F0F07000000002070E3
:100F7000F87CFEFFFEFFFFFFFFFFFFFEFFFE7CF899
:100F8000702000000000070F1F1F1F1F1F1F1F1FC3
:100F90000F07000000000C1E3E3FFFFFFEFFFFFF9B
:100FA000FFFFFFFEFFFF3F3E1E0C00000000070F8B
:100FB0001F1F1F1F1F1F1F1F0F0700000000000023
:100FC000002070F870200000000000000000000009
:100FD000000000000000A8FCF8FCF8FCA8000000DD
:100FE000000001000100010000000024FE74ACDEDE
:100FF000AC74FE24000001030101030101030100A0
:101000002277722002070220727722020702000272
:10101000070200020702227772200207022072777D
:1010200022020702000207020002070240E0E0F08D
:10103000E4EEFEFFFEEEE4F0E0E040FAFFFFFFFF2B
:10104000FF7FFF7FFFFFFFFFFFFAC1FFFFFFFEFEF5
:10105000FFFFFFFEFEFFFFFFC10307070F1F1F3F3C
:101060003F3F1F1F0F07070320F0E8FC28F0FEFF9B
:10107000FEF028FC28F020F9FFF96E297FFFFFFF22
:101080007F296EF9FFF9C0F9FEFFFEFEFFFFFFFEAC
:10109000FEFFFEF9C00307070F1F1F3F3F3F1F1F43
:1010A0000F07070370F8FCFEFFFFFFFEFEFFFFFFC8
:1010B000FEFCF87000000103070F1F3F3F1F0F07E2
:1010C0000301000070F8FCFEFFFFFFFEFEFFFFFFC4
:1010D000FEFCF87000000103070F1F3F3F1F0F07C2
:1010E0000301000070F8FCFEFFFFFFFEFEFFFFFFA4
:1010F000FEFCF87000000103070F1F3F3F1F0F07A2
:101100000301000070F8FCFEFFFFFFFEFEFFFFFF83
:10111000FEFCF87000000103070F1F3F3F1F0F0781
:10112000030100000306001600140D2050A854BA55
:101130001DFA05F505050505FA1DBA54A85020004D
:1011400000000007081714151515151417080700D7
:101150000000000C122A2DDD1DFA05F50505050518
:10116000FA1DDD2D2A120C000000000708171415C7
:101170001515151417080700000000140D2050A8BD
:1011800054BA1DFA05F555551505FA1DBA54A8505F
:101190002000000000070817141514141414170871
:1011A00007000000000C122A2DDD1DFA05F555552B
:1011B0001505FA1DDD2D2A120C0000000007081786
:1011C000141514141414170807000000000B0B006A
:1011D000000000207020000000000000000000005F
:1011E0000000000000000000A820D820A800000097
:1011F00000000000000000000000000000242000AB
:101200008C0020240000000001000001000001000B
:101210000000222000000200002022000002000046
:101220000002000000020000222000000200002056
:10123000220000020000000200000002000F1E0059
:101240004000E0004400FE004400E000400000FADE
:1012500000FF0052007F005200FF00FA0000C1783A
:10126000EE84D46E3F6ED484EE78C1000003030692
:101270000B0D1D1D1D0D0B06030300002000E800D3
:101280002000FE002000E800200000F9006E002988
:10129000007F0029006E00F90000C078EE84D46E53
:1012A0003F6ED484EE78C000000303060B091515C9
:1012B00015090B06030300100E0070E8B4BAEE0621
:1012C000FC0CF60EFA748870000000000102070C96
:1012D00017160D0603010000000070E8B4BAEE0610
:1012E000FC0CF60EFA748870000000000102070C76
:1012F00017160D0603010000000070E8B4BAEE06F0
:10130000FC0CF60EFA748870000000000102070C55
:1013100017160D0603010000000070E8B4BAEE06CF
:10132000FC0CF60EFA748870000000000102070C35
:1013300017160D060301000000804055AA55AA5556
:10134000AA55AA55AA55AA55AA55AA55AA55AA55A5
:10135000AA55AA55AA55A852A508F00000000000F9
:10136000000000000000000000000000000000007D
:10137000000000000000000000000000000000006D
:10138000000000000000000000000000000000005D
:10139000000000000000000000000000F00BA4515D
:1013A000AA55AA55AA55AA55AA55AA55AA55AA5545
:1013B000AA55AA55AA55AA55AA55AA55AA55AA5535
:1013C000AA55AA55AA55AA55AA55AA55AA55AA5525
:1013D000AA55AA55AA55AA017C8201000000000066
:1013E00000000000000200000000000000000000FB
:1013F00008000000000000000000000000000000E5
:1014000000000000000000000000000000000000DC
:10141000100000000000020020000000C12E9045D6
:10142000AA55AA55AA55AA55AA55AA55AA55AA55C4
:10143000AA55AA55AA55AA55AA55AA55AA55AA55B4
:10144000AA55AA55AA55AA55AA55AA55AA55AA55A4
:10145000AA55AA55AA5582394483000000000020ED
:101460000000000001000000000000000000080073
:10147000000000000000000000000000000000006C
:10148000000040000001000000000000000001001A
:101490000000000400000000000000000708F20542
:1014A000AA55AA55AA55AA55AA55AA55AA55AA5544
:1014B000AA55AA55AA55AA55AA55AA55AA55AA5534
:1014C000AA55AA55AA55AA55AA55AA55AA55AA5524
:1014D000AA55AA55AA55A24914E30000000000002D
:1014E000000000000000000000008000000000007C
:1014F00000000000000000000000000000000000EC
:1015000000000000000000000001000000000000DA
:10151000000004000000000000000000C0388750F8
:10152000AA55AA55AA55AA55AA55AA55AA55AA55C3
:10153000AA55AA55AA55AA55AA55AA55AA55AA55B3
:10154000AA55AA55AA55AA55AA55AA55AA55AA55A3
:10155000AA55AA55AA550AE11C0300000000000084
:10156000000000000000000000000000000000007B
:1015700000000000000000000020000000000080CB
:1015800000000000000000000000000000000080DB
:10159000000000000000000000000000C728924585
:1015A000AA55AA55AA55AA55AA55AA55AA55AA5543
:1015B000AA55AA55AA55AA55AA55AA55AA55AA5533
:1015C000AA55AA55AA55AA55AA55AA55AA55AA5523
:1015D000AA55AA55AA55A04F10E00000000000002F
:1015E00000040000000000000000000000000000F7
:1015F00000000000000000000000000000000000EB
:1016000000000008000000000000000000000000D2
:10161000000000000000000000000000C1229C410A
:10162000AA55AA55AA55AA55AA55AA55AA55AA55C2
:10163000AA55AA55AA55AA55AA55AA55AA55AA55B2
:10164000AA55AA55AA55AA55AA55AA55AA55AA55A2
:10165000AA55AA55AA55A2097483000000000000EB
:10166000000000080000000040000004000000002E
:10167000000000000000000000000000000000006A
:101680000000000000000200000000000000000058
:10169000000000000020000000000080413E805556
:1016A000AA55AA55AA55AA55AA55AA55AA55AA5542
:1016B000AA55AA55AA55AA55AA55AA55AA55AA5532
:1016C000AA55AA55AA55AA55AA55AA55AA55AA5522
:1016D000AA55AA55AA558A25D00F0000000000007F
:1016E00000000000000010000000000000000000EA
:1016F00000000000000000000000000000000000EA
:1017000000000000000200000000000000000000D7
:1017100000001000000000000000000F10A54A1596
:10172000AA55AA55AA55AA55AA55AA55AA55AA55C1
:10173000AA55AA55AA55AA55AA55AA000000000004
:1017400080E7FFFFFFFFFFFFFFFFFFFFFFFFFFFF40
:10175000FFFFFFFF0080C0E0F7FFFFFFFFFFFFFF7D
:10176000FFFFFFFFFFFFFFFFFFFFFFFFFF00070F70
:101770001F3F7FFFFFFFFFFFFFFFFFFFFFFFFFFF99
:10178000FFFFFFFFFFFF0000F0FCFEFFFFFFFFFF7A
:10179000FFFFFFFFFFFFFFFFFFFFFFFFFFFFFF0058
:1017A000001F7FFFFFFFFFFFFFFFFFFFFFFFFFFFA8
:1017B000FFFFFFFFFFFFFFFF000000E0F1FBFFFF67
:1017C000FFFFFFFFFFFFFFFFFFFFFFFFFFFFFFFF29
:1017D000FF0000000001E3F7FFFFFFFFFFFFFFFF37
:1017E000FFFFFFFFFFFFFFFFFFFF00000000000102
:1017F00087DFFFFFFFFFFFFFFFFFFFFFFFFFFFFF91
:10180000FFFFFF194000000000000080E7FBFDFD26
:10181000FEFEFFFFFFFFFFFFFFFFFFFFFFFF0000D8
:1018200080C0E0F7FBFBFFFFFFFFFFFFFFFFFFFFB5
:10183000FFFFFFFFFFFFFF0000070F1F3F7FBFBF3E
:10184000FFFFFFFFFFFFFFFFFFFFFFFFFFFFFFFFA8
:10185000000000F0FCFEFFFFFFFFFFFFFFFFFFFFA8
:10186000FFFFFFFFFFFFFFFFFF0000001F7FFFFFE5
:10187000FFFFFFFFFFFFFFFFFFFFFFFFFFFFFFFF78
:10188000FFFF00000000E0F1FBF7F7EFFFFFFFFFB5
:10189000FFFFFFFFFFFFFFFFFFFFFF000000000053
:1018A00001E3F3FDFFFFFFFFFFFFFFFFFFFFFFFF70
:1018B000FFFFFFFF0000000000000187DFBFBF7FC8
:1018C0007FFFFFFFFFFFFFFFFFFFFFFFFFFFFFFFA8
:1018D000FFFFFFFFFFFFFFFFFFFFFFFFFFFFFBE13A
:1018E000800000000000FFFFFFFFFFFFFFFFFFFF82
:1018F000FFFFFFFFFFFFFFFFEFC78000000000FFBB
:10190000FFFFFFFFFFFFFFFFFFFFFFFFFFFFFFFFE7
:10191000FFFFDF8F07000000FFFFFFFFFFFFFFFF5C
:10192000FFFFFFFFFFFFFFFFFFFFFFFFFFFEF800CE
:1019300000FFFFFFFFFFFFFFFFFFFFFFFFFFFFFFB6
:10194000FFFFFFFFFF7F3F0F0000FFFFFFFFFFFFD5
:10195000FFFFFFFFFFFFFFFFFFFFFFFFFFFEFCF8A2
:10196000F0E000FFFFFFFFFFFFFFFFFFFFFFFFFFB4
:10197000FFFFFFFFFFFFFFEF07030100FFFFFFFF78
:10198000FFFFFFFFFFFFFFFFFFFFFFFFFFFFE7017D
:1019900000000000001940FFFFFFFFFFFFFFFFFFF7
:1019A000FFFFFFFEFEFDFDFBE180000000000000E8
:1019B000FFFFFFFFFFFFFFFFFFFFFFFFFFFFFFFF37
:1019C000BFCFC7800000000000FFFFFFFFFFFFFF49
:1019D000FFFFFFFFFFFFFFFFF7EFEFDF8F070000C5
:1019E0000000FFFFFFFFFFFFFFFFFFFFFFFFFFFF05
:1019F000FFFFFFFFFFFFFEF8000000FFFFFFFFFFFC
:101A0000FFFFFFFFFFFFFFFFFFFFFFFFFFFF7F3F26
:101A10000F000000FFFFFFFFFFFFFFFFFFFFFFFFC3
:101A2000FFFFFFFFFDFDFEFCF8F0E00000FFFFFF01
:101A3000FFFFFFFFFFFFFFFFFFFFFFFFFFFFDFDFF6
:101A4000EF0703010000FFFFFFFFFFFFFFFFFFFFA6
:101A5000FFFF7F7FBFBFDFE70100000000000080C5
:101A60004055AA55AA55AA55AA55AA55AA55AA55E8
:101A7000AA55AA55AA55AA55AA55AA55A852A508C5
:101A8000F000000000200000000000000000000046
:101A90000000000000200000000000000000000026
:101AA000280000000000000000E00000000000002E
:101AB0000000000000E8000000000000000000003E
:101AC0000000F00BA451AA55AA55AA55AA55AA552B
:101AD000AA55AA55AA55AA55AA55AA55AA55AA550E
:101AE000AA55AA55AA55AA55AA55AA55AA55AA55FE
:101AF000AA55AA55AA55AA55AA55AA55AA017C8243
:101B00000100000000FF0000000090000000000045
:101B10000000000000FF0000000000F000000000D6
:101B2000008000000000000000FF00000000000036
:101B3000F8000000000F00000000000000FD0000A1
:101B40000000C12E9045AA55AA55AA55AA55AA55D6
:101B5000AA55AA55AA55AA55AA55AA55AA55AA558D
:101B6000AA55AA55AA55AA55AA55AA55AA55AA557D
:101B7000AA55AA55AA55AA55AA55AA5582394483E9
:101B800000000000000100000000FC000000000058
:101B9000E000000000040000000000FF0000000062
:101BA000004B00000000000000C400000000000026
:101BB0007F0000000000000000000000008900001D
:101BC00000000708F205AA55AA55AA55AA55AA5514
:101BD000AA55AA55AA55AA55AA55AA55AA55AA550D
:101BE000AA55AA55AA55AA55AA55AA55AA55AA55FD
:101BF000AA55AA55AA55AA55AA55AA55A24914E309
:101C00000000FE0000000080000001000000000055
:101C10000A00000000000000000000470000000073
:101C20000000000000000000001F00000000000095
:101C30000200002000000000FF0000000000000083
:101C40000000C0388750AA55AA55AA55AA55AA55CA
:101C5000AA55AA55AA55AA55AA55AA55AA55AA558C
:101C6000AA55AA55AA55AA55AA55AA55AA55AA557C
:101C7000AA55AA55AA55AA55AA55AA550AE11C0360
:101C800000004900000000FF00000000000000000C
:101C900000000000800000000000000000000000C4
:101CA0000000FF0000000000000004000000000031
:101CB0000000000F000000009F0000000000000076
:101CC0000000C7289245AA55AA55AA55AA55AA5553
:101CD000AA55AA55AA55AA55AA55AA55AA55AA550C
:101CE000AA55AA55AA55AA55AA55AA55AA55AA55FC
:101CF000AA55AA55AA55AA55AA55AA55A04F10E00B
:101D000000000000000000A3000000000000000030
:101D100000000000BF0000000000000000E4000020
:101D2000000027000000000000E0000000000000AC
:101D3000FC000000000000007C0000000000FF002C
:101D40000000C1229C41AA55AA55AA55AA55AA55D8
:101D5000AA55AA55AA55AA55AA55AA55AA55AA558B
:101D6000AA55AA55AA55AA55AA55AA55AA55AA557B
:101D7000AA55AA55AA55AA55AA55AA55A2097483C7
:101D80000000000000000000000000000000F8005B
:101D900000000000F800000000000000004F0000FC
:101DA000000001000000000000FF00000000000033
:101DB0002700000000008000000000000000230059
:101DC0000080413E8055AA55AA55AA55AA55AA5544
:101DD000AA55AA55AA55AA55AA55AA55AA55AA550B
:101DE000AA55AA55AA55AA55AA55AA55AA55AA55FB
:101DF000AA55AA55AA55AA55AA55AA558A25D00F5B
:101E0000000000007E000000000000000000040050
:101E100000000000100000000000000000000000B2
:101E2000000000000000000000140000000000009E
:101E30000000000000000F000000000000000E0085
:101E4000000F10A54A15AA55AA55AA55AA55AA5574
:101E5000AA55AA55AA55AA55AA55AA55AA55AA558A
:101E6000AA010204081020408000000000003E5B30
:101E70004F5B3E3E6B4F6B3E1C3E7C3E1C183C7ED7
:101E80003C181C577D571C1C5E7F5E1C00183C18BC
:101E900000FFE7C3E7FF0018241800FFE7DBE7FFB8
:101EA00030483A060E2629792926407F0505074045
:101EB0007F05253F5A3CE73C5A7F3E1C1C08081C06
:101EC0001C3E7F14227F22145F5F005F5F06097F44
:101ED000017F006689956A606060606094A2FFA2DD
:101EE0009408047E040810207E201008082A1C088C
:101EF000081C2A08081E101010100C1E0C1E0C3096
:101F0000383E3830060E3E0E06000000000000008D
:101F10005F00000007000700147F147F14242A7F4D
:101F20002A1223130864623649562050000807031A
:101F300000001C2241000041221C002A1C7F1C2A98
:101F400008083E08080080703000080808080800EB
:101F50000060600020100804023E5149453E0042E6
:101F60007F400072494949462141494D33181412B6
:101F70007F1027454545393C4A49493141211109DE
:101F8000073649494936464949291E0000140000D0
:101F900000403400000008142241141414141400EA
:101FA0004122140802015909063E415D594E7C1236
:101FB00011127C7F494949363E414141227F4141CE
:101FC000413E7F494949417F090909013E4141514B
:101FD000737F0808087F00417F41002040413F0196
:101FE0007F081422417F404040407F021C027F7FD7
:101FF0000408107F3E4141413E7F090909063E41E8
:1020000051215E7F09192946264949493203017F3A
:1020100001033F4040403F1F2040201F3F403840C9
:102020003F631408146303047804036159494D4362
:10203000007F4141410204081020004141417F04DA
:1020400002010204404040404000030708002054C1
:102050005478407F28444438384444442838444421
:10206000287F385454541800087E090218A4A49CF0
:10207000787F0804047800447D40002040403D0003
:102080007F1028440000417F40007C047804787C65
:10209000080404783844444438FC182424181824CC
:1020A0002418FC7C08040408485454542404043FB5
:1020B00044243C4040207C1C2040201C3C403040BC
:1020C0003C44281028444C9090907C4464544C44E8
:1020D0000008364100000077000000413608000289
:1020E000010204023C2623263C1EA1A161123A40B3
:1020F00040207A385454555921555579412154542A
:102100007841215554784020545579400C1E527224
:102110001239555555593954545459395554545800
:102120000000457C410002457D420001457C40F0B5
:10213000292429F0F0282528F07C54554500205406
:10214000547C547C0A097F49324949493232484813
:102150004832324A4848303A4141217A3A42402096
:1021600078009DA0A07D39444444393D4040403D25
:102170003C24FF2424487E4943662B2FFC2F2BFF51
:102180000929F620C0887E090320545479410000B3
:10219000447D413048484A32384040227A007A0A29
:1021A0000A727D0D19317D2629292F2826292929F2
:1021B0002630484D40203808080808080808083824
:1021C0002F10C8ACBA2F102834FA00007B0000088A
:1021D000142A142222142A14089500220095AA0019
:1021E0005500AAAA55AA55AA000000FF0010101019
:1021F000FF00141414FF001010FF00FF1010F01067
:10220000F0141414FC001414F700FF0000FF00FF8A
:102210001414F404FC141417101F10101F101F14B2
:1022200014141F00101010F0000000001F101010F8
:10223000101F10101010F010000000FF10101010F0
:102240001010101010FF10000000FF140000FF001D
:10225000FF00001F10170000FC04F41414171017DF
:102260001414F404F40000FF00F7141414141414EC
:1022700014F700F7141414171410101F101F14145F
:1022800014F4141010F010F000001F101F000000D4
:102290001F14000000FC140000F010F01010FF10DC
:1022A000FF141414FF141010101F00000000F01091
:1022B000FFFFFFFFFFF0F0F0F0F0FFFFFF00000076
:1022C0000000FFFF0F0F0F0F0F38444438447C2AE3
:1022D0002A3E147E02020606027E027E02635549F1
:1022E00041633844443C04407E201E2006027E02A6
:1022F0000299A5E7A5991C2A492A1C4C7201724C27
:10230000304A4D4D303048784830BC625A463D3EE8
:10231000494949007E0101017E2A2A2A2A2A444489
:102320005F444440514A444040444A51400000FF09
:102330000103E080FF000008086B6B0836123624AA
:1023400036060F090F0600001818000000101000D4
:102350003040FF0101001F01011E00191D1712006E
:102360003C3C3C3C0000000000080B000202020163
:10237000000904000001020200000524001001050C
:102380002401010104240206052406000107058139
:102390000310004009040100020A000000070502C2
:1023A00002400000070583024000000403090412F4
:1023B000010002EF020140412336800001010203C7
:1023C0000141726475696E6F204C4C430041726428
:1023D00075696E6F204C656F6E6172646F00012EBF
:1023E00011241FBECFEFDAE0DEBFCDBF11E0A0E0C9
:1023F000B1E0E6E1FFE502C005900D92AE35B10710
:10240000D9F726E0AEE5B1E001C01D92A73BB207C7
:10241000E1F711E1C0EFD1E104C02197FE010E9474
:102420007E2FCF3ED107C9F70E9440200C94892F00
:102430000C940000CF92DF92EF92FF920F931F93C4
:10244000CF93DF936C017A018B01C0E0D0E0CE1511
:10245000DF0589F0D8016D918D01D601ED91FC91D8
:102460000190F081E02DC6010995892B11F47E01C0
:1024700002C02196ECCFC701DF91CF911F910F9140
:10248000FF90EF90DF90CF90089580918E01E091C2
:102490008C01F0918D01882349F0CF010296909331
:1024A0008D0180938C01859194910895CF010296BE
:1024B00090938D0180938C01808191810895CF92BA
:1024C000DF92EF92FF920F931F93CF93DF930E94BF
:1024D0004512811520E8920761F4809171008D7F8B
:1024E00080937100109291004698479810928B014A
:1024F0008BC021E020938B01813020E8920751F4BA
:102500008091890190918A0190938D0180938C0133
:102510000E94451297FD05C020918801222309F4ED
:102520003FC02091870121113BC021E020938F0102
:10253000EC01DF77209769F481E080939001469861
:102540003FE9C32E3FE0D32EE12CF12CCAEFD0E0BF
:1025500014C08E0120E030E060E472E48FE090E08F
:10256000A90198010E94FB2E69017A0181E0C81A35
:10257000D108E108F10810929001E091AE05F091C8
:10258000AF050995811103C081E08093900180918E
:102590008F018823B9F180919001811133C003C06C
:1025A00010928F01C5CF46992DC0479A0E944512BF
:1025B000009771F09C01DE010E944F2FDC01CB01DE
:1025C00029E0B595A795979587952A95D1F703C0EA
:1025D0008FEF9FEFDC01109290002AE02093910092
:1025E000D0929900C09298008093910190939201AB
:1025F000A0939301B09394018091710082608093C5
:10260000710002C04798D2CFDF91CF911F910F91F7
:10261000FF90EF90DF90CF90089580915E01089534
:102620000895089580E090E008950E94842FCF934C
:10263000DF9300D000D0CDB7DEB7611571058105FD
:10264000910579F09B01AC0169833A834B835C83EC
:102650000E94D72E29813A814B815C810E94FB2EFA
:1026600003C060E070E0CB010F900F900F900F90CF
:10267000DF91CF9108953FB7F894809196019091A2
:102680009701A0919801B091990126B5A89B05C02A
:102690002F3F19F00196A11DB11D3FBFBA2FA92FE1
:1026A000982F8827820F911DA11DB11DBC01CD015E
:1026B00042E0660F771F881F991F4A95D1F708954A
:1026C0008F929F92AF92BF92CF92DF92EF92FF9242
:1026D0006B017C010E943B134B015C01C114D104CE
:1026E000E104F104F1F00E943B13DC01CB018819F5
:1026F0009909AA09BB09883E9340A105B10570F369
:1027000021E0C21AD108E108F10888EE880E83E0C2
:10271000981EA11CB11CC114D104E104F10419F7E5
:10272000DDCFFF90EF90DF90CF90BF90AF909F9064
:102730008F9008951F920F920FB60F9211242F932E
:102740003F938F939F93AF93BF9380915F0190913D
:102750006001A0916101B09162013091950123E087
:10276000230F2D3720F40196A11DB11D05C026E8C9
:10277000230F0296A11DB11D2093950180935F0147
:1027800090936001A0936101B093620180919601E2
:1027900090919701A0919801B09199010196A11D86
:1027A000B11D8093960190939701A0939801B093E7
:1027B0009901BF91AF919F918F913F912F910F9070
:1027C0000FBE0F901F9018951F920F920FB60F9289
:1027D00011242F933F934F935F936F937F938F9326
:1027E0009F93AF93BF93EF93FF938091910190914B
:1027F0009201A0919301B0919401892B8A2B8B2B8C
:1028000081F18091900181110BC098B180E48927FA
:1028100088B980918F01882319F088B1805888B9D0
:102820008091910190919201A0919301B0919401B6
:10283000181619061A061B06B4F48091910190919E
:102840009201A0919301B09194010197A109B1095E
:102850008093910190939201A0939301B09394017E
:1028600002C00E945F12FF91EF91BF91AF919F91C3
:102870008F917F916F915F914F913F912F910F9029
:102880000FBE0F901F901895EF92FF920F931F931A
:10289000DC01E1E7F0E090819D7F908310928E0152
:1028A000E0EAF5E0F0938D01E0938C01F0938A016A
:1028B000E0938901B183A08373836283558344834A
:1028C0003783268311870087F386E2861F910F9155
:1028D000FF90EF900C945F124F925F926F927F92F5
:1028E0008F929F92AF92BF92CF92DF92EF92FF9220
:1028F0000F931F93CF93DF9300D000D0CDB7DEB7F7
:10290000DC015B014115510509F4F3C0FA01849023
:10291000319694914E5F5F4FC82CD12C011102C0AB
:10292000EE2039F1692F669566956695E62FF0E001
:1029300061E070E0892F877011F460E070E06E0F45
:102940007F1FC69EF001C79EF00DD69EF00D11248C
:102950002115310539F0EE9EB001EF9E700D112466
:10296000260F371F0E9FB0010F9F700D1124460FC9
:10297000571FFD01EC0DFD1D1E161F060CF0B9C002
:10298000A038B1050CF0B5C0B501690F711D161660
:1029900017060CF0AEC060E4A616B1040CF0A9C096
:1029A0004115510509F4A5C07A2D7770572E850180
:1029B000B7FE02C0095F1F4F83E0159507958A9502
:1029C000E1F7802FB7FE04C0552011F08FEF800F84
:1029D000B7FF05C0002711270A1B1B0B02C000E030
:1029E00010E0E038F10524F060E86A1B462E01C0D3
:1029F000482C401AE82E082E000CFF088F3F1CF4CC
:102A0000FE2DF09501C0F0E0E1E0692F677009F458
:102A1000E0E09695969596959E0FE90EF11C79E06B
:102A2000E716F10414F098E0981B9F2E980E692D7C
:102A300070E86703A00DB11D1124A00FB11F78012C
:102A4000F89DE00CF11C11244E0D5F1D01E010E01B
:102A5000052C02C0000F111F0A94E2F72E0D3F1D36
:102A6000882E890E981409F444C0CD0180569E4FDB
:102A70005C01E12CF12CE414A0F5F901EE0DFF1D31
:102A8000E491E09FC001E19F900D11248095909505
:102A90009C838B83FA01EE0DFF1DE491E09F3001D2
:102AA000E19F700C11247A82698297FC05C0F501C0
:102AB00090818923682A6082552061F0F6E0F9153B
:102AC0004CF0F501E058FF4F90818C8189239A8169
:102AD000892B80836FEFE61AF60A7FEFA71AB70AF1
:102AE000CACF93944C0D5D1D2C0D3D1DA058BF4FBA
:102AF000B9CF0F900F900F900F90DF91CF911F9152
:102B00000F91FF90EF90DF90CF90BF90AF909F908C
:102B10008F907F906F905F904F9008952D9A0895B9
:102B2000BC0180E090E00C9460138FB18095807FB1
:102B3000669B88601C9B846008955C988EBD000035
:102B40000DB407FEFDCF5C9A089560387105D0F48E
:102B500040345105B8F4E1E6FEE180E1849FD00104
:102B6000A0781124A60F4770E40FF11D8491A056A0
:102B7000BE4F222319F06C91862B03C080956C9177
:102B800086238C9308952F923F924F925F926F927B
:102B90007F928F929F92AF92BF92CF92DF92EF92ED
:102BA000FF920F931F93CF93DF93CDB7DEB7299793
:102BB0000FB6F894DEBF0FBECDBFFC016A3069F4DA
:102BC00025898189928938E0239F800D911D1124E8
:102BD000928B818B108A1786AAC06D3009F4A7C02A
:102BE00099878887F5883488238861887288078563
:102BF000108900381105C4F0A885B98555962C9127
:102C00005597422F50E01F968D919C915097B6E0BA
:102C10002B9F800D911D1124E885F985908B878766
:102C2000268921116EC083C0F0E46F16710424F769
:102C3000C80125E0F29E800D911D11241816190679
:102C4000DCF68F2D90E09C838B83C301A8E0FA9E75
:102C5000800D911D11241816190674F6B5E06B9FAE
:102C6000B0011124FB01E759F14EFA83E98330E00A
:102C70008885998504969E838D83E981FA81E49005
:102C8000353009F4E12C430188E0482EE0FC02C015
:102C9000532C01C0522C51100BC0321009C0E694C5
:102CA0004A948B819C81880E991E4110EFCF1BC0E6
:102CB00068018C2D801B8F1590F754018A2D88197F
:102CC0008F1568F4252DA501B6018D819E813F8366
:102CD0000E94A5159FEFA91AB90A3F81EFCFAFEF68
:102CE000CA1ADA0AE6CF3F5FEB81FC810E0F1F1F85
:102CF00089819A8101969A838983363009F0BDCF04
:102D00007BCF6AEF64039001659F300D112420583A
:102D10003F4F281739075CF4A885B985ED91FC91E0
:102D200011970190F081E02D6AE0CD01099581E0D5
:102D300090E029960FB6F894DEBF0FBECDBFDF91AD
:102D4000CF911F910F91FF90EF90DF90CF90BF90A8
:102D5000AF909F908F907F906F905F904F903F903B
:102D60002F900895CF93DF93FC019C012B5F3F4F81
:102D7000CAE0D0E0CB01BE010E946A2F8193E21726
:102D8000F307C1F7DF91CF910895EF92FF920F9370
:102D90001F9380914506909146064E96909364014C
:102DA000809363012D9884E6E82EF12C07E114E06E
:102DB00024E630E043E952E064E670E088E891E020
:102DC0000E94441404EC10E024E630E04AE451E0B0
:102DD00064E670E08BE092E00E9444141F910F9132
:102DE000FF90EF9008956F927F928F929F92AF9293
:102DF000BF92CF92DF92EF920F931F93CF93DF9307
:102E000010918601C12F012E000CDD0B00E420E89B
:102E10004FE55AE1BE018DEF9FEF0E94DB19BE0125
:102E20006054710920E84FE55AE18DEF9FEF0E9451
:102E3000DB19D09185016D2E0D2E000C7708809046
:102E40008401082C000C9908E12C00E02DEC38E1FD
:102E500045E959E1B301C4010E946C14C09103011A
:102E6000AC2E0C2E000CBB08C09002010C2C000CE8
:102E7000DD082BE337E143E058E1B501C6010E94CC
:102E80006C14B301605471092DEC38E145E959E146
:102E9000C4010E946C14B501605471092BE337E141
:102EA00043E058E1C6010E946C14B301605C7F4F9F
:102EB0002DEC38E145E959E1C4010E946C14B501DB
:102EC000605C7F4F2BE337E143E058E1C6010E948D
:102ED0006C141F5F11341CF41093860102C0109211
:102EE0008601DE5FD1341CF4D093850102C01092BC
:102EF0008501CE5FC1341CF4C093030102C010925F
:102F00000301DF91CF911F910F91EF90DF90CF9050
:102F1000BF90AF909F908F907F906F9008956F9229
:102F20007F928F929F92AF92BF92CF92DF92EF9259
:102F30000F931F93CF93DF9310918601C12F012E22
:102F4000000CDD0B00E420E849E353E1BE018DEF06
:102F50009FEF0E94DB19BE016054710920E849E32C
:102F600053E18DEF9FEF0E94DB19D09185016D2E0B
:102F70000D2E000C770880908401082C000C990815
:102F8000E12C00E02DEC38E145E959E1B301C40141
:102F90000E946C14C0910301AC2E0C2E000CBB08D7
:102FA000C09002010C2C000CDD082BE337E143E05C
:102FB00058E1B501C6010E946C14B3016054710957
:102FC0002DEC38E145E959E1C4010E946C14B501CA
:102FD000605471092BE337E143E058E1C6010E94D8
:102FE0006C14B301605C7F4F2DEC38E145E959E189
:102FF000C4010E946C14B501605C7F4F2BE337E184
:1030000043E058E1C6010E946C141F5F11341CF4A8
:103010001093860102C010928601DE5FD1341CF449
:10302000D093850102C010928501CE5FC1341CF49B
:10303000C093030102C010920301DF91CF911F9151
:103040000F91EF90DF90CF90BF90AF909F908F90B7
:103050007F906F900895CF93DF93EC016AE070E06A
:1030600080E090E00E941713DC01CB014E96A11D79
:10307000B11D809365016DE370E080E090E00E94F7
:103080001713DC01CB014A96A11DB11D99838883DA
:1030900084EE9FEF9B838A83DF91CF910895CF9336
:1030A000DF93EC016AE070E080E090E00E9417138B
:1030B000DC01CB010A96A11DB11D809366016DE371
:1030C00070E080E090E00E941713DC01CB014A968B
:1030D000A11DB11D9983888384EE9FEF9B838A8312
:1030E000DF91CF910895EF920F93FC0124813581F8
:1030F0002250310927303105D8F4220F331FF9014E
:10310000EE5DFE4F40815181F901EC5EFE4F208162
:1031100031814115510561F02115310549F0FC015E
:10312000068162817381E02E808191810E946C14FE
:103130000F91EF9008950F931F93CF93DF93C0E00B
:10314000D0E000E810E040916701BE0180E090E02F
:103150000E94A41980916701BE016F5F7F4F482FC5
:103160009801281B3109C9010E94A4192296C03474
:10317000D10549F780916701882329F08450809315
:10318000670180E001C081E0DF91CF911F910F9135
:103190000895EF92FF920F931F93CF93DF931F92A7
:1031A000CDB7DEB77C01FC0100811181C8016983C4
:1031B0000E94E52E6981681719F0C8010E94ED2E62
:1031C000C7010F90DF91CF911F910F91FF90EF906A
:1031D00008952FB7F89483E08093E9009091E80078
:1031E000892F807295FF04C09091F20080E4891BC2
:1031F0002FBF0895CF93DF931F92CDB7DEB76983BA
:10320000DC01ED91FC910280F381E02D41E050E082
:10321000BE016F5F7F4F09950F90DF91CF910895A9
:1032200083E08093E9008091F200882319F08AE31B
:103230008093E80008950E94E91890E008958F9225
:103240009F92AF92BF92CF92DF92EF92FF920F9335
:103250001F93CF93DF935C016B017A0180910B0187
:10326000882309F45BC080919D01882309F456C02E
:1032700080919B0180FF05C08091E0008260809377
:10328000E000E70110E00AEF83E0882E9AE3992E30
:103290002097D9F10E94E91881110AC0015009F460
:1032A0003DC061E070E080E090E00E946013F0CFEC
:1032B000282F30E0C217D3070CF48C2F4FB7F894A7
:1032C0008092E9009091E80095FF1DC0282F30E022
:1032D000C21BD30BF601982F915020F0819180935F
:1032E000F100FACFC20ED31E112319F09092E8001C
:1032F00009C08091E80085FD06C09092E80011E0C9
:10330000209709F010E04FBFC3CF1111C3CF5D98D4
:1033100084E680939A011E141F0444F081E090E03B
:10332000F5019383828380E090E001C0C701DF91C3
:10333000CF911F910F91FF90EF90DF90CF90BF90B2
:10334000AF909F908F9008959C01240F311D12160D
:10335000130684F5803891056CF5FC0197FF02C0D7
:10336000E0E0F0E02138310514F020E830E02E1BD9
:10337000AB014770552781E090E001C0880F4A9566
:10338000EAF7809577FF02C0695F7F4F93E07595FC
:1033900067959A95E1F77695762F662777956795E5
:1033A000E60FF71FE056FE4F215020F09081982342
:1033B0009193FACF08952F923F924F925F926F921E
:1033C0007F928F929F92AF92BF92CF92DF92EF92B5
:1033D000FF920F931F93CF93DF93CDB7DEB728975C
:1033E0000FB6F894DEBF0FBECDBF5A01822E912CCE
:1033F0009C01280D391D37FDC4C0803891050CF0A3
:10340000C0C09B01200F311D37FDBBC0603471056A
:103410000CF0B7C0AB0177FF04C044275527461B0B
:10342000570B477055279B0177FF02C0295F3F4F1D
:10343000E3E035952795EA95E1F777FF08C021503D
:10344000310968E070E0DB01A41BB50BAD01602F12
:1034500066956695669570E0077011F06F5F7F4F17
:10346000DB01A20FB31FBA83A98339017694762CAE
:10347000662477946794680E791EE12CF12C00E0A5
:1034800010E02301B0E84B0E511C68E070E0DB0156
:10349000A41BB50BBC83AB8369817A8126173707E0
:1034A00009F46FC02830310509F46BC02F3FBFEF1E
:1034B0003B070CF45BC0B201600F711FDB01A0562B
:1034C000BE4FBE83AD83D801A60DB71DA056BE4F1B
:1034D0006C0160E070E0681579050CF047C0E0E829
:1034E000CE16D10409F442C0D7FC34C02F3FFFEF01
:1034F0003F0709F442C0FB01EE0DFF1DEA0DFB1D65
:10350000E491042E01C0EE0F0A94EAF73C90E329FF
:10351000EC9341155105F1F027303105D9F0FB014D
:10352000EE0DFF1DEA0DFB1DE4912E2E312CF10155
:103530000B8002C0F595E7950A94E2F7F887EF83D0
:10354000ED81FE813080EF81F885E3291F01ED8157
:10355000FE8120826F5F7F4FED81FE813196FE8379
:10356000ED83FFEFCF1ADF0A1196B5CF2F5F3F4FE4
:1035700000581F4FE80CF91C8FCF4115510579F603
:10358000E9CF28960FB6F894DEBF0FBECDBFDF910E
:10359000CF911F910F91FF90EF90DF90CF90BF9050
:1035A000AF909F908F907F906F905F904F903F90E3
:1035B0002F9008950F931F93CF93DF9300D0CDB733
:1035C000DEB70EE911E0F801608182E990E09A83AC
:1035D0008983CE0101960E94C918F801618183E9AF
:1035E00090E09A838983CE0101960E94C918C80190
:1035F0000F900F90DF91CF911F910F91089580E070
:10360000E0EAF1E081118FEF0024819381938193AF
:1036100081930394D1F7EEE3F6E0128A118A108ABF
:1036200017860895E0EAF1E080E0A0E0B8E00080CD
:103630000EBC8111012C1197A0FDFDCF0192B9F7AD
:103640000DB408950F931F93CF93DF938C01C0E0C7
:10365000D0E0F801EC0FFD1F6491662371F0E0915A
:103660003E06F0913F060190F081E02D8EE396E05A
:103670000995892B11F02196ECCFCE01DF91CF91E6
:103680001F910F91089520914806282329F49091C5
:103690004706982381E009F480E008954F925F92F5
:1036A0006F927F928F929F92AF92BF92CF92DF9252
:1036B000EF92FF920F931F93CF93DF93EC018B0157
:1036C000442ECB018C1B9D0B97FF03C091958195D8
:1036D000910955245394813891053CF4512CC8012B
:1036E00000E810E0E12CF12C0FC00C171D0734F09E
:1036F0007E0180E890E0C0E0D0E006C078018E0155
:1037000080E090E0C0E8D0E038016E187F085C01EE
:10371000AC1ABD0AB7FE03C0B194A194B10863010D
:1037200077FE03C02FEFC21AD20AD594C794C817E8
:10373000D90714F08FEF01C081E0882E880F990817
:103740000E151F05C4F0242D552019F0A701BE0148
:1037500002C0AE01B70182E496E00E94A515CA1826
:10376000DB08D7FE04C0C80DD91DC60CD71C8FEFCF
:10377000E81AF80AE5CFDF91CF911F910F91FF90E2
:10378000EF90DF90CF90BF90AF909F908F907F9001
:103790006F905F904F9008958F929F92AF92BF92DB
:1037A0000F931F93CF93DF93CDB7DEB7A1970FB6DB
:1037B000F894DEBF0FBECDBF19A2423008F44AE034
:1037C0008E010F5D1F4F842E912CA12CB12CA501D1
:1037D00094010E942D2FE62FB901CA010150110951
:1037E000EA3014F4E05D01C0E95CD801EC93232BCE
:1037F000242B252B61F70115110571F0F8010190BB
:103800000020E9F73197AF01401B510BB8018EE35F
:1038100096E00E941A1202C080E090E0A1960FB6D6
:10382000F894DEBF0FBECDBFDF91CF911F910F91F6
:10383000BF90AF909F908F900895FC0190913D06AE
:10384000903179F027E0299FD0011124A353BA4F7A
:1038500001900D922A95E1F79F5F90933D0681E0DC
:10386000089580E00895FC0180919D01811103C0BD
:103870008FEF9FEF08959FB7F89482E08093E9005F
:103880002091F20030E01216130614F421E030E02B
:103890002115310559F0289884E680939C01809188
:1038A000F10080838091F200882319F09FBFC90145
:1038B00008958BE68093E800F9CFCF93DF931F92B2
:1038C000CDB7DEB7FC018485958597FD05C02FEF48
:1038D0003FEF358724870BC0CE0101960E94331C31
:1038E000019719F4898190E002C08FEF9FEF0F904C
:1038F000DF91CF9108958091590681110DC082E02A
:103900008093550684E080935606109258061092D4
:10391000570681E08093590685E596E00895FC01FD
:103920008485958597FD0BC09FB7F89482E08093BE
:10393000E9008091F2009FBF90E0019608959FB743
:10394000F89482E08093E9008091F2009FBF90E0BC
:1039500008954091B5065091B6062091B306309176
:10396000B40642175307B4F49091E8009570E1F360
:103970009091E80092FD19C08093F1008091B50606
:103980009091B60601968F739927892B19F48EEFC3
:103990008093E8008091B5069091B60601969093C9
:1039A000B6068093B50681E0089580E00895CF9231
:1039B000DF92EF92FF920F931F93CF93DF931F92AB
:1039C000CDB7DEB7182F062FE42E862F880F8E5F17
:1039D00099830E94A91C83E00E94A91CF12EC12E8C
:1039E0009981D92E8C2D8F19801798F4F601E7FE56
:1039F00002C0849101C080810E94A91C182F80E020
:103A00000E94A91C8123FFEFCF1ADF0A8111EACFA0
:103A100001C081E00F90DF91CF911F910F91FF9036
:103A2000EF90DF90CF900895DF92EF92FF920F9387
:103A30001F93CF93DF93D82E8A017B01E40EF51EEE
:103A4000EB01CE15DF0571F0D7FE03C0FE018491B6
:103A500001C088810E94A91C21968111F2CF8FEFAD
:103A60009FEF01C0C801DF91CF911F910F91FF908F
:103A7000EF90DF900895615030F02091F100FC014B
:103A800020830196F8CF289884E680939C010895BE
:103A90000F931F93CF93DF931F92CDB7DEB78C01A7
:103AA000FC018485958597FF0EC0CE0101960E948A
:103AB000331C019719F4298130E002C02FEF3FEF4A
:103AC000F80135872487F801848595850F90DF916B
:103AD000CF911F910F9108950F931F93CF93DF9371
:103AE0001F92CDB7DEB782E0898342E450E069E6F9
:103AF00073E280E80E94141D0E947B1CDC01129678
:103B00000D911C9113970115110569F0D801ED91E4
:103B1000FC910280F381E02DBE016F5F7F4FC801F1
:103B2000099597FF07C089810F90DF91CF911F9171
:103B30000F910895F80100851185E5CF1F920F922E
:103B40000FB60F9211248F939F938091E100909173
:103B5000E100937F9093E10083FF0FC01092E90092
:103B600091E09093EB001092EC0092E39093ED00C3
:103B700010929D0198E09093F00082FF20C093E0A6
:103B80009093E9009091F200992319F09AE39093B1
:103B9000E80090919A01992339F090919A019150FF
:103BA00090939A01992389F190919C01992339F07E
:103BB00090919C01915090939C01992341F184FF35
:103BC00010C08091E2008E7E81608093E20080913F
:103BD000E1008F7E8093E10080919B018E7E806169
:103BE00011C080FF16C08091E2008E7E80618093BC
:103BF000E2008091E1008E7E8093E10080919B0144
:103C00008E7E816080939B0104C05D9ACDCF289AFF
:103C1000D6CF9F918F910F900FBE0F901F90189548
:103C20001F920F920FB60F921124CF92DF92EF9254
:103C3000FF920F931F932F933F934F935F936F9335
:103C40007F938F939F93AF93BF93EF93FF93CF9304
:103C5000DF93CDB7DEB76C97DEBFCDBF1092E90022
:103C60008091E80083FFEDC168E0CE0145960E9497
:103C70003B1D82EF8093E8008D8987FF05C09091FE
:103C8000E80090FFFCCF03C09EEF9093E800982FD0
:103C9000907609F0C6C09E892F89188D91110CC0AD
:103CA000803829F48091B2068093F10002C010920E
:103CB000F1001092F10048C1422F50E0512B913099
:103CC00051F4811141C14130510509F03DC180914C
:103CD000B2068D7F0BC0933061F4811135C1413044
:103CE000510509F031C18091B20682608093B2061D
:103CF0002BC1953041F48091E80080FFFCCF206813
:103D00002093E30021C1963009F05FC0EB8CFC8C5E
:103D10001092E9001092B6061092B506123091F595
:103D20001092B4061092B3060E946C1D99E0BE0179
:103D30006F5F7F4FDB01E92F1D92EA95E9F79983C9
:103D40001A8391E09E8390EA98879AEF9987209151
:103D5000B5063091B606275F3F4F3C832B838D839A
:103D60001092E9001092B6061092B506F092B406D1
:103D7000E092B30649E050E080E00E94141D0E94EA
:103D80006C1DE2C0F092B406E092B3060E947B1C68
:103D9000DC011296ED90FC901397E114F10409F404
:103DA000C0C0D701ED91FC910480F581E02DBE01EA
:103DB0006B5E7F4FC7010995009719F00CF0C4C0E6
:103DC000C7C0F701E084F184E8CF973009F4C0C0A0
:103DD000983021F481E08093F100B6C0993009F069
:103DE000B3C0837009F0B4C0E7E5F1E081E021E001
:103DF00036E39081992361F08093E9002093EB00F2
:103E000091919093EC003093ED008F5F873089F7AC
:103E10008EE78093EA001092EA008F8980939D01DB
:103E200093C08B8D9C8D1092E9001092B606109273
:103E3000B5069093B4068093B306898D811156C060
:103E40008E899D89913A59F4813209F081C047E009
:103E500050E064E071E080E00E94141D75C0913272
:103E600009F076C0833289F4888D90E0982F8827F6
:103E70002F89822BA0E0B0E080930C0190930D017C
:103E8000A0930E01B0930F015FC0803269F480915E
:103E9000E80082FFFCCF67E084E091E00E943B1DD8
:103EA0008BEF8093E80006C0823209F04DC08F8905
:103EB00080930B018091B106882319F0EEEFFAE0B0
:103EC00002C0E0E0F8E08091040190910501A0912A
:103ED0000601B0910701803B9440A105B10509F0AE
:103EE0007BC080910B0180FF93C076C00E947B1C39
:103EF000DC0112960D911C9113970115110541F1EA
:103F0000D801ED91FC910190F081E02DBE016B5E36
:103F10007F4FC8010995811117C0F80100851185EF
:103F2000ECCF113009F44EC0133091F48F898823FF
:103F300009F445C0823081F440E860E18DEC93E201
:103F40000E94D71C882321F08EEF8093E80079C06F
:103F500081E28093EB0075C0813029F440E86BE08A
:103F600081EC93E2EDCF833099F70E947B1CDC015A
:103F70001296ED90FC9013978E010F5F1F4F680112
:103F8000E114F10479F0D701ED91FC910680F781FD
:103F9000E02DB801C7010995080F111DF701E08454
:103FA000F184EECFD8011C92F60101900020E9F7D0
:103FB0003197BF016C197D0940E0C601C1CF6BEAA2
:103FC00073E202C06FEA73E26115710509F2FB0149
:103FD000449150E080E840CF0FB6F894A8958091C6
:103FE0006000886180936000109260000FBEA89509
:103FF000EE3F2AE0F20739F08091FE0A9091FF0A25
:1040000091838083A1CF1092FF0A1092FE0A9CCF69
:10401000EE3F8AE0F80731F0808191819093FF0AAA
:104020008093FE0A87E797E7918380839BE088E18E
:104030000FB6F894A895809360000FBE909360002F
:1040400083CF6C960FB6F894DEBF0FBECDBFDF9165
:10405000CF91FF91EF91BF91AF919F918F917F9100
:104060006F915F914F913F912F911F910F91FF9011
:10407000EF90DF90CF900F900FBE0F901F9018958C
:10408000CF93DF93CDB7DEB72D970FB6F894DEBF91
:104090000FBECDBF789484B5826084BD84B5816045
:1040A00084BD85B5826085BD85B5816085BD809103
:1040B0006E00816080936E0010928100809181007B
:1040C0008260809381008091810081608093810073
:1040D0008091800081608093800080919100826057
:1040E00080939100809191008160809391008091F4
:1040F00090008160809390008091C10084608093E3
:10410000C1008091C10082608093C1008091C10094
:1041100081608093C1008091C30081608093C3005F
:104120008091C00082608093C0008091C200816055
:104130008093C20080917A00846080937A0080919D
:104140007A00826080937A0080917A008160809307
:104150007A0080917A00806880937A0010929D01A5
:104160001092B20610929B018091D70081608093DB
:10417000D70080EA8093D80089B5806189BD89B570
:10418000826089BD09B400FEFDCF61E070E080E08F
:1041900090E00E9460138091D8008F7C80618093B2
:1041A000D8008091E000807F8093E0008091E10062
:1041B0008E7E8093E1008DE08093E200559A209AF4
:1041C000EEEFFFE7859194918B3F9C4D19F481E0D0
:1041D0008093B10681EC80937C0085B1806F85B9B6
:1041E00084B1877E84B984B1876E84B95E9A5F9802
:1041F0008AB1806D8AB9769A6E9881B3806F81BBDF
:10420000899880B38D7080BB80E58CBD81E08DBDC9
:1042100085E090E00E9490155F9A85E090E00E9412
:1042200090155E985C98EAEBF0E08DE08E0F94912B
:104230009EBD00000DB407FEFDCF31968E13F7CF63
:104240005C9A81E88093640080916500816080932E
:1042500065000E94121B0E94951587FF10C085EA19
:104260000E949D152E982F982D9880916400806251
:104270008093640081E083BF889513BEFCCF02E089
:1042800010E00E94951582FF42C02D980E9495155E
:1042900084788438C9F00E9495158471843191F531
:1042A0000E948E1588EC90E00E9490152E981A833B
:1042B000098360E0CE0101960E94C91884EF91E065
:1042C0000E9490152E9A19C00E948E1588EC90E0DD
:1042D0000E9490152F981A8309836FEFCE010196E3
:1042E0000E94C91884EF91E00E9490152F9A0E94B5
:1042F000951584788438D9F3CECF0E9495158471B2
:104300008431D9F388EC90E00E949015BACF0E94D6
:104310008E1582E090E00E94E52E882331F03E9ACF
:104320003F9A81E080935E0104C010925E013E9846
:104330003F980E94FF1A80E990E00E94E52E182F16
:1043400081E990E00E94E52E1C3479F48A3569F405
:1043500082E990E00E94E52E80939E0183E990E03F
:104360000E94E52E80939F0120C010929F01109221
:104370009E0180E990E09A8389836CE4CE010196E6
:104380000E94C91881E990E09A8389836AE5CE0189
:1043900001960E94C91860919E0182E990E09A837B
:1043A0008983CE0101960E94C91880E18093490655
:1043B000AE014F5F5F4F3A018FB7F89440915F01B4
:1043C0005091600160916101709162018FBF809195
:1043D0004A06942F981B892F90914B06992331F010
:1043E00080934C0610924B060C942B2D909149060D
:1043F000891758F48F5F891710F00C942B2D81E0EA
:1044000083BF889513BE0C942B2D81E080934B06BF
:1044100040934A06809145069091460601969093F6
:1044200046068093450680914706809348060E9481
:104430009515809347060E94FF1A80918301811190
:1044400030C000E420E84BE15BE060E070E080E039
:1044500090E00E94DB19C12CD12C60E8E62EF12CF3
:1044600010916701412FB60180E090E00E94A419ED
:10447000B6016F5F7F4F412FC701811B91090E94D9
:10448000A419A2E0CA0ED11CB0E4CB16D10441F7A6
:1044900017FF02C00C94352D1F5F109367010C9419
:1044A000292D813009F044C0E12C00E022EA39E0F6
:1044B0004FE15AE068E070E084E390E00E946C1401
:1044C00085E290E090934E0680934D0681E390E064
:1044D0009093500680934F0688E999E00E94221B32
:1044E000809145069091460668E770E00E946A2F29
:1044F000892BD1F401E022EA39E04FE15AE068E08B
:1045000070E084E390E00E946C14809182018F5FE0
:1045100080938201833040F080E88093670182E0DD
:1045200080938301109282010E949B180C94292D84
:10453000823009F063C180914506909146066FE094
:1045400070E00E946A2F892B51F4809181018F5F66
:10455000853018F48093810102C01092810110917E
:104560008101E12E012F26E538E046EF58E06BE1AE
:1045700070E087E190E00E946C1426E538E046EF99
:1045800058E06BE170E089E590E00E946C1400E473
:1045900020E846E554E060E070E080E090E00E94B2
:1045A000DB19809180010EE022E3811103C042EF0C
:1045B00053E002C04EE853E06FE270E087E290E023
:1045C0000E94DB190E949B1888E00E94431B8823ED
:1045D00009F4FBC0809164008E7F80936400809119
:1045E0007A00806480937A0080917A0086FDFCCF07
:1045F00000917800109179000E943B1320E030E098
:10460000980111270027600F711F821F931F6115EA
:1046100071058105910511F00E94DC2E80916400E6
:1046200081608093640010927F0110927E0181E08E
:104630008093010133E0D32ED092000110927D01CE
:1046400010927C0110927B016AE070E080E090E0C3
:104650000E941713DC01CB010A96A11DB11D8093A6
:1046600066016AE070E080E090E00E941713DC01D0
:10467000CB010A96A11DB11D8093650186E390E0F0
:10468000909375018093740182E390E09093770199
:104690008093760181E090E0909379018093780196
:1046A00010927A0110923D066DE370E080E090E098
:1046B0000E941713DC01CB014A96A11DB11D9A83FC
:1046C000898304EE1FEF1C830B83E2E0F0E0FE839E
:1046D000ED831F82C3010E941D1C6DE370E080E02A
:1046E00090E00E941713DC01CB014A96A11DB11D79
:1046F0009A8389831C830B8324E030E03E832D83DF
:104700001F82C3010E941D1C6DE370E080E090E0F9
:104710000E941713DC01CB014A96A11DB11D9A839B
:1047200089831C830B8344E050E05E834D831F82AA
:10473000C3010E941D1C6DE370E080E090E00E94C8
:104740001713DC01CB014A96A11DB11D9A83898301
:104750001C830B8386E090E09E838D831F82C301C0
:104760000E941D1C6DE370E080E090E00E94171332
:10477000DC01CB014A96A11DB11D9A8389831C835C
:104780000B8387E090E09E838D831F82C3010E948C
:104790001D1C42E3E42EF12C05EA10E022E330E098
:1047A00046E251E062E370E08BE092E00E94441444
:1047B00080918001811103C0D092830103C086E003
:1047C0008093830180E88093670180E80E94431B07
:1047D000882329F08091800181110C943A2D80E189
:1047E0000E94431B882311F40C94292D8091800191
:1047F000882311F40C94502D0C94292D833009F04A
:1048000017C740907E0150907F010E94951585FF4B
:1048100009C080917401909175018331910514F064
:104820000C94652D0E94951586FF09C08091740136
:10483000909175018C35910514F40C946C2D0E94A7
:10484000951587FF09C080917601909177018B3093
:10485000910514F00C94732D0E94951584FF09C0E6
:1048600080917601909177018133910514F40C9435
:104870007A2D88E00E94431B882389F120917601DC
:1048800030917701225031094091740150917501A6
:10489000495F5F4F8091CC05843009F197E0899F93
:1048A000F0011124E055FA4F518340833383228372
:1048B00028E030E03583248316828F5F8093CC0517
:1048C00028ECE22EF12C01E410E024E630E043E88D
:1048D00050E062E370E08BE092E00E94441484E0D8
:1048E0000E94431B882391F096E4E92EF12C07E205
:1048F00015E022E330E04BE452E066E470E086E04D
:1049000091E00E94441485E08093830180916B01C3
:1049100090916C01009761F0209145063091460618
:104920002817390728F02E9A10926C0110926B010B
:104930008091690190916A01009761F0209145068C
:10494000309146062817390728F02F9A10926A01ED
:10495000109269018091630190916401009769F060
:1049600020914506309146062817390730F00E94FD
:104970008E15109264011092630180916D019091E7
:104980006E01009771F02091450630914606281778
:10499000390738F086EA0E949D1510926E01109238
:1049A0006D0120916601222369F080914506909166
:1049B00046066CE370E00E946A2F892B19F421509F
:1049C0002093660120916501222369F080914506BC
:1049D000909146066CE370E00E946A2F892B19F4CF
:1049E000215020936501812C87E0D82E80913D06CF
:1049F000881608F071C2282C312CE0917401F091D6
:104A000075016091760170917701D29CD001D39CA1
:104A1000B00D1124A353BA4F14964D915C91159784
:104A200044305105C9F08CF44230510509F056C1AB
:104A30002D913C9111972F5F3F4F12968D919C9134
:104A4000139701961DE00FE020C04630510589F014
:104A50004730510571F042C12D913C9111972F5F64
:104A60003F4F12968D919C91139744961DE00DE057
:104A70000CC02D913C9111972D5F3F4F12968D9157
:104A80009C91139703961CE00CE0DF011B962A17FC
:104A90003B070CF023C1200F311D3696E217F307B8
:104AA0000CF01CC19B01275F3F4F821793070CF04E
:104AB00015C1810F911D6C5F7F4F681779070CF04E
:104AC0000DC1D29CC001D39C900D112483539A4FE9
:104AD0004430510509F47CC024F44230510579F08A
:104AE000FDC04630510509F4D8C04730510509F0E2
:104AF000F5C00E942B18F1E0F0937201E0C08091A4
:104B00007E0190917F01059690937F0180937E01B5
:104B100080917C0190917D018330910510F0029786
:104B200002C080E090E090937D0180937C018091B1
:104B30007B018F5F80937B018F3004F180910001B6
:104B40008F5F8093000180914506909146064E96B6
:104B500090936A01809369012F9804E6E02EF12C6E
:104B60000AE914E124E630E04DE45AE064E670E03E
:104B700087E295E00E94441410927B01D29C800150
:104B8000D39C100D112403531A4FE2EFFFEFD8010D
:104B90001396FC93EE9312976DE370E080E090E043
:104BA0000E941713DC01CB014A96A11DB11DF8012B
:104BB0009183808310E5E12EF12C03E912E020E5DA
:104BC00030E04AE451E060E570E085EA90E084C0BE
:104BD0008091000181508093000180917C0190912F
:104BE0007D0104968932910528F490937D0180938C
:104BF0007C0106C028E230E030937D0120937C01E7
:104C0000B4E6EB2EF12C01E410E024E630E043E8BA
:104C100050E064E670E086E091E00E94441487EA88
:104C20000E949D152E9880914506909146069C0104
:104C30002E5F3F4F30936E0120936D014E969093FF
:104C40006C0180936B018091000187FF09C031E006
:104C50003093010184E08093830186EA0E949D15D0
:104C6000D29C8001D39C100D112403531A4FE4EE03
:104C7000FFEFD8011396FC93EE9312976DE370E06B
:104C800080E090E00E941713DC01CB014A96A11D41
:104C9000B11DF8019183808321C020917C01309166
:104CA0007D012531310518F02451310902C020E081
:104CB00030E030937D0120937C010E944F18A4E6E0
:104CC000EA2EF12C0AE914E124E630E04DE45AE042
:104CD00064E670E087E295E00E9444149090CC0571
:104CE00020EB35E03D872C87C12CD29CF001D39C72
:104CF000F00D1124E353FA4FAF014C5F5F4F5B8718
:104D00004A8742505109C91409F4E4C0AC85BD85F5
:104D10006D917C9111971296AD90BC901397AA85D6
:104D2000BB850D911C910430110591F006301105E1
:104D3000D1F00230110509F0C6C0208131812F5F0A
:104D40003F4FDA018D919C910196BDE0AFE015C017
:104D5000208131812F5F3F4FDA018D919C914496E4
:104D6000BDE0ADE00AC0208131812D5F3F4FDA0107
:104D70008D919C910396BCE0ACE0A9877B01A3E0F8
:104D8000EA0EF11C2E153F050CF09DC0A9852A0FD7
:104D9000311D621773070CF096C095012A5F3F4FD3
:104DA000821793070CF08FC08B0F911DA816B906C0
:104DB0000CF089C002301105E9F10430110509F049
:104DC00062C080917E0190917F010A9690937F014D
:104DD00080937E01D29CF001D39CF00D1124E3530B
:104DE000FA4F45E050E0558344836DE370E080E086
:104DF00090E00E941713DC01CB014A96A11DB11D62
:104E00009A83898384EE9FEF9C838B831E830D831B
:104E10001F82C3010E941D1CE4E6EE2EF12C01E26C
:104E200010E024E630E041E450E064E670E083E81E
:104E300090E027C080917E0190917F018B30910599
:104E400010F00A9702C080E090E090937F01809379
:104E50007E01D29CF001D39CF00D1124E353FA4F54
:104E600023E030E035832483F4E6EF2EF12C06E0D6
:104E700011E024E630E046E051E064E670E086E0D0
:104E800091E00E9444148091CC0581508093CC0520
:104E9000C81600F52C2D30E0D29ED001D39EB00D67
:104EA0001124A055BA4F2F5F3F4FD29EF001D39EE1
:104EB000F00D1124E055FA4F9D2D01900D929A9519
:104EC000E1F7C394E5CFC394AC85BD851796BD8744
:104ED000AC8719CF83948ACD00E017E05AE0252EE5
:104EE000312C65E0C62ED12C74EEA72EBB24BA94CB
:104EF00070913D06071708F067C1E02EF12C1E9D4A
:104F0000C0011F9D900D112483539A4FDC0114960C
:104F1000ED91FC9115973297E730F10508F052C1F9
:104F2000EA5AFF4F0C947E2F1E9DC0011F9D900DCD
:104F30001124FC01E353FA4F4F01209101018281BA
:104F40009381820F911D27FD9A95019681349105D9
:104F50001CF49383828310C0B382A2826DE370E05D
:104F600080E090E00E941713DC01CB014A96A11D5E
:104F7000B11DF4019183808380914506909146068E
:104F800067E070E0DDC01E9DC0011F9D900D1124E3
:104F90009C0123533A4F7901D90112968D919C912E
:104FA0001397019713969C938E931297843E9F4F6D
:104FB000B4F4F901B382A2826DE370E080E090E086
:104FC0000E941713DC01CB014A96A11DB11DF70108
:104FD0009183808322E030E03583248380C08091F8
:104FE000450690914606B6010E946A2F892B09F06A
:104FF000E9C0D90116968C9116978F5F63E00E94E5
:105000005E2F16969C93DEC01E9DC0011F9D900DC5
:105010001124FC01E353FA4F4F01209101018281D9
:105020009381820F911D27FD9A95813491051CF47F
:105030009383828310C0B382A2826DE370E080E02C
:1050400090E00E941713DC01CB014A96A11DB11D0F
:10505000F401918380838091450690914606B601C4
:105060006FC01E9DF0011F9DF00D1124E353FA4FF8
:10507000828193810196938382838134910504F127
:10508000ADECB5E060E0671709F49CC014962D9173
:105090003C9115972530310581F44D915C91119724
:1050A000208131814217530741F412962D913C9192
:1050B00013972817390709F424C56F5F1796E3CFB4
:1050C0008091450690914606B6010E946A2F892B71
:1050D00009F078C086818F5F843008F43FC0168263
:1050E00071C020916601211126C01E9DF0011F9DF7
:1050F000F00D1124E353FA4F22813381213431051D
:105100009CF00E944F1817C020916501211113C017
:105110001E9DF0011F9DF00D1124E353FA4F2281D3
:105120003381213431052CF42F5F3F4F33832283A9
:1051300002C00E942B188091450690914606B1014D
:105140000E946A2F892BF1F51E9DF0011F9DF00D25
:105150001124E353FA4F86818F5F8170868332C0BA
:105160001E9DF0011F9DF00D1124E353FA4F828123
:1051700093818D30910534F47091CC05A0EBB5E0AE
:1051800060E00DC00697938382831CC014962D9116
:105190003C9115972830310529F06F5F17966713FA
:1051A000F5CF10C04D915C9111972081318142174C
:1051B000530799F712962D913C91139728173907A9
:1051C00061F7BDC40F5F94CE8091450680FD06C097
:1051D00080917A018F5F817080937A0190E027E05F
:1051E0008091CC05981780F5299FF0011124E05596
:1051F000FA4F428153814D3051052CF046505109F0
:10520000538342831FC081508093CC05392F3817B8
:10521000C8F4432F50E0249FD001259FB00D1124E6
:10522000A055BA4F4F5F5F4F249FF001259FF00DAF
:105230001124E055FA4F422F01900D924A95E1F763
:105240003F5FE5CF9F5FCCCF8091450690914606AA
:105250006CE370E00E946A2F892B49F480917C01F5
:1052600090917D01029690937D0180937C018091C5
:105270007C0190917D01899718F084E080938301EF
:1052800080917201882309F120913D06EDECF5E053
:1052900080E090E0821759F04481558144305105F7
:1052A00089F442E050E055834483913051F4809179
:1052B0006F019091700101969093700180936F013E
:1052C00004C091E08F5F3796E5CF80916F01909198
:1052D0007001803E914008F120913D06EDECF5E033
:1052E00080E090E0821759F04481558142305105A9
:1052F00089F4A4E0B0E0B583A483913051F4109216
:1053000072011092700110926F012E9A0E948E15F8
:1053100004C091E08F5F3796E5CF2091450630912C
:105320004606C9016EE170E00E946A2F892B51F494
:10533000909173019F5F923018F49093730102C0B3
:105340001092730180917201882359F1C90163E0C1
:1053500070E00E946A2F892B61F4E12C00E02FE8B5
:1053600031E04DED51E069E170E081E390E00E94B1
:105370006C14809145069091460666E070E00E94AC
:105380006A2F892B71F49091710181E089278093B4
:105390007101882319F02E982D9803C02E9A0E942F
:1053A0008E150E948F17E12C00E02DE232E047E5D8
:1053B00052E06FE070E087E790E00E946C14A090EC
:1053C0007C01B0907D0109E710E07501FF24B1E197
:1053D000EB0EF11C41E1C42ED12CC701F1E4EF1614
:1053E000F10414F080E490E0C816D9065CF420E0E3
:1053F000A601B80182E496E00E94A515EFEFCE1A4F
:10540000DE0AEBCF0F5F1F4F0C37110519F710E0C5
:1054100007E080913D06181748F4019FC001112450
:1054200083539A4F0E9473181F5FF3CF00917A0144
:10543000C0907601D09077018090740190907501B2
:10544000E02E23E832E047EC52E0B601C4010E94AE
:105450006C1410E007E08091CC05181748F4019F08
:10546000C001112480559A4F0E9473181F5FF3CF1B
:105470002FE1A216B10488F08091730181110DC053
:10548000B6016A5F7F4FE12C00E02DE033E045E498
:1054900053E0C40104970E946C14E12CF12C00E04D
:1054A00010E020E0A801B70182E496E00E94A51573
:1054B0000F5F1F4F0A301105A1F73FEFE31AF30A00
:1054C00040E8E416F10459F781E090E090934E062D
:1054D00080934D061092500610924F0687E893E095
:1054E0000E94221B85E290E090934E0680934D0629
:1054F0001092500610924F0660917E0170917F01CC
:10550000C3010E94B2168E010A5F1F4FD8016E912F
:105510008D0170E080E090E04AE00E94CC1B06150F
:105520001705A1F78EE490E090934E0680934D0608
:105530001092500610924F068FE793E00E94221BB4
:1055400088E790E090934E0680934D0610925006A7
:1055500010924F06C09000010C2C000CDD08EE08E4
:10556000FF08F7FE14C0E0913E06F0913F0601905F
:10557000F081E02D6DE28EE396E0099566277727AE
:10558000CB016C197D098E099F094AE003C04AE0EE
:10559000C701B6010E94CC1B41E069E070E089E0E0
:1055A00090E00E944E1B40E06AE070E08AE090E0EC
:1055B0000E944E1B80917E0190917F018C3DB5E051
:1055C0009B0740F0ECED4E16E5E05E0608F041C2A8
:1055D00082E00BC08E37F4E09F0760F02EE74216A2
:1055E00024E0520608F035C281E0809301010E9458
:1055F000C5162FC2843833E0930730F044E84416D0
:1056000043E0540628F325C28A3852E0950730F06B
:105610008AE8481682E0580638F31BC2843F91405E
:1056200008F417C2B4EF4B16B1E05B0688F211C262
:10563000843009F0C7C02E9A2F9A0E948E1580914F
:105640007E0190917F0120919E0130919F0128174A
:10565000390730F490939F0180939E010E94DA1ADB
:105660000E948F17E12CF12C00E110E020E0A8014E
:10567000B70182E496E00E94A5150F5F1F4F0F321D
:105680001105A1F7EFEFEE1AFE0AF0E8EF16F104AC
:1056900059F741E061E170E081E190E00E944E1B2A
:1056A00041E06DE270E08DE290E00E944E1B40E030
:1056B00060E370E080E390E00E944E1B40E062E314
:1056C00070E082E390E00E944E1B85E290E09093B0
:1056D0004E0680934D0685E090E0909350068093AF
:1056E0004F0685E891E00E94221B8EE190E09093A6
:1056F0004E0680934D0607E110E01093500600938C
:105700004F068EE791E00E94221B81E490E0909387
:105710004E0680934D061093500600934F066091FD
:105720007E0170917F01C3010E94B2168E010A5F53
:105730001F4F7801D7016E917D0170E080E090E00D
:105740004AE00E94CC1BE614F704A1F78FE090E03A
:1057500090934E0680934D0631E2E32EF12CF092A9
:105760005006E0924F0682E791E00E94221B81E5FD
:1057700090E090934E0680934D06F0925006E09292
:105780004F0660919E0170919F01C3010E94B21665
:10579000F80162918F0170E080E090E04AE00E94A1
:1057A000CC1B06151705A1F7E12C00E02CEE30E02C
:1057B0004EE251E064E370E08EE290E00E946C14EF
:1057C00084E040C1853009F085C00E94F316E12CC9
:1057D000F12C08E110E020E0A801B70182E496E096
:1057E0000E94A5150F5F1F4F0C321105A1F7FFEFA7
:1057F000EF1AFF0A20E8E216F10459F741E069E1E7
:1058000070E089E190E00E944E1B41E06AE270E0A6
:105810008AE290E00E944E1B40E06DE270E08DE273
:1058200090E00E944E1B40E06FE270E08FE290E05B
:105830000E944E1B81E390E090934E0680934D06AC
:105840008FE190E09093500680934F0686EE90E0B3
:105850000E94221B80914506909146066FE070E001
:105860000E946A2F892B51F4809181018F5F8530CE
:1058700018F48093810102C010928101109181017E
:10588000E12E012F26E538E046EF58E06BE170E0AD
:105890008CE190E00E946C1426E538E046EF58E079
:1058A0006BE170E082E590E00E946C148FE090E084
:1058B00090934E0680934D0685E290E090935006BB
:1058C00080934F0684E00E94431B882309F4C1C0E3
:1058D00083E0BDC0863009F0BCC00E94F316E12C05
:1058E000F12C00E110E020E0A801B70182E496E08D
:1058F0000E94A5150F5F1F4F0F321105A1F73FEF53
:10590000E31AF30A40E8E416F10459F741E061E1D3
:1059100070E081E190E00E944E1B41E06DE270E09A
:105920008DE290E00E944E1B40E060E370E080E377
:1059300090E00E944E1B40E062E370E082E390E062
:105940000E944E1B8091680181110AC084E00E9470
:10595000431B882309F445C081E08093680141C05E
:1059600080E10E94431B8823C1F010929F01109296
:105970009E010E94DA1A1092680122E3E22EF12CB5
:105980000DE41AE022E330E047E255E062E370E024
:1059900083E992E00E94441406C084E00E94431B05
:1059A00081111092680180E190E090934E068093FF
:1059B0004D0606E310E01093500600934F068CED61
:1059C00090E00E94221B82E490E090934E06809328
:1059D0004D061093500600934F0683ED90E00E9411
:1059E000221B8FE090E090934E0680934D060CE1D1
:1059F00010E01093500600934F0687EC90E00E9451
:105A0000221B81E590E090934E0680934D06109303
:105A1000500600934F0660919E0170919F01C30153
:105A20000E94B2168E010A5F1F4FD8016E918D0140
:105A300070E080E090E04AE00E94CC1B061517055C
:105A4000A1F788E00E94431B882319F082E080932D
:105A500083010E94121B80E090E0892B11F40C94CA
:105A6000DC210E9400000C94D82180E8809367011B
:105A700081E0EDCF92E3E92EF12C05EA10E022E37C
:105A800030E042E550E062E370E083E992E00E949A
:105A90004414809180018150809380010C94EF2305
:105AA00082E3E82EF12C05EA10E022E330E042E543
:105AB00050E062E370E083E992E00E944414809138
:105AC00080018F5F80938001C4CF0197909375010F
:105AD000809374010C941224019690937501809325
