:100000000C94FE0F0C9426100C9426100C942610C1
:100010000C9426100C9426100C9426100C94261088
:100020000C9426100C9426100C94C01A0C94321BBD
:100030000C9426100C9426100C9426100C94261068
:100040000C9426100C9426100C9426100C94261058
:100050000C9426100C9426100C9426100C94A811C5
:100060000C9426100C9426100C9426100C94261038
:100070000C9426100C9426100C9426100C94261028
:100080000C94F2110C9426100C9426100C9426104B
:100090000C9426100C9426100C9426100C94261008
:1000A0000C9426100C9426100C942610D5F08D1468
:1000B000A1C881CFD9F1AF2000000000000080E787
:1000C000FFFFFFFFFFFFFFFFFFFFFFFFFFFFFFFF40
:1000D000FFFF0080C0E0F7FFFFFFFFFFFFFFFFFF14
:1000E000FFFFFFFFFFFFFFFFFFFFFF00070F1F3FA7
:1000F0007FFFFFFFFFFFFFFFFFFFFFFFFFFFFFFF90
:10010000FFFFFFFF0000F0FCFEFFFFFFFFFFFFFF10
:10011000FFFFFFFFFFFFFFFFFFFFFFFFFF00001FCD
:100120007FFFFFFFFFFFFFFFFFFFFFFFFFFFFFFF5F
:10013000FFFFFFFFFFFF000000E0F1FBFFFFFFFFFD
:10014000FFFFFFFFFFFFFFFFFFFFFFFFFFFFFF00BE
:1001500000000001E3F7FFFFFFFFFFFFFFFFFFFFCE
:10016000FFFFFFFFFFFFFFFF00000000000187DF30
:10017000FFFFFFFFFFFFFFFFFFFFFFFFFFFFFFFF8F
:10018000FF194000000000000080E7FBFDFDFEFEBF
:10019000FFFFFFFFFFFFFFFFFFFFFFFF000080C02B
:1001A000E0F7FBFBFFFFFFFFFFFFFFFFFFFFFFFF8E
:1001B000FFFFFFFFFF0000070F1F3F7FBFBFFFFFD5
:1001C000FFFFFFFFFFFFFFFFFFFFFFFFFFFF00003D
:1001D00000F0FCFEFFFFFFFFFFFFFFFFFFFFFFFF41
:1001E000FFFFFFFFFFFFFF0000001F7FFFFFFFFF7C
:1001F000FFFFFFFFFFFFFFFFFFFFFFFFFFFFFFFF0F
:1002000000000000E0F1FBF7F7EFFFFFFFFFFFFF4B
:10021000FFFFFFFFFFFFFFFFFF000000000001E303
:10022000F3FDFFFFFFFFFFFFFFFFFFFFFFFFFFFFEC
:10023000FFFF0000000000000187DFBFBF7F7FFFDE
:10024000FFFFFFFFFFFFFFFFFFFFFFFFFFFFFFFFBE
:10025000FFFFFFFFFFFFFFFFFFFFFFFFFBE180004E
:1002600000000000FFFFFFFFFFFFFFFFFFFFFFFF9A
:10027000FFFFFFFFFFFFEFC78000000000FFFFFF51
:10028000FFFFFFFFFFFFFFFFFFFFFFFFFFFFFFFF7E
:10029000DF8F07000000FFFFFFFFFFFFFFFFFFFFF3
:1002A000FFFFFFFFFFFFFFFFFFFFFFFEF80000FF64
:1002B000FFFFFFFFFFFFFFFFFFFFFFFFFFFFFFFF4E
:1002C000FFFFFF7F3F0F0000FFFFFFFFFFFFFFFF6C
:1002D000FFFFFFFFFFFFFFFFFFFFFFFEFCF8F0E067
:1002E00000FFFFFFFFFFFFFFFFFFFFFFFFFFFFFF1D
:1002F000FFFFFFFFFFEF07030100FFFFFFFFFFFF0F
:10030000FFFFFFFFFFFFFFFFFFFFFFFFE701000011
:100310000000001940FFFFFFFFFFFFFFFFFFFFFF8F
:10032000FFFEFEFDFDFBE180000000000000FFFF7E
:10033000FFFFFFFFFFFFFFFFFFFFFFFFFFFFBFCF3D
:10034000C7800000000000FFFFFFFFFFFFFFFFFF6F
:10035000FFFFFFFFFFFFF7EFEFDF8F070000000059
:10036000FFFFFFFFFFFFFFFFFFFFFFFFFFFFFFFF9D
:10037000FFFFFFFFFEF8000000FFFFFFFFFFFFFF92
:10038000FFFFFFFFFFFFFFFFFFFFFFFF7F3F0F00AC
:100390000000FFFFFFFFFFFFFFFFFFFFFFFFFFFF6B
:1003A000FFFFFDFDFEFCF8F0E00000FFFFFFFFFF98
:1003B000FFFFFFFFFFFFFFFFFFFFFFFFDFDFEF0795
:1003C00003010000FFFFFFFFFFFFFFFFFFFFFFFF35
:1003D0007F7FBFBFDFE701000000000000804055C5
:1003E000AA55AA55AA55AA55AA55AA55AA55AA5515
:1003F000AA55AA55AA55AA55AA55A852A508F0006B
:1004000000000020000000000000000000000000CC
:100410000000002000000000000000000000280094
:1004200000000000000000E00000000000000000EC
:10043000000000E8000000000000000000000000D4
:10044000F00BA451AA55AA55AA55AA55AA55AA55C2
:10045000AA55AA55AA55AA55AA55AA55AA55AA55A4
:10046000AA55AA55AA55AA55AA55AA55AA55AA5594
:10047000AA55AA55AA55AA55AA55AA017C820100D7
:10048000000000FF000000009000000000000000DD
:10049000000000FF0000000000F0000000000080ED
:1004A00000000000000000FF000000000000F80055
:1004B0000000000F00000000000000FD0000000030
:1004C000C12E9045AA55AA55AA55AA55AA55AA556E
:1004D000AA55AA55AA55AA55AA55AA55AA55AA5524
:1004E000AA55AA55AA55AA55AA55AA55AA55AA5514
:1004F000AA55AA55AA55AA55AA558239448300007F
:100500000000000100000000FC0000000000E0000E
:10051000000000040000000000FF00000000004B8D
:1005200000000000000000C40000000000007F0088
:100530000000000000000000000000890000000032
:100540000708F205AA55AA55AA55AA55AA55AA55AB
:10055000AA55AA55AA55AA55AA55AA55AA55AA55A3
:10056000AA55AA55AA55AA55AA55AA55AA55AA5593
:10057000AA55AA55AA55AA55AA55A24914E300009E
:10058000FE000000008000000100000000000A00E2
:100590000000000000000000004700000000000014
:1005A000000000000000001F00000000000002002A
:1005B000002000000000FF0000000000000000001C
:1005C000C0388750AA55AA55AA55AA55AA55AA5562
:1005D000AA55AA55AA55AA55AA55AA55AA55AA5523
:1005E000AA55AA55AA55AA55AA55AA55AA55AA5513
:1005F000AA55AA55AA55AA55AA550AE11C030000F6
:100600004900000000FF00000000000000000000A2
:10061000000080000000000000000000000000005A
:10062000FF000000000000000400000000000000C7
:10063000000F000000009F0000000000000000000C
:10064000C7289245AA55AA55AA55AA55AA55AA55EA
:10065000AA55AA55AA55AA55AA55AA55AA55AA55A2
:10066000AA55AA55AA55AA55AA55AA55AA55AA5592
:10067000AA55AA55AA55AA55AA55A04F10E00000A0
:100680000000000000A300000000000000000000C7
:100690000000BF0000000000000000E400000000B7
:1006A00027000000000000E0000000000000FC0047
:1006B0000000000000007C0000000000FF000000BF
:1006C000C1229C41AA55AA55AA55AA55AA55AA5570
:1006D000AA55AA55AA55AA55AA55AA55AA55AA5522
:1006E000AA55AA55AA55AA55AA55AA55AA55AA5512
:1006F000AA55AA55AA55AA55AA55A209748300005D
:10070000000000000000000000000000F8000000F1
:100710000000F800000000000000004F0000000092
:1007200001000000000000FF0000000000002700A2
:100730000000000080000000000000002300008096
:10074000413E8055AA55AA55AA55AA55AA55AA555B
:10075000AA55AA55AA55AA55AA55AA55AA55AA55A1
:10076000AA55AA55AA55AA55AA55AA55AA55AA5591
:10077000AA55AA55AA55AA55AA558A25D00F0000F0
:1007800000007E00000000000000000004000000E7
:100790000000100000000000000000000000000049
:1007A0000000000000000014000000000000000035
:1007B000000000000F000000000000000E00000F0D
:1007C00010A54A15AA55AA55AA55AA55AA55AA551B
:1007D000AA55AA55AA55AA55AA55AA55AA55AA5026
:1007E0004155534500F8FCFCFC7878FC781C3878BF
:1007F000FCFCF850F8FCFC78F8FCFC6800FCFEFF00
:10080000FFFFFFFFFEFC01030100000000000000ED
:1008100000000000000000000000000000000001D7
:1008200003030303030100210A00F808483000789D
:100830001008003048685000506868005068680030
:100840000000FC027A526202FC000001000000007D
:100850000000000000000000000000000000000098
:100860000000000001010101010000484947482043
:1008700053434F52453A0053434F52453A00474184
:100880004D45204F564552000000002070F8702062
:100890000000000000000000000000000000000058
:1008A000A8FCF8FCF8FCA800000000000100010012
:1008B000010000000024FE74ACDEAC74FE240000D5
:1008C00001030101030101030100227772200207E5
:1008D00002207277220207020002070200020702CA
:1008E000227772200207022072772202070200029A
:1008F0000702000207020B0B00000000207020001E
:1009000000000000000000000000000000000000E7
:1009100000A820D820A8000000000000000000006F
:100920000000000000002420008C002024000000B3
:100930000001000001000001000000222000000270
:10094000000020220000020000000200000002005F
:10095000002220000002000020220000020000000F
:1009600002000000020070F8FCFEFFFFFFFEFEFF29
:10097000FFFFFEFCF87000000103070F1F3F3F1F41
:100980000F070301000070F8FCFEFFFFFFFEFEFFF3
:10099000FFFFFEFCF87000000103070F1F3F3F1F21
:1009A0000F070301000070F8FCFEFFFFFFFEFEFFD3
:1009B000FFFFFEFCF87000000103070F1F3F3F1F01
:1009C0000F070301000070F8FCFEFFFFFFFEFEFFB3
:1009D000FFFFFEFCF87000000103070F1F3F3F1FE1
:1009E0000F0703010000100E0070E8B4BAEE06FC19
:1009F0000CF60EFA748870000000000102070C1754
:100A0000160D0603010000000070E8B4BAEE06FC03
:100A10000CF60EFA748870000000000102070C1733
:100A2000160D0603010000000070E8B4BAEE06FCE3
:100A30000CF60EFA748870000000000102070C1713
:100A4000160D0603010000000070E8B4BAEE06FCC3
:100A50000CF60EFA748870000000000102070C17F3
:100A6000160D0603010000002070F87CFEFFFEFF5B
:100A7000FFFFFFFFFFFEFFFE7CF87020000000007C
:100A8000070F1F1F1F1F1F1F1F1F0F070000000042
:100A90000C1E3E3FFFFFFEFFFFFFFFFFFFFEFFFFBD
:100AA0003F3E1E0C00000000070F1F1F1F1F1F1FCF
:100AB0001F1F0F0700000000140D2050A854BA1D7E
:100AC000FA05F555551505FA1DBA54A85020000031
:100AD0000000070817141514141414170807000051
:100AE00000000C122A2DDD1DFA05F555551505FAE5
:100AF0001DDD2D2A120C0000000007081714151424
:100B00001414141708070000000040E0E0F0E4EEC1
:100B1000FEFFFEEEE4F0E0E040FAFFFFFFFFFF7FA4
:100B2000FF7FFFFFFFFFFFFAC1FFFFFFFEFEFFFF9A
:100B3000FFFEFEFFFFFFC10307070F1F1F3F3F3FE1
:100B40001F1F0F07070320F0E8FC28F0FEFFFEF050
:100B500028FC28F020F9FFF96E297FFFFFFF7F298D
:100B60006EF9FFF9C0F9FEFFFEFEFFFFFFFEFEFF7C
:100B7000FEF9C00307070F1F1F3F3F3F1F1F0F074F
:100B800007030F1E004000E0004400FE004400E0A8
:100B900000400000FA00FF0052007F005200FF00FA
:100BA000FA0000C178EE84D46E3F6ED484EE78C132
:100BB00000000303060B0D1D1D1D0D0B0603030096
:100BC000002000E8002000FE002000E800200000D7
:100BD000F9006E0029007F0029006E00F90000C0B6
:100BE00078EE84D46E3F6ED484EE78C000000303A8
:100BF000060B09151515090B06030300307CFEFCD6
:100C0000F8FCFCFEFFFEFCFCF8FCFE7C3002070F4B
:100C10000F1F3B1F0B030B1F3B1F0F0F0702307CE7
:100C2000FEFCF8FCFCFEFFFEFCFCF8FCFE7C300247
:100C30000F1F0B377B37030303377B370B1F0F0265
:100C4000110F00304CE83008F01C861CF00830E82A
:100C50004C3000000205000A110A0101010A110AC4
:100C60000005020000304CE83008F01C861CF0083B
:100C700030E84C300000020900023102010101029B
:100C8000310200090200534849454C443A0053439D
:100C90004F52453A00FCFEFFFFFFFEFCFFFFFFFF47
:100CA000FFFFFFFFFFFFFFFFFFFFFFFFFFFFFFFF54
:100CB000FFFFFFFFFFFFFFFF070F1F1F1F0F0707AC
:100CC0002D00F402AA02F40000FF00AA00FF0000B9
:100CD000FF00AA00FF0000FF00AA00FF0000FF00C5
:100CE000AA00FF000007080A0807002E7F2E7F2EAB
:100CF000003E7F3F0F3E7F7E7F3E7F7F2A7F7E705C
:100D000020002E7F2E7F2E1C07002E002E000000BC
:100D10003E0A02003E203E003E2A003E2020000007
:100D2000002E002E00000000000000000000000067
:100D300000000000000000000000000000000000B3
:100D400000000000000000000000000000000000A3
:100D50000000000000000000000000000000000093
:100D60000000000000000000000000000000000083
:100D70000000000000000000000000000000000073
:100D80000000000000000000000000000000000063
:100D90000000000000000000000000000000000053
:100DA0000000000000000000000000000000000043
:100DB00000000000000000000010101050505050C3
:100DC00050505050505050505050500000F8F8F8CB
:100DD000F808D000000000C0E0F0F0F878787878EB
:100DE000F8F0F0E0C00838F8F8F8F8C0C0F8F8F803
:100DF000F8380840E0F0F8F8787878F87800005093
:100E00005050505050505050505050505050101062
:100E100010000000000000000000000000000000C2
:100E200000000000000000000000000000000000C2
:100E300000000000000000000000000000000105AC
:100E400005151555555555555555550000FFFFFFCE
:100E5000FFC0DFE040803FFFFFFFE1C28181818171
:100E6000C2E1FFFFFF3F0000873FFFFFFFFF1F07BB
:100E70000000FC00FFFFFFFF9E9E9EBE9E000055EF
:100E800055555555555555151505050100000000DA
:100E90000000000000000000000000000000000052
:100EA0000000000000000000000000000000000042
:100EB000008000C000800000000000000000000072
:100EC00000000000000101010505050000C0C3C3CA
:100ED000C7D7D7D7D08880000103CBD7D7D717176C
:100EE00017CBC3C1C0000000000384CFC3C0C00043
:100EF0000000C1C4C9D3171717D7D7CFC700000543
:100F000005050101010000000000000000000000D4
:100F1000000000008000C000800000000000000011
:100F20000000000000FC7880C0C0C080004800FCC9
:100F3000004800FF004800FC0048000000000000DE
:100F400000000000000000000000000000FFFFFFA4
:100F5000FF03E3E3FFFF7F3E0000FFFFFFFF000012
:100F600000FFFFFFFF0000003EFFFFFFFFE3C300A5
:100F70000000FFFFFFFFF0F000FFFFFFFF00000099
:100F80000000000000000000000000000000000061
:100F90004800FC004800FF004800FC00480080C0FA
:100FA000C0C08078FCFFFEFFFFFFDFEFC03F00DF27
:100FB000808AC0EFC08A80DF003F00000000000090
:100FC000000000000000000000000000003FBFBF64
:100FD000BF80630F3FBFBFBCA080471F1F3FBCBC8B
:100FE000BCBF9F4F0700003EBCBCBFBF9F4F070068
:100FF00000003FBFBFBF8040003FBFBFBF80400079
:1010000000000000000000000000000000000000E0
:101010003F00DF808AC0EFC08A80DF003FC0EFDF83
:10102000FFFFFFFEFFFFFFFFFFFFAB5482786FDD86
:10103000F0BA2D272DBAF0DD6F7800000000000017
:1010400000000000000000000000000000000000A0
:101050000000000000C040408000C0804000804090
:1010600040800080404000804040000000E0109040
:10107000509010E0000000000000000000000000A0
:101080000000000000000000000000000000000060
:10109000786FDDF0BA2D272DBAF0DD6F7807AFFF3E
:1010A000FFFFFFFFFFFFFFFFFFFFFFFFFEFDFAF463
:1010B000E9F5EBF3FBFDFDCEE0F0F8F8F8F8F0E031
:1010C000C000000000000000000000000000000060
:1010D00000000000000F00020100030000000102F8
:1010E0000302000203030002030300000007080BD1
:1010F000090B0807000000000000000000000000CD
:10110000000000000000000000C0E0F0F8F8F8F86F
:10111000F0E0CEFDFDF3EBF3E9F5EAF5FAFDFEFFB5
:10112000FFFFFFFFFF70F8FCFEFFFFFFFEFEFFFF6B
:10113000FFFEFCF87000000103070F1F3F3F1F0F69
:101140000703010000000000F8FCFEFFFEFEFFFEAA
:10115000FCF800000000000001070F1F3F3F1F0FB9
:1011600007030000000000000000FCFEFFFFFEFC83
:10117000000000000000000000000F1F3F3F1F0F95
:101180000000000000000000F8FCFEFFFEFEFFFE75
:10119000FCF800000000000003070F1F3F3F1F0F77
:1011A000070100000070F8FCFEFFFFFFFEFEFFFFDE
:1011B000FFFEFCF87000000103070F1F3F3F1F0FE9
:1011C0000703010000100E00708874DAAA4A941414
:1011D0000A0A8A748870000000000102050B1615C7
:1011E0000A05020100000000000000F804020404E7
:1011F000FA04F8000000000000000001060C1814BA
:101200000B040300000000000000000000FCC2C24C
:10121000FC0000000000000000000000000F1A1A8F
:101220000F00000000000000000000F804FA0404B1
:101230000204F8000000000000000003040B141872
:101240000C06010000000000708874DAAA4A9414A9
:101250000A0A8A748870000000000102050B161546
:101260000A050201000000423A43414E43454C004A
:10127000444F574E3A44454C2E00000000000000F9
:10128000000000000000000000000000000000005E
:10129000000000000000000000000000000000004E
:1012A000000000000000000000000000000000003E
:1012B000000000000000000000000000000000002E
:1012C000000000000000000000000000000000001E
:1012D000000000000000000000000000000000000E
:1012E00000000000000000000000000000000000FE
:1012F00000000000000000000000000000000000EE
:1013000000000000000000000000000000000000DD
:1013100000000000000000000000000000000000CD
:1013200000000000000000000080808080808000BD
:1013300000000080808080808080800000000000AD
:10134000000000000000000000000000000000009D
:10135000000000000000000000000000000000008D
:10136000000000000000000000000000000000007D
:10137000000000000000000000000000000000006D
:10138000000000000000000000000000000000005D
:10139000000000000000000000000000000000004D
:1013A000000000000000020A2AA8A38F3FFFFFFEF2
:1013B000F08000FFFFFFFFFFFFFF070000000000BD
:1013C0000080808080C0C00080000000000000001D
:1013D000000000000000000000000000000000000D
:1013E00000000000000000000000000000000000FD
:1013F00000000000000000000000000000000000ED
:1014000000000000000000000000000000000000DC
:1014100000000000000000000000000000000000CC
:1014200000000000000000000000020A0A28A38754
:101430001F7FFCFFFFFFFFFF7F01F0F8FCFE06A30C
:101440000B07073F0F230802000000000000000008
:10145000000000000000000000000000000000008C
:10146000000000000000000000000000000000007C
:10147000000000000000000000000000000000006C
:10148000000000000000000000000000000000005C
:10149000000000000000000000000000000000004C
:1014A000000000000000000000000000000000023A
:1014B0000A28A1871F7FFF1F0080F1F3F3636322D7
:1014C000B21E202800000000000000000000000004
:1014D000000000000000000000000000000000000C
:1014E00000000000000000000000000000000000FC
:1014F00000000000000000000000000000000000EC
:1015000000000000000000000000000000000000DB
:1015100000000000000000000000000000000000CB
:1015200000000000000000000000000000080808A3
:10153000C808884A8A48480888498908CA48094822
:10154000C848080808000000000000000000000073
:10155000000000000000000000000000000000008B
:10156000000000000000000000000000000000007B
:10157000000000000000000000000000000000006B
:10158000000000000000000000000000000000005B
:10159000000000000000000000000000000000004B
:1015A000000000000000000000000000000000003B
:1015B0000003000002030300010201000301000018
:1015C0000300000000000000000000000000000018
:1015D000000000000000000000000000000000000B
:1015E00000000000000000000000000000000000FB
:1015F00000000000000000000000000000000000EB
:1016000000000000000000000000000000000000DA
:1016100000000000000000000000000000000000CA
:1016200000000000000000000000000000000000BA
:1016300000000000000000000000000000000000AA
:10164000000000000000000000000000000000009A
:10165000000000000000000000000000000000008A
:10166000000000000000000000000000000000007A
:1016700000000000000000000000804055AA55AAAC
:1016800055AA55AA55AA55AA55AA55AA55AA55AA62
:1016900055AA55AA55AA55A852A508F00000000061
:1016A000000000000000000000000000000000003A
:1016B000000000000000000000000000000000002A
:1016C000000000000000000000000000000000001A
:1016D00000000000000000000000000000F00BA46B
:1016E00051AA55AA55AA55AA55AA55AA55AA55AA06
:1016F00055AA55AA55AA55AA55AA55AA55AA55AAF2
:1017000055AA55AA55AA55AA55AA55AA55AA55AAE1
:1017100055AA55AA55AA55AA017C820100000000CD
:1017200000000000000002000000000000000000B7
:1017300000080000000000000000000000000000A1
:101740000000000000000000000000000000000099
:1017500000100000000000020020000000C12E90D8
:1017600045AA55AA55AA55AA55AA55AA55AA55AA91
:1017700055AA55AA55AA55AA55AA55AA55AA55AA71
:1017800055AA55AA55AA55AA55AA55AA55AA55AA61
:1017900055AA55AA55AA5582394483000000000075
:1017A0002000000000010000000000000000000810
:1017B0000000000000000000000000000000000029
:1017C00000000040000001000000000000000001D7
:1017D000000000000400000000000000000708F204
:1017E00005AA55AA55AA55AA55AA55AA55AA55AA51
:1017F00055AA55AA55AA55AA55AA55AA55AA55AAF1
:1018000055AA55AA55AA55AA55AA55AA55AA55AAE0
:1018100055AA55AA55AA55A24914E3000000000094
:101820000000000000000000000000800000000038
:1018300000000000000000000000000000000000A8
:101840000000000000000000000001000000000097
:1018500000000004000000000000000000C0388705
:1018600050AA55AA55AA55AA55AA55AA55AA55AA85
:1018700055AA55AA55AA55AA55AA55AA55AA55AA70
:1018800055AA55AA55AA55AA55AA55AA55AA55AA60
:1018900055AA55AA55AA550AE11C030000000000EC
:1018A0000000000000000000000000000000000038
:1018B0000000000000000000000020000000000008
:1018C0008000000000000000000000000000000098
:1018D00080000000000000000000000000C7289207
:1018E00045AA55AA55AA55AA55AA55AA55AA55AA10
:1018F00055AA55AA55AA55AA55AA55AA55AA55AAF0
:1019000055AA55AA55AA55AA55AA55AA55AA55AADF
:1019100055AA55AA55AA55A04F10E0000000000096
:1019200000000400000000000000000000000000B3
:1019300000000000000000000000000000000000A7
:10194000000000000800000000000000000000008F
:1019500000000000000000000000000000C1229C08
:1019600041AA55AA55AA55AA55AA55AA55AA55AA93
:1019700055AA55AA55AA55AA55AA55AA55AA55AA6F
:1019800055AA55AA55AA55AA55AA55AA55AA55AA5F
:1019900055AA55AA55AA55A2097483000000000053
:1019A00000000000080000000040000004000000EB
:1019B0000000000000000000000000000000000027
:1019C0000000000000000002000000000000000015
:1019D00000000000000020000000000080413E8068
:1019E00055AA55AA55AA55AA55AA55AA55AA55AAFF
:1019F00055AA55AA55AA55AA55AA55AA55AA55AAEF
:101A000055AA55AA55AA55AA55AA55AA55AA55AADE
:101A100055AA55AA55AA558A25D00F0000000000E6
:101A200000000000000000100000000000000000A6
:101A300000000000000000000000000000000000A6
:101A40000000000000000200000000000000000094
:101A50000000001000000000000000000F10A54A68
:101A600015AA55AA55AA55AA55AA55AA55AA55AABE
:101A700055AA55AA55AA55AA55AA55AA010204085D
:101A80001020408000000000003E5B4F5B3E3E6B3C
:101A90004F6B3E1C3E7C3E1C183C7E3C181C577D08
:101AA000571C1C5E7F5E1C00183C1800FFE7C3E754
:101AB000FF0018241800FFE7DBE7FF30483A060E66
:101AC0002629792926407F050507407F05253F5AAD
:101AD0003CE73C5A7F3E1C1C08081C1C3E7F14221D
:101AE0007F22145F5F005F5F06097F017F006689C8
:101AF000956A606060606094A2FFA29408047E040E
:101B00000810207E201008082A1C08081C2A080833
:101B10001E101010100C1E0C1E0C30383E383006F3
:101B20000E3E0E06000000000000005F00000007EF
:101B3000000700147F147F14242A7F2A122313081D
:101B4000646236495620500008070300001C2241F9
:101B5000000041221C002A1C7F1C2A08083E08089D
:101B6000008070300008080808080000606000204D
:101B7000100804023E5149453E00427F4000724930
:101B80004949462141494D331814127F10274545D4
:101B900045393C4A494931412111090736494949EA
:101BA00036464949291E0000140000004034000058
:101BB00000081422411414141414004122140802C1
:101BC000015909063E415D594E7C1211127C7F4934
:101BD0004949363E414141227F4141413E7F494989
:101BE00049417F090909013E414151737F080808B5
:101BF0007F00417F41002040413F017F0814224186
:101C00007F404040407F021C027F7F0408107F3EDF
:101C10004141413E7F090909063E4151215E7F094C
:101C2000192946264949493203017F01033F4040B3
:101C3000403F1F2040201F3F4038403F631408149E
:101C40006303047804036159494D43007F414141D6
:101C50000204081020004141417F040201020440B7
:101C600040404040000307080020545478407F283B
:101C70004444383844444428384444287F38545431
:101C8000541800087E090218A4A49C787F08040454
:101C90007800447D40002040403D007F10284400F3
:101CA00000417F40007C047804787C080404783884
:101CB00044444438FC1824241818242418FC7C08B4
:101CC000040408485454542404043F44243C404031
:101CD000207C1C2040201C3C4030403C44281028E4
:101CE000444C9090907C4464544C4400083641002D
:101CF0000000770000004136080002010204023CA7
:101D00002623263C1EA1A161123A4040207A385475
:101D100054555921555579412154547841215554F0
:101D2000784020545579400C1E5272123955555541
:101D300059395454545939555454580000457C412C
:101D40000002457D420001457C40F0292429F0F045
:101D5000282528F07C545545002054547C547C0A96
:101D6000097F4932494949323248484832324A4863
:101D700048303A4141217A3A42402078009DA0A063
:101D80007D39444444393D4040403D3C24FF2424B7
:101D9000487E4943662B2FFC2F2BFF0929F620C0D4
:101DA000887E090320545479410000447D41304825
:101DB000484A32384040227A007A0A0A727D0D1968
:101DC000317D2629292F28262929292630484D40CA
:101DD00020380808080808080808382F10C8ACBAC6
:101DE0002F102834FA00007B000008142A14222245
:101DF000142A14089500220095AA005500AAAA5595
:101E0000AA55AA000000FF00101010FF00141414BF
:101E1000FF001010FF00FF1010F010F0141414FC5D
:101E2000001414F700FF0000FF00FF1414F404FC7A
:101E3000141417101F10101F101F1414141F00105B
:101E40001010F0000000001F101010101F101010D4
:101E500010F010000000FF101010101010101010E3
:101E6000FF10000000FF140000FF00FF00001F1023
:101E7000170000FC04F414141710171414F404F4DD
:101E80000000FF00F714141414141414F700F714CE
:101E90001414171410101F101F141414F41410101D
:101EA000F010F000001F101F0000001F14000000C1
:101EB000FC140000F010F01010FF10FF141414FFB9
:101EC000141010101F00000000F010FFFFFFFFFFB4
:101ED000F0F0F0F0F0FFFFFF0000000000FFFF0F48
:101EE0000F0F0F0F38444438447C2A2A3E147E02D8
:101EF000020606027E027E0263554941633844446D
:101F00003C04407E201E2006027E020299A5E7A521
:101F1000991C2A492A1C4C7201724C304A4D4D3092
:101F20003048784830BC625A463D3E494949007EB7
:101F30000101017E2A2A2A2A2A44445F444440514E
:101F40004A444040444A51400000FF0103E080FF02
:101F5000000008086B6B083612362436060F090F8E
:101F600006000018180000001010003040FF0101AA
:101F7000001F01011E00191D1712003C3C3C3C00D3
:101F800000000000080B000202020100090400002A
:101F900001020200000524001001052401010104D2
:101FA00024020605240600010705810310004009EC
:101FB000040100020A0000000705020240000007B9
:101FC0000583024000000403090412010002EF022D
:101FD0000140412336800001010203014172647512
:101FE000696E6F204C4C430041726475696E6F20BE
:101FF0004C656F6E6172646F0000F12811241FBE82
:10200000CFEFDAE0DEBFCDBF11E0A0E0B1E0EEE956
:10201000F4E502C005900D92A834B107D9F726E087
:10202000A8E4B1E001C01D92A631B207E1F71FE0BC
:10203000CEEFDFE004C02197FE010E94422ACD3F8F
:10204000D107C9F70E94621D0C944D2A0C94000020
:10205000CF92DF92EF92FF920F931F93CF93DF9374
:102060006C017A018B01C0E0D0E0CE15DF0589F06C
:10207000D8016D918D01D601ED91FC910190F08117
:10208000E02DC6010995892B11F47E0102C021962D
:10209000ECCFC701DF91CF911F910F91FF90EF908F
:1020A000DF90CF90089580917801E0917601F091D2
:1020B0007701882349F0CF010296909377018093AE
:1020C0007601859194910895CF01029690937701BE
:1020D00080937601808191810895CF92DF92EF9273
:1020E000FF920F931F93CF93DF930E94531081159C
:1020F00020E8920761F4809171008D7F80937100D8
:102100001092910046984798109275018BC021E07B
:1021100020937501813020E8920751F4809173017A
:102120009091740190937701809376010E945310EF
:1021300097FD05C020917201222309F43FC0209130
:10214000710121113BC021E020937901EC01DF777F
:10215000209769F481E080937A0146983FE9C32E85
:102160003FE0D32EE12CF12CCAEFD0E014C08E0159
:1021700020E030E060E472E48FE090E0A901980193
:102180000E94CB2969017A0181E0C81AD108E108CF
:10219000F10810927A01E0919805F091990509955E
:1021A000811103C081E080937A01809179018823B5
:1021B000B9F180917A01811133C003C01092790185
:1021C000C5CF46992DC0479A0E945310009771F0D1
:1021D0009C01DE010E941F2ADC01CB0129E0B5959C
:1021E000A795979587952A95D1F703C08FEF9FEF15
:1021F000DC01109290002AE020939100D092990087
:10220000C092980080937B0190937C01A0937D0104
:10221000B0937E018091710082608093710002C052
:102220004798D2CFDF91CF911F910F91FF90EF9000
:10223000DF90CF9008958091480108950895089502
:1022400080E090E008950E94482ACF93DF9300D069
:1022500000D0CDB7DEB7611571058105910579F024
:102260009B01AC0169833A834B835C830E94A7295D
:1022700029813A814B815C810E94CB2903C060E0B7
:1022800070E0CB010F900F900F900F90DF91CF91E6
:1022900008953FB7F8948091800190918101A091B9
:1022A0008201B091830126B5A89B05C02F3F19F08C
:1022B0000196A11DB11D3FBFBA2FA92F982F8827C6
:1022C000820F911DA11DB11DBC01CD0142E0660F21
:1022D000771F881F991F4A95D1F708958F929F9273
:1022E000AF92BF92CF92DF92EF92FF926B017C018F
:1022F0000E9449114B015C01C114D104E104F104B5
:10230000F1F00E944911DC01CB0188199909AA0951
:10231000BB09883E9340A105B10570F321E0C21AC4
:10232000D108E108F10888EE880E83E0981EA11C10
:10233000B11CC114D104E104F10419F7DDCFFF9001
:10234000EF90DF90CF90BF90AF909F908F900895C7
:102350001F920F920FB60F9211242F933F938F93DA
:102360009F93AF93BF938091490190914A01A091AF
:102370004B01B0914C0130917F0123E0230F2D37A9
:1023800020F40196A11DB11D05C026E8230F029679
:10239000A11DB11D20937F018093490190934A01B3
:1023A000A0934B01B0934C018091800190918101E9
:1023B000A0918201B09183010196A11DB11D80936E
:1023C000800190938101A0938201B0938301BF911A
:1023D000AF919F918F913F912F910F900FBE0F90D2
:1023E0001F9018951F920F920FB60F9211242F93E2
:1023F0003F934F935F936F937F938F939F93AF938D
:10240000BF93EF93FF9380917B0190917C01A0910A
:102410007D01B0917E01892B8A2B8B2B81F18091DC
:102420007A0181110BC098B180E4892788B9809125
:102430007901882319F088B1805888B980917B018F
:1024400090917C01A0917D01B0917E011816190632
:102450001A061B06B4F480917B0190917C01A09137
:102460007D01B0917E010197A109B10980937B01A3
:1024700090937C01A0937D01B0937E0102C00E94E5
:102480006D10FF91EF91BF91AF919F918F917F91CF
:102490006F915F914F913F912F910F900FBE0F90D1
:1024A0001F901895EF92FF920F931F93DC01E1E7C5
:1024B000F0E090819D7F908310927801EAE8F5E04A
:1024C000F0937701E0937601F0937401E093730148
:1024D000B183A083738362835583448337832683C8
:1024E00011870087F386E2861F910F91FF90EF908E
:1024F0000C946D104F925F926F927F928F929F9289
:10250000AF92BF92CF92DF92EF92FF920F931F9301
:10251000CF93DF9300D000D0CDB7DEB7DC015B01F5
:102520004115510509F4F3C0FA0184903196949154
:102530004E5F5F4FC82CD12C011102C0EE2039F143
:10254000692F669566956695E62FF0E061E070E08C
:10255000892F877011F460E070E06E0F7F1FC69EB8
:10256000F001C79EF00DD69EF00D11242115310506
:1025700039F0EE9EB001EF9E700D1124260F371F2B
:102580000E9FB0010F9F700D1124460F571FFD01C4
:10259000EC0DFD1D1E161F060CF0B9C0A038B105CC
:1025A0000CF0B5C0B501690F711D161617060CF0B9
:1025B000AEC060E4A616B1040CF0A9C041155105E7
:1025C00009F4A5C07A2D7770572E8501B7FE02C099
:1025D000095F1F4F83E0159507958A95E1F7802FD6
:1025E000B7FE04C0552011F08FEF800FB7FF05C074
:1025F000002711270A1B1B0B02C000E010E0E03887
:10260000F10524F060E86A1B462E01C0482C401AF0
:10261000E82E082E000CFF088F3F1CF4FE2DF095CD
:1026200001C0F0E0E1E0692F677009F4E0E0969501
:10263000969596959E0FE90EF11C79E0E716F10448
:1026400014F098E0981B9F2E980E692D70E8670390
:10265000A00DB11D1124A00FB11F7801F89DE00C51
:10266000F11C11244E0D5F1D01E010E0052C02C08D
:10267000000F111F0A94E2F72E0D3F1D882E890EC0
:10268000981409F444C0CD0186579E4F5C01E12C9B
:10269000F12CE414A0F5F901EE0DFF1DE491E09F8B
:1026A000C001E19F900D1124809590959C838B83B0
:1026B000FA01EE0DFF1DE491E09F3001E19F700CE7
:1026C00011247A82698297FC05C0F50190818923E3
:1026D000682A6082552061F0F6E0F9154CF0F501AA
:1026E000E058FF4F90818C8189239A81892B8083C8
:1026F0006FEFE61AF60A7FEFA71AB70ACACF9394CC
:102700004C0D5D1D2C0D3D1DA058BF4FB9CF0F9036
:102710000F900F900F90DF91CF911F910F91FF902D
:10272000EF90DF90CF90BF90AF909F908F907F9071
:102730006F905F904F9008952D9A0895BC0180E0AE
:1027400090E00C946E118FB18095807F669B8860BD
:102750001C9B846008955C988EBD00000DB407FE3C
:10276000FDCF5C9A089560387105D0F4403451056E
:10277000B8F4ECE7FAE180E1849FD001A07811245D
:10278000A60F4770E40FF11D8491A657BE4F222378
:1027900019F06C91862B03C080956C9186238C93E5
:1027A00008952F923F924F925F926F927F928F92F5
:1027B0009F92AF92BF92CF92DF92EF92FF920F93D0
:1027C0001F93CF93DF93CDB7DEB729970FB6F89459
:1027D000DEBF0FBECDBFFC016A3069F42589818957
:1027E000928938E0239F800D911D1124928B818B5B
:1027F000108A1786AAC06D3009F4A7C09987888708
:10280000F5883488238861887288078510890038A4
:102810001105C4F0A885B98555962C915597422F7E
:1028200050E01F968D919C915097B6E02B9F800DA4
:10283000911D1124E885F985908B878726892111C0
:102840006EC083C0F0E46F16710424F7C80125E060
:10285000F29E800D911D112418161906DCF68F2D9D
:1028600090E09C838B83C301A8E0FA9E800D911DAC
:1028700011241816190674F6B5E06B9FB0011124E7
:10288000FB01EC57F54EFA83E98330E088859985A2
:1028900004969E838D83E981FA81E490353009F4B2
:1028A000E12C430188E0482EE0FC02C0532C01C01B
:1028B000522C51100BC0321009C0E6944A948B81FF
:1028C0009C81880E991E4110EFCF1BC068018C2D92
:1028D000801B8F1590F754018A2D88198F1568F485
:1028E000252DA501B6018D819E813F830E94B313E2
:1028F0009FEFA91AB90A3F81EFCFAFEFCA1ADA0AE0
:10290000E6CF3F5FEB81FC810E0F1F1F89819A810B
:1029100001969A838983363009F0BDCF7BCF6AEF69
:1029200064039001659F300D112420583F4F2817F4
:1029300039075CF4A885B985ED91FC911197019058
:10294000F081E02D6AE0CD01099581E090E02996C3
:102950000FB6F894DEBF0FBECDBFDF91CF911F91B0
:102960000F91FF90EF90DF90CF90BF90AF909F902E
:102970008F907F906F905F904F903F902F90089531
:10298000EF92FF920F931F932D988091A405909141
:10299000A5054E96909353018093520184E6E82E4C
:1029A000F12C07E114E024E630E043E952E064E66C
:1029B00070E088E891E00E94521204EC10E024E6F6
:1029C00030E04AE451E064E670E08BE092E00E947F
:1029D00052121F910F91FF90EF900895EF92FF9286
:1029E0000F931F9384E6E82EF12C01E410E024E617
:1029F00030E043E850E064E670E086E091E00E9459
:102A0000521287EA0E94AB132E988091A4059091F0
:102A1000A5059C012E5F3F4F30935101209350013B
:102A20004E96909355018093540180910A0187FF3F
:102A30000DC081E08093040183E08093570186EA12
:102A40001F910F91FF90EF900C94AB131F910F917A
:102A5000FF90EF900895EF920F9360914F01062E33
:102A6000000C770B4AE756E18DEF9FEF0E94591655
:102A700060914F01062E000C770B605471094AE7F4
:102A800056E18DEF9FEF0E94591660914E01062E80
:102A9000000C770B80914D01E12C00E02BE432E03B
:102AA00043E153E0082E000C990B0E947A126091CA
:102AB0000101062E000C770B8091000129EB30E01C
:102AC00041E851E0082E000C990B0E947A126091A7
:102AD0004E01062E000C770B6054710980914D0158
:102AE0002BE432E043E153E0082E000C990B0E94E6
:102AF0007A1260910101062E000C770B6054710967
:102B00008091000129EB30E041E851E0082E000CF3
:102B1000990B0E947A1260914E01062E000C770BE1
:102B2000605C7F4F80914D012BE432E043E153E044
:102B3000082E000C990B0E947A1260910101062E5A
:102B4000000C770B605C7F4F8091000129EB30E037
:102B500041E851E0082E000C990B0E947A128091F6
:102B60004F018F5F81341CF480934F0102C010929B
:102B70004F0190914E019E5F90934E018091010113
:102B80008E5F80930101913414F010924E018134D4
:102B900014F0109201010F91EF9008956DE370E031
:102BA00080E090E00E942511E6E0F1E0DC01CB013D
:102BB0004A96A11DB11D808384EE81836AE070E096
:102BC00080E090E00E942511DC01CB014496A11D1C
:102BD000B11D809356010895EF92FF920F931F93BA
:102BE000CF93DF931F92CDB7DEB77C01FC0100814C
:102BF0001181C80169830E94B5296981681719F09C
:102C0000C8010E94BD29C7010F90DF91CF911F918C
:102C10000F91FF90EF900895CF93DF931F92CDB760
:102C2000DEB76983DC01ED91FC910280F381E02D38
:102C300041E050E0BE016F5F7F4F09950F90DF913B
:102C4000CF9108959C01240F311D1216130684F5AF
:102C5000803891056CF5FC0197FF02C0E0E0F0E0E0
:102C60002138310514F020E830E02E1BAB0147700D
:102C7000552781E090E001C0880F4A95EAF78095DA
:102C800077FF02C0695F7F4F93E0759567959A95CE
:102C9000E1F77695762F662777956795E60FF71F0C
:102CA000E657FE4F215020F0908198239193FACF60
:102CB00008952F923F925F926F927F928F929F9290
:102CC000AF92BF92CF92DF92EF92FF920F931F933A
:102CD000CF93DF939C0120583F4F2F3F310511F0D8
:102CE00008F097C09B01205C3F4F2038310508F069
:102CF00090C0DB0177FF04C0AA27BB27A61BB70B38
:102D0000A770BB279B0177FF02C0295F3F4FE3E01D
:102D100035952795EA95E1F777FF08C021503109ED
:102D200068E070E0FB01EA1BFB0BDF015901B69480
:102D3000BA2CAA24B794A794A80EB91E60E070E03C
:102D40004501F0E88F0E911CE8E0F0E03F016A1ABF
:102D50007B0A2F3FEFEF3E076CF42F5F3F4F605829
:102D60007F4F6115F4E07F0709F453C02830310527
:102D700081F74FC0E401C60FD71FC657DE4F8B0146
:102D80000A0D1B1D06571E4F6C01E12CF12CE0E8CB
:102D9000CE16D10411F3D7FC2AC02F3FFFEF3F0717
:102DA000A9F1F701E60FF71FE40FF51FE491F0E03A
:102DB0001F010A2E01C0220C0A94EAF7F801508084
:102DC00025282082109799F02730310581F0F701EE
:102DD000E60FF71FE40FF51FE491F0E0062C02C0A8
:102DE000F595E7950A94E2F75880E529E883FFEF27
:102DF000EF1AFF0AEFEFCE1ADE0A21960F5F1F4F80
:102E0000F0E8EF16F10409F0C2CFA7CF1097F9F65A
:102E1000EECFDF91CF911F910F91FF90EF90DF9058
:102E2000CF90BF90AF909F908F907F906F905F906A
:102E30003F902F9008950F931F93CF93DF9300D06F
:102E4000CDB7DEB708E811E0F801608182E990E0D3
:102E50009A838983CE0101960E94EC15F801618165
:102E600083E990E09A838983CE0101960E94EC1554
:102E7000C8010F900F90DF91CF911F910F9108958E
:102E800080E0EAE8F1E081118FEF002481938193E3
:102E9000819381930394D1F7EDE9F5E0128A118AC9
:102EA000108A17860895EAE8F1E080E0A0E0B8E033
:102EB00000800EBC8111012C1197A0FDFDCF019265
:102EC000B9F70DB408952091A705282329F490910E
:102ED000A605982381E009F480E008950F931F93DD
:102EE000CF93DF938C01C0E0D0E0F801EC0FFD1F21
:102EF0006491662371F0E0919D05F0919E0501902B
:102F0000F081E02D8DE995E00995892B11F021964E
:102F1000ECCFCE01DF91CF911F910F9108954F9289
:102F20005F926F927F928F929F92AF92BF92CF9259
:102F3000DF92EF92FF920F931F93CF93DF93EC01F9
:102F40007B016A01C901A901461B570B57FF03C04A
:102F500051954195510996012C1B3D0B37FF03C03C
:102F600031952195310911E02417350714F010E04F
:102F70000AC03C2D2D2D6C01832F922F3C2F2D2F1D
:102F8000E701E32EF22ECC16DD0654F43E2D2F2D54
:102F90007C01832F922F3C2F2D2FE601C32ED22EA2
:102FA00026014C1A5D0A4C018E189F0897FE03C03B
:102FB000919481949108520157FE03C02FEFA21AF9
:102FC000B20AB594A794E816F90614F08FEF01C081
:102FD00081E0682E880F7708CC16DD06B4F0202F2C
:102FE000112319F0AE01B70102C0A701BE0181EAA9
:102FF00095E00E94B313A818B908B7FE04C0E60C08
:10300000F71CA40CB51C2196E7CFDF91CF911F913F
:103010000F91FF90EF90DF90CF90BF90AF909F9077
:103020008F907F906F905F904F900895EF92FF92F6
:103030000F931F93CF93DF93CDB7DEB72C970FB6C7
:10304000F894DEBF0FBECDBF49835A836B837C8368
:103050009E83EF82F88609871A872B873C87E98150
:10306000FA816B817C814F81588529853A85DF0102
:10307000A80FB11D4A175B07A4F48B85480F511D9B
:10308000E417F50774F48E81AB01480F511D241726
:1030900035073CF48C85280F311D81E062177307DA
:1030A0000CF080E02C960FB6F894DEBF0FBECDBFBB
:1030B000DF91CF911F910F91FF90EF9008958F9224
:1030C0009F92AF92BF920F931F93CF93DF93CDB791
:1030D000DEB7A1970FB6F894DEBF0FBECDBF19A221
:1030E000423008F44AE08E010F5D1F4F842E912C70
:1030F000A12CB12CA50194010E94FD29E62FB90154
:10310000CA0101501109EA3014F4E05D01C0E95C24
:10311000D801EC93232B242B252B61F701151105E6
:1031200071F0F80101900020E9F73197AF01401BE1
:10313000510BB8018DE995E00E94281002C080E093
:1031400090E0A1960FB6F894DEBF0FBECDBFDF9121
:10315000CF911F910F91BF90AF909F908F90089546
:10316000FC0180918701811103C08FEF9FEF0895CB
:103170009FB7F89482E08093E9002091F20030E05C
:103180001216130614F421E030E02115310559F030
:10319000289884E6809386018091F1008083809155
:1031A000F200882319F09FBFC90108958BE6809330
:1031B000E800F9CF2FB7F89483E08093E90090916D
:1031C000E800892F807295FF04C09091F20080E49E
:1031D000891B2FBF08958F929F92AF92BF92CF927B
:1031E000DF92EF92FF920F931F93CF93DF935C01D7
:1031F0006B017A0180911201882309F45BC08091F0
:103200008701882309F456C08091850180FF05C09D
:103210008091E00082608093E000E70110E00AEF17
:1032200083E0882E9AE3992E2097D9F10E94DA182C
:1032300081110AC0015009F43DC061E070E080E0F6
:1032400090E00E946E11F0CF282F30E0C217D30714
:103250000CF48C2F4FB7F8948092E9009091E8001D
:1032600095FF1DC0282F30E0C21BD30BF601982F0D
:10327000915020F081918093F100FACFC20ED31EBD
:10328000112319F09092E80009C08091E80085FDB3
:1032900006C09092E80011E0209709F010E04FBFBF
:1032A000C3CF1111C3CF5D9884E6809384011E14AF
:1032B0001F0444F081E090E0F5019383828380E075
:1032C00090E001C0C701DF91CF911F910F91FF9056
:1032D000EF90DF90CF90BF90AF909F908F90089528
:1032E0008091B80581110DC082E08093B40584E01F
:1032F0008093B5051092B7051092B60581E08093D2
:10330000B80584EB95E0089583E08093E90080910F
:10331000F200882319F08AE38093E8000895FC0105
:103320008485958597FD0BC09FB7F89482E08093C4
:10333000E9008091F2009FBF90E0019608959FB749
:10334000F89482E08093E9008091F2009FBF90E0C2
:10335000089540911406509115062091120630915F
:10336000130642175307B4F49091E8009570E1F307
:103370009091E80092FD19C08093F10080911406AD
:103380009091150601968F739927892B19F48EEF6A
:103390008093E80080911406909115060196909311
:1033A00015068093140681E0089580E00895CF9279
:1033B000DF92EF92FF920F931F93CF93DF931F92B1
:1033C000CDB7DEB7182F062FE42E862F880F8E5F1D
:1033D00099830E94A91983E00E94A919F12EC12E98
:1033E0009981D92E8C2D8F19801798F4F601E7FE5C
:1033F00002C0849101C080810E94A919182F80E029
:103400000E94A9198123FFEFCF1ADF0A8111EACFA9
:1034100001C081E00F90DF91CF911F910F91FF903C
:10342000EF90DF90CF900895DF92EF92FF920F938D
:103430001F93CF93DF93D82E8A017B01E40EF51EF4
:10344000EB01CE15DF0571F0D7FE03C0FE018491BC
:1034500001C088810E94A91921968111F2CF8FEFB6
:103460009FEF01C0C801DF91CF911F910F91FF9095
:10347000EF90DF900895615030F02091F100FC0151
:1034800020830196F8CF289884E6809386010895DA
:103490000E94DA1890E00895CF93DF931F92CDB782
:1034A000DEB7FC018485958597FD05C02FEF3FEFC2
:1034B000358724870BC0CE0101960E94B018019772
:1034C00019F4898190E002C08FEF9FEF0F90DF9198
:1034D000CF9108950F931F93CF93DF931F92CDB792
:1034E000DEB78C01FC018485958597FF0EC0CE0167
:1034F00001960E94B018019719F4298130E002C0AA
:103500002FEF3FEFF80135872487F80184859585F3
:103510000F90DF91CF911F910F9108950F931F93FB
:10352000CF93DF931F92CDB7DEB782E0898342E469
:1035300050E064E87FE180E80E94141A0E9470194C
:10354000DC0112960D911C9113970115110569F07C
:10355000D801ED91FC910280F381E02DBE016F5FF7
:103560007F4FC801099597FF07C089810F90DF91B0
:10357000CF911F910F910895F80100851185E5CF36
:103580001F920F920FB60F9211248F939F938091E9
:10359000E1009091E100937F9093E10083FF0FC0E1
:1035A0001092E90091E09093EB001092EC0092E30E
:1035B0009093ED001092870198E09093F00082FFC5
:1035C00020C093E09093E9009091F200992319F0C4
:1035D0009AE39093E80090918401992339F09091B7
:1035E0008401915090938401992389F190918601EF
:1035F000992339F0909186019150909386019923F7
:1036000041F184FF10C08091E2008E7E8160809342
:10361000E2008091E1008F7E8093E100809185013E
:103620008E7E806111C080FF16C08091E2008E7E88
:1036300080618093E2008091E1008E7E8093E100C2
:10364000809185018E7E81608093850104C05D9AA2
:10365000CDCF289AD6CF9F918F910F900FBE0F900C
:103660001F9018951F920F920FB60F921124CF92B0
:10367000DF92EF92FF920F931F932F933F934F93FD
:103680005F936F937F938F939F93AF93BF93EF93CA
:10369000FF93CF93DF93CDB7DEB76C97DEBFCDBF7F
:1036A0001092E9008091E80083FFEDC168E0CE014F
:1036B00045960E943B1A82EF8093E8008D8987FF30
:1036C00005C09091E80090FFFCCF03C09EEF90935F
:1036D000E800982F907609F0C6C09E892F89188D32
:1036E00091110CC0803829F4809111068093F1006B
:1036F00002C01092F1001092F10048C1422F50E038
:10370000512B913051F4811141C14130510509F0E3
:103710003DC1809111068D7F0BC0933061F4811102
:1037200035C14130510509F031C1809111068260E7
:10373000809311062BC1953041F48091E80080FF01
:10374000FCCF20682093E30021C1963009F05FC0D0
:10375000EB8CFC8C1092E900109215061092140666
:10376000123091F510921306109212060E948E1AD2
:1037700099E0BE016F5F7F4FDB01E92F1D92EA9553
:10378000E9F799831A8391E09E8390EA98879AEFEC
:1037900099872091140630911506275F3F4F3C838F
:1037A0002B838D831092E900109215061092140657
:1037B000F0921306E092120649E050E080E00E9489
:1037C000141A0E948E1AE2C0F0921306E0921206BA
:1037D0000E947019DC011296ED90FC901397E11491
:1037E000F10409F4C0C0D701ED91FC910480F5818A
:1037F000E02DBE016B5E7F4FC7010995009719F060
:103800000CF0C4C0C7C0F701E084F184E8CF973062
:1038100009F4C0C0983021F481E08093F100B6C073
:10382000993009F0B3C0837009F0B4C0E2E4F1E06C
:1038300081E021E036E39081992361F08093E900F3
:103840002093EB0091919093EC003093ED008F5F0B
:10385000873089F78EE78093EA001092EA008F891B
:103860008093870193C08B8D9C8D1092E9001092FC
:103870001506109214069093130680931206898DF4
:10388000811156C08E899D89913A59F4813209F08F
:1038900081C047E050E06BE071E080E00E94141AC4
:1038A00075C0913209F076C0833289F4888D90E03A
:1038B000982F88272F89822BA0E0B0E080931301F6
:1038C00090931401A0931501B09316015FC080324C
:1038D00069F48091E80082FFFCCF67E08BE091E023
:1038E0000E943B1A8BEF8093E80006C0823209F0F9
:1038F0004DC08F898093120180911006882319F0A2
:10390000EEEFFAE002C0E0E0F8E080910B01909168
:103910000C01A0910D01B0910E01803B9440A105D6
:10392000B10509F07BC08091120180FF93C076C081
:103930000E947019DC0112960D911C9113970115CC
:10394000110541F1D801ED91FC910190F081E02D3C
:10395000BE016B5E7F4FC8010995811117C0F80148
:1039600000851185ECCF113009F44EC0133091F46D
:103970008F89882309F445C0823081F440E860E1F2
:1039800088EE9FE10E94D719882321F08EEF809363
:10399000E80079C081E28093EB0075C0813029F4A2
:1039A00040E86BE08CED9FE1EDCF833099F70E940A
:1039B0007019DC011296ED90FC9013978E010F5F49
:1039C0001F4F6801E114F10479F0D701ED91FC91EA
:1039D0000680F781E02DB801C7010995080F111D78
:1039E000F701E084F184EECFD8011C92F60101903A
:1039F0000020E9F73197BF016C197D0940E0C6014D
:103A0000C1CF66EC7FE102C06AEC7FE16115710510
:103A100009F2FB01449150E080E840CF0FB6F894E2
:103A2000A89580916000886180936000109260008A
:103A30000FBEA895EE3F2AE0F20739F08091FE0A0A
:103A40009091FF0A91838083A1CF1092FF0A109278
:103A5000FE0A9CCFEE3F8AE0F80731F08081918129
:103A60009093FF0A8093FE0A87E797E7918380830C
:103A70009BE088E10FB6F894A895809360000FBE94
:103A80009093600083CF6C960FB6F894DEBF0FBEA4
:103A9000CDBFDF91CF91FF91EF91BF91AF919F91FA
:103AA0008F917F916F915F914F913F912F911F91D6
:103AB0000F91FF90EF90DF90CF900F900FBE0F907F
:103AC0001F901895CF93DF93CDB7DEB7A6970FB6AB
:103AD000F894DEBF0FBECDBF789484B5826084BDFC
:103AE00084B5816084BD85B5826085BD85B5816002
:103AF00085BD80916E00816080936E001092810080
:103B0000809181008260809381008091810081603A
:103B100080938100809180008160809380008091FB
:103B200091008260809391008091910081608093E8
:103B30009100809190008160809390008091C100FD
:103B400084608093C1008091C10082608093C10035
:103B50008091C10081608093C1008091C300816029
:103B60008093C3008091C00082608093C0008091E8
:103B7000C20081608093C20080917A00846080934B
:103B80007A0080917A00826080937A0080917A0036
:103B9000816080937A0080917A00806880937A00B7
:103BA0001092870110921106109285018091D70022
:103BB00081608093D70080EA8093D80089B58061C6
:103BC00089BD89B5826089BD09B400FEFDCF61E081
:103BD00070E080E090E00E946E118091D8008F7CB0
:103BE00080618093D8008091E000807F8093E00026
:103BF0008091E1008E7E8093E1008DE08093E20071
:103C0000559A209AEEEFFFE7859194918B3F9C4D5A
:103C100019F481E08093100681EC80937C0085B1DB
:103C2000806F85B984B1877E84B984B1876E84B989
:103C30005E9A5F988AB1806D8AB9769A6E9881B3E0
:103C4000806F81BB899880B38D7080BB80E58CBD0F
:103C500081E08DBD85E090E00E949E135F9A85E033
:103C600090E00E949E135E985C98ECEAF0E08DE094
:103C70008E0F94919EBD00000DB407FEFDCF3196CE
:103C80008E13F7CF5C9A81E8809364008091650081
:103C90008160809365000E9453170E94A31387FFE1
:103CA00010C085EA0E94AB132E982F982D98809112
:103CB000640080628093640081E083BF889513BEB6
:103CC000FCCF02E010E00E94A31382FF42C02D98B7
:103CD0000E94A31384788438C9F00E94A3138471CE
:103CE000843191F50E949C1388EC90E00E949E1311
:103CF0002E981A83098360E0CE0101960E94EC158C
:103D000084EF91E00E949E132E9A19C00E949C138A
:103D100088EC90E00E949E132F981A8309836FEF1E
:103D2000CE0101960E94EC1584EF91E00E949E1353
:103D30002F9A0E94A31384788438D9F3CECF0E949F
:103D4000A31384718431D9F388EC90E00E949E1310
:103D5000BACF0E949C1382E090E00E94B52988238C
:103D600031F03E9A3F9A81E08093480104C010925E
:103D700048013E983F980E94401780E990E00E94D9
:103D8000B529182F81E990E00E94B5291C3479F4F7
:103D90008A3569F482E990E00E94B5298093880110
:103DA00083E990E00E94B5298093890120C0109298
:103DB00089011092880180E990E09A8389836CE4FC
:103DC000CE0101960E94EC1581E990E09A838983E7
:103DD0006AE5CE0101960E94EC156091880182E9A6
:103DE00090E09A838983CE0101960E94EC1580E1D0
:103DF0008093A805CE0101966C0195E09C0D9DA3D2
:103E00008AE0282E312C8FB7F894409149015091C7
:103E10004A0160914B0170914C018FBF8091A905BF
:103E2000A42FA81B8A2F9091AA05992331F0A09363
:103E3000AB051092AA050C948E289091A805A9179D
:103E400058F48F5F891710F00C948E2881E083BF9F
:103E5000889513BE0C948E2881E08093AA05409328
:103E6000A9058091A4059091A50501969093A505BB
:103E70008093A4058091A6058093A7050E94A313B3
:103E80008093A6050E9440171091570111112EC072
:103E90004AE752E160E070E080E090E00E9459164D
:103EA000A12CB12C00E8E02EF12C10917001412FD3
:103EB000B50180E090E00E942216B5016F5F7F4F50
:103EC000412FC701811B91090E942216B2E0AB0E5F
:103ED000B11CE0E4AE16B10441F717FF02C00C9428
:103EE00098281F5F109370010C948C28113009F0F2
:103EF00001C180916F01811109C084E00E946317A4
:103F0000882309F444C010936F0141C080E10E94EE
:103F100063178823C1F010928901109288010E94D2
:103F20001B1710926F0112E3E12EF12C0DE41AE041
:103F300022E330E047E255E062E370E083E992E09B
:103F40000E94521206C084E00E94631781111092F1
:103F50006F0180E190E09093AD058093AC0501E0A6
:103F600010E01093AF050093AE0580E792E10E9448
:103F70006E1782E490E09093AD058093AC051093AA
:103F8000AF050093AE0587E692E10E946E1780911F
:103F9000A4059091A5056FE070E00E942E2A892B60
:103FA00051F480916E018F5F853018F480936E011B
:103FB00002C010926E0110916E01E12E012F25E2D8
:103FC00031E145EC51E16FE170E087E190E00E9462
:103FD0007A1225E231E145EC51E16FE170E089E5CB
:103FE00090E00E947A1245E25DE060E070E080E0DF
:103FF00090E00E945916A12CB12CB0E8EB2EF12CC8
:1040000010917001412FB50180E090E00E942216CE
:10401000B5016F5F7F4F412FC701811B91090E943E
:10402000221692E0A90EB11CA0E4AA16B10441F731
:10403000112319F014501093700188E00E94631747
:10404000882311F40C948C28809164008E7F8093D7
:10405000640080917A00806480937A0080917A0075
:1040600086FDFCCF00917800109179000E944911E3
:1040700020E030E0980111270027600F711F821F98
:10408000931F611571058105910511F00E94AC29FE
:104090008091640081608093640010926D011092A1
:1040A0006C0183E080930A0110926B0110926A0107
:1040B000109269011092680184EE80930901809347
:1040C000080180930701809305016DE370E080E0B3
:1040D00090E00E942511DC01CB014A96A11DB11D83
:1040E00080939A0582E08093570180E88093700165
:1040F0000C948C28123009F015C680906C019090B9
:104100006D019091040180910901890F81341CF4A3
:104110008093090110C084EE809309016DE370E083
:1041200080E090E00E942511DC01CB014A96A11DA0
:10413000B11D80939C059091080180910401890F25
:104140008093080180910901813484F084EE80938A
:1041500008016DE370E080E090E00E942511DC0131
:10416000CB014A96A11DB11D80939B05909105013D
:1041700080910401890F8F5F81341CF480930501C5
:1041800010C084EE809305016DE370E080E090E064
:104190000E942511DC01CB014A96A11DB11D80931F
:1041A0009A052091A4053091A505C9016CE370E042
:1041B0000E942E2A892B49F480916A0190916B010B
:1041C000029690936B0180936A0120FD06C0809156
:1041D00066018F5F817080936601C90165E070E0C0
:1041E0000E942E2A892B31F4809165018F5F8170A6
:1041F00080936501C90167E070E00E942E2A892B37
:1042000051F480916E018F5F843018F480936E01B9
:1042100002C010926E01C9016EE170E00E942E2A68
:10422000892B51F4809167018F5F823018F480935D
:10423000670102C01092670180915401909155016D
:10424000009741F02817390728F02E9A109255014F
:10425000109254018091580190915901009761F09A
:104260002091A4053091A5052817390728F02F9A29
:10427000109259011092580180915201909153016E
:10428000009769F02091A4053091A50528173907FA
:1042900030F00E949C1310925301109252018091B1
:1042A000500190915101009771F02091A405309137
:1042B000A5052817390738F086EA0E94AB1310923B
:1042C00051011092500196E0FE017F96DF01292FE7
:1042D0001D922A95E9F785E08BA38CA3209102011A
:1042E000022E000C330B2A5F3F4F38A32F8F2091F3
:1042F0000301022E000C330B2C5F3F4F3AA329A37E
:104300003697DF01292F1D922A95E9F78DE08D8FD1
:104310008E8F20919C05022E000C330B2F5F3F4F98
:104320003A8F298F20910901022E000C330B2C5E4D
:104330003F4F3C8F2B8F3697DF01292F1D922A95F7
:10434000E9F78F8B888F20919B05022E000C330B91
:104350002F5F3F4F3C8B2B8B20910801022E000CCE
:10436000330B2C5E3F4F3E8B2D8B3697DF011D921A
:104370009A95E9F79FE0998B8A8B80919A05082E90
:10438000000C990B0196E82E9E878D878091050180
:10439000082E000C990B0196082F988B8F87FE84AE
:1043A00018892FE03DE04F8D58A169A17AA18BA11A
:1043B0009CA10E941618882309F46FC080916C019B
:1043C00090916D01059690936D0180936C018091A1
:1043D0006A0190916B018230910510F0019702C043
:1043E00080E090E090936B0180936A0180915B0183
:1043F0008F5F80935B01F0E5EF2EF12C03E912E073
:1044000020E530E04AE451E060E570E085EA90E0C4
:104410000E94521282EF809305016DE370E080E00C
:1044200090E00E942511DC01CB014A96A11DB11D2F
:1044300080939A0580915B018F307CF180910A0115
:104440008F5F80930A012F98E4E6EE2EF12C0AE9A3
:1044500014E124E630E04DE45AE064E670E087E2DF
:1044600095E00E9452128091A4059091A5054E9668
:10447000909359018093580180916A0190916B014A
:104480008B30910510F00A9702C080E090E0909385
:104490006B0180936A0110925B01E98CFA8C0B8DA1
:1044A0001C8D2D8D3E8D4F8D58A169A17AA18BA1B8
:1044B0009CA10E941618882329F180910A0181503D
:1044C00080930A0180916A0190916B01069689326E
:1044D000910510F088E290E090936B0180936A015F
:1044E0000E94EE1482EF809309016DE370E080E09A
:1044F00090E00E942511DC01CB014A96A11DB11D5F
:1045000080939C05EB88FC880D891E892F89388D46
:104510004F8D58A169A17AA18BA19CA10E94161868
:10452000882329F180910A01815080930A018091AA
:104530006A0190916B0106968932910510F088E22C
:1045400090E090936B0180936A010E94EE1484EED8
:10455000809308016DE370E080E090E00E942511F7
:10456000DC01CB014A96A11DB11D80939B05FE0184
:10457000379686E0DF011D928A95E9F78CE08B87FC
:104580008C8780910601082E000C990B0396E82E6B
:1045900098878F8380910701082E000C990B039652
:1045A000082F9A878987F8841A852CE03CE04F8D84
:1045B00058A169A17AA18BA19CA10E9416188823F9
:1045C00019F180916A0190916B018131910510F090
:1045D000409702C080E090E090936B0180936A0165
:1045E00081E080935A010E94CE1574E6E72EF12CEB
:1045F0000AE914E124E630E04DE45AE064E670E0B4
:1046000087E295E00E94521288E00E946317882397
:1046100009F43BC168ECE62EF12C01E410E024E63D
:1046200030E043E850E062E370E08BE092E00E940B
:10463000521240900301042C000C55083201B1E0E5
:104640006B1A7108E09002010E2C000CFF08C701E4
:10465000069601E02AE030E0AC01B3010E948F171A
:104660005701E8E0AE0EB11C2AE030E0A501B3012D
:10467000C5010E948F17C7010A962AE030E0AC01FD
:10468000B3010E948F1786E0D6011D928A95E9F743
:1046900082E08D8380E48E834A2DBA82A982B0E4C1
:1046A0004B1A5108642D5C824B82E98CFA8C0B8D7D
:1046B0001C8D2D8D3E8D5A817C8182E090E40E947C
:1046C0001618882309F443C080916C0190916D0104
:1046D0000A9690936D0180936C0180916A0190918C
:1046E0006B018230910510F0019702C080E090E0EC
:1046F00090936B0180936A0154E6E52EF12C01E260
:1047000010E024E630E041E450E064E670E083E845
:1047100090E00E94521280919C0580935C018091F0
:104720000901845F80935D0181E080935F0182EFE6
:10473000809309016DE370E080E090E00E94251114
:10474000DC01CB014A96A11DB11D80939C05EB882D
:10475000FC880D891E892F89388D49815A816B818A
:104760007C818D819E810E941618882309F444C0A3
:1047700080916C0190916D010A9690936D018093E8
:104780006C0180916A0190916B018230910510F06B
:10479000019702C080E090E090936B0180936A01E2
:1047A00044E6E42EF12C01E210E024E630E041E49E
:1047B00050E064E670E083E890E00E94521280913D
:1047C0009B058E5F80935C0180910801845F8093DC
:1047D0005D0181E080935F0182EF809308016DE3CA
:1047E00070E080E090E00E942511DC01CB014A9648
:1047F000A11DB11D80939B05ED84FE840F85188952
:1048000029893A8949815A816B817C818D819E8178
:104810000E9416188823C9F180916C0190916D0156
:104820008B30910510F00A9702C080E090E09093E1
:104830006D0180936C0134E6E32EF12C06E011E06B
:1048400024E630E046E051E064E670E086E091E086
:104850000E94521280919A05809360018091050117
:104860008093610181E08093630182EF8093050171
:104870006DE370E080E090E00E942511DC01CB0147
:104880004A96A11DB11D80939A050E942B15809117
:104890005F01882369F18091A4059091A50565E0E9
:1048A00070E00E942E2A892B61F480915E018F5F57
:1048B000843018F480935E0104C010925E0110925F
:1048C0005F0100915E0110915D01612F012E000CCE
:1048D000770B80915C01E02E28E838E046EF58E045
:1048E000082E000C990B0E947A12115010935D0152
:1048F00080916301882369F18091A4059091A505B9
:1049000065E070E00E942E2A892B61F4809162019B
:104910008F5F843018F48093620104C010926201AA
:10492000109263010091620110916101612F012ECB
:10493000000C770B80916001E02E26E639E046EE10
:1049400059E0082E000C990B0E947A121150109316
:1049500061010091640110910701612F012E000C8B
:10496000770B80910601E02E28E63AE048EB5AE00A
:10497000082E000C990B0E947A12209156012223D6
:1049800071F08091A4059091A5056CE370E00E9400
:104990002E2A892B61F421502093560108C011342E
:1049A00024F41F5F1093070102C00E94CE1580916E
:1049B000A4059091A5056FE070E00E942E2A892B36
:1049C00031F4809164018F5F817080936401009164
:1049D0006E0160910501062E000C770B80919A05FF
:1049E000E02E25E231E145EC51E1082E000C990B57
:1049F0000E947A121091650160910901062E000C47
:104A0000770B80919C05E12E012F2AE03BE042E8E4
:104A10005BE0082E000C990B0E947A12609108014D
:104A2000062E000C770B80919B052AE03BE042E8C4
:104A30005BE0082E000C990B0E947A12009166012F
:104A400060910301062E000C770B80910201E02E8D
:104A50002CEF3BE040E45CE0082E000C990B0E9438
:104A60007A12E12CF12C00E010E020E0A801B7015F
:104A700081EA95E00E94B3130F5F1F4F0A301105C2
:104A8000A1F7EFEFEE1AFE0AF0E8EF16F10459F77E
:104A900081E090E09093AD058093AC051092AF0556
:104AA0001092AE058EE89CE00E946E1785E290E0C1
:104AB0009093AD058093AC051092AF051092AE05B2
:104AC00080916C0190916D01F601B1010E942E2A36
:104AD0008193CB012DA12E13F8CF8E010A5F1F4FBA
:104AE000D8016E918D0170E080E090E04AE00E9474
:104AF0005F180C151D05A1F78EE490E09093AD05AD
:104B00008093AC051092AF051092AE0586E89CE04C
:104B10000E946E1788E790E09093AD058093AC05F6
:104B20001092AF051092AE0540900A01042C000CC3
:104B300055086608770877FE14C0E0919D05F0914E
:104B40009E050190F081E02D6DE28DE995E00995DB
:104B500066277727CB0164197509860997094AE00A
:104B600003C04AE0C301B2010E945F1801E029E0DE
:104B700030E040E850E069E070E080E090E00E94C2
:104B80008F1700E02AE030E040E850E06AE070E093
:104B900080E090E00E948F17E12C25E93CE04FEB8C
:104BA0005CE06FE070E087E790E00E947A1260902E
:104BB0006A0170906B0109E710E07301FF24B1E115
:104BC000EB0EF11C21E1A22EB12CC701F1E4EF168E
:104BD000F10414F080E490E0A816B9065CF420E03B
:104BE000A501B80181EA95E00E94B313EFEFAE1A78
:104BF000BE0AEBCF0F5F1F4F0C37110519F767285F
:104C000021F410926B0110926A01A0906A01B09099
:104C10006B012FE1A216B10400F1809167018111AF
:104C200015C060910301062E000C770B6A5F7F4F61
:104C300080910201082E000C990BE12C00E02BEE74
:104C40003CE047E05DE004970E947A1289E2A816F2
:104C5000B10418F083E0809357010E94A31385FFED
:104C600005C08091020183310CF067C20E94A3133A
:104C700086FF05C0809102018C350CF462C20E944F
:104C8000A31387FF05C0809103018B300CF05DC238
:104C90000E94A31384FF05C08091030181330CF4AB
:104CA00058C284E00E946317882391F096E4E92EAD
:104CB000F12C07E215E022E330E04BE452E066E439
:104CC00070E086E091E00E94521284E080935701E8
:104CD00080916C0190916D018C3DA5E09A0740F0A8
:104CE000BCED8B16B5E09B0608F016C282E00BC047
:104CF000883EE3E09E0760F0F8EE8F16F3E09F0633
:104D000008F00AC281E0809304010E94C01404C22A
:104D1000843F914008F400C284EF881681E0980631
:104D200028F3FAC1133009F0E5C02E9A2F9A0E9499
:104D30009C1380916C0190916D01209188013091BC
:104D400089012817390730F49093890180938801ED
:104D50000E941B170E942B15E12CF12C00E110E0A2
:104D600020E0A801B70181EA95E00E94B3130F5F2C
:104D70001F4F0F321105A1F79FEFE91AF90AA0E8BA
:104D8000EA16F10459F701E021E130E040E850E093
:104D900061E170E080E090E00E948F172DE230E04A
:104DA00040E850E06DE270E080E090E00E948F17F4
:104DB00000E020E330E040E850E060E370E080E0B5
:104DC00090E00E948F1722E330E040E850E062E379
:104DD00070E080E090E00E948F1785E290E0909371
:104DE000AD058093AC0585E090E09093AF0580938E
:104DF000AE058EE798E00E946E178EE190E09093EA
:104E0000AD058093AC0507E110E01093AF0500936A
:104E1000AE0587E798E00E946E1781E490E09093DA
:104E2000AD058093AC051093AF050093AE0580915E
:104E30006C0190916D01F601B1010E942E2A8193BF
:104E4000CB01BDA1BE13F8CF8E010A5F1F4F7801C1
:104E5000D7016E917D0170E080E090E04AE00E9411
:104E60005F18EC14FD04A1F78FE090E09093AD057E
:104E70008093AC0581E2E82EF12CF092AF05E09230
:104E8000AE058BE698E00E946E1781E590E0909366
:104E9000AD058093AC05F092AF05E092AE05809130
:104EA000880190918901F601B1010E942E2A819317
:104EB000CB01BDA1BE13F8CFF80162918F0170E064
:104EC00080E090E04AE00E945F180C151D05A1F7F4
:104ED000E12C00E025EE37E047E258E064E370E0C3
:104EE0008EE290E00E947A1284E00E9463178111A2
:104EF00022C112C1143009F00FC1F0904F010F2DE3
:104F00000F2C000C110B4DED53E0B8018DEF9FEF0E
:104F10000E945916B801605471094DED53E08DEFB0
:104F20009FEF0E94591610914E01412E012E000C48
:104F3000550860904D01062C000C7708E12C00E02C
:104F40002BE432E043E153E0B201C3010E947A1244
:104F5000F0910101FEA38F2EFF0F9908A090000190
:104F60000A2C000CBB0829EB30E041E851E0B40109
:104F7000C5010E947A12B201605471092BE432E03B
:104F800043E153E0C3010E947A12B40160547109F5
:104F900029EB30E041E851E0C5010E947A12B201EC
:104FA000605C7F4F2BE432E043E153E0C3010E9499
:104FB0007A12B401605C7F4F29EB30E041E851E0A8
:104FC000C5010E947A1281E08F0D81341CF4809318
:104FD0004F0102C010924F011E5F10934E018EA12F
:104FE0008E5F80930101113414F010924E018134D0
:104FF00014F010920101E12CF12C08E110E020E006
:10500000A801B70181EA95E00E94B3130F5F1F4F1B
:105010000C321105A1F72FEFE21AF20A80E8E81628
:10502000F10459F701E029E130E040E850E069E19E
:1050300070E080E090E00E948F172AE230E040E8C4
:1050400050E06AE270E080E090E00E948F1700E09C
:105050002DE230E040E850E06DE270E080E090E06A
:105060000E948F172FE230E040E850E06FE270E0DE
:1050700080E090E00E948F1781E390E09093AD056F
:105080008093AC058FE190E09093AF058093AE05DF
:105090008FED97E00E946E178091A4059091A50571
:1050A0006FE070E00E942E2A892B51F480916E01EE
:1050B0008F5F853018F480936E0102C010926E01EC
:1050C00010916E01E12E012F25E231E145EC51E115
:1050D0006BE170E08CE190E00E947A1225E231E110
:1050E00045EC51E16BE170E082E590E00E947A12BC
:1050F0008FE090E09093AD058093AC0585E290E061
:105100009093AF058093AE0584E00E9463178823D7
:1051100019F082E0809357010E94531780E090E0DD
:10512000892B11F40C94031F0E9400000C94001FA3
:1051300080E88093700181E0EDCF8150809302017F
:1051400095CD8F5F809302019ACD815080930301AA
:105150009FCD8F5F80930301A4CD0F931F93CF93B7
:10516000DF938C0181E090E00E94B52980FF31C07F
:105170008AE090E00E94B5299FEF980F9E3F48F586
:1051800022E330E0D80150963C932E931F9728E3FA
:1051900030E052963C932E935197CBE0D0E0D8016B
:1051A000ED91FC910190F081E02D682FC8010995E7
:1051B000CE010E94B5292196C131D10581F70E9407
:1051C000531788EE93E0DF91CF911F910F910C94CC
:1051D0009E13DF91CF911F910F91089504970C9426
:1051E000AD28E0ECF5E01382128288EE93E0A0E0B7
:1051F000B0E084839583A683B7838FE191E09183A8
:1052000080838FEF9FEF95878487EDE9F5E0138228
:1052100012821186128680E1838710861782158696
:1052200081E391E0918380838FE391E09583848390
:10523000108A1786128A118A81E0838B148A858BE3
:10524000168A8BE191E1909399058093980580E00F
:1052500090E8909397058093960546983E9A4798D4
:105260003F9A6DE370E080E090E00E942511DC0140
:10527000CB014A96A11DB11D80939C056DE370E0A2
:1052800080E090E00E942511DC01CB014A96A11D2F
:10529000B11D80939B056DE370E080E090E00E947B
:1052A0002511DC01CB014A96A11DB11D80939A0501
:1052B00008958F929F92AF92BF92CF92DF92EF921A
:1052C000FF92CF93DF93EC01688179818A819B8182
:1052D000611571058105910521F464E279ED8BE595
:1052E00097E02DE133EF41E050E00E94CB294901E6
:1052F0005A019B01AC01A7EAB1E40E94EA296B01C3
:105300007C01ACEEB4EFA50194010E94F829DC0108
:10531000CB018C0D9D1DAE1DBF1DB7FF03C00197B6
:10532000A109B04888839983AA83BB83BC01CD01BE
:105330009F77DF91CF91FF90EF90DF90CF90BF905C
:10534000AF909F908F9008950E945929089587E10A
:1053500091E00E94592908956093170170931801F4
:105360008093190190931A010895F999FECF92BD87
:1053700081BDF89A992780B50895262FF999FECF17
:105380001FBA92BD81BD20BD0FB6F894FA9AF99A62
:105390000FBE01960895052E97FB1EF400940E94FF
:1053A000E22957FD07D00E94FD2907FC03D04EF4E7
:1053B0000C94E22950954095309521953F4F4F4FE1
:1053C0005F4F089590958095709561957F4F8F4FB1
:1053D0009F4F08950E941F2AA59F900DB49F900D86
:1053E000A49F800D911D11240895B7FF0C94EA2904
:1053F0000E94EA29821B930B0895A1E21A2EAA1B90
:10540000BB1BFD010DC0AA1FBB1FEE1FFF1FA21774
:10541000B307E407F50720F0A21BB30BE40BF50B71
:10542000661F771F881F991F1A9469F760957095FA
:10543000809590959B01AC01BD01CF010895A29F7D
:10544000B001B39FC001A39F700D811D1124911D58
:10545000B29F700D811D1124911D0895AA1BBB1BC5
:1054600051E107C0AA1FBB1FA617B70710F0A61B64
:10547000B70B881F991F5A95A9F780959095BC0185
:10548000CD010895EE0FFF1F0590F491E02D0994D2
:0E54900081E090E0F8940C944D2AF894FFCF40
:10549E006700362801F23200E4E40300E100000068
:1054AE00000000FFFFFFFF01000000000000000CE5
:1054BE0016EB18481A84198F194C1A6A1A00000034
:1054CE0000D113281020111F11AD28FCFF0000EE93
:0854DE002800C18081000000DC
:00000001FF
