:100000000C947B110C94A3110C94A3110C94A311C8
:100010000C94A3110C94A3110C94A3110C94A31190
:100020000C94A3110C94A3110C94271C0C94991CF0
:100030000C94A3110C94A3110C94A3110C94A31170
:100040000C94A3110C94A3110C94A3110C94A31160
:100050000C94A3110C94A3110C94A3110C942513CC
:100060000C94A3110C94A3110C94A3110C94A31140
:100070000C94A3110C94A3110C94A3110C94A31130
:100080000C946F130C94A3110C94A3110C94A31152
:100090000C94A3110C94A3110C94A3110C94A31110
:1000A0000C94A3110C94A3110C94A3112070F87C50
:1000B000FEFFFEFFFFFFFFFFFFFEFFFE7CF870204C
:1000C00000000000070F1F1F1F1F1F1F1F1F0F070C
:1000D000000000000C1E3E3FFFFFFEFFFFFFFFFF82
:1000E000FFFEFFFF3F3E1E0C00000000070F1F1F1A
:1000F0001F1F1F1F1F1F0F07000000002070F87C2C
:10010000FEFFFEFFFFFFFFFFFFFEFFFE7CF87020FB
:1001100000000000070F1F1F1F1F1F1F1F1F0F07BB
:10012000000000000C1E3E3FFFFFFEFFFFFFFFFF31
:10013000FFFEFFFF3F3E1E0C00000000070F1F1FC9
:100140001F1F1F1F1F1F0F070000000000000020BF
:1001500070F87020000000000000000000000000A7
:1001600000000000A8FCF8FCF8FCA800000000005B
:1001700001000100010000000024FE74ACDEAC743C
:10018000FE240000010301010301010301002277A5
:100190007220020702207277220207020002070281
:1001A00000020702227772200207022072772202E1
:1001B0000702000207020002070240E0E0F0E4EE5E
:1001C000FEFFFEEEE4F0E0E040FAFFFFFFFFFF7FFE
:1001D000FF7FFFFFFFFFFFFAC1FFFFFFFEFEFFFFF4
:1001E000FFFEFEFFFFFFC10307070F1F1F3F3F3F3B
:1001F0001F1F0F07070320F0E8FC28F0FEFFFEF0AA
:1002000028FC28F020F9FFF96E297FFFFFFF7F29E6
:100210006EF9FFF9C0F9FEFFFEFEFFFFFFFEFEFFD5
:10022000FEF9C00307070F1F1F3F3F3F1F1F0F07A8
:10023000070370F8FCFEFFFFFFFEFEFFFFFFFEFC62
:10024000F87000000103070F1F3F3F1F0F07030156
:10025000000070F8FCFEFFFFFFFEFEFFFFFFFEFC4C
:10026000F87000000103070F1F3F3F1F0F07030136
:10027000000070F8FCFEFFFFFFFEFEFFFFFFFEFC2C
:10028000F87000000103070F1F3F3F1F0F07030116
:10029000000070F8FCFEFFFFFFFEFEFFFFFFFEFC0C
:1002A000F87000000103070F1F3F3F1F0F070301F6
:1002B0000000140D2050A854BA1DFA05F5050505D7
:1002C00005FA1DBA54A850200000000007081714B2
:1002D0001515151514170807000000000C122A2D1B
:1002E000DD1DFA05F505050505FA1DDD2D2A120CA3
:1002F0000000000007081714151515151417080736
:1003000000000000140D2050A854BA1DFA05F55540
:10031000551505FA1DBA54A8502000000000070822
:1003200017141514141414170807000000000C12F9
:100330002A2DDD1DFA05F555551505FA1DDD2D2A69
:10034000120C0000000007081714151414141417D9
:100350000807000000000B0B0000000020702000C8
:10036000000000000000000000000000000000008D
:1003700000A820D820A80000000000000000000015
:100380000000000000002420008C00202400000059
:100390000001000001000001000000222000000216
:1003A0000000202200000200000002000000020005
:1003B00000222000000200002022000002000000B5
:1003C0000200000002000F1E004000E0004400FE9A
:1003D000004400E000400000FA00FF0052007F00EF
:1003E0005200FF00FA0000C178EE84D46E3F6ED454
:1003F00084EE78C100000303060B0D1D1D1D0D0BBF
:1004000006030300002000E8002000FE002000E8B2
:1004100000200000F9006E0029007F0029006E0016
:10042000F90000C078EE84D46E3F6ED484EE78C0BC
:1004300000000303060B09151515090B060303003D
:10044000100E0070E8B4BAEE06FC0CF60EFA7488D2
:1004500070000000000102070C17160D06030100D2
:1004600000000070E8B4BAEE06FC0CF60EFA7488D0
:1004700070000000000102070C17160D06030100B2
:1004800000000070E8B4BAEE06FC0CF60EFA7488B0
:1004900070000000000102070C17160D0603010092
:1004A00000000070E8B4BAEE06FC0CF60EFA748890
:1004B00070000000000102070C17160D0603010072
:1004C0000000D5F08D14A1C881CFD9F1AF20000074
:1004D0000000000080E7FFFFFFFFFFFFFFFFFFFFBF
:1004E000FFFFFFFFFFFFFFFF0080C0E0F7FFFFFF00
:1004F000FFFFFFFFFFFFFFFFFFFFFFFFFFFFFFFF0C
:10050000FF00070F1F3F7FFFFFFFFFFFFFFFFFFF02
:10051000FFFFFFFFFFFFFFFFFFFF0000F0FCFEFFFC
:10052000FFFFFFFFFFFFFFFFFFFFFFFFFFFFFFFFDB
:10053000FFFFFF00001F7FFFFFFFFFFFFFFFFFFF29
:10054000FFFFFFFFFFFFFFFFFFFFFFFF000000E0D7
:10055000F1FBFFFFFFFFFFFFFFFFFFFFFFFFFFFFBD
:10056000FFFFFFFFFF0000000001E3F7FFFFFFFFB9
:10057000FFFFFFFFFFFFFFFFFFFFFFFFFFFF000089
:100580000000000187DFFFFFFFFFFFFFFFFFFFFF0E
:10059000FFFFFFFFFFFFFF19400000000000008089
:1005A000E7FBFDFDFEFEFFFFFFFFFFFFFFFFFFFF7D
:1005B000FFFF000080C0E0F7FBFBFFFFFFFFFFFF36
:1005C000FFFFFFFFFFFFFFFFFFFFFF0000070F1F01
:1005D0003F7FBFBFFFFFFFFFFFFFFFFFFFFFFFFFEB
:1005E000FFFFFFFF000000F0FCFEFFFFFFFFFFFF2B
:1005F000FFFFFFFFFFFFFFFFFFFFFFFFFF00000008
:100600001F7FFFFFFFFFFFFFFFFFFFFFFFFFFFFF5A
:10061000FFFFFFFFFFFF00000000E0F1FBF7F7EF37
:10062000FFFFFFFFFFFFFFFFFFFFFFFFFFFFFF00D9
:100630000000000001E3F3FDFFFFFFFFFFFFFFFFEE
:10064000FFFFFFFFFFFFFFFF00000000000001872A
:10065000DFBFBF7F7FFFFFFFFFFFFFFFFFFFFFFF4A
:10066000FFFFFFFFFFFFFFFFFFFFFFFFFFFFFFFF9A
:10067000FFFFFBE1800000000000FFFFFFFFFFFF26
:10068000FFFFFFFFFFFFFFFFFFFFFFFFEFC7800040
:10069000000000FFFFFFFFFFFFFFFFFFFFFFFFFF67
:1006A000FFFFFFFFFFFFDF8F07000000FFFFFFFFDF
:1006B000FFFFFFFFFFFFFFFFFFFFFFFFFFFFFFFF4A
:1006C000FFFEF80000FFFFFFFFFFFFFFFFFFFFFF40
:1006D000FFFFFFFFFFFFFFFFFF7F3F0F0000FFFF58
:1006E000FFFFFFFFFFFFFFFFFFFFFFFFFFFFFFFF1A
:1006F000FFFEFCF8F0E000FFFFFFFFFFFFFFFFFF42
:10070000FFFFFFFFFFFFFFFFFFFFFFEF07030100FA
:10071000FFFFFFFFFFFFFFFFFFFFFFFFFFFFFFFFE9
:10072000FFFFE70100000000001940FFFFFFFFFF8F
:10073000FFFFFFFFFFFFFFFEFEFDFDFBE18000006E
:1007400000000000FFFFFFFFFFFFFFFFFFFFFFFFB5
:10075000FFFFFFFFBFCFC7800000000000FFFFFFCB
:10076000FFFFFFFFFFFFFFFFFFFFFFFFF7EFEFDFE1
:100770008F0700000000FFFFFFFFFFFFFFFFFFFFED
:10078000FFFFFFFFFFFFFFFFFFFFFEF8000000FF7E
:10079000FFFFFFFFFFFFFFFFFFFFFFFFFFFFFFFF69
:1007A000FFFF7F3F0F000000FFFFFFFFFFFFFFFF86
:1007B000FFFFFFFFFFFFFFFFFDFDFEFCF8F0E00085
:1007C00000FFFFFFFFFFFFFFFFFFFFFFFFFFFFFF38
:1007D000FFFFDFDFEF0703010000FFFFFFFFFFFF69
:1007E000FFFFFFFFFFFF7F7FBFBFDFE701000000CC
:1007F000000000804055AA55AA55AA55AA55AA55E9
:10080000AA55AA55AA55AA55AA55AA55AA55AA55F0
:10081000A852A508F0000000002000000000000021
:1008200000000000000000000020000000000000A8
:1008300000000000280000000000000000E00000B0
:10084000000000000000000000E8000000000000C0
:10085000000000000000F00BA451AA55AA55AA55AB
:10086000AA55AA55AA55AA55AA55AA55AA55AA5590
:10087000AA55AA55AA55AA55AA55AA55AA55AA5580
:10088000AA55AA55AA55AA55AA55AA55AA55AA5570
:10089000AA017C820100000000FF0000000090001F
:1008A000000000000000000000FF0000000000F059
:1008B00000000000008000000000000000FF0000B9
:1008C00000000000F8000000000F00000000000021
:1008D00000FD00000000C12E9045AA55AA55AA555A
:1008E000AA55AA55AA55AA55AA55AA55AA55AA5510
:1008F000AA55AA55AA55AA55AA55AA55AA55AA5500
:10090000AA55AA55AA55AA55AA55AA55AA55AA55EF
:100910008239448300000000000100000000FC0058
:1009200000000000E000000000040000000000FFE4
:1009300000000000004B00000000000000C40000A8
:10094000000000007F000000000000000000000028
:100950000089000000000708F205AA55AA55AA550B
:10096000AA55AA55AA55AA55AA55AA55AA55AA558F
:10097000AA55AA55AA55AA55AA55AA55AA55AA557F
:10098000AA55AA55AA55AA55AA55AA55AA55AA556F
:10099000A24914E30000FE000000008000000100F6
:1009A000000000000A0000000000000000000047F6
:1009B000000000000000000000000000001F000018
:1009C000000000000200002000000000FF00000006
:1009D000000000000000C0388750AA55AA55AA554B
:1009E000AA55AA55AA55AA55AA55AA55AA55AA550F
:1009F000AA55AA55AA55AA55AA55AA55AA55AA55FF
:100A0000AA55AA55AA55AA55AA55AA55AA55AA55EE
:100A10000AE11C0300004900000000FF0000000084
:100A20000000000000000000800000000000000046
:100A3000000000000000FF000000000000000400B3
:100A4000000000000000000F000000009F000000F8
:100A5000000000000000C7289245AA55AA55AA55D3
:100A6000AA55AA55AA55AA55AA55AA55AA55AA558E
:100A7000AA55AA55AA55AA55AA55AA55AA55AA557E
:100A8000AA55AA55AA55AA55AA55AA55AA55AA556E
:100A9000A04F10E000000000000000A300000000D4
:100AA0000000000000000000BF0000000000000087
:100AB00000E40000000027000000000000E000004B
:100AC00000000000FC000000000000007C000000AE
:100AD0000000FF000000C1229C41AA55AA55AA555A
:100AE000AA55AA55AA55AA55AA55AA55AA55AA550E
:100AF000AA55AA55AA55AA55AA55AA55AA55AA55FE
:100B0000AA55AA55AA55AA55AA55AA55AA55AA55ED
:100B1000A209748300000000000000000000000033
:100B20000000F80000000000F800000000000000D5
:100B3000004F0000000001000000000000FF000066
:100B400000000000270000000000800000000000FE
:100B5000000023000080413E8055AA55AA55AA55A1
:100B6000AA55AA55AA55AA55AA55AA55AA55AA558D
:100B7000AA55AA55AA55AA55AA55AA55AA55AA557D
:100B8000AA55AA55AA55AA55AA55AA55AA55AA556D
:100B90008A25D00F000000007E0000000000000049
:100BA0000000040000000000100000000000000031
:100BB0000000000000000000000000000014000021
:100BC000000000000000000000000F000000000016
:100BD00000000E00000F10A54A15AA55AA55AA55E7
:100BE000AA55AA55AA55AA55AA55AA55AA55AA550D
:100BF000AA55AA55AA504155534500F8FCFCFC786B
:100C000078FC781C3878FCFCF850F8FCFC78F8FC90
:100C1000FC6800FCFEFFFFFFFFFFFEFC010301007C
:100C200000000000000000000000000000000000C4
:100C300000000000000103030303030100210A0078
:100C4000F8084830007810080030486850005068B4
:100C50006800506868000000FC027A526202FC00E2
:100C60000001000000000000000000000000000083
:100C7000000000000000000000000101010101006F
:100C800000484947482053434F52453A0053434F89
:100C900052453A0047414D45204F564552007EFF90
:100CA000FFFEE0FCFEFFFFC7FFFFFE7E3FFFFEFEF4
:100CB000FF3FFEFFFFFFFFB6FCFEFFFFFFFEFCFD58
:100CC000FFFFFDFFFFFCF8FCFFFFFEFCFEFFFDFF4A
:100CD000FFFC0307070303070703030707070303D3
:100CE0000707070301030707030707031A13007E1B
:100CF000FEC0C0007CFE828282FE7C00063EF8F8C8
:100D00003E0600FEFEB6B60000FCFC0CCCFC30003B
:100D1000FCFC00FCFC000078FCCC0C00FCFC60FC43
:100D2000FC000003030001030300010303030100AF
:100D3000030303010000030300030300FCFEFFFFA5
:100D4000FFFEFCFFFFFFFFFFFFFFFFFFFFFFFFFFB7
:100D5000FFFFFFFFFFFFFFFFFFFFFFFFFFFFFF079B
:100D60000F1F1F1F0F07072D00F402AA02F4000037
:100D7000FF00AA00FF0000FF00AA00FF0000FF0024
:100D8000AA00FF0000FF00AA00FF000007080A08F1
:100D90000700307CFEFCF8FCFCFEFFFEFCFCF8FCCF
:100DA000FE7C3002070F0F1F3B1F0B030B1F3B1F67
:100DB0000F0F0702307CFEFCF8FCFCFEFFFEFCFC83
:100DC000F8FCFE7C30020F1F0B377B370303033721
:100DD0007B370B1F0F02110F00304CE83008F01C5E
:100DE000861CF00830E84C3000000205000A110AA9
:100DF0000101010A110A0005020000304CE8300828
:100E0000F01C861CF00830E84C300000020900029B
:100E10003102010101023102000902002E7F2E7F02
:100E20002E003E7F3F0F3E7F7E7F3E7F7F2A7F7E6C
:100E30007020002E7F2E7F2E2E7F2E7F2E003E7F55
:100E40003F0F3E7F7E7F3E7F7F2A7F7E7020002E79
:100E50007F2E7F2E1C07002E002E0000003E0A026F
:100E6000003E203E003E2A003E20200000002E00D2
:100E70002E00002E002E0000003E0A02003E203E02
:100E8000003E2A003E20200000002E002E00534885
:100E900049454C443A0053434F52453A0000000044
:100EA0000000000000000000000000000000000042
:100EB0000000000000000000000000000000000032
:100EC0000000000000000000000000000000000022
:100ED0000000000000000000000000000000000012
:100EE0000000000000000000000000000000000002
:100EF00000000000000000000000000000000000F2
:100F000000000000000000000000000000000000E1
:100F100000000000000000000000000000000000D1
:100F200000000000000000000000000000000000C1
:100F300000101010505050505050505050505050C1
:100F40005050500000F8F8F8F808D000000000C039
:100F5000E0F0F0F878787878F8F0F0E0C00838F849
:100F6000F8F8F8C0C0F8F8F8F8380840E0F0F8F8F9
:100F7000787878F8780000505050505050505050C9
:100F80005050505050501010100000000000000051
:100F90000000000000000000000000000000000051
:100FA0000000000000000000000000000000000041
:100FB0000000000000000105051515555555555553
:100FC0005555550000FFFFFFFFC0DFE040803FFFA9
:100FD000FFFFE1C281818181C2E1FFFFFF3F00008D
:100FE000873FFFFFFFFF1F070000FC00FFFFFFFF21
:100FF0009E9E9EBE9E0000555555555555555515FE
:1010000015050501000000000000000000000000C0
:1010100000000000000000000000000000000000D0
:101020000000000000000000008000C00080000000
:1010300000000000000000000000000000010101AD
:101040000505050000C0C3C3C7D7D7D7D088800027
:101050000103CBD7D7D7171717CBC3C1C0000000E8
:10106000000384CFC3C0C0000000C1C4C9D3171798
:1010700017D7D7CFC7000005050501010100000003
:101080000000000000000000000000008000C00020
:1010900080000000000000000000000000FC7880DC
:1010A000C0C0C080004800FC004800FF004800FCB1
:1010B00000480000000000000000000000000000E8
:1010C0000000000000FFFFFFFF03E3E3FFFF7F3EA0
:1010D0000000FFFFFFFF000000FFFFFFFF00000018
:1010E0003EFFFFFFFFE3C3000000FFFFFFFFF0F044
:1010F00000FFFFFFFF0000000000000000000000F4
:1011000000000000000000004800FC004800FF0054
:101110004800FC00480080C0C0C08078FCFFFEFF93
:10112000FFFFDFEFC03F00DF808AC0EFC08A80DFB3
:10113000003F000000000000000000000000000070
:1011400000000000003FBFBFBF80630F3FBFBFBCB8
:10115000A080471F1F3FBCBCBCBF9F4F0700003E85
:10116000BCBCBFBF9F4F070000003FBFBFBF804058
:10117000003FBFBFBF804000000000000000000033
:1011800000000000000000003F00DF808AC0EFC0C8
:101190008A80DF003FC0EFDFFFFFFFFEFFFFFFFFA2
:1011A000FFFFAB5482786FDDF0BA2D272DBAF0DD4A
:1011B0006F78000000000000000000000000000048
:1011C00000000000000000000000000000C04040DF
:1011D0008000C0804000804040800080404000800F
:1011E0004040000000E01090509010E0000000002F
:1011F00000000000000000000000000000000000EF
:101200000000000000000000786FDDF0BA2D272DEF
:10121000BAF0DD6F7807AFFFFFFFFFFFFFFFFFFFB3
:10122000FFFFFFFFFEFDFAF4E9F5EBF3FBFDFDCE5A
:10123000E0F0F8F8F8F8F0E0C0000000000000006E
:10124000000000000000000000000000000F00028D
:101250000100030000000102030200020303000278
:10126000030300000007080B090B0807000000003B
:10127000000000000000000000000000000000006E
:1012800000C0E0F0F8F8F8F8F0E0CEFDFDF3EBF385
:10129000E9F5EAF5FAFDFEFFFFFFFFFFFF70F8FC3E
:1012A000FEFFFFFFFEFEFFFFFFFEFCF870000001E7
:1012B00003070F1F3F3F1F0F07030100000000003F
:1012C000F8FCFEFFFEFEFFFEFCF800000000000040
:1012D00001070F1F3F3F1F0F070300000000000022
:1012E0000000FCFEFFFFFEFC00000000000000000C
:1012F00000000F1F3F3F1F0F000000000000000014
:10130000F8FCFEFFFEFEFFFEFCF8000000000000FF
:1013100003070F1F3F3F1F0F070100000070F8FC7D
:10132000FEFFFFFFFEFEFFFFFFFEFCF87000000166
:1013300003070F1F3F3F1F0F0703010000100E00A0
:10134000708874DAAA4A94140A0A8A7488700000B1
:1013500000000102050B16150A050201000000003D
:10136000000000F804020404FA04F8000000000081
:1013700000000001060C18140B040300000000001C
:101380000000000000FCC2C2FC00000000000000E1
:1013900000000000000F1A1A0F00000000000000FB
:1013A000000000F804FA04040204F8000000000041
:1013B00000000003040B14180C06010000000000DC
:1013C000708874DAAA4A94140A0A8A748870000031
:1013D00000000102050B16150A050201000000427B
:1013E0003A43414E43454C00444F574E3A44454CD6
:1013F0002E004F5054494D49534544000080C0E0F1
:10140000F0F8FCFEFEFFFFFFFFFFFFFFFEFEFCF813
:10141000F0E0C08000FEFFFFFFFFFFFFFFFFFFFFC8
:10142000FFFFFFFFFFFFFFFFFFFFFFFFFFFE0003C8
:10143000070F1FFFFFFFFFFFFFFFFFFFFFFFFFFF84
:10144000FFFF1F0F07030000000000000F1F3F3FBA
:101450003F3F3F3F3F3F3F3F3F1F0F000000000027
:101460003E7F3F1F3E7F3E7830387C78387C3C188A
:10147000387C7878FC7C3810001928008040209057
:10148000C8E4F2F2F9F9F9F9F9F9F9F2F2E4C890DD
:1014900020408000FE0100FEFF010000000001FF6F
:1014A000FFFF010000000001FFFE0001FE00030439
:1014B0000813E70E0EFEFE1FFFFFFF1FFEFE0E0EBF
:1014C000E7130804030000000000000F1020272786
:1014D0002027272720272720100F000000000000CA
:1014E0003E0A0E003E083000102830003808001078
:1014F00028300078281000000080402090C8E4F2D6
:10150000F2F9F9F9F9F9F9F9F2F2E4C8902040801A
:1015100000FE0100FEFFCFCFCFCFCFCFFFFFFFCF29
:10152000CFCFCFCFCFFFFE0001FE0003040813E7AB
:101530000F0FFFFF1FFFFFFF1FFFFF0F0FE7130836
:1015400004030000000000000F1020272720272799
:101550002720272720100F0000000000003E0A0E61
:10156000003E0830001028300038080010283000F5
:1015700078281000000000000000000000000000BB
:10158000000000000000000000000000000000005B
:10159000000000000000000000000000000000004B
:1015A000000000000000000000000000000000003B
:1015B000000000000000000000000000000000002B
:1015C000000000000000000000000000000000001B
:1015D000000000000000000000000000000000000B
:1015E00000000000000000000000000000000000FB
:1015F00000000000000000000000000000000000EB
:1016000000000000000000000000000000000000DA
:1016100000000000000000000000000000000000CA
:1016200000000000808080808080000000008080BA
:1016300080808080808000000000000000000000AA
:10164000000000000000000000000000000000009A
:10165000000000000000000000000000000000008A
:10166000000000000000000000000000000000007A
:10167000000000000000000000000000000000006A
:10168000000000000000000000000000000000005A
:10169000000000000000000000000000000000004A
:1016A00000020A2AA8A38F3FFFFFFEF08000FFFF81
:1016B000FFFFFFFFFF070000000000008080808028
:1016C000C0C000800000000000000000000000001A
:1016D000000000000000000000000000000000000A
:1016E00000000000000000000000000000000000FA
:1016F00000000000000000000000000000000000EA
:1017000000000000000000000000000000000000D9
:1017100000000000000000000000000000000000C9
:101720000000000000020A0A28A3871F7FFCFFFFB9
:10173000FFFFFF7F01F0F8FCFE06A30B07073F0F3A
:10174000230802000000000000000000000000006C
:101750000000000000000000000000000000000089
:101760000000000000000000000000000000000079
:101770000000000000000000000000000000000069
:101780000000000000000000000000000000000059
:101790000000000000000000000000000000000049
:1017A00000000000000000000000020A28A1871FBE
:1017B0007FFF1F0080F1F3F3636322B21E20280035
:1017C0000000000000000000000000000000000019
:1017D0000000000000000000000000000000000009
:1017E00000000000000000000000000000000000F9
:1017F00000000000000000000000000000000000E9
:1018000000000000000000000000000000000000D8
:1018100000000000000000000000000000000000C8
:101820000000000000000000080808C808884A8A74
:1018300048480888498908CA480948C84808080823
:101840000000000000000000000000000000000098
:101850000000000000000000000000000000000088
:101860000000000000000000000000000000000078
:101870000000000000000000000000000000000068
:101880000000000000000000000000000000000058
:101890000000000000000000000000000000000048
:1018A0000000000000000000000000000300000233
:1018B0000303000102010003010000030000000017
:1018C0000000000000000000000000000000000018
:1018D0000000000000000000000000000000000008
:1018E00000000000000000000000000000000000F8
:1018F00000000000000000000000000000000000E8
:1019000000000000000000000000000000000000D7
:1019100000000000000000000000000000000000C7
:1019200000000000000000000000000000000000B7
:1019300000000000000000000000000000000000A7
:101940000000000000000000000000000000000097
:101950000000000000000000000000000000000087
:101960000000000000000000000000000000000077
:101970000000000000804055AA55AA55AA55AA5556
:10198000AA55AA55AA55AA55AA55AA55AA55AA555F
:10199000AA55A852A508F0000000000000000000B1
:1019A0000000000000000000000000000000000037
:1019B0000000000000000000000000000000000027
:1019C0000000000000000000000000000000000017
:1019D0000000000000000000F00BA451AA55AA5519
:1019E000AA55AA55AA55AA55AA55AA55AA55AA55FF
:1019F000AA55AA55AA55AA55AA55AA55AA55AA55EF
:101A0000AA55AA55AA55AA55AA55AA55AA55AA55DE
:101A1000AA55AA017C82010000000000000000001D
:101A200000020000000000000000000008000000AC
:101A300000000000000000000000000000000000A6
:101A40000000000000000000000000001000000086
:101A50000000020020000000C12E9045AA55AA55A2
:101A6000AA55AA55AA55AA55AA55AA55AA55AA557E
:101A7000AA55AA55AA55AA55AA55AA55AA55AA556E
:101A8000AA55AA55AA55AA55AA55AA55AA55AA555E
:101A9000AA558239448300000000002000000000A5
:101AA000010000000000000000000800000000002D
:101AB00000000000000000000000000000004000E6
:101AC0000001000000000000000001000000000410
:101AD00000000000000000000708F205AA55AA5502
:101AE000AA55AA55AA55AA55AA55AA55AA55AA55FE
:101AF000AA55AA55AA55AA55AA55AA55AA55AA55EE
:101B0000AA55AA55AA55AA55AA55AA55AA55AA55DD
:101B1000AA55A24914E300000000000000000000E4
:101B20000000000000008000000000000000000035
:101B300000000000000000000000000000000000A5
:101B40000000000000010000000000000000040090
:101B50000000000000000000C0388750AA55AA55B8
:101B6000AA55AA55AA55AA55AA55AA55AA55AA557D
:101B7000AA55AA55AA55AA55AA55AA55AA55AA556D
:101B8000AA55AA55AA55AA55AA55AA55AA55AA555D
:101B9000AA550AE11C03000000000000000000003C
:101BA0000000000000000000000000000000000035
:101BB0000000000000200000000000800000000085
:101BC0000000000000000000000000800000000095
:101BD0000000000000000000C7289245AA55AA5541
:101BE000AA55AA55AA55AA55AA55AA55AA55AA55FD
:101BF000AA55AA55AA55AA55AA55AA55AA55AA55ED
:101C0000AA55AA55AA55AA55AA55AA55AA55AA55DC
:101C1000AA55A04F10E000000000000000040000E2
:101C200000000000000000000000000000000000B4
:101C3000000000000000000000000000000000089C
:101C40000000000000000000000000000000000094
:101C50000000000000000000C1229C41AA55AA55C6
:101C6000AA55AA55AA55AA55AA55AA55AA55AA557C
:101C7000AA55AA55AA55AA55AA55AA55AA55AA556C
:101C8000AA55AA55AA55AA55AA55AA55AA55AA555C
:101C9000AA55A2097483000000000000000000089B
:101CA00000000000400000040000000000000000F0
:101CB0000000000000000000000000000000000024
:101CC0000000020000000000000000000000000012
:101CD0000020000000000080413E8055AA55AA5512
:101CE000AA55AA55AA55AA55AA55AA55AA55AA55FC
:101CF000AA55AA55AA55AA55AA55AA55AA55AA55EC
:101D0000AA55AA55AA55AA55AA55AA55AA55AA55DB
:101D1000AA558A25D00F0000000000000000000036
:101D200000001000000000000000000000000000A3
:101D300000000000000000000000000000000000A3
:101D40000002000000000000000000000000100081
:101D5000000000000000000F10A54A15AA55AA5562
:101D6000AA55AA55AA55AA55AA55AA55AA55AA557B
:101D7000AA55AA55AA55AA010204081020408000BD
:101D8000000000003E5B4F5B3E3E6B4F6B3E1C3ED7
:101D90007C3E1C183C7E3C181C577D571C1C5E7FEB
:101DA0005E1C00183C1800FFE7C3E7FF001824186A
:101DB00000FFE7DBE7FF30483A060E26297929269F
:101DC000407F050507407F05253F5A3CE73C5A7F89
:101DD0003E1C1C08081C1C3E7F14227F22145F5FDF
:101DE000005F5F06097F017F006689956A60606019
:101DF000606094A2FFA29408047E040810207E2054
:101E00001008082A1C08081C2A08081E10101010A8
:101E10000C1E0C1E0C30383E3830060E3E0E0600EE
:101E20000000000000005F00000007000700147FB2
:101E3000147F14242A7F2A12231308646236495619
:101E400020500008070300001C2241000041221C12
:101E5000002A1C7F1C2A08083E08080080703000F9
:101E60000808080808000060600020100804023E0E
:101E70005149453E00427F4000724949494621414F
:101E8000494D331814127F1027454545393C4A49BE
:101E900049314121110907364949493646494929FD
:101EA0001E0000140000004034000000081422410D
:101EB0001414141414004122140802015909063E96
:101EC000415D594E7C1211127C7F494949363E4191
:101ED0004141227F4141413E7F494949417F0909B2
:101EE00009013E414151737F0808087F00417F414D
:101EF000002040413F017F081422417F4040404084
:101F00007F021C027F7F0408107F3E4141413E7FDB
:101F1000090909063E4151215E7F091929462649D2
:101F200049493203017F01033F4040403F1F2040A9
:101F3000201F3F4038403F631408146303047804B3
:101F4000036159494D43007F41414102040810207B
:101F5000004141417F0402010204404040404000F2
:101F60000307080020545478407F284444383844FC
:101F7000444428384444287F385454541800087E78
:101F8000090218A4A49C787F0804047800447D40CA
:101F9000002040403D007F1028440000417F400069
:101FA0007C047804787C080404783844444438FC81
:101FB0001824241818242418FC7C08040408485405
:101FC00054542404043F44243C4040207C1C2040C2
:101FD000201C3C4030403C44281028444C909090B9
:101FE0007C4464544C4400083641000000770000F3
:101FF000004136080002010204023C2623263C1E52
:10200000A1A161123A4040207A38545455592155C3
:1020100055794121545478412155547840205455E4
:1020200079400C1E52721239555555593954545431
:102030005939555454580000457C410002457D42B1
:102040000001457C40F0292429F0F0282528F07C67
:10205000545545002054547C547C0A097F49324928
:102060004949323248484832324A4848303A414178
:10207000217A3A42402078009DA0A07D3944444412
:10208000393D4040403D3C24FF2424487E4943667E
:102090002B2FFC2F2BFF0929F620C0887E09032057
:1020A000545479410000447D413048484A32384018
:1020B00040227A007A0A0A727D0D19317D2629297B
:1020C0002F28262929292630484D4020380808087D
:1020D0000808080808382F10C8ACBA2F102834FA9E
:1020E00000007B000008142A142222142A140895E8
:1020F00000220095AA005500AAAA55AA55AA0000D8
:1021000000FF00101010FF00141414FF001010FF47
:1021100000FF1010F010F0141414FC001414F70059
:10212000FF0000FF00FF1414F404FC141417101F28
:1021300010101F101F1414141F00101010F00000B6
:1021400000001F101010101F10101010F0100000D1
:1021500000FF101010101010101010FF10000000E1
:10216000FF140000FF00FF00001F10170000FC0418
:10217000F414141710171414F404F40000FF00F7FB
:1021800014141414141414F700F71414141714105E
:10219000101F101F141414F4141010F010F000008D
:1021A0001F101F0000001F14000000FC140000F0AE
:1021B00010F01010FF10FF141414FF141010101F53
:1021C00000000000F010FFFFFFFFFFF0F0F0F0F064
:1021D000FFFFFF0000000000FFFF0F0F0F0F0F3881
:1021E000444438447C2A2A3E147E02020606027EBB
:1021F000027E0263554941633844443C04407E20DA
:102200001E2006027E020299A5E7A5991C2A492AEA
:102210001C4C7201724C304A4D4D30304878483079
:10222000BC625A463D3E494949007E0101017E2A71
:102230002A2A2A2A44445F444440514A44404044A4
:102240004A51400000FF0103E080FF000008086BD6
:102250006B083612362436060F090F0600001818D0
:102260000000001010003040FF0101001F01011E9E
:1022700000191D1712003C3C3C3C00000000000807
:102280000B0002020201000904000001020200002A
:10229000052400100105240101010424020605247F
:1022A0000600010705810310004009040100020A2D
:1022B00000000007050202400000070583024000FD
:1022C000000403090412010002EF02014041233619
:1022D0008000010102030141726475696E6F204C38
:1022E0004C430041726475696E6F204C656F6E617E
:1022F00072646F00472B11241FBECFEFDAE0DEBF00
:10230000CDBF11E0A0E0B1E0E6E6F9E502C005903E
:102310000D92AA35B107D9F726E0AAE5B1E001C0D0
:102320001D92A339B207E1F711E1CBE7D1E104C077
:102330002197FE010E94A62CCA37D107C9F70E9437
:10234000C91E0C94B12C0C940000CF92DF92EF9236
:10235000FF920F931F93CF93DF936C017A018B0150
:10236000C0E0D0E0CE15DF0589F0D8016D918D0178
:10237000D601ED91FC910190F081E02DC601099507
:10238000892B11F47E0102C02196ECCFC701DF91A9
:10239000CF911F910F91FF90EF90DF90CF90089514
:1023A00080918701E0918501F0918601882349F0B1
:1023B000CF01029690938601809385018591949137
:1023C0000895CF01029690938601809385018081C4
:1023D00091810895CF92DF92EF92FF920F931F9316
:1023E000CF93DF930E94D011811520E8920761F40A
:1023F000809171008D7F80937100109291004698BA
:102400004798109284018BC021E020938401813091
:1024100020E8920751F4809182019091830190937A
:102420008601809385010E94D01197FD05C02091FF
:102430008101222309F43FC02091800121113BC07A
:1024400021E020938801EC01DF77209769F481E097
:102450008093890146983FE9C32E3FE0D32EE12CBB
:10246000F12CCAEFD0E014C08E0120E030E060E42F
:1024700072E48FE090E0A90198010E94232C690189
:102480007A0181E0C81AD108E108F10810928901A7
:10249000E091A705F091A8050995811103C081E09D
:1024A00080938901809188018823B9F18091890105
:1024B000811133C003C010928801C5CF46992DC049
:1024C000479A0E94D011009771F09C01DE010E9492
:1024D000772CDC01CB0129E0B595A79597958795D9
:1024E0002A95D1F703C08FEF9FEFDC011092900087
:1024F0002AE020939100D0929900C0929800809396
:102500008A0190938B01A0938C01B0938D018091EF
:10251000710082608093710002C04798D2CFDF9132
:10252000CF911F910F91FF90EF90DF90CF90089582
:1025300080915A0108950895089580E090E00895EB
:102540000E94AC2CCF93DF9300D000D0CDB7DEB784
:10255000611571058105910579F09B01AC016983D5
:102560003A834B835C830E94FF2B29813A814B8104
:102570005C810E94232C03C060E070E0CB010F90CF
:102580000F900F900F90DF91CF9108953FB7F8947F
:1025900080918F0190919001A0919101B091920151
:1025A00026B5A89B05C02F3F19F00196A11DB11DAE
:1025B0003FBFBA2FA92F982F8827820F911DA11DE9
:1025C000B11DBC01CD0142E0660F771F881F991F26
:1025D0004A95D1F708958F929F92AF92BF92CF9272
:1025E000DF92EF92FF926B017C010E94C6124B01B9
:1025F0005C01C114D104E104F104F1F00E94C6129F
:10260000DC01CB0188199909AA09BB09883E9340CE
:10261000A105B10570F321E0C21AD108E108F10863
:1026200088EE880E83E0981EA11CB11CC114D10451
:10263000E104F10419F7DDCFFF90EF90DF90CF9028
:10264000BF90AF909F908F9008951F920F920FB6FA
:102650000F9211242F933F938F939F93AF93BF9328
:1026600080915B0190915C01A0915D01B0915E0150
:1026700030918E0123E0230F2D3720F40196A11D08
:10268000B11D05C026E8230F0296A11DB11D2093A0
:102690008E0180935B0190935C01A0935D01B093E8
:1026A0005E0180918F0190919001A0919101B09174
:1026B00092010196A11DB11D80938F01909390010D
:1026C000A0939101B0939201BF91AF919F918F918F
:1026D0003F912F910F900FBE0F901F9018951F9252
:1026E0000F920FB60F9211242F933F934F935F9346
:1026F0006F937F938F939F93AF93BF93EF93FF93CA
:1027000080918A0190918B01A0918C01B0918D01F3
:10271000892B8A2B8B2B81F18091890181110BC030
:1027200098B180E4892788B980918801882319F0BD
:1027300088B1805888B980918A0190918B01A091CD
:102740008C01B0918D01181619061A061B06B4F4F7
:1027500080918A0190918B01A0918C01B0918D01A3
:102760000197A109B10980938A0190938B01A093ED
:102770008C01B0938D0102C00E94EA11FF91EF918C
:10278000BF91AF919F918F917F916F915F914F9189
:102790003F912F910F900FBE0F901F901895EF92C1
:1027A000FF920F931F93DC01E1E7F0E090819D7FA2
:1027B000908310928701E9E9F5E0F0938601E093B8
:1027C0008501F0938301E0938201B183A083738339
:1027D0006283558344833783268311870087F3867A
:1027E000E2861F910F91FF90EF900C94EA114F92A7
:1027F0005F926F927F928F929F92AF92BF92CF9291
:10280000DF92EF92FF920F931F93CF93DF9300D04D
:1028100000D0CDB7DEB7DC015B014115510509F4ED
:10282000F3C0FA018490319694914E5F5F4FC82CAB
:10283000D12C011102C0EE2039F1692F6695669501
:102840006695E62FF0E061E070E0892F877011F463
:1028500060E070E06E0F7F1FC69EF001C79EF00D16
:10286000D69EF00D11242115310539F0EE9EB001F0
:10287000EF9E700D1124260F371F0E9FB0010F9F82
:10288000700D1124460F571FFD01EC0DFD1D1E1686
:102890001F060CF0B9C0A038B1050CF0B5C0B501E9
:1028A000690F711D161617060CF0AEC060E4A6166F
:1028B000B1040CF0A9C04115510509F4A5C07A2D49
:1028C0007770572E8501B7FE02C0095F1F4F83E066
:1028D000159507958A95E1F7802FB7FE04C055201E
:1028E00011F08FEF800FB7FF05C0002711270A1BDB
:1028F0001B0B02C000E010E0E038F10524F060E8B6
:102900006A1B462E01C0482C401AE82E082E000CE7
:10291000FF088F3F1CF4FE2DF09501C0F0E0E1E0D0
:10292000692F677009F4E0E09695969596959E0F4D
:10293000E90EF11C79E0E716F10414F098E0981B19
:102940009F2E980E692D70E86703A00DB11D11240C
:10295000A00FB11F7801F89DE00CF11C11244E0D61
:102960005F1D01E010E0052C02C0000F111F0A944A
:10297000E2F72E0D3F1D882E890E981409F444C0ED
:10298000CD0187569E4F5C01E12CF12CE414A0F59B
:10299000F901EE0DFF1DE491E09FC001E19F900D54
:1029A0001124809590959C838B83FA01EE0DFF1D79
:1029B000E491E09F3001E19F700C11247A826982DA
:1029C00097FC05C0F50190818923682A6082552013
:1029D00061F0F6E0F9154CF0F501E058FF4F9081F9
:1029E0008C8189239A81892B80836FEFE61AF60AFE
:1029F0007FEFA71AB70ACACF93944C0D5D1D2C0D1B
:102A00003D1DA058BF4FB9CF0F900F900F900F9062
:102A1000DF91CF911F910F91FF90EF90DF90CF90BA
:102A2000BF90AF909F908F907F906F905F904F90EE
:102A300008952D9A0895BC0180E090E00C94EB126B
:102A40008FB18095807F669B88601C9B8460089511
:102A50005C988EBD00000DB407FEFDCF5C9A089512
:102A600060387105D0F440345105B8F4E7E7FDE172
:102A700080E1849FD001A0781124A60F4770E40F55
:102A8000F11D8491A756BE4F222319F06C91862B1D
:102A900003C080956C9186238C9308952F923F926A
:102AA0004F925F926F927F928F929F92AF92BF925E
:102AB000CF92DF92EF92FF920F931F93CF93DF930A
:102AC000CDB7DEB729970FB6F894DEBF0FBECDBFE6
:102AD000FC016A3069F425898189928938E0239F55
:102AE000800D911D1124928B818B108A1786AAC0AC
:102AF0006D3009F4A7C099878887F58834882388C2
:102B0000618872880785108900381105C4F0A8858E
:102B1000B98555962C915597422F50E01F968D916F
:102B20009C915097B6E02B9F800D911D1124E88554
:102B3000F985908B8787268921116EC083C0F0E4C8
:102B40006F16710424F7C80125E0F29E800D911DD7
:102B5000112418161906DCF68F2D90E09C838B83C8
:102B6000C301A8E0FA9E800D911D112418161906C4
:102B700074F6B5E06B9FB0011124FB01E158F24EF1
:102B8000FA83E98330E08885998504969E838D8356
:102B9000E981FA81E490353009F4E12C430188E0C1
:102BA000482EE0FC02C0532C01C0522C51100BC027
:102BB000321009C0E6944A948B819C81880E991E3C
:102BC0004110EFCF1BC068018C2D801B8F1590F733
:102BD00054018A2D88198F1568F4252DA501B60199
:102BE0008D819E813F830E9430159FEFA91AB90AFB
:102BF0003F81EFCFAFEFCA1ADA0AE6CF3F5FEB8132
:102C0000FC810E0F1F1F89819A8101969A83898307
:102C1000363009F0BDCF7BCF6AEF64039001659F2A
:102C2000300D112420583F4F281739075CF4A88530
:102C3000B985ED91FC9111970190F081E02D6AE04A
:102C4000CD01099581E090E029960FB6F894DEBF9A
:102C50000FBECDBFDF91CF911F910F91FF90EF90ED
:102C6000DF90CF90BF90AF909F908F907F906F90AC
:102C70005F904F903F902F900895EF92FF920F93A7
:102C80001F9380912106909122064E9690936301A6
:102C9000809362012D9884E6E82EF12C07E114E080
:102CA00024E630E043E952E064E670E088E891E031
:102CB0000E94CF1304EC10E024E630E04AE451E037
:102CC00064E670E08BE092E00E94CF131F910F91B9
:102CD000FF90EF900895EF920F9360916101062E9F
:102CE000000C770B45E759E18DEF9FEF0E948B19A0
:102CF00060916101062E000C770B6054710945E765
:102D000059E18DEF9FEF0E948B1960916001062EB3
:102D1000000C770B80915F01E12C00E021E636E0AA
:102D200049E257E0082E000C990B0E94F7136091BE
:102D30000101062E000C770B809100012FEC34E08E
:102D400047E955E0082E000C990B0E94F71360919B
:102D50006001062E000C770B6054710980915F01B1
:102D600021E636E049E257E0082E000C990B0E945C
:102D7000F71360910101062E000C770B6054710966
:102D8000809100012FEC34E047E955E0082E000C5B
:102D9000990B0E94F71360916001062E000C770BCF
:102DA000605C7F4F80915F0121E636E049E257E0A9
:102DB000082E000C990B0E94F71360910101062E5A
:102DC000000C770B605C7F4F809100012FEC34E0AA
:102DD00047E955E0082E000C990B0E94F7138091EB
:102DE00061018F5F81341CF48093610102C01092F5
:102DF0006101809160018E5F81341CF480936001D9
:102E000002C010926001809101018E5F81341CF438
:102E10008093010102C0109201010F91EF9008957B
:102E2000CF93DF93EC016AE070E080E090E00E94D5
:102E3000A212DC01CB014E96A11DB11D809364014D
:102E40006DE370E080E090E00E94A212DC01CB0113
:102E50004A96A11DB11D9983888384EE9FEF9B83C1
:102E60008A83DF91CF910895CF93DF93EC016AE0DD
:102E700070E080E090E00E94A212DC01CB010A9693
:102E8000A11DB11D809365016DE370E080E090E0CD
:102E90000E94A212DC01CB014A96A11DB11D9983AB
:102EA000888384EE9FEF9B838A83DF91CF9108957F
:102EB0000F931F93CF93DF93C0E0D0E000E810E0C2
:102EC00040916601BE0180E090E00E94541980911B
:102ED0006601BE016F5F7F4F482F9801281B3109A3
:102EE000C9010E9454192296C034D10549F7809136
:102EF0006601882329F084508093660180E001C038
:102F000081E0DF91CF911F910F910895EF92FF9291
:102F10000F931F93CF93DF931F92CDB7DEB77C0142
:102F2000FC0100811181C80169830E940D2C698117
:102F3000681719F0C8010E94152CC7010F90DF9186
:102F4000CF911F910F91FF90EF900895FC01809118
:102F50009601811103C08FEF9FEF08959FB7F894FA
:102F600082E08093E9002091F20030E0121613060F
:102F700014F421E030E02115310559F0289884E659
:102F8000809395018091F10080838091F2008823E5
:102F900019F09FBFC90108958BE68093E800F9CF2F
:102FA0002FB7F89483E08093E9009091E800892F8F
:102FB000807295FF04C09091F20080E4891B2FBFBE
:102FC0000895CF93DF931F92CDB7DEB76983DC01FD
:102FD000ED91FC910280F381E02D41E050E0BE01D3
:102FE0006F5F7F4F09950F90DF91CF91089583E038
:102FF0008093E9008091F200882319F08AE380939E
:10300000E80008950E94D01790E00895CF93DF93D1
:103010001F92CDB7DEB7FC018485958597FD05C06D
:103020002FEF3FEF358724870BC0CE0101960E941A
:10303000A617019719F4898190E002C08FEF9FEFE6
:103040000F90DF91CF9108950F931F93CF93DF934C
:103050001F92CDB7DEB78C01FC018485958597FF63
:103060000EC0CE0101960E94A617019719F429817E
:1030700030E002C02FEF3FEFF80135872487F801D9
:10308000848595850F90DF91CF911F910F910895C1
:103090008F929F92AF92BF92CF92DF92EF92FF9268
:1030A0000F931F93CF93DF935C016B017A018091A3
:1030B0000B01882309F45BC080919601882309F4F1
:1030C00056C08091940180FF05C08091E00082602D
:1030D0008093E000E70110E00AEF83E0882E9AE396
:1030E000992E2097D9F10E94D01781110AC0015062
:1030F00009F43DC061E070E080E090E00E94EB12D6
:10310000F0CF282F30E0C217D3070CF48C2F4FB725
:10311000F8948092E9009091E80095FF1DC0282F57
:1031200030E0C21BD30BF601982F915020F0819113
:103130008093F100FACFC20ED31E112319F09092A2
:10314000E80009C08091E80085FD06C09092E80083
:1031500011E0209709F010E04FBFC3CF1111C3CF8A
:103160005D9884E6809393011E141F0444F081E06F
:1031700090E0F5019383828380E090E001C0C70175
:10318000DF91CF911F910F91FF90EF90DF90CF9043
:10319000BF90AF909F908F9008954F925F926F92E3
:1031A0007F928F929F92AF92BF92CF92DF92EF92D7
:1031B000FF920F931F93CF93DF93EC017B016A0182
:1031C000C901A901461B570B57FF03C051954195F3
:1031D000510996012C1B3D0B37FF03C031952195FA
:1031E000310911E02417350714F010E00AC03C2D16
:1031F0002D2D6C01832F922F3C2F2D2FE701E32ED5
:10320000F22ECC16DD0654F43E2D2F2D7C01832F9B
:10321000922F3C2F2D2FE601C32ED22E26014C1AC1
:103220005D0A4C018E189F0897FE03C0919481940B
:103230009108520157FE03C02FEFA21AB20AB594AB
:10324000A794E816F90614F08FEF01C081E0682E0C
:10325000880F7708CC16DD06B4F0202F112319F063
:10326000AE01B70102C0A701BE018EE196E00E9447
:103270003015A818B908B7FE04C0E60CF71CA40C5A
:10328000B51C2196E7CFDF91CF911F910F91FF9051
:10329000EF90DF90CF90BF90AF909F908F907F90F6
:1032A0006F905F904F9008959C01240F311D12166E
:1032B000130684F5803891056CF5FC0197FF02C078
:1032C000E0E0F0E02138310514F020E830E02E1B7A
:1032D000AB014770552781E090E001C0880F4A9507
:1032E000EAF7809577FF02C0695F7F4F93E075959D
:1032F00067959A95E1F77695762F66277795679586
:10330000E60FF71FE756FE4F215020F090819823DB
:103310009193FACF08952F923F925F926F927F928E
:103320008F929F92AF92BF92CF92DF92EF92FF92D5
:103330000F931F93CF93DF939C0120583F4F2F3F54
:10334000310511F008F097C09B01205C3F4F2038F9
:10335000310508F090C0DB0177FF04C0AA27BB2726
:10336000A61BB70BA770BB279B0177FF02C0295F85
:103370003F4FE3E035952795EA95E1F777FF08C0E1
:103380002150310968E070E0FB01EA1BFB0BDF0113
:103390005901B694BA2CAA24B794A794A80EB91EC2
:1033A00060E070E04501F0E88F0E911CE8E0F0E08D
:1033B0003F016A1A7B0A2F3FEFEF3E076CF42F5F45
:1033C0003F4F60587F4F6115F4E07F0709F453C009
:1033D0002830310581F74FC0E401C60FD71FC7560B
:1033E000DE4F8B010A0D1B1D07561E4F6C01E12C91
:1033F000F12CE0E8CE16D10411F3D7FC2AC02F3F00
:10340000FFEF3F07A9F1F701E60FF71FE40FF51FE4
:10341000E491F0E01F010A2E01C0220C0A94EAF7A1
:10342000F801508025282082109799F02730310527
:1034300081F0F701E60FF71FE40FF51FE491F0E0CC
:10344000062C02C0F595E7950A94E2F75880E52925
:10345000E883FFEFEF1AFF0AEFEFCE1ADE0A21969C
:103460000F5F1F4FF0E8EF16F10409F0C2CFA7CFAE
:103470001097F9F6EECFDF91CF911F910F91FF904A
:10348000EF90DF90CF90BF90AF909F908F907F9004
:103490006F905F903F902F900895209124062823ED
:1034A00029F490912306982381E009F480E008959F
:1034B0000F931F93CF93DF938C01C0E0D0E0F8010E
:1034C000EC0FFD1F6491662371F0E0911A06F091F4
:1034D0001B060190F081E02D8AE196E00995892B89
:1034E00011F02196ECCFCE01DF91CF911F910F917A
:1034F00008950F931F93CF93DF9300D0CDB7DEB71E
:1035000007E911E0F801608182E990E09A838983FC
:10351000CE0101960E948617F801618183E990E04F
:103520009A838983CE0101960E948617C8010F9065
:103530000F90DF91CF911F910F91089580E0E9E9FD
:10354000F1E081118FEF0024819381938193819326
:103550000394D1F7EAE1F6E0128A118A108A1786FD
:103560000895E9E9F1E080E0A0E0B8E000800EBC59
:103570008111012C1197A0FDFDCF0192B9F70DB477
:103580000895FC0190911906903179F027E0299F68
:10359000D0011124A755BA4F01900D922A95E1F759
:1035A0009F5F9093190681E0089580E008958F92BF
:1035B0009F92AF92BF920F931F93CF93DF93CDB79C
:1035C000DEB7A1970FB6F894DEBF0FBECDBF19A22C
:1035D000423008F44AE08E010F5D1F4F842E912C7B
:1035E000A12CB12CA50194010E94552CE62FB90104
:1035F000CA0101501109EA3014F4E05D01C0E95C30
:10360000D801EC93232B242B252B61F701151105F1
:1036100071F0F80101900020E9F73197AF01401BEC
:10362000510BB8018AE196E00E94A51102C080E02A
:1036300090E0A1960FB6F894DEBF0FBECDBFDF912C
:10364000CF911F910F91BF90AF909F908F90089551
:103650008091350681110DC082E08093310684E0AF
:1036600080933206109234061092330681E08093E4
:10367000350681E396E00895FC018485958597FDE4
:103680000BC09FB7F89482E08093E9008091F2002C
:103690009FBF90E0019608959FB7F89482E08093D1
:1036A000E9008091F2009FBF90E00895409191065B
:1036B0005091920620918F06309190064217530741
:1036C000B4F49091E8009570E1F39091E80092FDD8
:1036D00019C08093F1008091910690919206019615
:1036E0008F739927892B19F48EEF8093E8008091CE
:1036F000910690919206019690939206809391067E
:1037000081E0089580E00895CF92DF92EF92FF92DA
:103710000F931F93CF93DF931F92CDB7DEB7182F70
:10372000062FE42E862F880F8E5F99830E94561BEA
:1037300083E00E94561BF12EC12E9981D92E8C2D2B
:103740008F19801798F4F601E7FE02C0849101C03A
:1037500080810E94561B182F80E00E94561B8123F7
:10376000FFEFCF1ADF0A8111EACF01C081E00F908D
:10377000DF91CF911F910F91FF90EF90DF90CF904D
:103780000895DF92EF92FF920F931F93CF93DF93F1
:10379000D82E8A017B01E40EF51EEB01CE15DF0564
:1037A00071F0D7FE03C0FE01849101C088810E94A0
:1037B000561B21968111F2CF8FEF9FEF01C0C801F8
:1037C000DF91CF911F910F91FF90EF90DF900895BF
:1037D000615030F02091F100FC0120830196F8CF78
:1037E000289884E68093950108950F931F93CF93B3
:1037F000DF931F92CDB7DEB782E0898342E450E0C9
:103800006FE772E280E80E94C11B0E94281BDC0166
:1038100012960D911C9113970115110569F0D801AD
:10382000ED91FC910280F381E02DBE016F5F7F4F2F
:10383000C801099597FF07C089810F90DF91CF914B
:103840001F910F910895F80100851185E5CF1F9212
:103850000F920FB60F9211248F939F938091E100E6
:103860009091E100937F9093E10083FF0FC010924D
:10387000E90091E09093EB001092EC0092E39093BA
:10388000ED001092960198E09093F00082FF20C026
:1038900093E09093E9009091F200992319F09AE354
:1038A0009093E80090919301992339F090919301BE
:1038B000915090939301992389F1909195019923C7
:1038C00039F090919501915090939501992341F190
:1038D00084FF10C08091E2008E7E81608093E200C0
:1038E0008091E1008F7E8093E100809194018E7E33
:1038F000806111C080FF16C08091E2008E7E8061E1
:103900008093E2008091E1008E7E8093E1008091BF
:1039100094018E7E81608093940104C05D9ACDCF26
:10392000289AD6CF9F918F910F900FBE0F901F9026
:1039300018951F920F920FB60F921124CF92DF921B
:10394000EF92FF920F931F932F933F934F935F93A9
:103950006F937F938F939F93AF93BF93EF93FF9357
:10396000CF93DF93CDB7DEB76C97DEBFCDBF10929C
:10397000E9008091E80083FFEDC168E0CE01459643
:103980000E94E81B82EF8093E8008D8987FF05C0C5
:103990009091E80090FFFCCF03C09EEF9093E80069
:1039A000982F907609F0C6C09E892F89188D9111A5
:1039B0000CC0803829F480918E068093F10002C0FB
:1039C0001092F1001092F10048C1422F50E0512BAB
:1039D000913051F4811141C14130510509F03DC18F
:1039E00080918E068D7F0BC0933061F4811135C1BB
:1039F0004130510509F031C180918E06826080937B
:103A00008E062BC1953041F48091E80080FFFCCFF9
:103A100020682093E30021C1963009F05FC0EB8C51
:103A2000FC8C1092E90010929206109291061230CE
:103A300091F51092900610928F060E94F51B99E066
:103A4000BE016F5F7F4FDB01E92F1D92EA95E9F719
:103A500099831A8391E09E8390EA98879AEF9987D9
:103A60002091910630919206275F3F4F3C832B8334
:103A70008D831092E9001092920610929106F092B6
:103A80009006E0928F0649E050E080E00E94C11B62
:103A90000E94F51BE2C0F0929006E0928F060E9411
:103AA000281BDC011296ED90FC901397E114F104B1
:103AB00009F4C0C0D701ED91FC910480F581E02D9F
:103AC000BE016B5E7F4FC7010995009719F00CF09E
:103AD000C4C0C7C0F701E084F184E8CF973009F48F
:103AE000C0C0983021F481E08093F100B6C09930D5
:103AF00009F0B3C0837009F0B4C0E4E5F1E081E0FF
:103B000021E036E39081992361F08093E9002093CE
:103B1000EB0091919093EC003093ED008F5F873034
:103B200089F78EE78093EA001092EA008F898093EC
:103B3000960193C08B8D9C8D1092E9001092920695
:103B4000109291069093900680938F06898D811133
:103B500056C08E899D89913A59F4813209F081C00D
:103B600047E050E064E071E080E00E94C11B75C056
:103B7000913209F076C0833289F4888D90E0982FD5
:103B800088272F89822BA0E0B0E080930C019093CE
:103B90000D01A0930E01B0930F015FC0803269F454
:103BA0008091E80082FFFCCF67E084E091E00E9412
:103BB000E81B8BEF8093E80006C0823209F04DC00D
:103BC0008F8980930B0180918D06882319F0EEEF89
:103BD000FAE002C0E0E0F8E0809104019091050174
:103BE000A0910601B0910701803B9440A105B10569
:103BF00009F07BC080910B0180FF93C076C00E94CA
:103C0000281BDC0112960D911C91139701151105CB
:103C100041F1D801ED91FC910190F081E02DBE01C0
:103C20006B5E7F4FC8010995811117C0F8010085AF
:103C30001185ECCF113009F44EC0133091F48F8907
:103C4000882309F445C0823081F440E860E183EEC6
:103C500092E20E94841B882321F08EEF8093E8007B
:103C600079C081E28093EB0075C0813029F440E88F
:103C70006BE087ED92E2EDCF833099F70E94281B2D
:103C8000DC011296ED90FC9013978E010F5F1F4F91
:103C90006801E114F10479F0D701ED91FC910680FF
:103CA000F781E02DB801C7010995080F111DF70133
:103CB000E084F184EECFD8011C92F601019000203F
:103CC000E9F73197BF016C197D0940E0C601C1CF0A
:103CD00061EC72E202C065EC72E26115710509F2F5
:103CE000FB01449150E080E840CF0FB6F894A895CE
:103CF00080916000886180936000109260000FBE28
:103D0000A895EE3F2AE0F20739F08091FE0A9091E3
:103D1000FF0A91838083A1CF1092FF0A1092FE0ABE
:103D20009CCFEE3F8AE0F80731F08081918190933B
:103D3000FF0A8093FE0A87E797E7918380839BE0E1
:103D400088E10FB6F894A895809360000FBE909319
:103D5000600083CF6C960FB6F894DEBF0FBECDBF68
:103D6000DF91CF91FF91EF91BF91AF919F918F9193
:103D70007F916F915F914F913F912F911F910F9183
:103D8000FF90EF90DF90CF900F900FBE0F901F909D
:103D90001895CF93DF93CDB7DEB728970FB6F89479
:103DA000DEBF0FBECDBF789484B5826084BD84B57C
:103DB000816084BD85B5826085BD85B5816085BD26
:103DC00080916E00816080936E00109281008091DE
:103DD0008100826080938100809181008160809366
:103DE00081008091800081608093800080919100AB
:103DF0008260809391008091910081608093910016
:103E0000809190008160809390008091C1008460D7
:103E10008093C1008091C10082608093C100809135
:103E2000C10081608093C1008091C3008160809354
:103E3000C3008091C00082608093C0008091C20066
:103E400081608093C20080917A00846080937A00C0
:103E500080917A00826080937A0080917A008160FC
:103E600080937A0080917A00806880937A00109223
:103E7000960110928E06109294018091D700816075
:103E80008093D70080EA8093D80089B5806189BD8E
:103E900089B5826089BD09B400FEFDCF61E070E0A4
:103EA00080E090E00E94EB128091D8008F7C8061CE
:103EB0008093D8008091E000807F8093E000809123
:103EC000E1008E7E8093E1008DE08093E200559AC0
:103ED000209AEEEFFFE7859194918B3F9C4D19F46A
:103EE00081E080938D0681EC80937C0085B1806FAA
:103EF00085B984B1877E84B984B1876E84B95E9AAE
:103F00005F988AB1806D8AB9769A6E9881B3806F16
:103F100081BB899880B38D7080BB80E58CBD81E0CA
:103F20008DBD85E090E00E941B155F9A85E090E0D2
:103F30000E941B155E985C98E2ECF4E08DE08E0F19
:103F400094919EBD00000DB407FEFDCF31968E13F7
:103F5000F7CF5C9A81E8809364008091650081606E
:103F6000809365000E94B11A0E94201587FF10C03F
:103F700085EA0E9428152E982F982D98809164002C
:103F800080628093640081E083BF889513BEFCCF7C
:103F900002E010E00E94201582FF42C02D980E948E
:103FA000201584788438C9F00E94201584718431EA
:103FB00091F50E94191588EC90E00E941B152E982F
:103FC0001A83098360E0CE0101960E94861784EF70
:103FD00091E00E941B152E9A19C00E94191588ECB9
:103FE00090E00E941B152F981A8309836FEFCE0172
:103FF00001960E94861784EF91E00E941B152F9A6C
:104000000E94201584788438D9F3CECF0E942015E1
:1040100084718431D9F388EC90E00E941B15BACFEB
:104020000E94191582E090E00E940D2C882331F047
:104030003E9A3F9A81E080935A0104C010925A013F
:104040003E983F980E949E1A80E990E00E940D2CB5
:10405000182F81E990E00E940D2C1C3479F48A35E8
:1040600069F482E990E00E940D2C8093970183E926
:1040700090E00E940D2C8093980120C0109298012E
:104080001092970180E990E09A8389836CE4CE01D5
:1040900001960E94861781E990E09A8389836AE5F8
:1040A000CE0101960E9486176091970182E990E007
:1040B0009A838983CE0101960E94861780E18093BE
:1040C0002506CE0101961C0195E0920D98878FB7C9
:1040D000F89440915B0150915C0160915D01709199
:1040E0005E018FBF80912606E42FE81B8E2F9091F2
:1040F0002706992331F0E0932806109227060C94A6
:10410000B62A90912506E91758F48F5F891710F0A9
:104110000C94B62A81E083BF889513BE0C94B62A0E
:1041200011E0109327064093260680912106909176
:104130002206019690932206809321068091230601
:10414000809324060E942015809323060E949E1AC5
:1041500080917F0181112EC045E755E160E070E05C
:1041600080E090E00E948B19C12CD12CA0E8EA2EAF
:10417000F12C10916601412FB60180E090E00E9481
:104180005419B6016F5F7F4F412FC701811B910901
:104190000E945419F2E0CF0ED11C20E4C216D104C3
:1041A00041F717FF02C00C94C02A1F5F10936601ED
:1041B0000C94B42A813009F043C0E12C00E02CEFCC
:1041C00033E149E754E168E070E084E390E00E9465
:1041D000F71385E290E090932A068093290681E305
:1041E00090E090932C0680932B0682EF93E10E943F
:1041F000581A809121069091220668E770E00E948B
:10420000922C892B59F401E02CEF33E149E754E17A
:1042100068E070E084E390E00E94F7130E94581772
:10422000882311F40C94B42A88E00E944D1A882344
:1042300011F40C94B42A80E8809366010C949E29B2
:10424000823009F070C180917E01811109C084E043
:104250000E944D1A882309F444C010937E0141C086
:1042600080E10E944D1A8823C1F0109298011092AB
:1042700097010E94791A10927E01F2E3EF2EF12C41
:104280000DE41AE022E330E047E255E062E370E03B
:1042900083E992E00E94CF1306C084E00E944D1A89
:1042A000811110927E0180E190E090932A06809324
:1042B000290601E010E010932C0600932B0688EEEF
:1042C00093E10E94581A82E490E090932A0680932A
:1042D000290610932C0600932B068FED93E10E9484
:1042E000581A80912106909122066FE070E00E949A
:1042F000922C892B51F480917D018F5F853018F4C9
:1043000080937D0102C010927D0110917D01E12E0C
:10431000012F2DE932E14DE353E16FE170E087E1D8
:1043200090E00E94F7132DE932E14DE353E16FE194
:1043300070E089E590E00E94F7134DE95EE060E0EF
:1043400070E080E090E00E948B190E94581788E08E
:104350000E944D1A882311F40C94B42A80916400B1
:104360008E7F8093640080917A00806480937A00CD
:1043700080917A0086FDFCCF009178001091790041
:104380000E94C61220E030E0980111270027600F3C
:10439000711F821F931F611571058105910511F031
:1043A0000E94042C809164008160809364001092CC
:1043B0007C0110927B0181E08093030163E0F62E83
:1043C000F092020110927A01109279011092780114
:1043D0006AE070E080E090E00E94A212DC01CB0174
:1043E0000A96A11DB11D809365016AE070E080E02E
:1043F00090E00E94A212DC01CB010A96A11DB11D22
:104400008093640186E390E0909372018093710140
:1044100088E290E0909374018093730181E090E0D2
:10442000909376018093750110927701109219068E
:104430006DE370E080E090E00E94A212DC01CB010D
:104440004A96A11DB11D9A83898304EE1FEF1C8338
:104450000B8382E090E09E838D831F82C1010E94C6
:10446000C11A6DE370E080E090E00E94A212DC01CE
:10447000CB014A96A11DB11D9A8389831C830B83AE
:1044800074E0C72ED12CDE82CD821F82C1010E9432
:10449000C11A6DE370E080E090E00E94A212DC019E
:1044A000CB014A96A11DB11D9A8389831C830B837E
:1044B000DE82CD821F82C1010E94C11A6DE370E0CD
:1044C00080E090E00E94A212DC01CB014A96A11D7F
:1044D000B11D9A8389831C830B8386E090E09E83C1
:1044E0008D831F82C1010E94C11A6DE370E080E0DC
:1044F00090E00E94A212DC01CB014A96A11DB11DE1
:104500009A8389831C830B8387E090E09E838D834D
:104510001F82C1010E94C11AF0927F0180E880933E
:1045200066010C94B42A833009F01EC660907B01AA
:1045300070907C010E94201585FF09C08091710157
:10454000909172018331910514F00C94C52A0E9458
:10455000201586FF09C080917101909172018C3500
:10456000910514F40C94CC2A0E94201587FF09C0F1
:1045700080917301909174018B30910514F00C942B
:10458000D32A0E94201584FF09C080917301909165
:1045900074018133910514F40C94DA2A88E00E94A6
:1045A0004D1A882399F081E08093700158ECE52E34
:1045B000F12C01E410E024E630E043E850E062E34F
:1045C00070E08BE092E00E94CF1302C01092700165
:1045D00084E00E944D1A882391F046E4E42EF12CE9
:1045E00007E215E022E330E04BE452E066E470E0DD
:1045F00086E091E00E94CF1385E080937F01809157
:10460000690190916A01009761F020912106309133
:1046100022062817390728F02E9A10926A01109264
:1046200069018091670190916801009761F0209184
:104630002106309122062817390728F02F9A109268
:104640006801109267018091620190916301009767
:1046500069F020912106309122062817390730F0A1
:104660000E941915109263011092620180916B01F2
:1046700090916C01009771F02091210630912206F3
:104680002817390738F086EA0E94281510926C0125
:1046900010926B0120916501222369F0809121061F
:1046A000909122066CE370E00E94922C892B19F401
:1046B00021502093650120916401222369F08091AB
:1046C0002106909122066CE370E00E94922C892BC7
:1046D00019F4215020936401A12C97E0B92E24EE07
:1046E000422E55245A949924939434E0832E809139
:1046F0001906A81608F025C2CA2CD12CE091710128
:10470000F09172016091730170917401BC9CD001B1
:10471000BD9CB00D1124A755BA4F14964D915C91D4
:10472000159744305105C9F08CF44230510509F019
:1047300048C12D913C9111972F5F3F4F12968D915B
:104740009C91139701961DE00FE020C04630510563
:1047500089F04730510571F034C12D913C9111978A
:104760002F5F3F4F12968D919C91139744961DE0B9
:104770000DE00CC02D913C9111972D5F3F4F12968B
:104780008D919C91139703961CE00CE0DF011B9622
:104790002A173B070CF015C1200F311D3696E21782
:1047A000F3070CF00EC19B01275F3F4F8217930761
:1047B0000CF007C1810F911D6C5F7F4F681779075F
:1047C0000CF0FFC0BC9CC001BD9C900D112487550E
:1047D0009A4F4430510509F479C024F44230510510
:1047E00071F0EFC04630510509F4CAC04730510599
:1047F00009F0E7C00E94101790926E01D3C080911B
:104800007B0190917C01059690937C0180937B01C4
:104810008091790190917A018330910510F002978F
:1048200002C080E090E090937A01809379018091BA
:1048300078018F5F809378018F3004F180910201BD
:104840008F5F8093020180912106909122064E96FF
:1048500090936801809367012F9884E6E82EF12CED
:104860000AE914E124E630E04DE45AE064E670E041
:1048700087E295E00E94CF1310927801BC9C8001E2
:10488000BD9C100D112407551A4F82EF9FEFF801C0
:10489000938382836DE370E080E090E00E94A21237
:1048A000DC01CB014A96A11DB11DF80191838083E3
:1048B00000E5E02EF12C03E912E020E530E04AE4C7
:1048C00051E060E570E085EA90E079C080910201F6
:1048D0008150809302018091790190917A01049630
:1048E0008932910510F088E290E090937A018093EC
:1048F000790114E6E12EF12C01E410E024E630E029
:1049000043E850E064E670E086E091E00E94CF1357
:1049100087EA0E9428152E98809121069091220600
:104920009C012E5F3F4F30936C0120936B014E969C
:1049300090936A01809369018091020187FF07C00B
:104940009092030180927F0186EA0E942815BC9C08
:104950008001BD9C100D112407551A4FF801538298
:1049600042826DE370E080E090E00E94A212DC01E0
:10497000CB014A96A11DB11DF8019183808321C00E
:104980002091790130917A012531310518F02451B7
:10499000310902C020E030E030937A0120937901A0
:1049A0000E943417B4E6EB2EF12C0AE914E124E658
:1049B00030E04DE45AE064E670E087E295E00E9462
:1049C000CF1380917001882309F4B9C060917101FF
:1049D000709172014091730150917401BC9CF0017F
:1049E000BD9CF00D1124E755FA4F04811581043068
:1049F000110589F006301105C1F00230110509F0EA
:104A00009EC0208131812F5F3F4F8281938101962B
:104A1000ADE0BFE013C0208131812F5F3F4F828125
:104A200093814496ADE0BDE009C0208131812D5FC6
:104A30003F4F828193810396ACE0BCE0FB013A9644
:104A40002E173F070CF07BC02B0F311D685F7F4F87
:104A5000621773070CF073C0841795070CF06FC0D2
:104A60008A0F911D40545109481759070CF067C02F
:104A700002301105D9F10430110509F060C08091B0
:104A80007B0190917C010A9690937C0180937B013D
:104A9000BC9CF001BD9CF00D1124E755FA4F85E058
:104AA00090E0958384836DE370E080E090E00E9465
:104AB000A212DC01CB014A96A11DB11D9A83898304
:104AC0005C824B821E830D831F82C1010E94C11A2A
:104AD000F4E6EF2EF12C01E210E024E630E041E4B0
:104AE00050E064E670E083E890E027C080917B01AD
:104AF00090917C018B30910510F00A9702C080E004
:104B000090E090937C0180937B01BC9CF001BD9C64
:104B1000F00D1124E755FA4F83E090E095838483EC
:104B2000A4E6EA2EF12C06E011E024E630E046E0AF
:104B300051E064E670E086E091E00E94CF13A39418
:104B4000D6CDE12C57E0F52E65E0A62EB12C74EE03
:104B5000872E99249A94EEE14E2E512C209119061D
:104B6000E21608F00CC1CE2CD12CFC9C8001FD9CDF
:104B7000100D112407551A4FF80184819581843056
:104B8000910509F46AC034F48230910569F0039705
:104B900099F1F3C08630910509F4BCC00CF483C0D0
:104BA000079709F4C5C0E9C020910301F80182818B
:104BB0009381820F911D27FD9A950196813491056D
:104BC0001CF49383828311C0F801938282826DE387
:104BD00070E080E090E00E94A212DC01CB014A96D6
:104BE000A11DB11DF80191838083809121069091D0
:104BF000220667E070E0B2C0F801828193810197DC
:104C000093838283843E9F4FB4F4F801938282821F
:104C10006DE370E080E090E00E94A212DC01CB0125
:104C20004A96A11DB11DF8019183808382E090E036
:104C3000958384836DC08091210690912206B501F1
:104C40000E94922C892B09F098C0F80186818F5F11
:104C500063E00E94862C968390C020910301F801A6
:104C600082819381820F911D27FD9A958134910550
:104C70001CF49383828311C0F801938282826DE3D6
:104C800070E080E090E00E94A212DC01CB014A9625
:104C9000A11DB11DF801918380838091210690911F
:104CA0002206B5015BC0F80182819381019693834E
:104CB000828381349105ECF0E9EAF5E030E0D80137
:104CC000321709F45AC0448155814530510571F4B9
:104CD000608171814D915C9111976417750731F472
:104CE000428153814817590709F46BC43F5F3796D7
:104CF000E7CF8091210690912206B5010E94922C67
:104D0000892BD9F5F80186818F5F8430A8F1F801ED
:104D1000168233C08091650181111BC0F801828128
:104D200093818134910574F0C8010E94341711C039
:104D30008091640181110DC0F801828193818134D9
:104D4000910524F401969383828303C0C8010E94D5
:104D500010178091210690912206B2010E94922C98
:104D6000892B59F4FC9CF001FD9CF00D1124E755B2
:104D7000FA4F86818F5F81708683E394EFCE4091F6
:104D800021061091220640FD06C0309177013F5F59
:104D9000317030937701842F912F6CE370E00E9483
:104DA000922C892B49F48091790190917A01029695
:104DB00090937A0180937901A0907901B0907A0163
:104DC000F9E2AF16B10418F084E080937F0180917E
:104DD0006E018823B1F0E9EAF5E030E082E090E08E
:104DE000321751F0648175816430710511F4958337
:104DF00084833F5F3796F4CF80916D018F5F8093FE
:104E00006D0180916D01803FB8F0E9EAF5E050E076
:104E100030E084E090E0521759F06481758162308F
:104E2000710519F4323008F4EAC35F5F3796F3CFA7
:104E300010926E0110926D01842F912F6EE170E03F
:104E40000E94922C892B51F480916F018F5F8230E8
:104E500018F480936F0102C010926F0180916E016F
:104E60008823A1F0842F912F63E070E00E94922CA0
:104E7000892B61F4E12C00E02EE93CE04CEE5CE093
:104E800069E170E081E390E00E94F7130E946B16E5
:104E9000E12C00E02CE33DE046E65DE06FE070E0F1
:104EA00087E790E00E94F71309E710E07501FF24FF
:104EB00021E1E20EF11C41E1C42ED12CC701E1E455
:104EC000EE16F10414F080E490E0C816D9065CF404
:104ED00020E0A601B8018EE196E00E9430158FEF28
:104EE000C81AD80AEBCF0F5F1F4F0C37110519F7FF
:104EF00010E037E0F32E80911906181738F5F19E6F
:104F0000F0011124E755FA4F84819581029786308C
:104F10009105D0F4880F991FDC01AF5DBE4F4D9114
:104F20005C91DC01AB5EBE4F2D913C91411551056A
:104F300059F02115310541F0068162817381E02E1F
:104F4000808191810E94F7131F5FD5CF0091770177
:104F50008090730190907401C0907101D0907201A3
:104F6000E02E22E93DE046ED5DE0B401C6010E947D
:104F7000F713FFE1AF16B10488F080916F01811142
:104F80000DC0E12C00E02CE13EE044E55EE0B40120
:104F90006A5F7F4FC60104970E94F71380917001EA
:104FA0008823E1F021E0821A9108C601069601E00B
:104FB0002AE030E0AC01B4010E94CD18C601089689
:104FC0002AE030E0AC01B4010E94CD18C6010A9677
:104FD0002AE030E0AC01B4010E94CD18E12CF12CA4
:104FE00000E010E020E0A801B7018EE196E00E9409
:104FF00030150F5F1F4F0A301105A1F78FEFE81A28
:10500000F80A90E8E916F10459F781E090E09093EE
:105010002A068093290610922C0610922B0686E908
:105020009EE00E94581A85E290E090932A068093B1
:10503000290610922C0610922B0680917B019091EC
:105040007C01F1016AE070E00E94922C8193CB0117
:1050500028852E13F7CF8E010A5F1F4FF80162914A
:105060008F0170E080E090E04AE00E94D71A0215BC
:105070001305A1F78EE490E090932A068093290609
:1050800010922C0610922B068EE89EE00E94581A71
:1050900088E790E090932A068093290610922C06C8
:1050A00010922B06C09002010C2C000CDD08EE08BB
:1050B000FF08F7FE14C0E0911A06F0911B0601905C
:1050C000F081E02D6DE28AE196E009956627772769
:1050D000CB016C197D098E099F094AE003C04AE0A3
:1050E000C701B6010E94D71A01E029E030E040E88C
:1050F00050E069E070E080E090E00E94CD1800E0B0
:105100002AE030E040E850E06AE070E080E090E0C3
:105110000E94CD1880917B0190917C018235F3E053
:105120009F0740F022E5621623E0720608F01CC2D9
:1051300082E00BC08A38E2E09E0760F0FAE86F1662
:10514000F2E07F0608F010C281E0809303010E9424
:105150003D160AC2843F914008F406C284EF6816E7
:1051600081E0780628F300C2843009F0E9C02E9A65
:105170002F9A0E94191580917B0190917C012091BA
:105180009701309198012817390730F490939801CE
:10519000809397010E94791A0E946B16E12CF12CE2
:1051A00000E110E020E0A801B7018EE196E00E9446
:1051B00030150F5F1F4F0F321105A1F79FEFE91A4E
:1051C000F90AE0E8EE16F10459F701E021E130E0D8
:1051D00040E850E061E170E080E090E00E94CD188E
:1051E0002DE230E040E850E06DE270E080E090E0D9
:1051F0000E94CD1800E020E330E040E850E060E39A
:1052000070E080E090E00E94CD1822E330E040E8BA
:1052100050E062E370E080E090E00E94CD1885E20B
:1052200090E090932A068093290685E090E0909381
:105230002C0680932B0684E99CE00E94581A8EE18C
:1052400090E090932A068093290607E110E01093DE
:105250002C0600932B068DE89CE00E94581A81E4EE
:1052600090E090932A068093290610932C060093D1
:105270002B0680917B0190917C01F1016AE070E046
:105280000E94922C8193CB0128852E13F7CF8E019B
:105290000A5F1F4F7801F70162917F0170E080E0A3
:1052A00090E04AE00E94D71AE214F304A1F78FE0DD
:1052B00090E090932A068093290681E2E82EF12C53
:1052C000F0922C06E0922B0681E89CE00E94581A8E
:1052D00081E590E090932A0680932906F0922C06AF
:1052E000E0922B068091970190919801F1016AE07C
:1052F00070E00E94922C8193CB0128852E13F7CF6A
:10530000F80162918F0170E080E090E04AE00E9435
:10531000D71A02151305A1F7E12C00E02BEF3BE0B3
:105320004DE35CE064E370E08EE290E00E94F713EE
:1053300084E00E944D1A882309F416C182E012C14C
:10534000853009F011C170906101072D072C000C08
:10535000110B43EF57E0B8018DEF9FEF0E948B19BF
:10536000B8016054710943EF57E08DEF9FEF0E9441
:105370008B19F09060014F2C0F2C000C5508809079
:105380005F01082C000C9908E12C00E021E636E0D2
:1053900049E257E0B201C4010E94F71310910101E4
:1053A000A12E012E000CBB08C09000010C2C000C9B
:1053B000DD082FEC34E047E955E0B501C6010E9455
:1053C000F713B2016054710921E636E049E257E073
:1053D000C4010E94F713B501605471092FEC34E049
:1053E00047E955E0C6010E94F713B201605C7F4FA8
:1053F00021E636E049E257E0C4010E94F713B50107
:10540000605C7F4F2FEC34E047E955E0C6010E9415
:10541000F71381E0870D81341CF48093610102C091
:105420001092610182E08F0D81341CF48093600141
:1054300002C0109260011E5F11341CF41093010130
:1054400002C010920101E12CF12C08E110E020E0F3
:10545000A801B7018EE196E00E9430150F5F1F4F43
:105460000C321105A1F7FFEFEF1AFF0A20E8E21650
:10547000F10459F701E029E130E040E850E069E14A
:1054800070E080E090E00E94CD182AE230E040E831
:1054900050E06AE270E080E090E00E94CD1800E009
:1054A0002DE230E040E850E06DE270E080E090E016
:1054B0000E94CD182FE230E040E850E06FE270E04B
:1054C00080E090E00E94CD1881E390E090932A065E
:1054D000809329068FE190E090932C0680932B0611
:1054E00085EF9BE00E94581A809121069091220638
:1054F0006FE070E00E94922C892B51F480917D0125
:105500008F5F853018F480937D0102C010927D0179
:1055100010917D01E12E012F2DE932E14DE353E1A0
:105520006BE170E08CE190E00E94F7132DE932E12D
:105530004DE353E16BE170E082E590E00E94F713E8
:105540008FE090E090932A068093290685E290E010
:1055500090932C0680932B0684E00E944D1A88239A
:1055600019F083E080937F010E94B11A80E090E0FF
:10557000892B11F40C9467200E9400000C94672082
:1055800080E88093660181E0EDCF019790937201EE
:10559000809371010C94A7220196909372018093DD
:1055A00071010C94B422019790937401809373015C
:1055B0000C94C122019690937401809373010C9412
:1055C000CE22215020931906321708F0D6CB832F14
:1055D00090E0F89ED001F99EB00D1124A755BA4F66
:1055E0000196F89EF001F99EF00D1124E755FA4F4F
:1055F0008F2D01900D928A95E1F73F5FE5CF95835E
:1056000084833F5F12CC0F931F93CF93DF938C0162
:1056100081E090E00E940D2C80FF31C08AE090E094
:105620000E940D2C9FEF980F9E3F48F522E330E03B
:10563000D80150963C932E931F9728E330E0529662
:105640003C932E935197CBE0D0E0D801ED91FC91A3
:105650000190F081E02D682FC8010995CE010E94CC
:105660000D2C2196C131D10581F70E94B11A88EE27
:1056700093E0DF91CF911F910F910C941B15DF9157
:10568000CF911F910F91089504970C94032B1092C2
:10569000400610923F0688EE93E0A0E0B0E08093D1
:1056A000410690934206A0934306B093440681E3DB
:1056B00091E090933E0680933D068FEF9FEF90938D
:1056C0004A068093490610921D0610921C061092FD
:1056D00023061092240680E180932506109222066C
:1056E000109221061092270683E491E090931B0606
:1056F00080931A0681E591E090931F0680931E0621
:1057000010922A061092290610922C0610922B064F
:1057100081E080932D0610922E0680932F06109222
:10572000300688E992E19093A8058093A70580E070
:1057300090E89093A6058093A50546983E9A4798D1
:105740003F9AE9EAF5E087E0DF01982F1D929A95EC
:10575000E9F73796A6E0E931FA07B1F71092190692
:1057600008958F929F92AF92BF92CF92DF92EF9265
:10577000FF92CF93DF93EC01688179818A819B81CD
:10578000611571058105910521F464E279ED8BE5E0
:1057900097E02DE133EF41E050E00E94232C4901D6
:1057A0005A019B01AC01A7EAB1E40E94422C6B01B3
:1057B0007C01ACEEB4EFA50194010E94502CDC01F9
:1057C000CB018C0D9D1DAE1DBF1DB7FF03C0019702
:1057D000A109B04888839983AA83BB83BC01CD010A
:1057E0009F77DF91CF91FF90EF90DF90CF90BF90A8
:1057F000AF909F908F9008950E94B12B089580E103
:1058000091E00E94B12B08956093100170931101F3
:1058100080931201909313010895F999FECF92BDE0
:1058200081BDF89A992780B50895262FF999FECF62
:105830001FBA92BD81BD20BD0FB6F894FA9AF99AAD
:105840000FBE01960895052E97FB1EF400940E944A
:105850003A2C57FD07D00E94552C07FC03D04EF47C
:105860000C943A2C50954095309521953F4F4F4FD1
:105870005F4F089590958095709561957F4F8F4FFC
:105880009F4F08950E94772CA59F900DB49F900D77
:10589000A49F800D911D11240895B7FF0C94422CF4
:1058A0000E94422C821B930B0895A1E21A2EAA1B80
:1058B000BB1BFD010DC0AA1FBB1FEE1FFF1FA217C0
:1058C000B307E407F50720F0A21BB30BE40BF50BBD
:1058D000661F771F881F991F1A9469F76095709546
:1058E000809590959B01AC01BD01CF010895A29FC9
:1058F000B001B39FC001A39F700D811D1124911DA4
:10590000B29F700D811D1124911D0895991B79E09E
:1059100004C0991F961708F0961B881F7A95C9F73F
:1059200080950895AA1BBB1B51E107C0AA1FBB1F8E
:10593000A617B70710F0A61BB70B881F991F5A951B
:10594000A9F780959095BC01CD010895EE0FFF1F3A
:105950000590F491E02D099481E090E0F8940C9486
:06596000B12CF894FFCF0A
:105966006700030100E1000000000000FFFFFFFFE9
:1059760001000000FD9D123202BA014C01FC00AC90
:10598600003D134004C60356030403B202000000A0
:1059960000E11748180218F7173C1B0618241800D0
:1059A6000000004E15A5119D129C12032BFCFF0052
:0A59B60000442B00C18081000000B6
:00000001FF
