:100000000C94AE0B0C94D60B0C94D60B0C94D60B14
:100010000C94D60B0C94D60B0C94D60B0C94D60BDC
:100020000C94D60B0C94D60B0C94D20D0C94440E5D
:100030000C94D60B0C94D60B0C94D60B0C94D60BBC
:100040000C94D60B0C94D60B0C94D60B0C94D60BAC
:100050000C94D60B0C94D60B0C94D60B0C94F61374
:100060000C94D60B0C94D60B0C94D60B0C94D60B8C
:100070000C94D60B0C94D60B0C94D60B0C94D60B7C
:100080000C94EE140C94D60B0C94D60B0C94D60B4B
:100090000C94D60B0C94D60B0C94D60B0C94D60B5C
:1000A0000C94D60B0C94D60B0C94D60BF0F89C8EBB
:1000B0008783878E9CF8F00000FEFF030303030391
:1000C000070EFCF80000FEFF0303030303070EFC0A
:1000D000F80000FFFF00000000000000FFFF00002C
:1000E000FEFF8383838383C7EE7C380000F8FC0E19
:1000F00007030303070EFCF800003F7FE0C0808089
:10010000C0E07F3FFFFF01010101010101FFFF008E
:1001100000FFFF0C0C0C0C1C3E77E3C100007FFFBE
:10012000C0C0C0C0C0E0703F1F00001F3F70E0C0F3
:10013000C0C0E0703F1F00007FFFC1C1C1C1C1E36B
:10014000773E1C00001F3F70E0C0C0C0E0703F1F42
:10015000000000000001FFFF01000000D5F08D1439
:10016000A1C881CFD9F1AF2000000000000000003D
:10017000000000000000000000000000000000007F
:10018000000000000000000000000000000000006F
:10019000000000000000000000000000000000005F
:1001A000000000000000000000000000000000004F
:1001B000000000000000000000000000000000003F
:1001C000000000000000000000000000000000002F
:1001D000000000000000000000000000000000001F
:1001E000000000000000000000000000000000000F
:1001F00000000000000000000000000000000000FF
:1002000000000000000000000000000000000000EE
:1002100000000000000000008080808080800000DE
:1002200000008080808080808080000000000000CE
:1002300000000000000000000000000000000000BE
:1002400000000000000000000000000000000000AE
:10025000000000000000000000000000000000009E
:10026000000000000000000000000000000000008E
:10027000000000000000000000000000000000007E
:10028000000000000000000000000000000000006E
:100290000000000000020A2AA8A38F3FFFFFFEF023
:1002A0008000FFFFFFFFFFFFFF07000000000000CE
:1002B00080808080C0C0008000000000000000003E
:1002C000000000000000000000000000000000002E
:1002D000000000000000000000000000000000001E
:1002E000000000000000000000000000000000000E
:1002F00000000000000000000000000000000000FE
:1003000000000000000000000000000000000000ED
:10031000000000000000000000020A0A28A3871F56
:100320007FFCFFFFFFFFFF7F01F0F8FCFE06A30B41
:1003300007073F0F23080200000000000000000034
:1003400000000000000000000000000000000000AD
:10035000000000000000000000000000000000009D
:10036000000000000000000000000000000000008D
:10037000000000000000000000000000000000007D
:10038000000000000000000000000000000000006D
:100390000000000000000000000000000000020A51
:1003A00028A1871F7FFF1F0080F1F3F3636322B250
:1003B0001E202800000000000000000000000000D7
:1003C000000000000000000000000000000000002D
:1003D000000000000000000000000000000000001D
:1003E000000000000000000000000000000000000D
:1003F00000000000000000000000000000000000FD
:1004000000000000000000000000000000000000EC
:10041000000000000000000000000000080808C8FC
:1004200008884A8A48480888498908CA480948C843
:10043000480808080000000000000000000000005C
:1004400000000000000000000000000000000000AC
:10045000000000000000000000000000000000009C
:10046000000000000000000000000000000000008C
:10047000000000000000000000000000000000007C
:10048000000000000000000000000000000000006C
:10049000000000000000000000000000000000005C
:1004A0000300000203030001020100030100000336
:1004B000000000000000000000000000000000003C
:1004C000000000000000000000000000000000002C
:1004D000000000000000000000000000000000001C
:1004E000000000000000000000000000000000000C
:1004F00000000000000000000000000000000000FC
:1005000000000000000000000000000000000000EB
:1005100000000000000000000000000000000000DB
:1005200000000000000000000000000000000000CB
:1005300000000000000000000000000000000000BB
:1005400000000000000000000000000000000000AB
:10055000000000000000000000000000000000009B
:100560000000000000000000002A205041555345C3
:10057000202A004849474853434F52453A005343C5
:100580004F52453A002A2047414D45204F5645528B
:10059000202A0053484950533A0053434F52453A9A
:1005A0000080F0F8F0F0E0F0FEFFFEF0E0F0F0F890
:1005B000F08000091F0B0703070F1F0F0703070B2E
:1005C0001F0900110F00807040A00060D0E6F060AD
:1005D00000A040708000000009010300010409042C
:1005E0000100030109000040E0E0F0E4EEFEFFFE40
:1005F000EEE4F0E0E040FAFFFFFFFFFF7FFF7FFF48
:10060000FFFFFFFFFAC1FFFFFFFEFEFFFFFFFEFE41
:10061000FFFFFFC10307070F1F1F3F3F3F1F1F0FB4
:100620000707030F1E004000E0004400FE004400E6
:10063000E000400000FA00FF0052007F005200FF7F
:1006400000FA0000C178EE84D46E3F6ED484EE7858
:10065000C100000303060B0D1D1D1D0D0B0603033A
:100660000070F8FCFEFFFFFFFEFEFFFFFFFEFCF840
:100670007000000103070F1F3F3F1F0F070301001A
:1006800000100E00708874DAAA4A94140A0A8A7458
:100690008870000000000102050B16150A05020112
:1006A000000000000000000080E7FFFFFFFFFFFFE9
:1006B000FFFFFFFFFFFFFFFFFFFFFFFF0080C0E026
:1006C000F7FFFFFFFFFFFFFFFFFFFFFFFFFFFFFF42
:1006D000FFFFFFFFFF00070F1F3F7FFFFFFFFFFF31
:1006E000FFFFFFFFFFFFFFFFFFFFFFFFFFFF000018
:1006F000F0FCFEFFFFFFFFFFFFFFFFFFFFFFFFFF1D
:10070000FFFFFFFFFFFFFF00001F7FFFFFFFFFFF57
:10071000FFFFFFFFFFFFFFFFFFFFFFFFFFFFFFFFE9
:10072000000000E0F1FBFFFFFFFFFFFFFFFFFFFF07
:10073000FFFFFFFFFFFFFFFFFF0000000001E3F7E7
:10074000FFFFFFFFFFFFFFFFFFFFFFFFFFFFFFFFB9
:10075000FFFF00000000000187DFFFFFFFFFFFFF3A
:10076000FFFFFFFFFFFFFFFFFFFFFF19400000003B
:1007700000000080E7FBFDFDFEFEFFFFFFFFFFFF27
:10078000FFFFFFFFFFFF000080C0E0F7FBFBFFFF64
:10079000FFFFFFFFFFFFFFFFFFFFFFFFFFFFFF0068
:1007A00000070F1F3F7FBFBFFFFFFFFFFFFFFFFFE0
:1007B000FFFFFFFFFFFFFFFF000000F0FCFEFFFF59
:1007C000FFFFFFFFFFFFFFFFFFFFFFFFFFFFFFFF39
:1007D000FF0000001F7FFFFFFFFFFFFFFFFFFFFF86
:1007E000FFFFFFFFFFFFFFFFFFFF00000000E0F142
:1007F000FBF7F7EFFFFFFFFFFFFFFFFFFFFFFFFF2D
:10080000FFFFFF000000000001E3F3FDFFFFFFFF1B
:10081000FFFFFFFFFFFFFFFFFFFFFFFF00000000E4
:1008200000000187DFBFBF7F7FFFFFFFFFFFFFFFEC
:10083000FFFFFFFFFFFFFFFFFFFFFFFFFFFFFFFFC8
:10084000FFFFFFFFFFFFFBE1800000000000FFFF54
:10085000FFFFFFFFFFFFFFFFFFFFFFFFFFFFFFFFA8
:10086000EFC78000000000FFFFFFFFFFFFFFFFFF5B
:10087000FFFFFFFFFFFFFFFFFFFFDF8F070000000D
:10088000FFFFFFFFFFFFFFFFFFFFFFFFFFFFFFFF78
:10089000FFFFFFFFFFFEF80000FFFFFFFFFFFFFF6E
:1008A000FFFFFFFFFFFFFFFFFFFFFFFFFF7F3F0F88
:1008B0000000FFFFFFFFFFFFFFFFFFFFFFFFFFFF46
:1008C000FFFFFFFFFFFEFCF8F0E000FFFFFFFFFF70
:1008D000FFFFFFFFFFFFFFFFFFFFFFFFFFFFFFEF38
:1008E00007030100FFFFFFFFFFFFFFFFFFFFFFFF09
:1008F000FFFFFFFFFFFFE70100000000001940FFBE
:10090000FFFFFFFFFFFFFFFFFFFFFFFEFEFDFDFB01
:10091000E180000000000000FFFFFFFFFFFFFFFF7E
:10092000FFFFFFFFFFFFFFFFBFCFC78000000000FA
:1009300000FFFFFFFFFFFFFFFFFFFFFFFFFFFFFFC6
:10094000F7EFEFDF8F0700000000FFFFFFFFFFFF63
:10095000FFFFFFFFFFFFFFFFFFFFFFFFFFFFFEF8AF
:10096000000000FFFFFFFFFFFFFFFFFFFFFFFFFF94
:10097000FFFFFFFFFFFF7F3F0F000000FFFFFFFFB4
:10098000FFFFFFFFFFFFFFFFFFFFFFFFFDFDFEFC7F
:10099000F8F0E00000FFFFFFFFFFFFFFFFFFFFFF9A
:1009A000FFFFFFFFFFFFDFDFEF0703010000FFFF97
:1009B000FFFFFFFFFFFFFFFFFFFF7F7FBFBFDFE7FF
:1009C0000100000000000080400000000000000066
:1009D0000000000000000000000000000000000017
:1009E00000000008060508F00000000000000000FC
:1009F00000000000000000000000000000000000F7
:100A000000000000000000000000000000000000E6
:100A100000000000000000000000000000000000D6
:100A200000000000000000000000C0300F040200C1
:100A300000000000000000000000000000000000B6
:100A400000000000000000000000000000000000A6
:100A50000000000000000000000000000000000096
:100A6000000000000038C403000000000000000087
:100A7000000000020000000000000000000008006C
:100A80000000000000000000000000000000000066
:100A90000000000000000000000000000000100046
:100AA0000000000002002000000000C32C1008001D
:100AB0000000000000000000000000000000000036
:100AC0000000000000000000000000000000000026
:100AD0000000000000000000000000000000000016
:100AE00000000020304887000000000000200000C7
:100AF00000000100000000000000000008000000ED
:100B000000000000000000000000000000000000E5
:100B10004000000100000000000000000100000093
:100B200000040000000000000000000F9060400082
:100B300000000000000000000000000000000000B5
:100B400000000000000000000000000000000000A5
:100B50000000000000000000000000000000000095
:100B600000000404080CF201000000000000000076
:100B700000000000000000008000000000000000F5
:100B80000000000000000000000000000000000065
:100B90000000000000000001000000000000000054
:100BA0000400000000000000000000C03926101002
:100BB0000000000000000000000000000000000035
:100BC0000000000000000000000000000000000025
:100BD0000000000000000000000000000000000015
:100BE00000000808649C03000000000000000000F2
:100BF00000000000000000000000000000000000F5
:100C00000000000000000020000000000080000044
:100C10000000000000000000000000000080000054
:100C200000000000000000000000804F3010202075
:100C300000000000000000000000000000000000B4
:100C400000000000000000000000000000000000A4
:100C50000000000000000000000000000000000094
:100C6000000000020609F00000000000000000047F
:100C70000000000000000000000000000000000074
:100C80000000000000000000000000000000000064
:100C9000000800000000000000000000000000004C
:100CA0000000000000000000000000E1120C040041
:100CB0000000000000000000000000000000000034
:100CC0000000000000000000000000000000000024
:100CD0000000000000000000000000000000000014
:100CE000000000100834C3000000000000000000F5
:100CF00000080000000040000004000000000000A8
:100D000000000000000000000000000000000000E3
:100D100000000000020000000000000000000000D1
:100D200000000020000000000000C0231C000000A4
:100D300000000000000000000000000000000000B3
:100D400000000000000000000000000000000000A3
:100D50000000000000000000000000000000000093
:100D60000000004020F00C03000000000000000024
:100D70000000000010000000000000000000000063
:100D80000000000000000000000000000000000063
:100D90000000000200000000000000000000000051
:100DA000100000000000000000000F10A060100004
:100DB0000000000000000000000000000000000033
:100DC0000000000000000000000000000000000023
:100DD0000000000000000000000000000000000013
:100DE0000000000000000000000000000000000003
:100DF00000000000000000000000000000000000F3
:100E000000000000000000000000000000000000E2
:100E100000000000000000000000000000000000D2
:100E200000000000000000000000000000000000C2
:100E300000000000000000000000000000000000B2
:100E400000000000000000000000000000000000A2
:100E50000000000000000000000000000010101062
:100E600050505050505050505050505050505000D2
:100E700000F8F8F8F808D000000000C0E0F0F0F842
:100E800078787878F8F0F0E0C00838F8F8F8F8C02A
:100E9000C0F8F8F8F8380840E0F0F8F8787878F812
:100EA00078000050505050505050505050505050BA
:100EB0005050101010000000000000000000000062
:100EC0000000000000000000000000000000000022
:100ED0000000000000000000000000000000000012
:100EE0000000010505151555555555555555550025
:100EF00000FFFFFFFFC0DFE040803FFFFFFFE1C2D8
:100F000081818181C2E1FFFFFF3F0000873FFFFF3A
:100F1000FFFF1F070000FC00FFFFFFFF9E9E9EBE1D
:100F20009E00005555555555555555151505050146
:100F300000000000000000000000000000000000B1
:100F400000000000000000000000000000000000A1
:100F500000000000008000C00080000000000000D1
:100F6000000000000000000000010101050505006F
:100F700000C0C3C3C7D7D7D7D08880000103CBD761
:100F8000D7D7171717CBC3C1C0000000000384CF09
:100F9000C3C0C0000000C1C4C9D3171717D7D7CF2B
:100FA000C700000505050101010000000000000068
:100FB00000000000000000008000C0008000000071
:100FC000000000000000000000FC7880C0C0C0806D
:100FD000004800FC004800FF004800FC00480000FA
:100FE000003844BA6DD5A54A8A058545BA4438000B
:100FF00000FFFFFFFF03E3E3FFFF7F3E0000FFFF73
:10100000FFFF000000FFFFFFFF0000003EFFFFFFAB
:10101000FFE3C3000000FFFFFFFFF0F000FFFFFF52
:10102000FF00003844BA6DD5A54A8A058545BA4403
:10103000380000004800FC004800FF004800FC00A9
:10104000480080C0C0C08078FCFFFEFFFFFFDFEFDC
:10105000C03F00DF808AC0EFC08A80DF003F000011
:10106000000000000102050B0A050201000000005B
:10107000003FBFBFBF80630F3FBFBFBCA080471F03
:101080001F3FBCBCBCBF9F4F0700003EBCBCBFBFE6
:101090009F4F070000003FBFBFBF8040003FBFBF62
:1010A000BF80400000000102050B0A05020100009C
:1010B000000000003F00DF808AC0EFC08A80DF00B0
:1010C0003FC0EFDFFFFFFFFEFFFFFFFFFFFFAB545F
:1010D00082786FDDF0BA2D272DBAF0DD6F78000031
:1010E0000000000000000000000000000000000000
:1010F000000000000000000000C040408000C080F0
:10110000400080404080008040400080404000001F
:1011100000E01090509010E000000000000000007F
:1011200000000000000000000000000000000000BF
:1011300000000000786FDDF0BA2D272DBAF0DD6FCA
:101140007807AFFFFFFFFFFFFFFFFFFFFFFFFFFF7E
:10115000FEFDFAF4E9F5EBF3FBFDFDCEE0F0F8F867
:10116000F8F8F0E0C00000000000000000000000FF
:101170000000000000000000000F0002010003005A
:101180000000010203020002030300020303000047
:101190000007080B090B0807000000000000000012
:1011A00000000000000000000000000000C0E0F0AF
:1011B000F8F8F8F8F0E0CEFDFDF3EBF3E9F5EAF529
:1011C000FAFDFEFFFFFFFFFFFF423A43414E43455A
:1011D0004C00444F574E3A44454C2E00040309043A
:1011E00012010002EF02014041233680000101029A
:1011F000030141726475696E6F204C4C430041726B
:101200006475696E6F204C656F6E6172646F00016A
:101210000204081020408000000000003E5B4F5B8D
:101220003E3E6B4F6B3E1C3E7C3E1C183C7E3C1889
:101230001C577D571C1C5E7F5E1C00183C1800FF6D
:10124000E7C3E7FF0018241800FFE7DBE7FF30489B
:101250003A060E2629792926407F050507407F0595
:10126000253F5A3CE73C5A7F3E1C1C08081C1C3E8C
:101270007F14227F22145F5F005F5F06097F017F7A
:10128000006689956A606060606094A2FFA294081D
:10129000047E040810207E201008082A1C08081C60
:1012A0002A08081E101010100C1E0C1E0C30383EA0
:1012B0003830060E3E0E06000000000000005F0001
:1012C000000007000700147F147F14242A7F2A12CD
:1012D00023130864623649562050000807030000B3
:1012E0001C2241000041221C002A1C7F1C2A0808E5
:1012F0003E080800807030000808080808000060F8
:10130000600020100804023E5149453E00427F40E3
:101310000072494949462141494D331814127F1042
:1013200027454545393C4A4949314121110907368C
:1013300049494936464949291E0000140000004029
:101340003400000008142241141414141400412223
:10135000140802015909063E415D594E7C121112D2
:101360007C7F494949363E414141227F4141413ECE
:101370007F494949417F090909013E414151737F34
:101380000808087F00417F41002040413F017F085D
:101390001422417F404040407F021C027F7F0408AE
:1013A000107F3E4141413E7F090909063E415121DE
:1013B0005E7F09192946264949493203017F010305
:1013C0003F4040403F1F2040201F3F4038403F6388
:1013D0001408146303047804036159494D43007FE2
:1013E0004141410204081020004141417F040201B3
:1013F0000204404040404000030708002054547855
:10140000407F284444383844444428384444287FA2
:10141000385454541800087E090218A4A49C787FFC
:101420000804047800447D40002040403D007F10C7
:1014300028440000417F40007C047804787C080444
:1014400004783844444438FC1824241818242418F8
:10145000FC7C08040408485454542404043F4424E5
:101460003C4040207C1C2040201C3C4030403C4400
:10147000281028444C9090907C4464544C440008BC
:1014800036410000007700000041360800020102EA
:1014900004023C2623263C1EA1A161123A404020B2
:1014A0007A3854545559215555794121545478412D
:1014B000215554784020545579400C1E52721239EF
:1014C00055555559395454545939555454580000A8
:1014D000457C410002457D420001457C40F02924C5
:1014E00029F0F0282528F07C545545002054547CE0
:1014F000547C0A097F4932494949323248484832C6
:10150000324A4848303A4141217A3A4240207800F4
:101510009DA0A07D39444444393D4040403D3C2499
:10152000FF2424487E4943662B2FFC2F2BFF0929DB
:10153000F620C0887E090320545479410000447D80
:10154000413048484A32384040227A007A0A0A72CA
:101550007D0D19317D2629292F2826292929263074
:10156000484D4020380808080808080808382F1097
:10157000C8ACBA2F102834FA00007B000008142AE7
:10158000142222142A14089500220095AA0055005E
:10159000AAAA55AA55AA000000FF00101010FF00CB
:1015A000141414FF001010FF00FF1010F010F014BE
:1015B0001414FC001414F700FF0000FF00FF1414C3
:1015C000F404FC141417101F10101F101F1414140F
:1015D0001F00101010F0000000001F101010101F4E
:1015E00010101010F010000000FF1010101010105C
:1015F000101010FF10000000FF140000FF00FF009B
:10160000001F10170000FC04F41414171017141412
:10161000F404F40000FF00F714141414141414F765
:1016200000F7141414171410101F101F141414F4BE
:10163000141010F010F000001F101F0000001F1405
:10164000000000FC140000F010F01010FF10FF1458
:101650001414FF141010101F00000000F010FFFF02
:10166000FFFFFFF0F0F0F0F0FFFFFF0000000000D0
:10167000FFFF0F0F0F0F0F38444438447C2A2A3ED7
:10168000147E02020606027E027E02635549416311
:101690003844443C04407E201E2006027E0202990B
:1016A000A5E7A5991C2A492A1C4C7201724C304AA4
:1016B0004D4D303048784830BC625A463D3E49492D
:1016C00049007E0101017E2A2A2A2A2A44445F44D5
:1016D0004440514A444040444A51400000FF010305
:1016E000E080FF000008086B6B08361236243606CF
:1016F0000F090F06000018180000001010003040FD
:10170000FF0101001F01011E00191D1712003C3CC2
:101710003C3C0000000000080B000202020100092E
:10172000040000010202000005240010010524014C
:1017300001010424020605240600010705810310A7
:10174000004009040100020A0000000705020240EF
:1017500000000705830240000000571E11241FBE31
:10176000CFEFDAE0DEBFCDBF11E0A0E0B1E0E6E40C
:10177000F0E402C005900D92A634B107D9F725E038
:10178000A6E4B1E001C01D92A73FB207E1F71BE05C
:10179000CEEADBE004C02197FE010E941620CD3A7C
:1017A000D107C9F70E941E170C9421200C94000049
:1017B000FC0180915A01811103C08FEF9FEF0895C2
:1017C0009FB7F89482E08093E9002091F20030E026
:1017D0001216130614F421E030E02115310559F0FA
:1017E000289884E6809359018091F100808380914C
:1017F000F200882319F09FBFC90108958BE68093FA
:10180000E800F9CF2FB7F89483E08093E900909136
:10181000E800892F807295FF04C09091F20080E467
:10182000891B2FBF0895CF93DF931F92CDB7DEB7EB
:101830006983DC01ED91FC910280F381E02D41E0B0
:1018400050E0BE016F5F7F4F09950F90DF91CF9100
:10185000089583E08093E9008091F200882319F0D5
:101860008AE38093E80008950E94020C90E00895B6
:10187000CF93DF931F92CDB7DEB7FC0184859585AA
:1018800097FD05C02FEF3FEF358724870BC0CE01B2
:1018900001960E94D80B019719F4898190E002C04B
:1018A0008FEF9FEF0F90DF91CF9108950F931F93CC
:1018B000CF93DF931F92CDB7DEB78C01FC018485F7
:1018C000958597FF0EC0CE0101960E94D80B019717
:1018D00019F4298130E002C02FEF3FEFF80135877E
:1018E0002487F801848595850F90DF91CF911F9112
:1018F0000F910895FC018485958597FD0BC09FB7D6
:10190000F89482E08093E9008091F2009FBF90E01C
:10191000019608959FB7F89482E08093E900809142
:10192000F2009FBF90E008958F929F92AF92BF9276
:10193000CF92DF92EF92FF920F931F93CF93DF939B
:101940005C016B017A0180911301882309F45BC06B
:1019500080915A01882309F456C08091580180FF74
:1019600005C08091E00082608093E000E70110E014
:101970000AEF83E0882E9AE3992E2097D9F10E94EE
:10198000020C81110AC0015009F43DC061E070E011
:1019900080E090E00E94BC13F0CF282F30E0C21707
:1019A000D3070CF48C2F4FB7F8948092E9009091F4
:1019B000E80095FF1DC0282F30E0C21BD30BF601B5
:1019C000982F915020F081918093F100FACFC20EB0
:1019D000D31E112319F09092E80009C08091E8000D
:1019E00085FD06C09092E80011E0209709F010E014
:1019F0004FBFC3CF1111C3CF5D9884E680936001C0
:101A00001E141F0444F081E090E0F501938382836B
:101A100080E090E001C0C701DF91CF911F910F914D
:101A2000FF90EF90DF90CF90BF90AF909F908F90FE
:101A30000895CF92DF92EF92FF92CF93DF936C01E4
:101A4000990FEE08FF08F7FE1FC0E0918205F091A4
:101A500083050190F081E02D6DE282E895E0099523
:101A6000EC0166277727CB016C197D098E099F0948
:101A70004AE00E94D3128C0F9D1FDF91CF91FF90FF
:101A8000EF90DF90CF9008954AE0C701B601DF9153
:101A9000CF91FF90EF90DF90CF900C94D3120F93E3
:101AA0001F93DC01E1E7F0E090819D7F908310922D
:101AB0005F01EFE6F5E0F0935E01E0935D01F093E6
:101AC0005C01E0935B0186E091E091838083B383C6
:101AD000A283758364835783468331872087138766
:101AE00002871F910F910C944014EF92FF920F9375
:101AF0001F93CF93DF93CDB7DEB72C970FB6F89433
:101B0000DEBF0FBECDBF49835A836B837C839E8328
:101B1000EF82F88609871A872B873C87E981FA814B
:101B20006B817C814F81588529853A85DF01A80F1B
:101B3000B11D4A175B07A4F48B85480F511DE417AC
:101B4000F50774F48E81AB01480F511D241735073A
:101B50003CF48C85280F311D81E0621773070CF06F
:101B600080E02C960FB6F894DEBF0FBECDBFDF919C
:101B7000CF911F910F91FF90EF9008958091650193
:101B800081110DC082E08093610184E08093620145
:101B9000109264011092630181E08093650181E6F7
:101BA00091E008951F920F920FB60F9211248F9318
:101BB0009F938091E1009091E100937F9093E100E9
:101BC00083FF0FC01092E90091E09093EB00109218
:101BD000EC0092E39093ED0010925A0198E09093FC
:101BE000F00082FF20C093E09093E9009091F20012
:101BF000992319F09AE39093E8009091600199235A
:101C000039F090916001915090936001992389F18E
:101C100090915901992339F09091590191509093E5
:101C20005901992341F184FF10C08091E2008E7E1A
:101C300081608093E2008091E1008F7E8093E100DB
:101C4000809158018E7E806111C080FF16C0809106
:101C5000E2008E7E80618093E2008091E1008E7EC2
:101C60008093E100809158018E7E816080935801BD
:101C700004C05D9ACDCF289AD6CF9F918F910F90B7
:101C80000FBE0F901F9018951F920F920FB60F92D4
:101C90001124CF92DF92EF92FF920F931F932F9315
:101CA0003F934F935F936F937F938F939F93AF93E4
:101CB000BF93EF93FF93CF93DF93CDB7DEB76C97CE
:101CC000DEBFCDBF1092E9008091E80083FFEDC137
:101CD00068E0CE0145960E94111782EF8093E800DC
:101CE0008D8987FF05C09091E80090FFFCCF03C06D
:101CF0009EEF9093E800982F907609F0C6C09E89D9
:101D00002F89188D91110CC0803829F480915701CA
:101D10008093F10002C01092F1001092F10048C1CE
:101D2000422F50E0512B913051F4811141C141308B
:101D3000510509F03DC1809157018D7F0BC0933053
:101D400061F4811135C14130510509F031C18091F3
:101D500057018260809357012BC1953041F48091E7
:101D6000E80080FFFCCF20682093E30021C196307B
:101D700009F05FC0EB8CFC8C1092E90010925501C9
:101D800010925401123091F51092530110925201A9
:101D90000E94DF1699E0BE016F5F7F4FDB01E92FE4
:101DA0001D92EA95E9F799831A8391E09E8390EA60
:101DB00098879AEF99872091540130915501275FB8
:101DC0003F4F3C832B838D831092E9001092550185
:101DD00010925401F0925301E092520149E050E018
:101DE00080E00E94B8160E94DF16E2C0F092530114
:101DF000E09252010E94BE0DDC011296ED90FC9023
:101E00001397E114F10409F4C0C0D701ED91FC91DE
:101E10000480F581E02DBE016B5E7F4FC7010995FF
:101E2000009719F00CF0C4C0C7C0F701E084F1843A
:101E3000E8CF973009F4C0C0983021F481E0809356
:101E4000F100B6C0993009F0B3C0837009F0B4C096
:101E5000E9E1F1E081E021E036E39081992361F04E
:101E60008093E9002093EB0091919093EC003093E4
:101E7000ED008F5F873089F78EE78093EA0010923C
:101E8000EA008F8980935A0193C08B8D9C8D1092AC
:101E9000E9001092550110925401909353018093E0
:101EA0005201898D811156C08E899D89913A59F4CC
:101EB000813209F081C047E050E06CE071E080E0E1
:101EC0000E94B81675C0913209F076C0833289F449
:101ED000888D90E0982F88272F89822BA0E0B0E092
:101EE0008093080190930901A0930A01B0930B011C
:101EF0005FC0803269F48091E80082FFFCCF67E028
:101F00008CE091E00E9411178BEF8093E80006C0EF
:101F1000823209F04DC08F89809313018091560160
:101F2000882319F0EEEFFAE002C0E0E0F8E08091DB
:101F30000C0190910D01A0910E01B0910F01803B19
:101F40009440A105B10509F07BC08091130180FF89
:101F500093C076C00E94BE0DDC0112960D911C91BB
:101F600013970115110541F1D801ED91FC910190F4
:101F7000F081E02DBE016B5E7F4FC8010995811194
:101F800017C0F80100851185ECCF113009F44EC05F
:101F9000133091F48F89882309F445C0823081F48D
:101FA00040E860E18EEF91E10E94041F882321F058
:101FB0008EEF8093E80079C081E28093EB0075C0DA
:101FC000813029F440E86BE082EF91E1EDCF83307E
:101FD00099F70E94BE0DDC011296ED90FC901397CC
:101FE0008E010F5F1F4F6801E114F10479F0D701F2
:101FF000ED91FC910680F781E02DB801C7010995AC
:10200000080F111DF701E084F184EECFD8011C9276
:10201000F60101900020E9F73197BF016C197D09A5
:1020200040E0C601C1CF6CED71E102C060EE71E12C
:102030006115710509F2FB01449150E080E840CF41
:102040000FB6F894A8958091600088618093600035
:10205000109260000FBEA895EE3F2AE0F20739F01B
:102060008091FE0A9091FF0A91838083A1CF109204
:10207000FF0A1092FE0A9CCFEE3F8AE0F80731F08B
:10208000808191819093FF0A8093FE0A87E797E70A
:10209000918380839BE088E10FB6F894A8958093A4
:1020A00060000FBE9093600083CF6C960FB6F894DB
:1020B000DEBF0FBECDBFDF91CF91FF91EF91BF91FA
:1020C000AF919F918F917F916F915F914F913F91D0
:1020D0002F911F910F91FF90EF90DF90CF900F9075
:1020E0000FBE0F901F9018950F931F93CF93DF9300
:1020F00000D0CDB7DEB70DE615E0F801608180E1D4
:1021000090E09A838983CE0101960E946A16F801B5
:10211000618181E190E09A838983CE0101960E94DA
:102120006A16C8010F900F90DF91CF911F910F9108
:102130000895EDE6F1E0A0E0B8E000800EBC81116A
:10214000012C1197A0FDFDCF0192B9F70DB40895B0
:102150002F923F924F925F926F927F928F929F92B7
:10216000AF92BF92CF92DF92EF92FF920F931F93A5
:10217000CF93DF93CDB7DEB728970FB6F894DEBFC5
:102180000FBECDBF5A01822E912C9C01280D391D06
:1021900037FDC4C0803891050CF0C0C09B01200FF2
:1021A000311D37FDBBC0603471050CF0B7C0AB0109
:1021B00077FF04C044275527461B570B4770552708
:1021C0009B0177FF02C0295F3F4FE3E035952795DC
:1021D000EA95E1F777FF08C02150310968E070E027
:1021E000DB01A41BB50BAD01602F66956695669566
:1021F00070E0077011F06F5F7F4FDB01A20FB31F1C
:10220000BA83A98339017694762C662477946794EF
:10221000680E791EE12CF12C00E010E02301B0E8FB
:102220004B0E511C68E070E0DB01A41BB50BBC83B6
:10223000AB8369817A812617370709F46FC028308C
:10224000310509F46BC02F3FBFEF3B070CF45BC0B7
:10225000B201600F711FDB01A359BE4FBE83AD8376
:10226000D801A60DB71DA359BE4F6C0160E070E008
:10227000681579050CF047C0E0E8CE16D10409F4E2
:1022800042C0D7FC34C02F3FFFEF3F0709F442C0E4
:10229000FB01EE0DFF1DEA0DFB1DE491042E01C0B4
:1022A000EE0F0A94EAF73C90E329EC9341155105AF
:1022B000F1F027303105D9F0FB01EE0DFF1DEA0DDD
:1022C000FB1DE4912E2E312CF1010B8002C0F595FF
:1022D000E7950A94E2F7F887EF83ED81FE8130807D
:1022E000EF81F885E3291F01ED81FE8120826F5F78
:1022F0007F4FED81FE813196FE83ED83FFEFCF1A94
:10230000DF0A1196B5CF2F5F3F4F00581F4FE80CE3
:10231000F91C8FCF4115510579F6E9CF28960FB6F4
:10232000F894DEBF0FBECDBFDF91CF911F910F910B
:10233000FF90EF90DF90CF90BF90AF909F908F90E5
:102340007F906F905F904F903F902F90089580E026
:10235000EDE6F1E081118FEF002481938193819369
:1023600081930394D1F7E2E8F5E0128A118A108A8A
:102370001786089520918C05282329F490918B05C8
:10238000982381E009F480E008955F926F927F9234
:102390008F929F92AF92BF92CF92DF92EF92FF9275
:1023A0000F931F93CF93DF9300D000D0CDB7DEB74C
:1023B000DC014115510509F4C1C0FA01B490319610
:1023C000E491EB2CF12C6C01CE0CDF1C1C141D04D1
:1023D0000CF0B4C0803891050CF0B0C0CB018E0F6A
:1023E000911D181619060CF0A9C0603471050CF087
:1023F000A5C0F62FF7709F2E8B0177FF02C0095FF3
:102400001F4F83E0159507958A95E1F7802F77FF99
:1024100004C0992011F08FEF800FB7FF05C000278F
:1024200011270A1B1B0B02C000E010E060E8C61673
:10243000D10424F070E87A1B572E01C05B2C501A8F
:10244000C82E082E000CDD088F3F1CF4FC2DF095E3
:1024500001C0F0E091E06E2F677009F490E0E6951E
:10246000E695E6959E0FC90ED11C79E0C716D104FA
:1024700014F098E0981B6F2F680F70E86703A00DA9
:10248000B11D1124A00FB11FFB9D000D111D1124C2
:102490004E5F5F4F400F511FE1E0F0E06F01092CEC
:1024A00002C0CC0CDD1C0A94E2F7200F311F882EED
:1024B000890E681509F442C0CD0183599E4F5C0115
:1024C00000E010E0051590F5F901E00FF11FE4912F
:1024D000EC9DC001ED9D900D1124809590959C83FD
:1024E0008B83FA01E00FF11FE491EC9D3001ED9D2B
:1024F000700C11247A82698267FD05C0F501908114
:102500008923682A6082992059F067304CF4F501DC
:10251000E058FF4F90818C8189239A81892B808399
:102520000F5F1F4FFFEFAF1ABF0ACCCF6F5F4E0D8B
:102530005F1D2E0D3F1DA058BF4FBBCF0F900F90BA
:102540000F900F90DF91CF911F910F91FF90EF901F
:10255000DF90CF90BF90AF909F908F907F906F90C3
:102560005F9008950F931F93CF93DF938C01C0E08A
:10257000D0E0F801EC0FFD1F6491662371F0E0914B
:102580008205F09183050190F081E02D82E895E0CD
:102590000995892B11F02196ECCFCE01DF91CF91D7
:1025A0001F910F9108958F929F92AF92BF920F93B8
:1025B0001F93CF93DF93CDB7DEB7A1970FB6F894F3
:1025C000DEBF0FBECDBF19A2423008F44AE08E0133
:1025D0000F5D1F4F842E912CA12CB12CA5019401CD
:1025E0000E94E51FE62FB901CA0101501109EA3026
:1025F00014F4E05D01C0E95CD801EC93232B242B9B
:10260000252B61F70115110571F0F80101900020EB
:10261000E9F73197AF01401B510BB80182E895E013
:102620000E94241302C080E090E0A1960FB6F894B7
:10263000DEBF0FBECDBFDF91CF911F910F91BF9035
:10264000AF909F908F900895CF92DF92EF92FF927C
:102650000F931F93CF93DF936C017A018B01C0E03E
:10266000D0E0CE15DF0589F0D8016D918D01D6013E
:10267000ED91FC910190F081E02DC6010995892B27
:1026800011F47E0102C02196ECCFC701DF91CF91FA
:102690001F910F91FF90EF90DF90CF9008953FB77B
:1026A000F8948091F3059091F405A091F505B0910F
:1026B000F60526B5A89B05C02F3F19F00196A11D70
:1026C000B11D3FBFBA2FA92F982F8827820F911DC8
:1026D000A11DB11DBC01CD0142E0660F771F881F0F
:1026E000991F4A95D1F7089580915F01E0915D01AE
:1026F000F0915E01882349F0CF01029690935E012C
:1027000080935D01859194910895CF0102969093F5
:102710005E0180935D0180819181089580914601E1
:1027200008950895089580E090E008950E941C2087
:10273000CF93DF9300D000D0CDB7DEB76115710520
:102740008105910579F09B01AC0169833A834B8344
:102750005C830E948F1F29813A814B815C810E949A
:10276000B31F03C060E070E0CB010F900F900F909B
:102770000F90DF91CF9108958F929F92AF92BF9269
:10278000CF92DF92EF92FF926B017C010E944F1378
:102790004B015C01C114D104E104F104F1F00E9489
:1027A0004F13DC01CB0188199909AA09BB09883E9E
:1027B0009340A105B10570F321E0C21AD108E108E8
:1027C000F10888EE880E83E0981EA11CB11CC1148C
:1027D000D104E104F10419F7DDCFFF90EF90DF9011
:1027E000CF90BF90AF909F908F9008951F920F92BF
:1027F0000FB60F9211242F933F938F939F93AF9314
:10280000BF938091470190914801A0914901B091F7
:102810004A013091F20523E0230F2D3720F4019671
:10282000A11DB11D05C026E8230F0296A11DB11DF3
:102830002093F2058093470190934801A0934901AA
:10284000B0934A018091F3059091F405A091F505AC
:10285000B091F6050196A11DB11D8093F3059093EB
:10286000F405A093F505B093F605BF91AF919F9144
:102870008F913F912F910F900FBE0F901F90189541
:10288000CF92DF92EF92FF920F931F93CF93DF933C
:102890000E947413811520E8920761F48091710001
:1028A0008D7F809371001092910046984798109206
:1028B000EB058BC021E02093EB05813020E89207E7
:1028C00051F480915B0190915C0190935E01809343
:1028D0005D010E94741397FD05C02091EA05222333
:1028E00009F43FC02091E90521113BC021E020936C
:1028F000EC05EC01DF77209769F481E08093ED052A
:1029000046983FE9C32E3FE0D32EE12CF12CCAEFCD
:10291000D0E014C08E0120E030E060E472E48FE08B
:1029200090E0A90198010E94B31F69017A0181E03A
:10293000C81AD108E108F1081092ED05E0917D0573
:10294000F0917E050995811103C081E08093ED052A
:102950008091EC058823B9F18091ED05811133C098
:1029600003C01092EC05C5CF46992DC0479A0E942E
:102970007413009771F09C01DE010E940720DC01B6
:10298000CB0129E0B595A795979587952A95D1F71D
:1029900003C08FEF9FEFDC01109290002AE020939C
:1029A0009100D0929900C09298008093EE05909388
:1029B000EF05A093F005B093F1058091710082605E
:1029C0008093710002C04798D2CFDF91CF911F91C1
:1029D0000F91FF90EF90DF90CF9008951F920F928C
:1029E0000FB60F9211242F933F934F935F936F93E2
:1029F0007F938F939F93AF93BF93EF93FF938091B8
:102A0000EE059091EF05A091F005B091F105892BAD
:102A10008A2B8B2B81F18091ED0581110BC098B130
:102A200080E4892788B98091EC05882319F088B162
:102A3000805888B98091EE059091EF05A091F0053E
:102A4000B091F105181619061A061B06B4F4809108
:102A5000EE059091EF05A091F005B091F105019779
:102A6000A109B1098093EE059093EF05A093F005BD
:102A7000B093F10502C00E944014FF91EF91BF9105
:102A8000AF919F918F917F916F915F914F913F9106
:102A90002F910F900FBE0F901F9018952D9A0895AB
:102AA000BC0180E090E00C94BC138FB18095807FD6
:102AB000669B88601C9B8460089560387105D0F423
:102AC00040345105B8F4EFE0F2E180E1849FD00199
:102AD000A0781124A60F4770E40FF11D8491A3592B
:102AE000BE4F222319F06C91862B03C080956C9108
:102AF00086238C9308952F923F924F925F926F920C
:102B00007F928F929F92AF92BF92CF92DF92EF927D
:102B1000FF920F931F93CF93DF93CDB7DEB7299723
:102B20000FB6F894DEBF0FBECDBFFC016A3069F46A
:102B300025898189928938E0239F800D911D112478
:102B4000928B818B108A1786AAC06D3009F4A7C0BA
:102B500099878887F58834882388618872880785F3
:102B6000108900381105C4F0A885B98555962C91B7
:102B70005597422F50E01F968D919C915097B6E04B
:102B80002B9F800D911D1124E885F985908B8787F7
:102B9000268921116EC083C0F0E46F16710424F7FA
:102BA000C80125E0F29E800D911D1124181619060A
:102BB000DCF68F2D90E09C838B83C301A8E0FA9E06
:102BC000800D911D11241816190674F6B5E06B9F3F
:102BD000B0011124FB01E95EFD4EFA83E98330E088
:102BE0008885998504969E838D83E981FA81E49096
:102BF000353009F4E12C430188E0482EE0FC02C0A6
:102C0000532C01C0522C51100BC0321009C0E69455
:102C10004A948B819C81880E991E4110EFCF1BC076
:102C200068018C2D801B8F1590F754018A2D88190F
:102C30008F1568F4252DA501B6018D819E813F83F6
:102C40000E945D159FEFA91AB90A3F81EFCFAFEF40
:102C5000CA1ADA0AE6CF3F5FEB81FC810E0F1F1F15
:102C600089819A8101969A838983363009F0BDCF94
:102C70007BCF6AEF64039001659F300D11242058CB
:102C80003F4F281739075CF4A885B985ED91FC9171
:102C900011970190F081E02D6AE0CD01099581E066
:102CA00090E029960FB6F894DEBF0FBECDBFDF913E
:102CB000CF911F910F91FF90EF90DF90CF90BF9039
:102CC000AF909F908F907F906F905F904F903F90CC
:102CD0002F900895EF92FF920F931F93CF93DF935E
:102CE0001F92CDB7DEB77C01FC0100811181C801C4
:102CF00069830E949D1F6981681719F0C8010E94AD
:102D0000A51FC7010F90DF91CF911F910F91FF90E9
:102D1000EF90089540915401509155012091520136
:102D20003091530142175307B4F49091E800957025
:102D3000E1F39091E80092FD19C08093F100809139
:102D400054019091550101968F739927892B19F49D
:102D50008EEF8093E8008091540190915501019687
:102D6000909355018093540181E0089580E0089587
:102D7000DF92EF92FF920F931F93CF93DF93D82EA2
:102D80008A017B01E40EF51EEB01CE15DF0571F023
:102D9000D7FE03C0FE01849101C088810E948A167B
:102DA00021968111F2CF8FEF9FEF01C0C801DF9113
:102DB000CF911F910F91FF90EF90DF9008950F93A7
:102DC0001F93CF93DF931F92CDB7DEB782E0898345
:102DD00042E450E067E177E180E80E94B8160E9483
:102DE000BE0DDC0112960D911C9113970115110572
:102DF00069F0D801ED91FC910280F381E02DBE01D4
:102E00006F5F7F4FC801099597FF07C089810F90B9
:102E1000DF91CF911F910F910895F80100851185E1
:102E2000E5CF615030F02091F100FC012083019644
:102E3000F8CF289884E6809359010895CF93DF93C3
:102E4000CDB7DEB7AB970FB6F894DEBF0FBECDBFE0
:102E5000789484B5826084BD84B5816084BD85B575
:102E6000826085BD85B5816085BD80916E00816081
:102E700080936E0010928100809181008260809327
:102E80008100809181008160809381008091800029
:102E90008160809380008091910082608093910096
:102EA0008091910081608093910080919000816079
:102EB000809390008091C10084608093C1008091D4
:102EC000C10082608093C1008091C10081608093C5
:102ED000C1008091C30081608093C3008091C000D5
:102EE00082608093C0008091C20081608093C200A4
:102EF00080917A00846080937A0080917A00826069
:102F000080937A0080917A00816080937A0080912A
:102F10007A00806880937A0010925A0110925701CB
:102F2000109258018091D70081608093D70080EA89
:102F30008093D80089B5806189BD89B5826089BDDB
:102F400009B400FEFDCF61E070E080E090E00E94F7
:102F5000BC138091D8008F7C80618093D8008091D1
:102F6000E000807F8093E0008091E1008E7E80937E
:102F7000E1008DE08093E200559A209AEEEFFFE7A2
:102F8000859194918B3F9C4D19F481E0809356017B
:102F900081EC80937C0085B1806F85B984B1877E98
:102FA00084B984B1876E84B95E9A5F988AB1806D66
:102FB0008AB9769A6E9881B3806F81BB899880B305
:102FC0008D7080BB80E58CBD81E08DBD85E090E09B
:102FD0000E9450155F9A85E090E00E9450155E981F
:102FE0005C98ECE5F1E08DE08E0F94919EBD0000C1
:102FF0000DB407FEFDCF31968E13F7CF5C9A81E8B2
:10300000809364008091650081608093650080E01A
:103010000E9499100E94551587FF15C05C9885EA9B
:103020008EBD00000DB407FEFDCF5C9A2E982F9840
:103030002D988091640080628093640081E083BF5A
:10304000889513BEFCCF02E010E00E94551582FF68
:1030500042C02D980E94551584788438C9F00E948A
:1030600055158471843191F50E944E1588EC90E0DD
:103070000E9450152E981A83098360E0CE010196B4
:103080000E946A1684EF91E00E9450152E9A19C092
:103090000E944E1588EC90E00E9450152F981A83DC
:1030A00009836FEFCE0101960E946A1684EF91E0CA
:1030B0000E9450152F9A0E94551584788438D9F3B0
:1030C000CECF0E94551584718431D9F388EC90E0FD
:1030D0000E945015BACF0E944E1582E090E00E94E7
:1030E0009D1F882331F03E9A3F9A81E080934601EC
:1030F00004C0109246013E983F9881E090E00E9403
:103100009D1F81FF3FC02E9830EFE32EFF24FA94DD
:103110000E94551586FF04C02E9A2F9A2D9A32C010
:1031200034E0E316F10411F42E9A2F9881E00E9406
:10313000991000E128E54CEA50E0B70184E190E005
:103140000E94A81080E00E9499108FE090E00E94F9
:1031500050158FEFE81AF80A99E1E916F104C1F663
:103160002F9A2D9880E991E00E9450150E944E15EB
:10317000E0918605F09187050190F081E02D86E8C9
:1031800095E0099582E390E00E9450150E94551544
:103190008111F8CF0E94A71100E420E849E651E030
:1031A00060E070E080E090E00E94A81080E00E9463
:1031B000991068EB7BE080E090E00E94BC1380E90E
:1031C00090E00E949D1F182F81E990E00E949D1FB2
:1031D00010926E0510926D051C3479F48A3569F4ED
:1031E00080E190E00E949D1F80936D0581E190E059
:1031F0000E949D1F80936E0512C080E990E09A8323
:1032000089836CE4CE0101960E946A1681E990E000
:103210009A8389836AE5CE0101960E946A1680E14D
:1032200080938D05FE017996F8A3EF8F9E012D5EA8
:103230003F4F3AA329A3CE010D969CA38BA372976F
:10324000FEA3EDA32251310938A72FA38FB7F8941D
:1032500040914701509148016091490170914A01A4
:103260008FBF80918E05342F381B832F90918F054F
:10327000992329F03093900510928F0500C5909105
:103280008D05391748F48F5F891708F0F8C481E07D
:1032900083BF889513BEF3C411E010938F0540934C
:1032A0008E058091890590918A05019690938A05F3
:1032B0008093890580918B0580938C050E9455151C
:1032C00080938B050E94A71180915101811155C0F7
:1032D00080915001811108C084E00E94BA118823B6
:1032E00099F11093500130C080E10E94BA118823F7
:1032F00039F010926E0510926D050E94741004C092
:1033000084E00E94BA1181111092500180E190E096
:10331000909392058093910501E010E0109394053D
:103320000093930582ED91E10E94B21282E490E055
:1033300090939205809391051093940500939305C3
:1033400089EC91E10E94B21200E420E849EC5DE0D2
:1033500060E070E080E090E00E94A81088E00E94A9
:10336000BA11882309F488C410924F0110924E01BB
:1033700083E08093070181E0C5C3813009F0C5C3B4
:1033800070904D01E72C072C000CFF0800E420E8AA
:1033900047EC59E0B7018DEF9FEF0E94A810B701ED
:1033A0006054710920E847EC59E08DEF9FEF0E94CF
:1033B000A81080904C01A82C082C000CBB08C090D1
:1033C0004B010C2C000CDD0825E338E04DEF58E0F4
:1033D000B501C6010E94C51190900601E92C092C87
:1033E000000CFF0800910501002E000C110B23EAD0
:1033F00036E04BE657E0B701C8010E94C511B501A0
:103400006054710925E338E04DEF58E0C6010E9491
:10341000C511B7016054710923EA36E04BE657E065
:10342000C8010E94C511B501605C7F4F25E338E0FB
:103430004DEF58E0C6010E94C511B701605C7F4F97
:1034400023EA36E04BE657E0C8010E94C51181E04F
:10345000870D81341CF480934D0102C010924D0100
:1034600092E0980D90934C0182E0890D80930601C3
:10347000913414F010924C01813414F01092060132
:1034800060910401062E000C770B80917F0521E6E8
:1034900036E041E856E0082E000C990B0E94C51159
:1034A00010910301612F012E000C770B8091810593
:1034B00027EE35E043E256E0082E000C990B0E94FF
:1034C000C51160910201062E000C770B80918005DA
:1034D00027EE35E043E256E0082E000C990B0E94DF
:1034E000C5111F5F11341CF41093030110C082EF4B
:1034F000809303016DE370E080E090E00E949813F8
:10350000DC01CB014A96A11DB11D809381058091FC
:1035100002018F5F8093020180910301813484F066
:1035200082EF809302016DE370E080E090E00E9402
:103530009813DC01CB014A96A11DB11D8093800533
:10354000809104018E5F81341CF48093040110C0CB
:1035500082EF809304016DE370E080E090E00E94D0
:103560009813DC01CB014A96A11DB11D80937F0504
:1035700060910101062E000C770B8091000121EA79
:1035800035E043EC55E0082E000C990B0E94C51164
:10359000E12CF12C00E010E020E0A801B70186E862
:1035A00095E00E945D150F5F1F4F0A301105A1F7CE
:1035B0008FEFE81AF80A90E8E916F10459F701E0EC
:1035C00010E01093920500939105109394050093D9
:1035D00093058AE995E00E94B212E5E2F0E0F093EB
:1035E0009205E093910510939405009393058091C3
:1035F0004E0190914F010E94190D25E530E0309366
:10360000920520939105109394050093930583E907
:1036100095E00E94B21288E790E090939205809323
:103620009105109394050093930580910701082E4E
:10363000000C990B0E94190D26E0EF8DF8A1322F96
:1036400011923A95E9F78CE08D8F3BE03E8F8091A7
:103650000001082E000C990B05969A8F898F809196
:103660000101082E000C990B05969C8F8B8FE9A108
:10367000FAA1822F11928A95E9F74AE04F8B488F81
:1036800080918105082E000C990B05969C8B8B8BE5
:1036900080910301082E000C990B44969E8B8D8B14
:1036A000EBA1FCA1822F11928A95E9F7498B4A8BF5
:1036B00080918005082E000C990B05969E878D87BA
:1036C00080910201082E000C990B4496988B8F87ED
:1036D000EDA1FEA111922A95E9F73B8789E08C873D
:1036E00080917F05082E000C990B0596E82E98878F
:1036F0008F8380910401082E000C990B0596082FEA
:103700009A878987F8841A852BE039E0498D5A8D8C
:103710006B8D7C8D8D8D9E8D0E94750D882329F17A
:1037200080914E0190914F01059690934F018093A7
:103730004E0104E610E028E831E044E650E06AE497
:1037400071E084E690E00E944F0D82EF80930401C7
:103750006DE370E080E090E00E949813DC01CB0103
:103760004A96A11DB11D80937F05EB88FC880D89C9
:103770001E892F89388D498D5A8D6B8D7C8D8D8D4D
:103780009E8D0E94750D882309F18091070181505B
:103790008093070104E610E026E031E044E650E0C3
:1037A00066E071E084E690E00E944F0D82EF809326
:1037B00003016DE370E080E090E00E949813DC016B
:1037C000CB014A96A11DB11D80938105ED84FE8435
:1037D0000F85188929893A89498D5A8D6B8D7C8D81
:1037E0008D8D9E8D0E94750D882309F180910701B2
:1037F00081508093070104E610E026E031E044E6C2
:1038000050E066E071E084E690E00E944F0D82EFA8
:10381000809302016DE370E080E090E00E949813D5
:10382000DC01CB014A96A11DB11D809380050E9449
:10383000551585FF05C08091000183310CF027C22A
:103840000E94551586FF05C0809100018C350CF44F
:1038500022C20E94551587FF05C0809101018B305F
:103860000CF01DC20E94551584FF05C08091010116
:1038700081330CF418C288E00E94BA11882309F43D
:103880001EC104E610E028E831E044E650E06AE4B6
:1038900071E084E690E00E944F0D80910101682E56
:1038A000880F77081301F1E02F1A310840900001CA
:1038B000042C000C550828E0420E511C8BE090E0CF
:1038C0008619970997FF03C091958195910931E079
:1038D00039A7181619063CF019A6342D252D82019A
:1038E0008AE090E009C08BE0281631044CF4C20154
:1038F000810112013AE020E06101232E322E04C042
:10390000C20162010AE010E05101A01AB10A4C01A3
:103910008C189D0897FE03C09194819491087501BD
:10392000B7FE03C0EFEFEE1AFE0AF594E794C8164F
:10393000D90614F08FEF01C081E0282F880F330BD8
:103940003BA72AA720163106D4F039A521E033235E
:1039500019F0A801B60102C0A601B80186E895E0F9
:103960000E945D15E818F908F7FE06C08AA59BA518
:10397000C80ED91EEA0CFB1C0F5F1F4FE3CF86E079
:10398000EFA1F8A511928A95E9F782E08D8380E492
:103990008E83442D5A824982C30180549109682F35
:1039A0009C838B83EB88FC880D891E892F89388D39
:1039B0005A817C8182E090E40E94750D882329F170
:1039C00080914E0190914F010A9690934F01809300
:1039D0004E0102E310E02AE431E040E550E066E207
:1039E00071E084E690E00E944F0D82EF8093030126
:1039F0006DE370E080E090E00E949813DC01CB0161
:103A00004A96A11DB11D80938105ED84FE840F852A
:103A1000188929893A8949815A816B817C818D81F4
:103A20009E810E94750D882329F180914E0190910D
:103A30004F010A9690934F0180934E0102E310E0EC
:103A40002AE431E040E550E066E271E084E690E08F
:103A50000E944F0D82EF809302016DE370E080E0E1
:103A600090E00E949813DC01CB014A96A11DB11D84
:103A700080938005EF80F88409851A852B853C8525
:103A800049815A816B817C818D819E810E94750D57
:103A90008823A9F080914E0190914F010A9790934D
:103AA0004F0180934E0104E610E026E031E044E649
:103AB00050E066E071E084E690E00E944F0D84E003
:103AC0000E94BA11882379F007E010E028E831E07D
:103AD00046E450E06AE471E086E490E00E944F0D15
:103AE00083E08093510180914E0190914F0197FFA7
:103AF00004C010924F0110924E018091070187FF80
:103B0000BBC082E080935101B7C0823009F088C009
:103B100080914E0190914F0120916D0530916E057D
:103B20002817390730F490936E0580936D050E9435
:103B3000741029E130E0309392052093910584E1DF
:103B400090E0909394058093930585E895E00E941A
:103B5000B212E9E1F0E0F0939205E093910528E2DA
:103B600030E030939405209393058EE795E00E9412
:103B7000B2128CE390E09093920580939105E8E275
:103B8000F0E0F0939405E093930580914E019091BD
:103B90004F010E94190D29E130E0309392052093E6
:103BA000910582E390E0909394058093930583E7D9
:103BB00095E00E94B212E5E5F0E0F0939205E09303
:103BC000910522E330E030939405209393056091B2
:103BD0006D0570916E0580E090E04AE00E94D3127E
:103BE00027EE35E043E256E06AE070E085E090E0E1
:103BF0000E94C51127EE35E043E256E06AE070E02E
:103C00008CE690E00E94C51188E00E94BA118823DA
:103C100099F11092510110924F0110924E012CC057
:103C2000833051F585E290E0909392058093910561
:103C3000EEE1F0E0F0939405E093930589E695E0DA
:103C40000E94B21221E636E041E856E06BE170E0F6
:103C50008AE090E00E94C51121E636E041E856E096
:103C60006BE170E084E690E00E94C51184E00E9460
:103C7000BA1181111093510180E00E94991080E0E7
:103C800090E0892B09F4E2CA0E940000DFCA81504B
:103C900080930001D5CD8F5F80930001DACD8150F4
:103CA00080930101DFCD8F5F80930101E4CDE9E9CD
:103CB000F5E01382128288EE93E0A0E0B0E0848306
:103CC0009583A683B78383E291E0918380838FEF0E
:103CD0009FEF95878487E2E8F5E0138212821186D0
:103CE000128680E1838710861782158685E391E02E
:103CF0009183808383E491E095838483108A17867F
:103D0000128A118A81E0838B148A858B168A8EE849
:103D100093E190937E0580937D0580E090E89093F9
:103D20007C0580937B0546983E9A47983F9A6DE3C1
:103D300070E080E090E00E949813DC01CB014A968D
:103D4000A11DB11D809381056DE370E080E090E0DE
:103D50000E949813DC01CB014A96A11DB11D8093EE
:103D600080056DE370E080E090E00E949813DC0134
:103D7000CB014A96A11DB11D80937F0508950F9335
:103D80001F93CF93DF938C0181E090E00E949D1FF1
:103D900080FF32C08AE090E00E949D1F9FEF980F45
:103DA0009E3F50F522E330E0D80150963C932E938D
:103DB0001F9728E330E052963C932E935197CBE027
:103DC000D0E0D801ED91FC910190F081E02D682FB9
:103DD000C8010995CE010E949D1F2196C131D105D0
:103DE00081F780E00E94991088EE93E0DF91CF91F7
:103DF0001F910F910C945015DF91CF911F910F914E
:103E0000089504970C94BF1ECF92DF92EF92FF9219
:103E10000F931F93CF93DF931F92CDB7DEB7182F69
:103E2000062FE42E862F880F8E5F99830E948A16B4
:103E300083E00E948A16F12EC12E9981D92E8C2DF5
:103E40008F19801798F4F601E7FE02C0849101C033
:103E500080810E948A16182F80E00E948A16812392
:103E6000FFEFCF1ADF0A8111EACF01C081E00F9086
:103E7000DF91CF911F910F91FF90EF90DF90CF9046
:103E800008958F929F92AF92BF92CF92DF92EF925E
:103E9000FF92CF93DF93EC01688179818A819B81C6
:103EA000611571058105910521F464E279ED8BE5D9
:103EB00097E02DE133EF41E050E00E94B31F49014C
:103EC0005A019B01AC01A7EAB1E40E94D21F6B0129
:103ED0007C01ACEEB4EFA50194010E94E01FDC016F
:103EE000CB018C0D9D1DAE1DBF1DB7FF03C00197FB
:103EF000A109B04888839983AA83BB83BC01CD0103
:103F00009F77DF91CF91FF90EF90DF90CF90BF90A0
:103F1000AF909F908F9008950E94411F089584E173
:103F200091E00E94411F0895609314017093150160
:103F300080931601909317010895F999FECF92BDD1
:103F400081BDF89A992780B50895262FF999FECF5B
:103F50001FBA92BD81BD20BD0FB6F894FA9AF99AA6
:103F60000FBE01960895052E97FB1EF400940E9443
:103F7000CA1F57FD07D00E94E51F07FC03D04EF46F
:103F80000C94CA1F50954095309521953F4F4F4F47
:103F90005F4F089590958095709561957F4F8F4FF5
:103FA0009F4F08950E940720A59F900DB49F900DEC
:103FB000A49F800D911D11240895B7FF0C94D21F6A
:103FC0000E94D21F821B930B0895A1E21A2EAA1BF6
:103FD000BB1BFD010DC0AA1FBB1FEE1FFF1FA217B9
:103FE000B307E407F50720F0A21BB30BE40BF50BB6
:103FF000661F771F881F991F1A9469F7609570953F
:10400000809590959B01AC01BD01CF010895A29FC1
:10401000B001B39FC001A39F700D811D1124911D9C
:10402000B29F700D811D1124911D0895EE0FFF1F89
:104030000590F491E02D099481E090E0F8940C94BF
:064040002120F894FFCFDF
:104046003628F2F2F2670003FFFFFFFF00E10000EF
:10405600000000000100000000C180810000000097
:10406600000000130C940C340C290C7A0C380C56F6
:104076000C000000007B15241393139213BF1EFC43
:06408600FF0000011F0015
:2070000055C000006EC000006CC000006AC0000068C0000066C0000064C0000062C0000043
:2070200060C000005EC00000F2C400005AC0000058C0000056C0000054C0000052C00000EE
:2070400050C0000078C000004CC000004AC0000048C0000046C0000044C0000042C00000BE
:2070600040C000003EC000003CC000003AC0000038C0000036C0000034C0000032C0000048
:2070800030C000002EC000002CC000002AC0000028C0000026C0000024C0000022C00000A8
:2070A00020C000001EC000001CC0000011241FBECFEFDAE0DEBFCDBF11E0A0E0B1E0E2E3BC
:2070C000FFE702C005900D92A83AB107D9F711E0A8EAB1E001C01D92AE3BB107E1F78FD30B
:2070E00026C78ECFF89410926F0010928100109285001092840081E085BF15BE47985D9AEB
:20710000289A0C94000008952091B2013091B3012F5F3F4F3093B3012093B201932F37FFA6
:2071200003C08EEF831B982F990F921710F447980895479A08951F920F920FB60F9211246E
:207140002F938F939F93EF93FF9310928500109284008091A8019091A901009741F00197D3
:207160009093A9018093A801892B09F45D9A8091AA019091AB01009741F001979093AB0126
:207180008093AA01892B09F4289AE0E0F0E0859194918F5F9F4F49F08091AC019091AD0151
:2071A00001969093AD018093AC01FF91EF919F918F912F910F900FBE0F901F90189584E0BC
:2071C0008093E9000DC08091E8008B778093E80003C08EB3882351F08091E80082FFF9CFBE
:2071E0008091E80085FFEFCF8091F1000895982F83E08093E9008091E80085FD0DC0809136
:20720000E8008E778093E80003C08EB3882369F08091E80080FFF9CF9093F1005D9884E6CB
:2072200090E09093A9018093A80108954F925F926F927F928F929F92AF92BF92CF92DF921E
:20724000EF92FF920F931F93CF93DF9384E08093E9008091E80082FF57C2289884E690E067
:207260009093AB018093AA01AADF182F853481F48CE49DE19093AD018093AC0107B600FC4B
:20728000FDCFF999FECF81E180935700E89503C0843519F494DF8DE00DC28C34E1F38035F9
:2072A000D1F3843721F484E4A2DF80E003C2813611F489E5FFC18134B1F481DF182F7FDFE3
:2072C00090E0880F991FAA2797FDA095BA2F312F330F20E0442737FD4095542F822B932B68
:2072E000A42BB52BB8C1803711F483E5E3C1833549F4C0E0D1E089917ADF21E0C730D20714
:20730000D1F7D9C1863521F481E371DF80E3D2C1833731F487E86BDF85E969DF8EE1CAC149
:207320008536B9F4E0E0F0E093E085E090935700E89507B600FCFDCF80935700E89507B65D
:2073400000FCFDCFE058FF4FA0E7E030FA0771F7A2CF823739F4E1E0F0E089E08093570024
:207360008491A8C1863439F4E0E0F0E089E08093570084919FC18E3439F4E3E0F0E089E0E5
:2073800080935700849196C1813539F4E2E0F0E089E08093570084918DC1823631F489E521
:2073A00026DF80E024DF80E885C1823419F0873609F0E5C01092AD011092AC0100DF082FE8
:2073C000FEDEF82EFCDE682E8554823008F071C1902F80E0CF2DD0E0C82BD92B10926F00B3
:2073E000173609F04BC081E180935700E895DD24CC24C3943FC0E090AE01F090AF010091CC
:20740000B0011091B101B6E46B16D9F4ED2DF0E0EE29FF29E4918E2FEADEDD2081F082E08D
:2074200090E0A0E0B0E0E80EF91E0A1F1B1FE092AE01F092AF010093B0011093B101DC2470
:2074400018C0D801C701B695A7959795879559D5CEDE82E090E0A0E0B0E0E80EF91E0A1FF2
:207460001B1FE092AE01F092AF010093B0011093B1012197209709F0BECF7DC08090AE01F5
:207480009090AF01A090B001B090B10196E4691609F05DC083E0F40180935700E89507B63E
:2074A00000FCFDCF54C0F6E46F1661F5772031F1E090AE01F090AF010091B0011091B1019E
:2074C0007EDED82ECC24852D90E08C299D29F7010C0140925700E895112482E090E0A0E08B
:2074E000B0E0E80EF91E0A1F1B1FE092AE01F092AF010093B0011093B10102C060DE582E1A
:20750000742423C0E090AE01F090AF010091B0011091B10116950795F794E79450DE682FFA
:20752000C701F7D48091AE019091AF01A091B001B091B1010296A11DB11D8093AE01909349
:20754000AF01A093B001B093B101219704C05524772444244394209709F0A5CF96E46916B6
:2075600041F485E0F40180935700E89507B600FCFDCF8DE03CDE82E080936F009CC0833492
:2075800071F40091AE011091AF0119DE90E021E0F8010C0120935700E89511247CCE8336C8
:2075A00019F5E090AE01F090AF010091B0011091B10105DEF701E16090E021E00C0120938C
:2075C0005700E895112482E090E0A0E0B0E0E80EF91E0A1F1B1FE092AE01F092AF0100936A
:2075E000B0011093B10157CE8D3661F4E091AE01F091AF0185E080935700E89507B600FCF2
:20760000FDCF49CE823551F4E091AE01F091AF0105911491812FEBDD802F4CC0843421F5FE
:20762000E090AE01F090AF010091B0011091B10116950795F794E794C2DD682FC70169D4DE
:207640008091AE019091AF01A091B001B091B1010296A11DB11D8093AE019093AF01A093D8
:20766000B001B093B10117CE843609F5E090AE01F090AF010091B0011091B101D801C70142
:20768000B695A795979587953CD4B1DD82E090E0A0E0B0E0E80EF91E0A1F1B1FE092AE010A
:2076A000F092AF010093B0011093B10104C08B3111F08FE39CDD83E08093E9009091E8002B
:2076C0008091E8008E778093E80095FF04C010C08EB38823C9F08091E80080FFF9CF809193
:2076E000E8008E778093E80003C08EB3882361F08091E80080FFF9CF84E08093E9008091F1
:20770000E8008B778093E800DF91CF911F910F91FF90EF90DF90CF90BF90AF909F908F90AC
:207720007F906F905F904F9008959091B601892F8F77813249F58091B7018032A1F081328A
:2077400019F5913A09F58091E800877F8093E8008DE091E067E070E00BD28091E8008B770B
:207760008093E8000895913279F48091E800877F8093E8008DE091E067E070E05DD2809192
:20778000E8008E778093E800089582E061EC42E0B5D083E061E842E1B1D084E060E842E1EF
:2077A000ADC084B7877F84BF88E10FB6F89480936000109260000FBE20E880E090E00FB63F
:2077C000F89420936100809361000FBE81E085BF92E095BF3F9A209A559AE1E6F0E02083A1
:2077E000108247985D9A289A109289008AEF8093880090936F0083E080938100F0C0409116
:20780000000850910108109201081092000894B714BE88E10FB6F8948093600010926000D5
:207820000FBE292F30E0F901E270F07091FD18C090FF05C0859194918F5F9F4F81F423FFFF
:207840000FC08091090190910A014817590741F0E0E0F0E0859194918F5F9F4F09F042DC64
:20786000A0DF78941092AD011092AC010CC0DEDC36D38091AC019091AD0181549F4110F00D
:207880001092140141DC80911401882381F78091E00081608093E00025DC80E090E0089598
:2078A000FA01923049F0933061F09130F9F485E191E022E130E01EC087E291E02EE330E04D
:2078C00019C0882329F485E691E024E030E012C0813029F489E691E022E230E00BC0823006
:2078E00029F48DE891E028E130E004C080E090E020E030E091838083C90108958093E9004E
:207900008091EB0081608093EB001092ED006093EC004093ED008091EE00881F8827881F62
:2079200008958091B60188238CF403C08EB38823B1F08091E80082FFF9CF8091E8008B772A
:207940008093E80008958EB3882349F08091E80080FFF9CF8091E8008E778093E800089594
:20796000EF92FF920F931F9345D04CD008ED10E0F80180818F77808380818068808380819B
:207980008F7D808319BC1EBA1092B40180EEE82EF12CF70180818B7F8083F8018081816052
:2079A000808380E060E042E0A9DFE1EEF0E080818E7F8083E2EEF0E0808181608083808144
:2079C00088608083F70180818E7F8083F8018081806180831F910F91FF90EF900895E7ED06
:2079E000F0E08081816080838AE482BF81E08093B501B6CFE8EDF0E080818E7F808310921C
:207A0000E20008951092DA001092E10008951F920F920FB60F9211242F933F934F935F93F6
:207A20006F937F938F939F93AF93BF93EF93FF938091DA0080FF1BC08091D80080FF17C0B2
:207A40008091DA008E7F8093DA008091D90080FF0BC080E189BD82E189BD09B400FEFDCF36
:207A600081E08EBB3BD203C019BC1EBA37D28091E10080FF17C08091E20080FF13C0809138
:207A8000E2008E7F8093E2008091E20080618093E2008091D80080628093D80019BC85E049
:207AA0008EBB1CD28091E10084FF2CC08091E20084FF28C080E189BD82E189BD09B400FEC5
:207AC000FDCF8091D8008F7D8093D8008091E1008F7E8093E1008091E2008F7E8093E20012
:207AE0008091E20081608093E2008091B401882331F48091E30087FD02C081E001C084E067
:207B00008EBBECD18091E10083FF21C08091E20083FF1DC08091E100877F8093E10082E06A
:207B20008EBB1092B4018091E1008E7F8093E1008091E2008E7F8093E2008091E2008061E9
:207B40008093E20080E060E042E0D8DEC7D1FF91EF91BF91AF919F918F917F916F915F9130
:207B60004F913F912F910F900FBE0F901F9018959C014091BC015091BD014617570718F49D
:207B8000F90190E044C06115710511F0AB01F8CF8091E8008E778093E80040E050E0F0CF0F
:207BA0008EB3882309F444C0853009F443C08091E80083FF02C081E008958091E80082FD70
:207BC00031C08091E80080FF22C08091F3009091F200782F60E0292F30E0262B372B07C07A
:207BE00081918093F100415050402F5F3F4F4115510519F02830310598F390E02830310566
:207C000009F491E08091E8008E778093E8004115510531F6992321F605C08EB3882341F075
:207C2000853041F08091E80082FFF7CF80E0089582E0089583E008959C016115710529F47C
:207C40008091E8008B778093E800F90126C08EB3882391F1853091F18091E80083FF02C06C
:207C600081E008958091E80082FFF1CF06C08091F10081936150704059F02091F300809191
:207C8000F200322F20E090E0822B932B892B79F78091E8008B778093E80061157105B9F601
:207CA00005C08EB3882341F0853041F08091E80080FFF7CF80E0089582E0089583E00895C2
:207CC0000F931F93DF93CF9300D0CDB7DEB7E6EBF1E08091F100819381E0EE3BF807C9F792
:207CE00024DD8091E80083FFE4C08091B6019091B701953009F46DC0963040F4913081F1A7
:207D0000913070F0933009F0D4C02AC0983009F4A3C0993009F4B2C0963009F0CAC07CC023
:207D2000803809F4C6C0823809F0C3C08091BA0187708093E9008091EB001092E9002091DB
:207D4000E800277F2093E80090E025E0969587952A95E1F781708093F1001092F10087C0D8
:207D6000882319F0823009F0A4C08F71823009F0A0C08091B801882331F52091BA01277097
:207D800009F497C02093E9008091EB0080FF1BC0933021F48091EB00806213C08091EB0018
:207DA00080618093EB0081E090E002C0880F991F2A95E2F78093EA001092EA008091EB00E5
:207DC00088608093EB001092E9008091E800877F51C0882309F06DC01091B8011F770FB79B
:207DE000F8948091E800877F8093E8009ADD8091E80080FFFCCF8091E3008078812B809398
:207E0000E30080688093E300112311F482E001C083E08EBB0FBF4DC08058823008F049C033
:207E20008091B8019091B9016091BA01AE014F5F5F4F36DDBC01009709F43BC08091E8008E
:207E4000877F8093E80089819A8192DE8091E8008B778093E8002DC0803859F58091E800AA
:207E6000877F8093E8008091B4018093F1008091E8008E778093E80054DD1BC08823C9F4CA
:207E80009091B8019230A8F48091E800877F8093E8009093B40145DD8091B401882331F420
:207EA0008091E30087FD02C081E001C084E08EBB6CDC8091E80083FF0AC08091EB0080624E
:207EC0008093EB008091E800877F8093E8000F900F90CF91DF911F910F91089508951F9360
:207EE0008EB3882361F01091E9001092E9008091E80083FF01C0E4DE17701093E9001F916F
:207F00000895F999FECF92BD81BDF89A992780B50895262FF999FECF1FBA92BD81BD20BDBD
:207F20000FB6F894FA9AF99A0FBE01960895F894FFCF4341544552494E4100777700080031
:207F40000000000000080112011001020000084123360001000201000109023E00020100FF
:207F600080320904000001020201000524001001042402040524060001070582030800FF0C
:207F800009040100020A000000070504021000010705830210000104030904220341007216
:207FA000006400750069006E006F0020004C0065006F006E006100720064006F0000001836
:1A7FC00003410072006400750069006E006F0020004C004C004300000000D7
:00000001FF
