:100000000C94D10B0C94F90B0C94F90B0C94F90B88
:100010000C94F90B0C94F90B0C94F90B0C94F90B50
:100020000C94F90B0C94F90B0C946E150C94E015D0
:100030000C94F90B0C94F90B0C94F90B0C94F90B30
:100040000C94F90B0C94F90B0C94F90B0C94F90B20
:100050000C94F90B0C94F90B0C94F90B0C94CD0C3B
:100060000C94F90B0C94F90B0C94F90B0C94F90B00
:100070000C94F90B0C94F90B0C94F90B0C94F90BF0
:100080000C94C50D0C94F90B0C94F90B0C94F90B12
:100090000C94F90B0C94F90B0C94F90B0C94F90BD0
:1000A0000C94F90B0C94F90B0C94F90BF0F89C8E52
:1000B0008783878E9CF8F00000FEFF030303030391
:1000C000070EFCF80000FEFF0303030303070EFC0A
:1000D000F80000FFFF00000000000000FFFF00002C
:1000E000FEFF8383838383C7EE7C380000F8FC0E19
:1000F00007030303070EFCF800003F7FE0C0808089
:10010000C0E07F3FFFFF01010101010101FFFF008E
:1001100000FFFF0C0C0C0C1C3E77E3C100007FFFBE
:10012000C0C0C0C0C0E0703F1F00001F3F70E0C0F3
:10013000C0C0E0703F1F00007FFFC1C1C1C1C1E36B
:10014000773E1C00001F3F70E0C0C0C0E0703F1F42
:10015000000000000001FFFF01000000D5F08D1439
:10016000A1C881CFD9F1AF20002A20504155534575
:10017000202A004849474853434F52453A005343C9
:100180004F52453A002A2047414D45204F5645528F
:10019000202A0053484950533A0053434F52453A9E
:1001A00000110F80F0F8F0F0E0F0FEFFFEF0E0F05C
:1001B000F0F8F08000091F0B0703070F1F0F07035C
:1001C000070B1F090080F0F8F0F0E0F0FEFFFEF0F2
:1001D000E0F0F0F8F08000091F0B0703030B3B0B66
:1001E0000303070B1F0900110F00807040A000607F
:1001F000D0E6F06000A0407080000000090103001C
:10020000010409040100030109000000807040A0FE
:100210000060D0E6F06000A0407080000000110196
:100220000300010831080100030111000040E0E073
:10023000F0E4EEFEFFFEEEE4F0E0E040FAFFFFFF48
:10024000FFFF7FFF7FFFFFFFFFFFFAC1FFFFFFFE02
:10025000FEFFFFFFFEFEFFFFFFC10307070F1F1F8B
:100260003F3F3F1F1F0F0707030F1E004000E00026
:100270004400FE004400E000400000FA00FF00528D
:10028000007F005200FF00FA0000C178EE84D46EB7
:100290003F6ED484EE78C100000303060B0D1D1DD4
:1002A0001D0D0B0603030070F8FCFEFFFFFFFEFEB2
:1002B000FFFFFFFEFCF87000000103070F1F3F3F28
:1002C0001F0F0703010000100E00708874DAAA4A9D
:1002D00094140A0A8A748870000000000102050B59
:1002E00016150A05020100000000000000000000D1
:1002F00000000000000000000000000000000000FE
:1003000000000000000000000000000000000000ED
:1003100000000000000000000000000000000000DD
:1003200000000000000000000000000000000000CD
:1003300000000000000000000000000000000000BD
:1003400000000000000000000000000000000000AD
:10035000000000000000000000000000000000009D
:10036000000000000000000000000000000000008D
:10037000000000000000000000000000001010104D
:1003800050505050505050505050505050505000BD
:1003900000F8F8F8F808D000000000C0E0F0F0F82D
:1003A00078787878F8F0F0E0C00838F8F8F8F8C015
:1003B000C0F8F8F8F8380840E0F0F8F8787878F8FD
:1003C00078000050505050505050505050505050A5
:1003D000505010101000000000000000000000004D
:1003E000000000000000000000000000000000000D
:1003F00000000000000000000000000000000000FD
:10040000000001050515155555555555555555000F
:1004100000FFFFFFFFC0DFE040803FFFFFFFE1C2C2
:1004200081818181C2E1FFFFFF3F0000873FFFFF25
:10043000FFFF1F070000FC00FFFFFFFF9E9E9EBE08
:100440009E00005555555555555555151505050131
:10045000000000000000000000000000000000009C
:10046000000000000000000000000000000000008C
:1004700000000000008000C00080000000000000BC
:10048000000000000000000000010101050505005A
:1004900000C0C3C3C7D7D7D7D08880000103CBD74C
:1004A000D7D7171717CBC3C1C0000000000384CFF4
:1004B000C3C0C0000000C1C4C9D3171717D7D7CF16
:1004C000C700000505050101010000000000000053
:1004D00000000000000000008000C000800000005C
:1004E000000000000000000000FC7880C0C0C08058
:1004F000004800FC004800FF004800FC00480000E5
:10050000003844BA6DD5A54A8A058545BA443800F5
:1005100000FFFFFFFF03E3E3FFFF7F3E0000FFFF5D
:10052000FFFF000000FFFFFFFF0000003EFFFFFF96
:10053000FFE3C3000000FFFFFFFFF0F000FFFFFF3D
:10054000FF00003844BA6DD5A54A8A058545BA44EE
:10055000380000004800FC004800FF004800FC0094
:10056000480080C0C0C08078FCFFFEFFFFFFDFEFC7
:10057000C03F00DF808AC0EFC08A80DF003F0000FC
:10058000000000000102050B0A0502010000000046
:10059000003FBFBFBF80630F3FBFBFBCA080471FEE
:1005A0001F3FBCBCBCBF9F4F0700003EBCBCBFBFD1
:1005B0009F4F070000003FBFBFBF8040003FBFBF4D
:1005C000BF80400000000102050B0A050201000087
:1005D000000000003F00DF808AC0EFC08A80DF009B
:1005E0003FC0EFDFFFFFFFFEFFFFFFFFFFFFAB544A
:1005F00082786FDDF0BA2D272DBAF0DD6F7800001C
:1006000000000000000000000000000000000000EA
:10061000000000000000000000C040408000C080DA
:10062000400080404080008040400080404000000A
:1006300000E01090509010E000000000000000006A
:1006400000000000000000000000000000000000AA
:1006500000000000786FDDF0BA2D272DBAF0DD6FB5
:100660007807AFFFFFFFFFFFFFFFFFFFFFFFFFFF69
:10067000FEFDFAF4E9F5EBF3FBFDFDCEE0F0F8F852
:10068000F8F8F0E0C00000000000000000000000EA
:100690000000000000000000000F00020100030045
:1006A0000000010203020002030300020303000032
:1006B0000007080B090B08070000000000000000FD
:1006C00000000000000000000000000000C0E0F09A
:1006D000F8F8F8F8F0E0CEFDFDF3EBF3E9F5EAF514
:1006E000FAFDFEFFFFFFFFFFFF423A43414E434545
:1006F0004C00444F574E3A44454C2E000000000039
:1007000000000000000000000000000000000000E9
:1007100000000000000000000000000000000000D9
:1007200000000000000000000000000000000000C9
:1007300000000000000000000000000000000000B9
:1007400000000000000000000000000000000000A9
:100750000000000000000000000000000000000099
:100760000000000000000000000000000000000089
:100770000000000000000000000000000000000079
:100780000000000000000000000000000000000069
:100790000000000000000000000000000000000059
:1007A00000000000000000000000008080808080C9
:1007B00080000000008080808080808080000000B9
:1007C0000000000000000000000000000000000029
:1007D0000000000000000000000000000000000019
:1007E0000000000000000000000000000000000009
:1007F00000000000000000000000000000000000F9
:1008000000000000000000000000000000000000E8
:1008100000000000000000000000000000000000D8
:100820000000000000000000020A2AA8A38F3FFF7A
:10083000FFFEF08000FFFFFFFFFFFFFF070000004B
:1008400000000080808080C0C000800000000000A8
:100850000000000000000000000000000000000098
:100860000000000000000000000000000000000088
:100870000000000000000000000000000000000078
:100880000000000000000000000000000000000068
:100890000000000000000000000000000000000058
:1008A000000000000000000000000000020A0A280A
:1008B000A3871F7FFCFFFFFFFFFF7F01F0F8FCFE17
:1008C00006A30B07073F0F230802000000000000EB
:1008D0000000000000000000000000000000000018
:1008E0000000000000000000000000000000000008
:1008F00000000000000000000000000000000000F8
:1009000000000000000000000000000000000000E7
:1009100000000000000000000000000000000000D7
:1009200000000000000000000000000000000000C7
:1009300000020A28A1871F7FFF1F0080F1F3F363E5
:100940006322B21E2028000000000000000000000A
:100950000000000000000000000000000000000097
:100960000000000000000000000000000000000087
:100970000000000000000000000000000000000077
:100980000000000000000000000000000000000067
:100990000000000000000000000000000000000057
:1009A000000000000000000000000000000000083F
:1009B0000808C808884A8A48480888498908CA48EF
:1009C0000948C848080808000000000000000000AE
:1009D0000000000000000000000000000000000017
:1009E0000000000000000000000000000000000007
:1009F00000000000000000000000000000000000F7
:100A000000000000000000000000000000000000E6
:100A100000000000000000000000000000000000D6
:100A200000000000000000000000000000000000C6
:100A300000000003000002030300010201000301A3
:100A400000000300000000000000000000000000A3
:100A50000000000000000000000000000000000096
:100A60000000000000000000000000000000000086
:100A70000000000000000000000000000000000076
:100A80000000000000000000000000000000000066
:100A90000000000000000000000000000000000056
:100AA0000000000000000000000000000000000046
:100AB0000000000000000000000000000000000036
:100AC0000000000000000000000000000000000026
:100AD0000000000000000000000000000000000016
:100AE0000000000000000000000000000000000006
:100AF00000000000000000000000000000000000F6
:100B00000080E7FFFFFFFFFFFFFFFFFFFFFFFFFF8B
:100B1000FFFFFFFFFF0080C0E0F7FFFFFFFFFFFFC9
:100B2000FFFFFFFFFFFFFFFFFFFFFFFFFFFF0007CC
:100B30000F1F3F7FFFFFFFFFFFFFFFFFFFFFFFFFD5
:100B4000FFFFFFFFFFFFFF0000F0FCFEFFFFFFFFC6
:100B5000FFFFFFFFFFFFFFFFFFFFFFFFFFFFFFFFA5
:100B600000001F7FFFFFFFFFFFFFFFFFFFFFFFFFF3
:100B7000FFFFFFFFFFFFFFFFFF000000E0F1FBFFB3
:100B8000FFFFFFFFFFFFFFFFFFFFFFFFFFFFFFFF75
:100B9000FFFF0000000001E3F7FFFFFFFFFFFFFF83
:100BA000FFFFFFFFFFFFFFFFFFFFFF000000000050
:100BB0000187DFFFFFFFFFFFFFFFFFFFFFFFFFFFDB
:100BC000FFFFFFFF194000000000000080E7FBFD71
:100BD000FDFEFEFFFFFFFFFFFFFFFFFFFFFFFF0028
:100BE0000080C0E0F7FBFBFFFFFFFFFFFFFFFFFF01
:100BF000FFFFFFFFFFFFFFFF0000070F1F3F7FBF4B
:100C0000BFFFFFFFFFFFFFFFFFFFFFFFFFFFFFFF34
:100C1000FF000000F0FCFEFFFFFFFFFFFFFFFFFFF4
:100C2000FFFFFFFFFFFFFFFFFFFF0000001F7FFF31
:100C3000FFFFFFFFFFFFFFFFFFFFFFFFFFFFFFFFC4
:100C4000FFFFFF00000000E0F1FBF7F7EFFFFFFF01
:100C5000FFFFFFFFFFFFFFFFFFFFFFFF00000000A0
:100C60000001E3F3FDFFFFFFFFFFFFFFFFFFFFFFBB
:100C7000FFFFFFFFFF0000000000000187DFBFBF94
:100C80007F7FFFFFFFFFFFFFFFFFFFFFFFFFFFFF74
:100C9000FFFFFFFFFFFFFFFFFFFFFFFFFFFFFFFB68
:100CA000E1800000000000FFFFFFFFFFFFFFFFFFEC
:100CB000FFFFFFFFFFFFFFFFFFEFC7800000000007
:100CC000FFFFFFFFFFFFFFFFFFFFFFFFFFFFFFFF34
:100CD000FFFFFFDF8F07000000FFFFFFFFFFFFFFA9
:100CE000FFFFFFFFFFFFFFFFFFFFFFFFFFFFFEF81C
:100CF0000000FFFFFFFFFFFFFFFFFFFFFFFFFFFF02
:100D0000FFFFFFFFFFFF7F3F0F0000FFFFFFFFFF21
:100D1000FFFFFFFFFFFFFFFFFFFFFFFFFFFFFEFCE7
:100D2000F8F0E000FFFFFFFFFFFFFFFFFFFFFFFF07
:100D3000FFFFFFFFFFFFFFFFEF07030100FFFFFFC4
:100D4000FFFFFFFFFFFFFFFFFFFFFFFFFFFFFFE7CB
:100D50000100000000001940FFFFFFFFFFFFFFFF41
:100D6000FFFFFFFFFEFEFDFDFBE180000000000035
:100D700000FFFFFFFFFFFFFFFFFFFFFFFFFFFFFF82
:100D8000FFBFCFC7800000000000FFFFFFFFFFFF95
:100D9000FFFFFFFFFFFFFFFFFFF7EFEFDF8F070012
:100DA000000000FFFFFFFFFFFFFFFFFFFFFFFFFF50
:100DB000FFFFFFFFFFFFFFFEF8000000FFFFFFFF48
:100DC000FFFFFFFFFFFFFFFFFFFFFFFFFFFFFF7FB3
:100DD0003F0F000000FFFFFFFFFFFFFFFFFFFFFFD0
:100DE000FFFFFFFFFFFDFDFEFCF8F0E00000FFFF4E
:100DF000FFFFFFFFFFFFFFFFFFFFFFFFFFFFFFDF23
:100E0000DFEF0703010000FFFFFFFFFFFFFFFFFF12
:100E1000FFFFFF7F7FBFBFDFE70100000000000092
:100E20008040000000000000000000000000000002
:100E30000000000000000000000000000806050897
:100E4000F0000000000000000000000000000000B2
:100E50000000000000000000000000000000000092
:100E60000000000000000000000000000000000082
:100E70000000000000000000000000000000000072
:100E8000000000C0300F040200000000000000005D
:100E90000000000000000000000000000000000052
:100EA0000000000000000000000000000000000042
:100EB000000000000000000000000000000038C436
:100EC000030000000000000000000000020000001D
:100ED000000000000000000800000000000000000A
:100EE0000000000000000000000000000000000002
:100EF00000000000000000100000000000020020C0
:100F000000000000C32C10080000000000000000DA
:100F100000000000000000000000000000000000D1
:100F200000000000000000000000000000000000C1
:100F30000000000000000000000000002030488792
:100F40000000000000002000000000010000000080
:100F50000000000000080000000000000000000089
:100F60000000000000000000004000000100000040
:100F7000000000000001000000000400000000006C
:100F8000000000000F906040000000000000000022
:100F90000000000000000000000000000000000051
:100FA0000000000000000000000000000000000041
:100FB00000000000000000000000000404080CF223
:100FC0000100000000000000000000000000000020
:100FD0000080000000000000000000000000000091
:100FE0000000000000000000000000000000000001
:100FF00001000000000000000004000000000000EC
:1010000000000000C03926101000000000000000A1
:1010100000000000000000000000000000000000D0
:1010200000000000000000000000000000000000C0
:1010300000000000000000000000000808649C039D
:1010400000000000000000000000000000000000A0
:101050000000000000000000000000000000000090
:1010600020000000000080000000000000000000E0
:1010700000000000000080000000000000000000F0
:10108000000000804F301020200000000000000011
:101090000000000000000000000000000000000050
:1010A0000000000000000000000000000000000040
:1010B000000000000000000000000000020609F02F
:1010C000000000000000000004000000000000001C
:1010D0000000000000000000000000000000000010
:1010E00000000000000000000000080000000000F8
:1010F00000000000000000000000000000000000F0
:1011000000000000E1120C040000000000000000DC
:1011100000000000000000000000000000000000CF
:1011200000000000000000000000000000000000BF
:10113000000000000000000000000000100834C3A0
:101140000000000000000000000008000000004057
:10115000000004000000000000000000000000008B
:10116000000000000000000000000000000200007D
:10117000000000000000000000000000200000004F
:10118000000000C0231C0000000000000000000060
:10119000000000000000000000000000000000004F
:1011A000000000000000000000000000000000003F
:1011B0000000000000000000000000004020F00CD3
:1011C000030000000000000000000000001000000C
:1011D000000000000000000000000000000000000F
:1011E00000000000000000000000000002000000FD
:1011F00000000000000000000010000000000000DF
:101200000000000F10A060100000000000000000AF
:1012100000000000000000000000000000000000CE
:101220000000010204081020408000000000003E81
:101230005B4F5B3E3E6B4F6B3E1C3E7C3E1C183C46
:101240007E3C181C577D571C1C5E7F5E1C00183CA2
:101250001800FFE7C3E7FF0018241800FFE7DBE7EB
:10126000FF30483A060E2629792926407F050507D2
:10127000407F05253F5A3CE73C5A7F3E1C1C08082E
:101280001C1C3E7F14227F22145F5F005F5F0609F3
:101290007F017F006689956A606060606094A2FF4C
:1012A000A29408047E040810207E201008082A1C3E
:1012B00008081C2A08081E101010100C1E0C1E0C0A
:1012C00030383E3830060E3E0E06000000000000AA
:1012D000005F00000007000700147F147F14242A19
:1012E0007F2A1223130864623649562050000807EB
:1012F0000300001C2241000041221C002A1C7F1C0C
:101300002A08083E0808008070300008080808080D
:10131000000060600020100804023E5149453E0074
:10132000427F400072494949462141494D331814D2
:10133000127F1027454545393C4A49493141211121
:1013400009073649494936464949291E0000140013
:101350000000403400000008142241141414141436
:10136000004122140802015909063E415D594E7C94
:101370001211127C7F494949363E414141227F4149
:1013800041413E7F494949417F090909013E4141A7
:1013900051737F0808087F00417F41002040413F92
:1013A000017F081422417F404040407F021C027FA1
:1013B0007F0408107F3E4141413E7F090909063EF6
:1013C0004151215E7F0919294626494949320301C5
:1013D0007F01033F4040403F1F2040201F3F4038D7
:1013E000403F631408146303047804036159494DB2
:1013F00043007F4141410204081020004141417FE8
:10140000040201020440404040400003070800205D
:10141000545478407F28444438384444442838445D
:1014200044287F385454541800087E090218A4A494
:101430009C787F0804047800447D40002040403DB3
:10144000007F1028440000417F40007C047804782D
:101450007C080404783844444438FC1824241818C0
:10146000242418FC7C08040408485454542404041C
:101470003F44243C4040207C1C2040201C3C403009
:10148000403C44281028444C9090907C4464544C38
:101490004400083641000000770000004136080093
:1014A00002010204023C2623263C1EA1A161123A3D
:1014B0004040207A3854545559215555794121548A
:1014C000547841215554784020545579400C1E528F
:1014D0007212395555555939545454593955545433
:1014E000580000457C410002457D420001457C409A
:1014F000F0292429F0F0282528F07C5455450020B7
:1015000054547C547C0A097F493249494932324853
:10151000484832324A4848303A4141217A3A4240BA
:101520002078009DA0A07D39444444393D4040408E
:101530003D3C24FF2424487E4943662B2FFC2F2B5F
:10154000FF0929F620C0887E090320545479410000
:1015500000447D413048484A32384040227A007A7F
:101560000A0A727D0D19317D2629292F282629295D
:10157000292630484D40203808080808080808087F
:10158000382F10C8ACBA2F102834FA00007B0000A6
:1015900008142A142222142A14089500220095AA5D
:1015A000005500AAAA55AA55AA000000FF00101075
:1015B00010FF00141414FF001010FF00FF1010F0B3
:1015C00010F0141414FC001414F700FF0000FF00C6
:1015D000FF1414F404FC141417101F10101F101F14
:1015E0001414141F00101010F0000000001F101041
:1015F00010101F10101010F010000000FF1010103D
:10160000101010101010FF10000000FF140000FF59
:1016100000FF00001F10170000FC04F41414171042
:10162000171414F404F40000FF00F7141414141435
:101630001414F700F7141414171410101F101F14AB
:101640001414F4141010F010F000001F101F00000C
:10165000001F14000000FC140000F010F01010FF38
:1016600010FF141414FF141010101F00000000F0DD
:1016700010FFFFFFFFFFF0F0F0F0F0FFFFFF0000B2
:10168000000000FFFF0F0F0F0F0F38444438447C59
:101690002A2A3E147E02020606027E027E0263555C
:1016A0004941633844443C04407E201E2006027EAB
:1016B000020299A5E7A5991C2A492A1C4C720172BD
:1016C0004C304A4D4D303048784830BC625A463D27
:1016D0003E494949007E0101017E2A2A2A2A2A44DC
:1016E000445F444440514A444040444A5140000011
:1016F000FF0103E080FF000008086B6B083612361C
:101700002436060F090F06000018180000001010FC
:10171000003040FF0101001F01011E00191D1712BA
:10172000003C3C3C3C0000000000080B00020202B0
:10173000010009040000010202000005240010015C
:101740000524010101042402060524060001070501
:10175000810310004009040100020A00000007058F
:101760000202400000070583024000000403090450
:1017700012010002EF020140412336800001010204
:10178000030141726475696E6F204C4C43004172D5
:101790006475696E6F204C656F6E6172646F0000D6
:1017A0003E1F11241FBECFEFDAE0DEBFCDBF11E038
:1017B000A0E0B1E0EAE8F1E402C005900D92A634A1
:1017C000B107D9F725E0A6E4B1E001C01D92A83F1A
:1017D000B207E1F71BE0C1EDDBE004C02197FE0199
:1017E0000E94B820C03DD107C9F70E9410180C9480
:1017F000C3200C940000CF92DF92EF92FF920F93E0
:101800001F93CF93DF936C017A018B01C0E0D0E08E
:10181000CE15DF0589F0D8016D918D01D601ED91CE
:10182000FC910190F081E02DC6010995892B11F4FE
:101830007E0102C02196ECCFC701DF91CF911F91AD
:101840000F91FF90EF90DF90CF9008953FB7F894FD
:1018500080915D0190915E01A0915F01B091600166
:1018600026B5A89B05C02F3F19F00196A11DB11DFB
:101870003FBFBA2FA92F982F8827820F911DA11D36
:10188000B11DBC01CD0142E0660F771F881F991F73
:101890004A95D1F7089580916901E0916701F0912F
:1018A0006801882349F0CF010296909368018093E4
:1018B0006701859194910895CF01029690936801F4
:1018C00080936701808191810895809146010895F8
:1018D0000895089580E090E008950E94BE20CF937F
:1018E000DF9300D000D0CDB7DEB76115710581055B
:1018F000910579F09B01AC0169833A834B835C834A
:101900000E94312029813A814B815C810E945520BF
:1019100003C060E070E0CB010F900F900F900F902C
:10192000DF91CF9108958F929F92AF92BF92CF9205
:10193000DF92EF92FF926B017C010E94260C4B011B
:101940005C01C114D104E104F104F1F00E94260C01
:10195000DC01CB0188199909AA09BB09883E93408B
:10196000A105B10570F321E0C21AD108E108F10820
:1019700088EE880E83E0981EA11CB11CC114D1040E
:10198000E104F10419F7DDCFFF90EF90DF90CF90E5
:10199000BF90AF909F908F9008951F920F920FB6B7
:1019A0000F9211242F933F938F939F93AF93BF93E5
:1019B0008091470190914801A0914901B0914A015D
:1019C00030915C0123E0230F2D3720F40196A11DF7
:1019D000B11D05C026E8230F0296A11DB11D20935D
:1019E0005C018093470190934801A0934901B09313
:1019F0004A0180915D0190915E01A0915F01B091DB
:101A000060010196A11DB11D80935D0190935E015F
:101A1000A0935F01B0936001BF91AF919F918F91AF
:101A20003F912F910F900FBE0F901F901895CF925E
:101A3000DF92EF92FF920F931F93CF93DF930E9459
:101A40004B0C811520E8920761F4809171008D7F25
:101A5000809371001092910046984798109255011A
:101A60008BC021E020935501813020E8920751F48A
:101A70008091650190916601909368018093670160
:101A80000E944B0C97FD05C020915401222309F4BC
:101A90003FC02091530121113BC021E0209356010A
:101AA000EC01DF77209769F481E080935701469835
:101AB0003FE9C32E3FE0D32EE12CF12CCAEFD0E05A
:101AC00014C08E0120E030E060E472E48FE090E02A
:101AD000A90198010E94552069017A0181E0C81A84
:101AE000D108E108F10810925701E0916C05F091DE
:101AF0006D050995811103C081E0809357018091A4
:101B000056018823B9F180915701811133C003C078
:101B100010925601C5CF46992DC0479A0E944B0C92
:101B2000009771F09C01DE010E94A920DC01CB012D
:101B300029E0B595A795979587952A95D1F703C084
:101B40008FEF9FEFDC01109290002AE0209391002C
:101B5000D0929900C09298008093580190935901B7
:101B6000A0935A01B0935B018091710082608093D1
:101B7000710002C04798D2CFDF91CF911F910F9192
:101B8000FF90EF90DF90CF9008951F920F920FB6C5
:101B90000F9211242F933F934F935F936F937F93F3
:101BA0008F939F93AF93BF93EF93FF9380915801CF
:101BB00090915901A0915A01B0915B01892B8A2B18
:101BC0008B2B81F18091570181110BC098B180E47A
:101BD000892788B980915601882319F088B18058E7
:101BE00088B98091580190915901A0915A01B09102
:101BF0005B01181619061A061B06B4F480915801E9
:101C000090915901A0915A01B0915B010197A109EE
:101C1000B1098093580190935901A0935A01B09350
:101C20005B0102C00E94170DFF91EF91BF91AF9130
:101C30009F918F917F916F915F914F913F912F91E4
:101C40000F900FBE0F901F9018954F925F926F925A
:101C50007F928F929F92AF92BF92CF92DF92EF923C
:101C6000FF920F931F93CF93DF9300D000D0CDB797
:101C7000DEB7DC015B014115510509F4F3C0FA013F
:101C80008490319694914E5F5F4FC82CD12C0111F6
:101C900002C0EE2039F1692F669566956695E62FAC
:101CA000F0E061E070E0892F877011F460E070E08F
:101CB0006E0F7F1FC69EF001C79EF00DD69EF00DE1
:101CC00011242115310539F0EE9EB001EF9E700D03
:101CD0001124260F371F0E9FB0010F9F700D112486
:101CE000460F571FFD01EC0DFD1D1E161F060CF0C3
:101CF000B9C0A038B1050CF0B5C0B501690F711DB0
:101D0000161617060CF0AEC060E4A616B1040CF06F
:101D1000A9C04115510509F4A5C07A2D7770572E39
:101D20008501B7FE02C0095F1F4F83E01595079537
:101D30008A95E1F7802FB7FE04C0552011F08FEF90
:101D4000800FB7FF05C0002711270A1B1B0B02C01D
:101D500000E010E0E038F10524F060E86A1B462E50
:101D600001C0482C401AE82E082E000CFF088F3FB7
:101D70001CF4FE2DF09501C0F0E0E1E0692F6770E2
:101D800009F4E0E09695969596959E0FE90EF11C64
:101D900079E0E716F10414F098E0981B9F2E980E56
:101DA000692D70E86703A00DB11D1124A00FB11FAC
:101DB0007801F89DE00CF11C11244E0D5F1D01E02F
:101DC00010E0052C02C0000F111F0A94E2F72E0D3F
:101DD0003F1D882E890E981409F444C0CD01865900
:101DE0009E4F5C01E12CF12CE414A0F5F901EE0DFD
:101DF000FF1DE491E09FC001E19F900D11248095AB
:101E000090959C838B83FA01EE0DFF1DE491E09F7A
:101E10003001E19F700C11247A82698297FC05C021
:101E2000F50190818923682A6082552061F0F6E0EF
:101E3000F9154CF0F501E058FF4F90818C81892312
:101E40009A81892B80836FEFE61AF60A7FEFA71A33
:101E5000B70ACACF93944C0D5D1D2C0D3D1DA058A3
:101E6000BF4FB9CF0F900F900F900F90DF91CF9190
:101E70001F910F91FF90EF90DF90CF90BF90AF90A8
:101E80009F908F907F906F905F904F9008952D9AC4
:101E90000895BC0180E090E00C94930C8FB1809584
:101EA000807F669B88601C9B846008956038710504
:101EB000D0F440345105B8F4E2E2F2E180E1849FCD
:101EC000D001A0781124A60F4770E40FF11D849172
:101ED000A659BE4F222319F06C91862B03C0809522
:101EE0006C9186238C9308952F923F924F925F922C
:101EF0006F927F928F929F92AF92BF92CF92DF921A
:101F0000EF92FF920F931F93CF93DF93CDB7DEB77E
:101F100029970FB6F894DEBF0FBECDBFFC016A3023
:101F200069F425898189928938E0239F800D911D6C
:101F30001124928B818B108A1786AAC06D3009F408
:101F4000A7C099878887F588348823886188728834
:101F50000785108900381105C4F0A885B985559604
:101F60002C915597422F50E01F968D919C91509740
:101F7000B6E02B9F800D911D1124E885F985908B8B
:101F80008787268921116EC083C0F0E46F16710423
:101F900024F7C80125E0F29E800D911D112418162A
:101FA0001906DCF68F2D90E09C838B83C301A8E09B
:101FB000FA9E800D911D11241816190674F6B5E0CD
:101FC0006B9FB0011124FB01E65DFD4EFA83E983AE
:101FD00030E08885998504969E838D83E981FA8116
:101FE000E490353009F4E12C430188E0482EE0FC10
:101FF00002C0532C01C0522C51100BC0321009C02A
:10200000E6944A948B819C81880E991E4110EFCFF3
:102010001BC068018C2D801B8F1590F754018A2DF1
:1020200088198F1568F4252DA501B6018D819E8133
:102030003F830E94560F9FEFA91AB90A3F81EFCF45
:10204000AFEFCA1ADA0AE6CF3F5FEB81FC810E0FD1
:102050001F1F89819A8101969A838983363009F0FE
:10206000BDCF7BCF6AEF64039001659F300D1124D3
:1020700020583F4F281739075CF4A885B985ED91A2
:10208000FC9111970190F081E02D6AE0CD01099556
:1020900081E090E029960FB6F894DEBF0FBECDBF69
:1020A000DF91CF911F910F91FF90EF90DF90CF9034
:1020B000BF90AF909F908F907F906F905F904F9068
:1020C0003F902F9008956F927F928F929F92AF9240
:1020D000BF92CF92DF92EF920F931F93CF93DF9334
:1020E00010915201C12F012E000CDD0B00E420E8FD
:1020F00040E25EE0BE018DEF9FEF0E946711BE01DE
:102100006054710920E840E25EE08DEF9FEF0E948D
:102110006711D09151016D2E0D2E000C7708809023
:102120005001082C000C9908E12C00E02EE83CE05E
:1021300046E55DE0B301C4010E94250EC091070190
:10214000AC2E0C2E000CBB08C09006010C2C000C11
:10215000DD082CEF3AE044EC5BE0B501C6010E94DB
:10216000250EB301605471092EE83CE046E55DE0C0
:10217000C4010E94250EB501605471092CEF3AE0AC
:1021800044EC5BE0C6010E94250EB301605C7F4F0A
:102190002EE83CE046E55DE0C4010E94250EB50155
:1021A000605C7F4F2CEF3AE044EC5BE0C6010E949C
:1021B000250E1F5F11341CF41093520102C01092BF
:1021C0005201DE5FD0935101CE5FC0930701D1343D
:1021D00014F010925101C13414F010920701DF91F4
:1021E000CF911F910F91EF90DF90CF90BF90AF9064
:1021F0009F908F907F906F900895EF92FF920F9332
:102200001F93CF93DF931F92CDB7DEB77C01FC0104
:1022100000811181C80169830E943F20698168178C
:1022200019F0C8010E944720C7010F90DF91CF919C
:102230001F910F91FF90EF900895CF93DF931F921E
:10224000CDB7DEB76983DC01ED91FC910280F381AB
:10225000E02D41E050E0BE016F5F7F4F09950F9088
:10226000DF91CF9108950F931F93CF93DF9300D009
:10227000CDB7DEB70AE615E0F801608180E190E0B5
:102280009A838983CE0101960E94FD10F801618135
:1022900081E190E09A838983CE0101960E94FD102E
:1022A000C8010F900F90DF91CF911F910F9108956A
:1022B000EAE6F1E0A0E0B8E000800EBC8111012C5C
:1022C0001197A0FDFDCF0192B9F70DB408952F929B
:1022D0003F924F925F926F927F928F929F92AF92B6
:1022E000BF92CF92DF92EF92FF920F931F93CF9303
:1022F000DF93CDB7DEB728970FB6F894DEBF0FBED9
:10230000CDBF5A01822E912C9C01280D391D37FD1D
:10231000C4C0803891050CF0C0C09B01200F311D56
:1023200037FDBBC0603471050CF0B7C0AB0177FF5F
:1023300004C044275527461B570B477055279B0160
:1023400077FF02C0295F3F4FE3E035952795EA9577
:10235000E1F777FF08C02150310968E070E0DB0148
:10236000A41BB50BAD01602F66956695669570E070
:10237000077011F06F5F7F4FDB01A20FB31FBA83AD
:10238000A98339017694762C662477946794680E35
:10239000791EE12CF12C00E010E02301B0E84B0E97
:1023A000511C68E070E0DB01A41BB50BBC83AB8360
:1023B00069817A812617370709F46FC02830310503
:1023C00009F46BC02F3FBFEF3B070CF45BC0B201B9
:1023D000600F711FDB01A659BE4FBE83AD83D801CC
:1023E000A60DB71DA659BE4F6C0160E070E06815E0
:1023F00079050CF047C0E0E8CE16D10409F442C0DC
:10240000D7FC34C02F3FFFEF3F0709F442C0FB0168
:10241000EE0DFF1DEA0DFB1DE491042E01C0EE0F31
:102420000A94EAF73C90E329EC9341155105F1F049
:1024300027303105D9F0FB01EE0DFF1DEA0DFB1D24
:10244000E4912E2E312CF1010B8002C0F595E79519
:102450000A94E2F7F887EF83ED81FE813080EF8107
:10246000F885E3291F01ED81FE8120826F5F7F4F98
:10247000ED81FE813196FE83ED83FFEFCF1ADF0AF7
:102480001196B5CF2F5F3F4F00581F4FE80CF91C36
:102490008FCF4115510579F6E9CF28960FB6F894FC
:1024A000DEBF0FBECDBFDF91CF911F910F91FF9087
:1024B000EF90DF90CF90BF90AF909F908F907F90E4
:1024C0006F905F904F903F902F90089580E0EAE6E4
:1024D000F1E081118FEF00248193819381938193A7
:1024E0000394D1F7E1E7F5E0128A118A108A178682
:1024F000089520917B05282329F490917A0598234B
:1025000081E009F480E008950F931F93CF93DF9348
:102510008C01C0E0D0E0F801EC0FFD1F6491662350
:1025200071F0E0917105F09172050190F081E02D5C
:1025300081E795E00995892B11F02196ECCFCE012A
:10254000DF91CF911F910F9108958F929F92AF923B
:10255000BF920F931F93CF93DF93CDB7DEB7A197B1
:102560000FB6F894DEBF0FBECDBF19A2423008F4FB
:102570004AE08E010F5D1F4F842E912CA12CB12CAF
:10258000A50194010E948720E62FB901CA010150DC
:102590001109EA3014F4E05D01C0E95CD801EC9364
:1025A000232B242B252B61F70115110571F0F80160
:1025B00001900020E9F73197AF01401B510BB801A2
:1025C00081E795E00E94FB0B02C080E090E0A196BD
:1025D0000FB6F894DEBF0FBECDBFDF91CF911F9134
:1025E0000F91BF90AF909F908F900895CF92DF9200
:1025F000EF92FF92CF93DF936C01990FEE08FF08E3
:10260000F7FE1FC0E0917105F09172050190F08115
:10261000E02D6DE281E795E00995EC0166277727CB
:10262000CB016C197D098E099F094AE00E94A51211
:102630008C0F9D1FDF91CF91FF90EF90DF90CF9097
:1026400008954AE0C701B601DF91CF91FF90EF9066
:10265000DF90CF900C94A5120F931F93DC01E1E75C
:10266000F0E090819D7F908310926901E4EEF5E0A7
:10267000F0936801E0936701F0936601E0936501D0
:1026800086E091E091838083B383A2837583648322
:102690005783468331872087138702871F910F91C5
:1026A0000C94170DEF92FF920F931F93CF93DF932C
:1026B000CDB7DEB72C970FB6F894DEBF0FBECDBFF7
:1026C00049835A836B837C839E83EF82F8860987D4
:1026D0001A872B873C87E981FA816B817C814F8146
:1026E000588529853A85DF01A80FB11D4A175B0778
:1026F000A4F48B85480F511DE417F50774F48E81FF
:10270000AB01480F511D241735073CF48C85280F69
:10271000311D81E0621773070CF080E02C960FB634
:10272000F894DEBF0FBECDBFDF91CF911F910F9107
:10273000FF90EF900895FC0180916401811103C026
:102740008FEF9FEF08959FB7F89482E08093E900A0
:102750002091F20030E01216130614F421E030E06C
:102760002115310559F0289884E680936301809102
:10277000F10080838091F200882319F09FBFC90186
:1027800008958BE68093E800F9CF2FB7F89483E0A3
:102790008093E9009091E800892F807295FF04C032
:1027A0009091F20080E4891B2FBF08958F929F9231
:1027B000AF92BF92CF92DF92EF92FF920F931F934F
:1027C000CF93DF935C016B017A0180910F01882325
:1027D00009F45BC080916401882309F456C080919C
:1027E000620180FF05C08091E00082608093E0007C
:1027F000E70110E00AEF83E0882E9AE3992E2097F4
:10280000D9F10E94C51381110AC0015009F43DC0DD
:1028100061E070E080E090E00E94930CF0CF282F00
:1028200030E0C217D3070CF48C2F4FB7F894809286
:10283000E9009091E80095FF1DC0282F30E0C21BF1
:10284000D30BF601982F915020F081918093F100E5
:10285000FACFC20ED31E112319F09092E80009C0DE
:102860008091E80085FD06C09092E80011E0209775
:1028700009F010E04FBFC3CF1111C3CF5D9884E6BC
:10288000809361011E141F0444F081E090E0F50183
:102890009383828380E090E001C0C701DF91CF91F4
:1028A0001F910F91FF90EF90DF90CF90BF90AF906E
:1028B0009F908F90089580918C0581110DC082E0CA
:1028C0008093880584E08093890510928B0510928F
:1028D0008A0581E080938C0588E895E0089583E07F
:1028E0008093E9008091F200882319F08AE38093B5
:1028F000E8000895FC018485958597FD0BC09FB77E
:10290000F89482E08093E9008091F2009FBF90E00C
:10291000019608959FB7F89482E08093E900809132
:10292000F2009FBF90E008954091F6055091F705A1
:102930002091F4053091F50542175307B4F49091B6
:10294000E8009570E1F39091E80092FD19C0809342
:10295000F1008091F6059091F70501968F73992704
:10296000892B19F48EEF8093E8008091F605909101
:10297000F70501969093F7058093F60581E0089599
:1029800080E00895DF92EF92FF920F931F93CF9311
:10299000DF93D82E8A017B01E40EF51EEB01CE15E4
:1029A000DF0571F0D7FE03C0FE01849101C088816C
:1029B0000E94941421968111F2CF8FEF9FEF01C0F6
:1029C000C801DF91CF911F910F91FF90EF90DF90A1
:1029D0000895615030F02091F100FC0120830196B0
:1029E000F8CF289884E68093630108950E94C51368
:1029F00090E008950F931F93CF93DF931F92CDB76D
:102A0000DEB78C01FC018485958597FF0EC0CE0151
:102A100001960E949B13019719F4298130E002C0AE
:102A20002FEF3FEFF80135872487F80184859585DE
:102A30000F90DF91CF911F910F910895CF93DF9366
:102A40001F92CDB7DEB7FC018485958597FD05C043
:102A50002FEF3FEF358724870BC0CE0101960E94F0
:102A60009B13019719F4898190E002C08FEF9FEFCB
:102A70000F90DF91CF9108950F931F93CF93DF9322
:102A80001F92CDB7DEB782E0898342E450E06AE26C
:102A900077E180E80E94C2140E945B14DC01129668
:102AA0000D911C9113970115110569F0D801ED9155
:102AB000FC910280F381E02DBE016F5F7F4FC80162
:102AC000099597FF07C089810F90DF91CF911F91E2
:102AD0000F910895F80100851185E5CF1F920F929F
:102AE0000FB60F9211248F939F938091E1009091E4
:102AF000E100937F9093E10083FF0FC01092E90003
:102B000091E09093EB001092EC0092E39093ED0033
:102B10001092640198E09093F00082FF20C093E04F
:102B20009093E9009091F200992319F09AE3909321
:102B3000E80090916101992339F0909161019150E1
:102B400090936101992389F190916301992339F060
:102B500090916301915090936301992341F184FF17
:102B600010C08091E2008E7E81608093E2008091AF
:102B7000E1008F7E8093E100809162018E7E806112
:102B800011C080FF16C08091E2008E7E806180932C
:102B9000E2008091E1008E7E8093E10080916201ED
:102BA0008E7E81608093620104C05D9ACDCF289AA9
:102BB000D6CF9F918F910F900FBE0F901F901895B9
:102BC0001F920F920FB60F921124CF92DF92EF92C5
:102BD000FF920F931F932F933F934F935F936F93A6
:102BE0007F938F939F93AF93BF93EF93FF93CF9375
:102BF000DF93CDB7DEB76C97DEBFCDBF1092E90093
:102C00008091E80083FFEDC168E0CE0145960E9407
:102C1000E91482EF8093E8008D8987FF05C09091C9
:102C2000E80090FFFCCF03C09EEF9093E800982F40
:102C3000907609F0C6C09E892F89188D91110CC01D
:102C4000803829F48091F3058093F10002C010923E
:102C5000F1001092F10048C1422F50E0512B913009
:102C600051F4811141C14130510509F03DC18091BC
:102C7000F3058D7F0BC0933061F4811135C1413074
:102C8000510509F031C18091F30582608093F3050D
:102C90002BC1953041F48091E80080FFFCCF206883
:102CA0002093E30021C1963009F05FC0EB8CFC8CCF
:102CB0001092E9001092F7051092F605123091F586
:102CC0001092F5051092F4050E943C1599E0BE01A2
:102CD0006F5F7F4FDB01E92F1D92EA95E9F799833A
:102CE0001A8391E09E8390EA98879AEF99872091C2
:102CF000F6053091F705275F3F4F3C832B838D838B
:102D00001092E9001092F7051092F605F092F50581
:102D1000E092F40549E050E080E00E94C2140E9475
:102D20003C15E2C0F092F505E092F4050E945B14B8
:102D3000DC011296ED90FC901397E114F10409F474
:102D4000C0C0D701ED91FC910480F581E02DBE015A
:102D50006B5E7F4FC7010995009719F00CF0C4C056
:102D6000C7C0F701E084F184E8CF973009F4C0C010
:102D7000983021F481E08093F100B6C0993009F0D9
:102D8000B3C0837009F0B4C0EFE3F1E081E021E06B
:102D900036E39081992361F08093E9002093EB0062
:102DA00091919093EC003093ED008F5F873089F71D
:102DB0008EE78093EA001092EA008F898093640185
:102DC00093C08B8D9C8D1092E9001092F7051092A4
:102DD000F6059093F5058093F405898D811156C011
:102DE0008E899D89913A59F4813209F081C047E07A
:102DF00050E068E071E080E00E94C21475C091323A
:102E000009F076C0833289F4888D90E0982F882766
:102E10002F89822BA0E0B0E08093100190931101E4
:102E2000A0931201B09313015FC0803269F48091C6
:102E3000E80082FFFCCF67E088E091E00E94E9149F
:102E40008BEF8093E80006C0823209F04DC08F8975
:102E500080930F018091F205882319F0EEEFFAE0DC
:102E600002C0E0E0F8E08091080190910901A09192
:102E70000A01B0910B01803B9440A105B10509F016
:102E80007BC080910F0180FF93C076C00E945B14CD
:102E9000DC0112960D911C9113970115110541F15A
:102EA000D801ED91FC910190F081E02DBE016B5EA7
:102EB0007F4FC8010995811117C0F8010085118560
:102EC000ECCF113009F44EC0133091F48F89882370
:102ED00009F445C0823081F440E860E18EE897E172
:102EE0000E94A61F882321F08EEF8093E80079C00E
:102EF00081E28093EB0075C0813029F440E86BE0FB
:102F000082E897E1EDCF833099F70E945B14DC01F2
:102F10001296ED90FC9013978E010F5F1F4F680182
:102F2000E114F10479F0D701ED91FC910680F7816D
:102F3000E02DB801C7010995080F111DF701E084C4
:102F4000F184EECFD8011C92F60101900020E9F740
:102F50003197BF016C197D0940E0C601C1CF6CE615
:102F600077E102C060E777E16115710509F2FB01C5
:102F7000449150E080E840CF0FB6F894A895809136
:102F80006000886180936000109260000FBEA89579
:102F9000EE3F2AE0F20739F08091FE0A9091FF0A95
:102FA00091838083A1CF1092FF0A1092FE0A9CCFDA
:102FB000EE3F8AE0F80731F0808191819093FF0A1B
:102FC0008093FE0A87E797E7918380839BE088E1FF
:102FD0000FB6F894A895809360000FBE90936000A0
:102FE00083CF6C960FB6F894DEBF0FBECDBFDF91D6
:102FF000CF91FF91EF91BF91AF919F918F917F9171
:103000006F915F914F913F912F911F910F91FF9081
:10301000EF90DF90CF900F900FBE0F901F901895FC
:10302000CF93DF93CDB7DEB7AB970FB6F894DEBF83
:103030000FBECDBF789484B5826084BD84B58160B5
:1030400084BD85B5826085BD85B5816085BD809173
:103050006E00816080936E001092810080918100EB
:1030600082608093810080918100816080938100E3
:1030700080918000816080938000809191008260C7
:103080008093910080919100816080939100809164
:1030900090008160809390008091C1008460809353
:1030A000C1008091C10082608093C1008091C10005
:1030B00081608093C1008091C30081608093C300D0
:1030C0008091C00082608093C0008091C2008160C6
:1030D0008093C20080917A00846080937A0080910E
:1030E0007A00826080937A0080917A008160809378
:1030F0007A0080917A00806880937A00109264014F
:103100001092F305109262018091D7008160809344
:10311000D70080EA8093D80089B5806189BD89B5E0
:10312000826089BD09B400FEFDCF61E070E080E0FF
:1031300090E00E94930C8091D8008F7C80618093F6
:10314000D8008091E000807F8093E0008091E100D2
:103150008E7E8093E1008DE08093E200559A209A64
:10316000EEEFFFE7859194918B3F9C4D19F481E040
:103170008093F20581EC80937C0085B1806F85B9E6
:1031800084B1877E84B984B1876E84B95E9A5F9872
:103190008AB1806D8AB9769A6E9881B3806F81BB4F
:1031A000899880B38D7080BB80E58CBD81E08DBD3A
:1031B00085E090E00E94490F5F9A85E090E00E94D0
:1031C000490F5E985C98ECE5F1E08DE08E0F9491EC
:1031D0009EBD00000DB407FEFDCF31968E13F7CFD4
:1031E0005C9A81E88093640080916500816080939F
:1031F000650080E00E9458110E944E0F87FF15C0A5
:103200005C9885EA8EBD00000DB407FEFDCF5C9A88
:103210002E982F982D98809164008062809364008E
:1032200081E083BF889513BEFCCF02E010E00E94CE
:103230004E0F82FF42C02D980E944E0F8478843832
:10324000C9F00E944E0F8471843191F50E94470F9E
:1032500088EC90E00E94490F2E981A83098360E061
:10326000CE0101960E94FD1084EF91E00E94490F6B
:103270002E9A19C00E94470F88EC90E00E94490FD7
:103280002F981A8309836FEFCE0101960E94FD10DB
:1032900084EF91E00E94490F2F9A0E944E0F84788C
:1032A0008438D9F3CECF0E944E0F84718431D9F384
:1032B00088EC90E00E94490FBACF0E94470F82E04D
:1032C00090E00E943F20882331F03E9A3F9A81E0AF
:1032D0008093460104C0109246013E983F9881E0D9
:1032E00090E00E943F2081FF3FC02E9840EFE42EE7
:1032F000FF24FA940E944E0F86FF04C02E9A2F9A44
:103300002D9A32C034E0E316F10411F42E9A2F986E
:1033100081E00E94581100E128E54CEA50E0B70135
:1033200084E190E00E94671180E00E9458118FE0D4
:1033300090E00E94490F8FEFE81AF80A99E1E91628
:10334000F104C1F62F9A2D9880E991E00E94490F6F
:103350000E94470FE0917505F09176050190F0818C
:10336000E02D85E795E0099582E390E00E94490F02
:103370000E944E0F8111F8CF0E94661200E420E8EF
:103380004CEF56E060E070E080E090E00E94671152
:1033900080E00E94581168EB7BE080E090E00E94A2
:1033A000930C80E990E00E943F20182F81E990E083
:1033B0000E943F2010926B0510926A051C3479F42C
:1033C0008A3569F480E190E00E943F2080936A058D
:1033D00081E190E00E943F2080936B0512C080E95C
:1033E00090E09A8389836CE4CE0101960E94FD10DF
:1033F00081E990E09A8389836AE5CE0101960E9473
:10340000FD1080E180937C05FE017996F8A3EF8F93
:103410009E012D5E3F4F3AA329A3CE010D969CA39A
:103420008BA37297FEA3EDA32251310938A72FA3D6
:103430008FB7F8944091470150914801609149013C
:1034400070914A018FBF80917D05342F381B832FE7
:1034500090917E05992329F030937F0510927E0587
:10346000B0C490917C05391748F48F5F891708F034
:10347000A8C481E083BF889513BEA3C4FF24F3943E
:10348000F0927E0540937D058091780590917905B5
:103490000196909379058093780580917A058093C1
:1034A0007B050E944E0F80937A050E946612109150
:1034B0004F01111113C000E420E84CEF56E060E02A
:1034C00070E080E090E00E94671160ED77E080E0BE
:1034D00090E00E94930CF0924F0170C4113009F0FB
:1034E00054C080914E01811108C084E00E9479127D
:1034F000882399F110934E0130C080E10E94791227
:10350000882339F010926B0510926A050E943311DE
:1035100004C084E00E947912811110924E0180E172
:1035200090E0909381058093800501E010E0109376
:1035300083050093820582EF96E00E94841282E464
:1035400090E090938105809380051093830500930C
:10355000820589EE96E00E94841200E420E849EE9C
:1035600052E060E070E080E090E00E94671188E047
:103570000E947912882309F421C410924D011092FF
:103580004C0183E08093050116C4123009F056C344
:103590000E9463108091780580FD06C080914B01E8
:1035A0008F5F817080934B0160910401062E000CA7
:1035B000770B80916E05E12C00E027EA32E047ECC2
:1035C00052E0082E000C990B0E94250E1091030169
:1035D000612F012E000C770B809170052DE232E0F7
:1035E00049E652E0082E000C990B0E94250E6091CE
:1035F0000201062E000C770B80916F052DE232E060
:1036000049E652E0082E000C990B0E94250E1F5F20
:1036100011341CF41093030110C082EF8093030156
:103620006DE370E080E090E00E946F0CDC01CB0164
:103630004A96A11DB11D80937005809102018F5F94
:103640008093020180910301813484F082EF8093A2
:1036500002016DE370E080E090E00E946F0CDC01FD
:10366000CB014A96A11DB11D80936F058091040185
:103670008E5F81341CF48093040110C082EF80932C
:1036800004016DE370E080E090E00E946F0CDC01CB
:10369000CB014A96A11DB11D80936E0500914B018F
:1036A00060910101062E000C770B80910001E02E45
:1036B00021EA31E047EE51E0082E000C990B0E9400
:1036C000250EE12CF12C00E010E020E0A801B7016C
:1036D00085E795E00E94560F0F5F1F4F0A301105D6
:1036E000A1F78FEFE81AF80A90E8E916F10459F704
:1036F00001E010E01093810500938005109383058D
:10370000009382058AE991E00E948412E5E2F0E0EC
:10371000F0938105E0938005109383050093820563
:1037200080914C0190914D010E94F61225E530E008
:1037300030938105209380051093830500938205C3
:1037400083E991E00E94841288E790E090938105DC
:103750008093800510938305009382058091050175
:10376000082E000C990B0E94F61226E0EF8DF8A1AE
:10377000322F11923A95E9F78CE08D8F3BE03E8F26
:1037800080910001082E000C990B05969A8F898F65
:1037900080910101082E000C990B05969C8F8B8F50
:1037A000E9A1FAA1822F11928A95E9F74AE04F8B9D
:1037B000488F80917005082E000C990B05969C8B04
:1037C0008B8B80910301082E000C990B44969E8BE5
:1037D0008D8BEBA1FCA1822F11928A95E9F7498B81
:1037E0004A8B80916F05082E000C990B05969E87D9
:1037F0008D8780910201082E000C990B4496988BBE
:103800008F87EDA1FEA111922A95E9F73B8789E008
:103810008C8780916E05082E000C990B0596E82E7A
:1038200098878F8380910401082E000C990B0596D0
:10383000082F9A878987F8841A852BE039E0498D0B
:103840005A8D6B8D7C8D8D8D9E8D0E945213882399
:1038500029F180914C0190914D01059690934D0175
:1038600080934C0104E610E028E831E044E650E0A3
:103870006AE471E084E690E00E942C1382EF80936A
:1038800004016DE370E080E090E00E946F0CDC01C9
:10389000CB014A96A11DB11D80936E05EB88FC8873
:1038A0000D891E892F89388D498D5A8D6B8D7C8DA0
:1038B0008D8D9E8D0E945213882309F18091050100
:1038C00081508093050104E610E026E031E044E6F3
:1038D00050E066E071E084E690E00E942C1382EFF5
:1038E000809303016DE370E080E090E00E946F0C34
:1038F000DC01CB014A96A11DB11D80937005ED84BA
:10390000FE840F85188929893A89498D5A8D6B8DD6
:103910007C8D8D8D9E8D0E945213882309F180919C
:10392000050181508093050104E610E026E031E0B6
:1039300044E650E066E071E084E690E00E942C13DB
:1039400082EF809302016DE370E080E090E00E94DE
:103950006F0CDC01CB014A96A11DB11D80936F0550
:103960000E944E0F85FF05C08091000183310CF04D
:1039700030C20E944E0F86FF05C0809100018C3539
:103980000CF42BC20E944E0F87FF05C080910101ED
:103990008B300CF026C20E944E0F84FF05C0809130
:1039A000010181330CF421C288E00E94791288233E
:1039B00009F420C104E610E028E831E044E650E0D4
:1039C0006AE471E084E690E00E942C13809101018A
:1039D000682E880F77081301F1E02F1A3108409004
:1039E0000001042C000C550828E0420E511C8BE00D
:1039F00090E08619970997FF03C0919581959109E9
:103A000031E039A71816190644F019A68101342DA2
:103A1000252D12018AE090E008C08BE028163104C1
:103A200044F4C20182013AE020E06101232E322EEB
:103A300005C0C20182013AE0C32ED12C5101AC185D
:103A4000BD084C01801A910A97FE03C0919481949D
:103A500091087501B7FE03C0EFEFEE1AFE0AF59468
:103A6000E7940817190714F08FEF01C081E0282FA1
:103A7000880F330B3BA72AA72C143D04DCF039A593
:103A800021E0332319F0A601B80102C0A801B60154
:103A900085E795E00E94560FE818F908F7FE06C082
:103AA0008AA59BA5080F191FEA0CFB1C9FEFC91ADA
:103AB000D90AE2CF86E0EFA1F8A511928A95E9F73D
:103AC00082E08D8380E48E83442D5A824982C30133
:103AD00080549109682F9C838B83EB88FC880D8927
:103AE0001E892F89388D5A817C8182E090E40E9462
:103AF0005213882329F180914C0190914D010A962F
:103B000090934D0180934C0102E310E02AE431E0F0
:103B100040E550E066E271E084E690E00E942C13FC
:103B200082EF809303016DE370E080E090E00E94FB
:103B30006F0CDC01CB014A96A11DB11D809370056D
:103B4000ED84FE840F85188929893A8949815A8133
:103B50006B817C818D819E810E945213882329F183
:103B600080914C0190914D010A9690934D01809364
:103B70004C0102E310E02AE431E040E550E066E267
:103B800071E084E690E00E942C1382EF80930201A2
:103B90006DE370E080E090E00E946F0CDC01CB01EF
:103BA0004A96A11DB11D80936F05EF80F8840985A9
:103BB0001A852B853C8549815A816B817C818D8159
:103BC0009E810E9452138823A9F080914C0190910C
:103BD0004D010A9790934D0180934C0104E610E04B
:103BE00026E031E044E650E066E071E084E690E0F3
:103BF0000E942C1384E00E947912882379F007E058
:103C000010E028E831E046E450E06AE471E086E440
:103C100090E00E942C1384E080934F0180914C012E
:103C200090914D0197FF04C010924D0110924C01EC
:103C30008091050187FFC2C083E0BEC0133009F048
:103C40008BC080914C0190914D0120916A0530917B
:103C50006B052817390730F490936B0580936A053C
:103C60000E94331129E130E03093810520938005D3
:103C700084E190E0909383058093820585E891E04C
:103C80000E948412E9E1F0E0F0938105E093800561
:103C900028E230E030938305209382058EE791E09F
:103CA0000E9484128CE390E09093810580938005BC
:103CB000E8E2F0E0F0938305E093820580914C0107
:103CC00090914D010E94F61229E130E03093810578
:103CD0002093800582E390E0909383058093820592
:103CE00083E791E00E948412E5E5F0E0F09381051E
:103CF000E093800522E330E0309383052093820532
:103D000060916A0570916B0580E090E04AE00E9446
:103D1000A512E12C00E02DE232E049E652E06AE033
:103D200070E085E090E00E94250E2DE232E049E649
:103D300052E06AE070E08CE690E00E94250E88E098
:103D40000E9479128823D1F181E080934F01109273
:103D50004D0110924C0132C0143081F50E94631065
:103D600085E290E09093810580938005EEE1F0E09C
:103D7000F0938305E093820589E691E00E94841226
:103D8000E12C00E027EA32E047EC52E06BE170E022
:103D90008AE090E00E94250E27EA32E047EC52E0EC
:103DA0006BE170E084E690E00E94250E84E00E94C2
:103DB0007912882319F082E080934F0180E00E94FD
:103DC000581180E090E0892B09F432CB0E9400006A
:103DD0002FCB815080930001CCCD8F5F8093000169
:103DE000D1CD815080930101D6CD8F5F80930101A9
:103DF000DBCD0F931F93CF93DF938C0181E090E095
:103E00000E943F2080FF32C08AE090E00E943F2065
:103E10009FEF980F9E3F50F522E330E0D801509677
:103E20003C932E931F9728E330E052963C932E93B9
:103E30005197CBE0D0E0D801ED91FC910190F08159
:103E4000E02D682FC8010995CE010E943F202196E0
:103E5000C131D10581F780E00E94581188EE93E0CE
:103E6000DF91CF911F910F910C94490FDF91CF916A
:103E70001F910F91089504970C94F91EE4E9F5E061
:103E80001382128288EE93E0A0E0B0E084839583F1
:103E9000A683B7838CE191E0918380838FEF9FEFBE
:103EA00095878487E1E7F5E01382128211861286F6
:103EB00080E183871086178215868EE291E09183D8
:103EC00080838CE391E095838483108A1786128A1D
:103ED000118A81E0838B148A858B168A85E69CE0A3
:103EE00090936D0580936C0580E090E89093F105C8
:103EF0008093F00546983E9A47983F9A6DE370E0AC
:103F000080E090E00E946F0CDC01CB014A96A11D7D
:103F1000B11D809370056DE370E080E090E00E9439
:103F20006F0CDC01CB014A96A11DB11D80936F057A
:103F30006DE370E080E090E00E946F0CDC01CB014B
:103F40004A96A11DB11D80936E050895CF92DF9210
:103F5000EF92FF920F931F93CF93DF931F92CDB7F2
:103F6000DEB7182F062FE42E862F880F8E5F9983D9
:103F70000E94941483E00E949414F12EC12E998122
:103F8000D92E8C2D8F19801798F4F601E7FE02C008
:103F9000849101C080810E949414182F80E00E94B7
:103FA00094148123FFEFCF1ADF0A8111EACF01C0F9
:103FB00081E00F90DF91CF911F910F91FF90EF90D3
:103FC000DF90CF9008958F929F92AF92BF92CF9241
:103FD000DF92EF92FF92CF93DF93EC0168817981BA
:103FE0008A819B81611571058105910521F464E247
:103FF00079ED8BE597E02DE133EF41E050E00E9451
:10400000552049015A019B01AC01A7EAB1E40E9485
:1040100074206B017C01ACEEB4EFA50194010E9409
:104020008220DC01CB018C0D9D1DAE1DBF1DB7FF95
:1040300003C00197A109B04888839983AA83BB83F1
:10404000BC01CD019F77DF91CF91FF90EF90DF9082
:10405000CF90BF90AF909F908F9008950E94E31FE4
:10406000089584E191E00E94E31F08956093140194
:104070007093150180931601909317010895F99993
:10408000FECF92BD81BDF89A992780B50895262F5D
:10409000F999FECF1FBA92BD81BD20BD0FB6F8942D
:1040A000FA9AF99A0FBE01960895052E97FB1EF411
:1040B00000940E946C2057FD07D00E94872007FCC7
:1040C00003D04EF40C946C2050954095309521957A
:1040D0003F4F4F4F5F4F0895909580957095619534
:1040E0007F4F8F4F9F4F08950E94A920A59F900D4D
:1040F000B49F900DA49F800D911D11240895B7FFCA
:104100000C9474200E947420821B930B0895A1E2EA
:104110001A2EAA1BBB1BFD010DC0AA1FBB1FEE1F41
:10412000FF1FA217B307E407F50720F0A21BB30B8C
:10413000E40BF50B661F771F881F991F1A9469F708
:1041400060957095809590959B01AC01BD01CF0164
:104150000895A29FB001B39FC001A39F700D811D60
:104160001124911DB29F700D811D1124911D089580
:10417000EE0FFF1F0590F491E02D099481E090E08F
:0A418000F8940C94C320F894FFCFCC
:10418A003628F2F2F203670000E1000000000000A6
:10419A00FFFFFFFF01000000000000001D11D61301
:1041AA00F6146F147A141E15FA1400000000740F26
:1041BA00FB0B6A0C690CF91EFCFF00003B1F00C1D7
:0641CA00808100000000EE
:2070000055C000006EC000006CC000006AC0000068C0000066C0000064C0000062C0000043
:2070200060C000005EC00000F2C400005AC0000058C0000056C0000054C0000052C00000EE
:2070400050C0000078C000004CC000004AC0000048C0000046C0000044C0000042C00000BE
:2070600040C000003EC000003CC000003AC0000038C0000036C0000034C0000032C0000048
:2070800030C000002EC000002CC000002AC0000028C0000026C0000024C0000022C00000A8
:2070A00020C000001EC000001CC0000011241FBECFEFDAE0DEBFCDBF11E0A0E0B1E0E2E3BC
:2070C000FFE702C005900D92A83AB107D9F711E0A8EAB1E001C01D92AE3BB107E1F78FD30B
:2070E00026C78ECFF89410926F0010928100109285001092840081E085BF15BE47985D9AEB
:20710000289A0C94000008952091B2013091B3012F5F3F4F3093B3012093B201932F37FFA6
:2071200003C08EEF831B982F990F921710F447980895479A08951F920F920FB60F9211246E
:207140002F938F939F93EF93FF9310928500109284008091A8019091A901009741F00197D3
:207160009093A9018093A801892B09F45D9A8091AA019091AB01009741F001979093AB0126
:207180008093AA01892B09F4289AE0E0F0E0859194918F5F9F4F49F08091AC019091AD0151
:2071A00001969093AD018093AC01FF91EF919F918F912F910F900FBE0F901F90189584E0BC
:2071C0008093E9000DC08091E8008B778093E80003C08EB3882351F08091E80082FFF9CFBE
:2071E0008091E80085FFEFCF8091F1000895982F83E08093E9008091E80085FD0DC0809136
:20720000E8008E778093E80003C08EB3882369F08091E80080FFF9CF9093F1005D9884E6CB
:2072200090E09093A9018093A80108954F925F926F927F928F929F92AF92BF92CF92DF921E
:20724000EF92FF920F931F93CF93DF9384E08093E9008091E80082FF57C2289884E690E067
:207260009093AB018093AA01AADF182F853481F48CE49DE19093AD018093AC0107B600FC4B
:20728000FDCFF999FECF81E180935700E89503C0843519F494DF8DE00DC28C34E1F38035F9
:2072A000D1F3843721F484E4A2DF80E003C2813611F489E5FFC18134B1F481DF182F7FDFE3
:2072C00090E0880F991FAA2797FDA095BA2F312F330F20E0442737FD4095542F822B932B68
:2072E000A42BB52BB8C1803711F483E5E3C1833549F4C0E0D1E089917ADF21E0C730D20714
:20730000D1F7D9C1863521F481E371DF80E3D2C1833731F487E86BDF85E969DF8EE1CAC149
:207320008536B9F4E0E0F0E093E085E090935700E89507B600FCFDCF80935700E89507B65D
:2073400000FCFDCFE058FF4FA0E7E030FA0771F7A2CF823739F4E1E0F0E089E08093570024
:207360008491A8C1863439F4E0E0F0E089E08093570084919FC18E3439F4E3E0F0E089E0E5
:2073800080935700849196C1813539F4E2E0F0E089E08093570084918DC1823631F489E521
:2073A00026DF80E024DF80E885C1823419F0873609F0E5C01092AD011092AC0100DF082FE8
:2073C000FEDEF82EFCDE682E8554823008F071C1902F80E0CF2DD0E0C82BD92B10926F00B3
:2073E000173609F04BC081E180935700E895DD24CC24C3943FC0E090AE01F090AF010091CC
:20740000B0011091B101B6E46B16D9F4ED2DF0E0EE29FF29E4918E2FEADEDD2081F082E08D
:2074200090E0A0E0B0E0E80EF91E0A1F1B1FE092AE01F092AF010093B0011093B101DC2470
:2074400018C0D801C701B695A7959795879559D5CEDE82E090E0A0E0B0E0E80EF91E0A1FF2
:207460001B1FE092AE01F092AF010093B0011093B1012197209709F0BECF7DC08090AE01F5
:207480009090AF01A090B001B090B10196E4691609F05DC083E0F40180935700E89507B63E
:2074A00000FCFDCF54C0F6E46F1661F5772031F1E090AE01F090AF010091B0011091B1019E
:2074C0007EDED82ECC24852D90E08C299D29F7010C0140925700E895112482E090E0A0E08B
:2074E000B0E0E80EF91E0A1F1B1FE092AE01F092AF010093B0011093B10102C060DE582E1A
:20750000742423C0E090AE01F090AF010091B0011091B10116950795F794E79450DE682FFA
:20752000C701F7D48091AE019091AF01A091B001B091B1010296A11DB11D8093AE01909349
:20754000AF01A093B001B093B101219704C05524772444244394209709F0A5CF96E46916B6
:2075600041F485E0F40180935700E89507B600FCFDCF8DE03CDE82E080936F009CC0833492
:2075800071F40091AE011091AF0119DE90E021E0F8010C0120935700E89511247CCE8336C8
:2075A00019F5E090AE01F090AF010091B0011091B10105DEF701E16090E021E00C0120938C
:2075C0005700E895112482E090E0A0E0B0E0E80EF91E0A1F1B1FE092AE01F092AF0100936A
:2075E000B0011093B10157CE8D3661F4E091AE01F091AF0185E080935700E89507B600FCF2
:20760000FDCF49CE823551F4E091AE01F091AF0105911491812FEBDD802F4CC0843421F5FE
:20762000E090AE01F090AF010091B0011091B10116950795F794E794C2DD682FC70169D4DE
:207640008091AE019091AF01A091B001B091B1010296A11DB11D8093AE019093AF01A093D8
:20766000B001B093B10117CE843609F5E090AE01F090AF010091B0011091B101D801C70142
:20768000B695A795979587953CD4B1DD82E090E0A0E0B0E0E80EF91E0A1F1B1FE092AE010A
:2076A000F092AF010093B0011093B10104C08B3111F08FE39CDD83E08093E9009091E8002B
:2076C0008091E8008E778093E80095FF04C010C08EB38823C9F08091E80080FFF9CF809193
:2076E000E8008E778093E80003C08EB3882361F08091E80080FFF9CF84E08093E9008091F1
:20770000E8008B778093E800DF91CF911F910F91FF90EF90DF90CF90BF90AF909F908F90AC
:207720007F906F905F904F9008959091B601892F8F77813249F58091B7018032A1F081328A
:2077400019F5913A09F58091E800877F8093E8008DE091E067E070E00BD28091E8008B770B
:207760008093E8000895913279F48091E800877F8093E8008DE091E067E070E05DD2809192
:20778000E8008E778093E800089582E061EC42E0B5D083E061E842E1B1D084E060E842E1EF
:2077A000ADC084B7877F84BF88E10FB6F89480936000109260000FBE20E880E090E00FB63F
:2077C000F89420936100809361000FBE81E085BF92E095BF3F9A209A559AE1E6F0E02083A1
:2077E000108247985D9A289A109289008AEF8093880090936F0083E080938100F0C0409116
:20780000000850910108109201081092000894B714BE88E10FB6F8948093600010926000D5
:207820000FBE292F30E0F901E270F07091FD18C090FF05C0859194918F5F9F4F81F423FFFF
:207840000FC08091090190910A014817590741F0E0E0F0E0859194918F5F9F4F09F042DC64
:20786000A0DF78941092AD011092AC010CC0DEDC36D38091AC019091AD0181549F4110F00D
:207880001092140141DC80911401882381F78091E00081608093E00025DC80E090E0089598
:2078A000FA01923049F0933061F09130F9F485E191E022E130E01EC087E291E02EE330E04D
:2078C00019C0882329F485E691E024E030E012C0813029F489E691E022E230E00BC0823006
:2078E00029F48DE891E028E130E004C080E090E020E030E091838083C90108958093E9004E
:207900008091EB0081608093EB001092ED006093EC004093ED008091EE00881F8827881F62
:2079200008958091B60188238CF403C08EB38823B1F08091E80082FFF9CF8091E8008B772A
:207940008093E80008958EB3882349F08091E80080FFF9CF8091E8008E778093E800089594
:20796000EF92FF920F931F9345D04CD008ED10E0F80180818F77808380818068808380819B
:207980008F7D808319BC1EBA1092B40180EEE82EF12CF70180818B7F8083F8018081816052
:2079A000808380E060E042E0A9DFE1EEF0E080818E7F8083E2EEF0E0808181608083808144
:2079C00088608083F70180818E7F8083F8018081806180831F910F91FF90EF900895E7ED06
:2079E000F0E08081816080838AE482BF81E08093B501B6CFE8EDF0E080818E7F808310921C
:207A0000E20008951092DA001092E10008951F920F920FB60F9211242F933F934F935F93F6
:207A20006F937F938F939F93AF93BF93EF93FF938091DA0080FF1BC08091D80080FF17C0B2
:207A40008091DA008E7F8093DA008091D90080FF0BC080E189BD82E189BD09B400FEFDCF36
:207A600081E08EBB3BD203C019BC1EBA37D28091E10080FF17C08091E20080FF13C0809138
:207A8000E2008E7F8093E2008091E20080618093E2008091D80080628093D80019BC85E049
:207AA0008EBB1CD28091E10084FF2CC08091E20084FF28C080E189BD82E189BD09B400FEC5
:207AC000FDCF8091D8008F7D8093D8008091E1008F7E8093E1008091E2008F7E8093E20012
:207AE0008091E20081608093E2008091B401882331F48091E30087FD02C081E001C084E067
:207B00008EBBECD18091E10083FF21C08091E20083FF1DC08091E100877F8093E10082E06A
:207B20008EBB1092B4018091E1008E7F8093E1008091E2008E7F8093E2008091E2008061E9
:207B40008093E20080E060E042E0D8DEC7D1FF91EF91BF91AF919F918F917F916F915F9130
:207B60004F913F912F910F900FBE0F901F9018959C014091BC015091BD014617570718F49D
:207B8000F90190E044C06115710511F0AB01F8CF8091E8008E778093E80040E050E0F0CF0F
:207BA0008EB3882309F444C0853009F443C08091E80083FF02C081E008958091E80082FD70
:207BC00031C08091E80080FF22C08091F3009091F200782F60E0292F30E0262B372B07C07A
:207BE00081918093F100415050402F5F3F4F4115510519F02830310598F390E02830310566
:207C000009F491E08091E8008E778093E8004115510531F6992321F605C08EB3882341F075
:207C2000853041F08091E80082FFF7CF80E0089582E0089583E008959C016115710529F47C
:207C40008091E8008B778093E800F90126C08EB3882391F1853091F18091E80083FF02C06C
:207C600081E008958091E80082FFF1CF06C08091F10081936150704059F02091F300809191
:207C8000F200322F20E090E0822B932B892B79F78091E8008B778093E80061157105B9F601
:207CA00005C08EB3882341F0853041F08091E80080FFF7CF80E0089582E0089583E00895C2
:207CC0000F931F93DF93CF9300D0CDB7DEB7E6EBF1E08091F100819381E0EE3BF807C9F792
:207CE00024DD8091E80083FFE4C08091B6019091B701953009F46DC0963040F4913081F1A7
:207D0000913070F0933009F0D4C02AC0983009F4A3C0993009F4B2C0963009F0CAC07CC023
:207D2000803809F4C6C0823809F0C3C08091BA0187708093E9008091EB001092E9002091DB
:207D4000E800277F2093E80090E025E0969587952A95E1F781708093F1001092F10087C0D8
:207D6000882319F0823009F0A4C08F71823009F0A0C08091B801882331F52091BA01277097
:207D800009F497C02093E9008091EB0080FF1BC0933021F48091EB00806213C08091EB0018
:207DA00080618093EB0081E090E002C0880F991F2A95E2F78093EA001092EA008091EB00E5
:207DC00088608093EB001092E9008091E800877F51C0882309F06DC01091B8011F770FB79B
:207DE000F8948091E800877F8093E8009ADD8091E80080FFFCCF8091E3008078812B809398
:207E0000E30080688093E300112311F482E001C083E08EBB0FBF4DC08058823008F049C033
:207E20008091B8019091B9016091BA01AE014F5F5F4F36DDBC01009709F43BC08091E8008E
:207E4000877F8093E80089819A8192DE8091E8008B778093E8002DC0803859F58091E800AA
:207E6000877F8093E8008091B4018093F1008091E8008E778093E80054DD1BC08823C9F4CA
:207E80009091B8019230A8F48091E800877F8093E8009093B40145DD8091B401882331F420
:207EA0008091E30087FD02C081E001C084E08EBB6CDC8091E80083FF0AC08091EB0080624E
:207EC0008093EB008091E800877F8093E8000F900F90CF91DF911F910F91089508951F9360
:207EE0008EB3882361F01091E9001092E9008091E80083FF01C0E4DE17701093E9001F916F
:207F00000895F999FECF92BD81BDF89A992780B50895262FF999FECF1FBA92BD81BD20BDBD
:207F20000FB6F894FA9AF99A0FBE01960895F894FFCF4341544552494E4100777700080031
:207F40000000000000080112011001020000084123360001000201000109023E00020100FF
:207F600080320904000001020201000524001001042402040524060001070582030800FF0C
:207F800009040100020A000000070504021000010705830210000104030904220341007216
:207FA000006400750069006E006F0020004C0065006F006E006100720064006F0000001836
:1A7FC00003410072006400750069006E006F0020004C004C004300000000D7
:00000001FF
